{
  "_format": "hh-sol-artifact-1",
  "contractName": "BobaFaucet",
  "sourceName": "contracts/boba-faucet.sol",
  "abi": [
    {
      "inputs": [
        {
          "internalType": "address",
          "name": "_turingHelperAddress",
          "type": "address"
        },
        {
          "internalType": "string",
          "name": "_turingUrl",
          "type": "string"
        },
        {
          "internalType": "address",
          "name": "_BobaAddress",
          "type": "address"
        },
        {
          "internalType": "uint256",
          "name": "_waitingPeriod",
          "type": "uint256"
        },
        {
          "internalType": "uint256",
          "name": "_BobaFaucetAmount",
          "type": "uint256"
        },
        {
          "internalType": "uint256",
          "name": "_ETHFaucetAmount",
          "type": "uint256"
        }
      ],
      "stateMutability": "nonpayable",
      "type": "constructor"
    },
    {
      "anonymous": false,
      "inputs": [
        {
          "indexed": false,
          "internalType": "address",
          "name": "turingHelperAddress",
          "type": "address"
        },
        {
          "indexed": false,
          "internalType": "string",
          "name": "turingUrl",
          "type": "string"
        },
        {
          "indexed": false,
          "internalType": "uint256",
          "name": "waitingPeriod",
          "type": "uint256"
        },
        {
          "indexed": false,
          "internalType": "uint256",
          "name": "BobaFaucetAmount",
          "type": "uint256"
        },
        {
          "indexed": false,
          "internalType": "uint256",
          "name": "ETHFaucetAmount",
          "type": "uint256"
        }
      ],
      "name": "Configure",
      "type": "event"
    },
    {
      "anonymous": false,
      "inputs": [
        {
          "indexed": false,
          "internalType": "bytes32",
          "name": "uuid",
          "type": "bytes32"
        },
        {
          "indexed": false,
          "internalType": "bytes32",
          "name": "key",
          "type": "bytes32"
        },
        {
          "indexed": false,
          "internalType": "address",
          "name": "receiver",
          "type": "address"
        },
        {
          "indexed": false,
          "internalType": "uint256",
          "name": "amount",
          "type": "uint256"
        },
        {
          "indexed": false,
          "internalType": "uint256",
          "name": "timestamp",
          "type": "uint256"
        }
      ],
      "name": "GetBobaFaucet",
      "type": "event"
    },
    {
      "anonymous": false,
      "inputs": [
        {
          "indexed": false,
          "internalType": "bytes32",
          "name": "uuid",
          "type": "bytes32"
        },
        {
          "indexed": false,
          "internalType": "bytes32",
          "name": "key",
          "type": "bytes32"
        },
        {
          "indexed": false,
          "internalType": "address",
          "name": "receiver",
          "type": "address"
        },
        {
          "indexed": false,
          "internalType": "uint256",
          "name": "amount",
          "type": "uint256"
        },
        {
          "indexed": false,
          "internalType": "uint256",
          "name": "timestamp",
          "type": "uint256"
        }
      ],
      "name": "GetETHFaucet",
      "type": "event"
    },
    {
      "anonymous": false,
      "inputs": [
        {
          "indexed": true,
          "internalType": "address",
          "name": "previousOwner",
          "type": "address"
        },
        {
          "indexed": true,
          "internalType": "address",
          "name": "newOwner",
          "type": "address"
        }
      ],
      "name": "OwnershipTransferred",
      "type": "event"
    },
    {
      "anonymous": false,
      "inputs": [
        {
          "indexed": false,
          "internalType": "string",
          "name": "url",
          "type": "string"
        },
        {
          "indexed": false,
          "internalType": "bytes32",
          "name": "uuid",
          "type": "bytes32"
        },
        {
          "indexed": false,
          "internalType": "bytes32",
          "name": "key",
          "type": "bytes32"
        },
        {
          "indexed": false,
          "internalType": "uint256",
          "name": "result",
          "type": "uint256"
        }
      ],
      "name": "VerifyKey",
      "type": "event"
    },
    {
      "anonymous": false,
      "inputs": [
        {
          "indexed": false,
          "internalType": "address",
          "name": "receiver",
          "type": "address"
        },
        {
          "indexed": false,
          "internalType": "address",
          "name": "tokenAddress",
          "type": "address"
        },
        {
          "indexed": false,
          "internalType": "uint256",
          "name": "amount",
          "type": "uint256"
        }
      ],
      "name": "WithdrawToken",
      "type": "event"
    },
    {
      "inputs": [],
      "name": "BobaAddress",
      "outputs": [
        {
          "internalType": "address",
          "name": "",
          "type": "address"
        }
      ],
      "stateMutability": "view",
      "type": "function"
    },
    {
      "inputs": [],
      "name": "BobaFaucetAmount",
      "outputs": [
        {
          "internalType": "uint256",
          "name": "",
          "type": "uint256"
        }
      ],
      "stateMutability": "view",
      "type": "function"
    },
    {
      "inputs": [],
      "name": "ETHAddress",
      "outputs": [
        {
          "internalType": "address",
          "name": "",
          "type": "address"
        }
      ],
      "stateMutability": "view",
      "type": "function"
    },
    {
      "inputs": [],
      "name": "ETHFaucetAmount",
      "outputs": [
        {
          "internalType": "uint256",
          "name": "",
          "type": "uint256"
        }
      ],
      "stateMutability": "view",
      "type": "function"
    },
    {
      "inputs": [
        {
          "internalType": "address",
          "name": "_turingHelperAddress",
          "type": "address"
        },
        {
          "internalType": "string",
          "name": "_turingUrl",
          "type": "string"
        },
        {
          "internalType": "uint256",
          "name": "_waitingPeriod",
          "type": "uint256"
        },
        {
          "internalType": "uint256",
          "name": "_BobaFaucetAmount",
          "type": "uint256"
        },
        {
          "internalType": "uint256",
          "name": "_ETHFaucetAmount",
          "type": "uint256"
        }
      ],
      "name": "configure",
      "outputs": [],
      "stateMutability": "nonpayable",
      "type": "function"
    },
    {
      "inputs": [
        {
          "internalType": "bytes32",
          "name": "_uuid",
          "type": "bytes32"
        },
        {
          "internalType": "string",
          "name": "_key",
          "type": "string"
        }
      ],
      "name": "getBobaFaucet",
      "outputs": [],
      "stateMutability": "nonpayable",
      "type": "function"
    },
    {
      "inputs": [
        {
          "internalType": "bytes32",
          "name": "_uuid",
          "type": "bytes32"
        },
        {
          "internalType": "string",
          "name": "_key",
          "type": "string"
        }
      ],
      "name": "getETHFaucet",
      "outputs": [],
      "stateMutability": "nonpayable",
      "type": "function"
    },
    {
      "inputs": [],
      "name": "owner",
      "outputs": [
        {
          "internalType": "address",
          "name": "",
          "type": "address"
        }
      ],
      "stateMutability": "view",
      "type": "function"
    },
    {
      "inputs": [],
      "name": "renounceOwnership",
      "outputs": [],
      "stateMutability": "nonpayable",
      "type": "function"
    },
    {
      "inputs": [
        {
          "internalType": "address",
          "name": "newOwner",
          "type": "address"
        }
      ],
      "name": "transferOwnership",
      "outputs": [],
      "stateMutability": "nonpayable",
      "type": "function"
    },
    {
      "inputs": [],
      "name": "turing",
      "outputs": [
        {
          "internalType": "contract TuringHelper",
          "name": "",
          "type": "address"
        }
      ],
      "stateMutability": "view",
      "type": "function"
    },
    {
      "inputs": [],
      "name": "turingHelperAddress",
      "outputs": [
        {
          "internalType": "address",
          "name": "",
          "type": "address"
        }
      ],
      "stateMutability": "view",
      "type": "function"
    },
    {
      "inputs": [],
      "name": "turingUrl",
      "outputs": [
        {
          "internalType": "string",
          "name": "",
          "type": "string"
        }
      ],
      "stateMutability": "view",
      "type": "function"
    },
    {
      "inputs": [],
      "name": "waitingPeriod",
      "outputs": [
        {
          "internalType": "uint256",
          "name": "",
          "type": "uint256"
        }
      ],
      "stateMutability": "view",
      "type": "function"
    },
    {
      "inputs": [
        {
          "internalType": "address",
          "name": "_tokenAddress",
          "type": "address"
        },
        {
          "internalType": "uint256",
          "name": "_amount",
          "type": "uint256"
        }
      ],
      "name": "withdrawToken",
      "outputs": [],
      "stateMutability": "nonpayable",
      "type": "function"
    },
    {
      "stateMutability": "payable",
      "type": "receive"
    }
  ],
  "bytecode": "0x6080604052734200000000000000000000000000000000000006600260006101000a81548173ffffffffffffffffffffffffffffffffffffffff021916908373ffffffffffffffffffffffffffffffffffffffff1602179055503480156200006657600080fd5b50604051620029463803806200294683398181016040528101906200008c919062000562565b620000ac620000a0620001a960201b60201c565b620001b160201b60201c565b85600660006101000a81548173ffffffffffffffffffffffffffffffffffffffff021916908373ffffffffffffffffffffffffffffffffffffffff16021790555085600860006101000a81548173ffffffffffffffffffffffffffffffffffffffff021916908373ffffffffffffffffffffffffffffffffffffffff16021790555084600790805190602001906200014692919062000275565b5083600160006101000a81548173ffffffffffffffffffffffffffffffffffffffff021916908373ffffffffffffffffffffffffffffffffffffffff16021790555082600581905550816003819055508060048190555050505050505062000682565b600033905090565b60008060009054906101000a900473ffffffffffffffffffffffffffffffffffffffff169050816000806101000a81548173ffffffffffffffffffffffffffffffffffffffff021916908373ffffffffffffffffffffffffffffffffffffffff1602179055508173ffffffffffffffffffffffffffffffffffffffff168173ffffffffffffffffffffffffffffffffffffffff167f8be0079c531659141344cd1fd0a4f28419497f9722a3daafe3b4186f6b6457e060405160405180910390a35050565b82805462000283906200064c565b90600052602060002090601f016020900481019282620002a75760008555620002f3565b82601f10620002c257805160ff1916838001178555620002f3565b82800160010185558215620002f3579182015b82811115620002f2578251825591602001919060010190620002d5565b5b50905062000302919062000306565b5090565b5b808211156200032157600081600090555060010162000307565b5090565b6000604051905090565b600080fd5b600080fd5b600073ffffffffffffffffffffffffffffffffffffffff82169050919050565b6000620003668262000339565b9050919050565b620003788162000359565b81146200038457600080fd5b50565b60008151905062000398816200036d565b92915050565b600080fd5b600080fd5b6000601f19601f8301169050919050565b7f4e487b7100000000000000000000000000000000000000000000000000000000600052604160045260246000fd5b620003f382620003a8565b810181811067ffffffffffffffff82111715620004155762000414620003b9565b5b80604052505050565b60006200042a62000325565b9050620004388282620003e8565b919050565b600067ffffffffffffffff8211156200045b576200045a620003b9565b5b6200046682620003a8565b9050602081019050919050565b60005b838110156200049357808201518184015260208101905062000476565b83811115620004a3576000848401525b50505050565b6000620004c0620004ba846200043d565b6200041e565b905082815260208101848484011115620004df57620004de620003a3565b5b620004ec84828562000473565b509392505050565b600082601f8301126200050c576200050b6200039e565b5b81516200051e848260208601620004a9565b91505092915050565b6000819050919050565b6200053c8162000527565b81146200054857600080fd5b50565b6000815190506200055c8162000531565b92915050565b60008060008060008060c087890312156200058257620005816200032f565b5b60006200059289828a0162000387565b965050602087015167ffffffffffffffff811115620005b657620005b562000334565b5b620005c489828a01620004f4565b9550506040620005d789828a0162000387565b9450506060620005ea89828a016200054b565b9350506080620005fd89828a016200054b565b92505060a06200061089828a016200054b565b9150509295509295509295565b7f4e487b7100000000000000000000000000000000000000000000000000000000600052602260045260246000fd5b600060028204905060018216806200066557607f821691505b602082108114156200067c576200067b6200061d565b5b50919050565b6122b480620006926000396000f3fe6080604052600436106100ec5760003560e01c80639e281a981161008a578063da228a9b11610059578063da228a9b146102b7578063e98d2c9c146102e2578063f2fde38b1461030b578063f68a959514610334576100f3565b80639e281a981461020f578063a24a431a14610238578063a3b2fce114610261578063b02dc9681461028c576100f3565b8063640c076a116100c6578063640c076a14610177578063715018a6146101a2578063716b719f146101b95780638da5cb5b146101e4576100f3565b80633a2ef9df146100f85780634b5d70ee1461012357806350c897ba1461014c576100f3565b366100f357005b600080fd5b34801561010457600080fd5b5061010d61035f565b60405161011a919061139b565b60405180910390f35b34801561012f57600080fd5b5061014a60048036038101906101459190611546565b610365565b005b34801561015857600080fd5b50610161610548565b60405161016e9190611621565b60405180910390f35b34801561018357600080fd5b5061018c61056e565b604051610199919061139b565b60405180910390f35b3480156101ae57600080fd5b506101b7610574565b005b3480156101c557600080fd5b506101ce6105fc565b6040516101db919061139b565b60405180910390f35b3480156101f057600080fd5b506101f9610602565b604051610206919061165d565b60405180910390f35b34801561021b57600080fd5b50610236600480360381019061023191906116d0565b61062b565b005b34801561024457600080fd5b5061025f600480360381019061025a9190611546565b61081e565b005b34801561026d57600080fd5b50610276610a66565b604051610283919061165d565b60405180910390f35b34801561029857600080fd5b506102a1610a8c565b6040516102ae9190611798565b60405180910390f35b3480156102c357600080fd5b506102cc610b1a565b6040516102d9919061165d565b60405180910390f35b3480156102ee57600080fd5b50610309600480360381019061030491906117ba565b610b40565b005b34801561031757600080fd5b50610332600480360381019061032d9190611851565b610cb0565b005b34801561034057600080fd5b50610349610da8565b604051610356919061165d565b60405180910390f35b60055481565b42600554600960003373ffffffffffffffffffffffffffffffffffffffff1673ffffffffffffffffffffffffffffffffffffffff168152602001908152602001600020546103b391906118ad565b106103f3576040517f08c379a00000000000000000000000000000000000000000000000000000000081526004016103ea9061194f565b60405180910390fd5b60008160405160200161040691906119ab565b604051602081830303815290604052805190602001209050600061042a8483610dce565b90506001811461046f576040517f08c379a000000000000000000000000000000000000000000000000000000000815260040161046690611a0e565b60405180910390fd5b42600960003373ffffffffffffffffffffffffffffffffffffffff1673ffffffffffffffffffffffffffffffffffffffff1681526020019081526020016000208190555061050233600354600160009054906101000a900473ffffffffffffffffffffffffffffffffffffffff1673ffffffffffffffffffffffffffffffffffffffff16610f109092919063ffffffff16565b7e3056eceafb45d8f778948755119406e47409a19bcbc364322027a8b57dcaf78483336003544260405161053a959493929190611a3d565b60405180910390a150505050565b600860009054906101000a900473ffffffffffffffffffffffffffffffffffffffff1681565b60035481565b61057c610f96565b73ffffffffffffffffffffffffffffffffffffffff1661059a610602565b73ffffffffffffffffffffffffffffffffffffffff16146105f0576040517f08c379a00000000000000000000000000000000000000000000000000000000081526004016105e790611adc565b60405180910390fd5b6105fa6000610f9e565b565b60045481565b60008060009054906101000a900473ffffffffffffffffffffffffffffffffffffffff16905090565b610633610f96565b73ffffffffffffffffffffffffffffffffffffffff16610651610602565b73ffffffffffffffffffffffffffffffffffffffff16146106a7576040517f08c379a000000000000000000000000000000000000000000000000000000000815260040161069e90611adc565b60405180910390fd5b600260009054906101000a900473ffffffffffffffffffffffffffffffffffffffff1673ffffffffffffffffffffffffffffffffffffffff168273ffffffffffffffffffffffffffffffffffffffff1614156107b35760003373ffffffffffffffffffffffffffffffffffffffff166117708360405161072690611b2d565b600060405180830381858888f193505050503d8060008114610764576040519150601f19603f3d011682016040523d82523d6000602084013e610769565b606091505b50509050806107ad576040517f08c379a00000000000000000000000000000000000000000000000000000000081526004016107a490611b8e565b60405180910390fd5b506107df565b6107de33828473ffffffffffffffffffffffffffffffffffffffff16610f109092919063ffffffff16565b5b7f037238854fe57fbf51f09946f854fc3916fe83938d6521f09bd05463839f130433838360405161081293929190611bae565b60405180910390a15050565b42600554600a60003373ffffffffffffffffffffffffffffffffffffffff1673ffffffffffffffffffffffffffffffffffffffff1681526020019081526020016000205461086c91906118ad565b106108ac576040517f08c379a00000000000000000000000000000000000000000000000000000000081526004016108a39061194f565b60405180910390fd5b6000816040516020016108bf91906119ab565b60405160208183030381529060405280519060200120905060006108e38483610dce565b905060018114610928576040517f08c379a000000000000000000000000000000000000000000000000000000000815260040161091f90611a0e565b60405180910390fd5b42600a60003373ffffffffffffffffffffffffffffffffffffffff1673ffffffffffffffffffffffffffffffffffffffff1681526020019081526020016000208190555060003373ffffffffffffffffffffffffffffffffffffffff1661177060045460405161099790611b2d565b600060405180830381858888f193505050503d80600081146109d5576040519150601f19603f3d011682016040523d82523d6000602084013e6109da565b606091505b5050905080610a1e576040517f08c379a0000000000000000000000000000000000000000000000000000000008152600401610a1590611b8e565b60405180910390fd5b7f110bbfd6e16fd17456d5a7e34b7b08e601b964ea8d97cd9147572fad78a8420385843360035442604051610a57959493929190611a3d565b60405180910390a15050505050565b600660009054906101000a900473ffffffffffffffffffffffffffffffffffffffff1681565b60078054610a9990611c14565b80601f0160208091040260200160405190810160405280929190818152602001828054610ac590611c14565b8015610b125780601f10610ae757610100808354040283529160200191610b12565b820191906000526020600020905b815481529060010190602001808311610af557829003601f168201915b505050505081565b600260009054906101000a900473ffffffffffffffffffffffffffffffffffffffff1681565b610b48610f96565b73ffffffffffffffffffffffffffffffffffffffff16610b66610602565b73ffffffffffffffffffffffffffffffffffffffff1614610bbc576040517f08c379a0000000000000000000000000000000000000000000000000000000008152600401610bb390611adc565b60405180910390fd5b84600660006101000a81548173ffffffffffffffffffffffffffffffffffffffff021916908373ffffffffffffffffffffffffffffffffffffffff16021790555084600860006101000a81548173ffffffffffffffffffffffffffffffffffffffff021916908373ffffffffffffffffffffffffffffffffffffffff1602179055508360079080519060200190610c549291906112df565b508260058190555081600381905550806004819055507f3c44da52aaa8e8ebd41b9ce36af35c8c8ba250f1cd182451ae7d13d64c6874098585858585604051610ca1959493929190611c46565b60405180910390a15050505050565b610cb8610f96565b73ffffffffffffffffffffffffffffffffffffffff16610cd6610602565b73ffffffffffffffffffffffffffffffffffffffff1614610d2c576040517f08c379a0000000000000000000000000000000000000000000000000000000008152600401610d2390611adc565b60405180910390fd5b600073ffffffffffffffffffffffffffffffffffffffff168173ffffffffffffffffffffffffffffffffffffffff161415610d9c576040517f08c379a0000000000000000000000000000000000000000000000000000000008152600401610d9390611d12565b60405180910390fd5b610da581610f9e565b50565b600160009054906101000a900473ffffffffffffffffffffffffffffffffffffffff1681565b6000808383604051602001610de4929190611d53565b60405160208183030381529060405290506000600860009054906101000a900473ffffffffffffffffffffffffffffffffffffffff1673ffffffffffffffffffffffffffffffffffffffff16632f7adf436007846040518363ffffffff1660e01b8152600401610e55929190611e69565b600060405180830381600087803b158015610e6f57600080fd5b505af1158015610e83573d6000803e3d6000fd5b505050506040513d6000823e3d601f19601f82011682018060405250810190610eac9190611f41565b9050600081806020019051810190610ec49190611f9f565b90507f2cb1dc95af0fef5dd225cdb6dfa0c910713d4e7905c210c08b8a9f81422aab2e6007878784604051610efc9493929190611fcc565b60405180910390a180935050505092915050565b610f918363a9059cbb60e01b8484604051602401610f2f929190612018565b604051602081830303815290604052907bffffffffffffffffffffffffffffffffffffffffffffffffffffffff19166020820180517bffffffffffffffffffffffffffffffffffffffffffffffffffffffff8381831617835250505050611062565b505050565b600033905090565b60008060009054906101000a900473ffffffffffffffffffffffffffffffffffffffff169050816000806101000a81548173ffffffffffffffffffffffffffffffffffffffff021916908373ffffffffffffffffffffffffffffffffffffffff1602179055508173ffffffffffffffffffffffffffffffffffffffff168173ffffffffffffffffffffffffffffffffffffffff167f8be0079c531659141344cd1fd0a4f28419497f9722a3daafe3b4186f6b6457e060405160405180910390a35050565b60006110c4826040518060400160405280602081526020017f5361666545524332303a206c6f772d6c6576656c2063616c6c206661696c65648152508573ffffffffffffffffffffffffffffffffffffffff166111299092919063ffffffff16565b905060008151111561112457808060200190518101906110e49190612079565b611123576040517f08c379a000000000000000000000000000000000000000000000000000000000815260040161111a90612118565b60405180910390fd5b5b505050565b60606111388484600085611141565b90509392505050565b606082471015611186576040517f08c379a000000000000000000000000000000000000000000000000000000000815260040161117d906121aa565b60405180910390fd5b61118f85611255565b6111ce576040517f08c379a00000000000000000000000000000000000000000000000000000000081526004016111c590612216565b60405180910390fd5b6000808673ffffffffffffffffffffffffffffffffffffffff1685876040516111f79190612267565b60006040518083038185875af1925050503d8060008114611234576040519150601f19603f3d011682016040523d82523d6000602084013e611239565b606091505b5091509150611249828286611278565b92505050949350505050565b6000808273ffffffffffffffffffffffffffffffffffffffff163b119050919050565b60608315611288578290506112d8565b60008351111561129b5782518084602001fd5b816040517f08c379a00000000000000000000000000000000000000000000000000000000081526004016112cf9190611798565b60405180910390fd5b9392505050565b8280546112eb90611c14565b90600052602060002090601f01602090048101928261130d5760008555611354565b82601f1061132657805160ff1916838001178555611354565b82800160010185558215611354579182015b82811115611353578251825591602001919060010190611338565b5b5090506113619190611365565b5090565b5b8082111561137e576000816000905550600101611366565b5090565b6000819050919050565b61139581611382565b82525050565b60006020820190506113b0600083018461138c565b92915050565b6000604051905090565b600080fd5b600080fd5b6000819050919050565b6113dd816113ca565b81146113e857600080fd5b50565b6000813590506113fa816113d4565b92915050565b600080fd5b600080fd5b6000601f19601f8301169050919050565b7f4e487b7100000000000000000000000000000000000000000000000000000000600052604160045260246000fd5b6114538261140a565b810181811067ffffffffffffffff821117156114725761147161141b565b5b80604052505050565b60006114856113b6565b9050611491828261144a565b919050565b600067ffffffffffffffff8211156114b1576114b061141b565b5b6114ba8261140a565b9050602081019050919050565b82818337600083830152505050565b60006114e96114e484611496565b61147b565b90508281526020810184848401111561150557611504611405565b5b6115108482856114c7565b509392505050565b600082601f83011261152d5761152c611400565b5b813561153d8482602086016114d6565b91505092915050565b6000806040838503121561155d5761155c6113c0565b5b600061156b858286016113eb565b925050602083013567ffffffffffffffff81111561158c5761158b6113c5565b5b61159885828601611518565b9150509250929050565b600073ffffffffffffffffffffffffffffffffffffffff82169050919050565b6000819050919050565b60006115e76115e26115dd846115a2565b6115c2565b6115a2565b9050919050565b60006115f9826115cc565b9050919050565b600061160b826115ee565b9050919050565b61161b81611600565b82525050565b60006020820190506116366000830184611612565b92915050565b6000611647826115a2565b9050919050565b6116578161163c565b82525050565b6000602082019050611672600083018461164e565b92915050565b6116818161163c565b811461168c57600080fd5b50565b60008135905061169e81611678565b92915050565b6116ad81611382565b81146116b857600080fd5b50565b6000813590506116ca816116a4565b92915050565b600080604083850312156116e7576116e66113c0565b5b60006116f58582860161168f565b9250506020611706858286016116bb565b9150509250929050565b600081519050919050565b600082825260208201905092915050565b60005b8381101561174a57808201518184015260208101905061172f565b83811115611759576000848401525b50505050565b600061176a82611710565b611774818561171b565b935061178481856020860161172c565b61178d8161140a565b840191505092915050565b600060208201905081810360008301526117b2818461175f565b905092915050565b600080600080600060a086880312156117d6576117d56113c0565b5b60006117e48882890161168f565b955050602086013567ffffffffffffffff811115611805576118046113c5565b5b61181188828901611518565b9450506040611822888289016116bb565b9350506060611833888289016116bb565b9250506080611844888289016116bb565b9150509295509295909350565b600060208284031215611867576118666113c0565b5b60006118758482850161168f565b91505092915050565b7f4e487b7100000000000000000000000000000000000000000000000000000000600052601160045260246000fd5b60006118b882611382565b91506118c383611382565b9250827fffffffffffffffffffffffffffffffffffffffffffffffffffffffffffffffff038211156118f8576118f761187e565b5b828201905092915050565b7f496e76616c696420726571756573740000000000000000000000000000000000600082015250565b6000611939600f8361171b565b915061194482611903565b602082019050919050565b600060208201905081810360008301526119688161192c565b9050919050565b600081905092915050565b600061198582611710565b61198f818561196f565b935061199f81856020860161172c565b80840191505092915050565b60006119b7828461197a565b915081905092915050565b7f496e76616c6964206b657920616e642055554944000000000000000000000000600082015250565b60006119f860148361171b565b9150611a03826119c2565b602082019050919050565b60006020820190508181036000830152611a27816119eb565b9050919050565b611a37816113ca565b82525050565b600060a082019050611a526000830188611a2e565b611a5f6020830187611a2e565b611a6c604083018661164e565b611a79606083018561138c565b611a86608083018461138c565b9695505050505050565b7f4f776e61626c653a2063616c6c6572206973206e6f7420746865206f776e6572600082015250565b6000611ac660208361171b565b9150611ad182611a90565b602082019050919050565b60006020820190508181036000830152611af581611ab9565b9050919050565b600081905092915050565b50565b6000611b17600083611afc565b9150611b2282611b07565b600082019050919050565b6000611b3882611b0a565b9150819050919050565b7f4661696c656420746f2073656e64206f45746800000000000000000000000000600082015250565b6000611b7860138361171b565b9150611b8382611b42565b602082019050919050565b60006020820190508181036000830152611ba781611b6b565b9050919050565b6000606082019050611bc3600083018661164e565b611bd0602083018561164e565b611bdd604083018461138c565b949350505050565b7f4e487b7100000000000000000000000000000000000000000000000000000000600052602260045260246000fd5b60006002820490506001821680611c2c57607f821691505b60208210811415611c4057611c3f611be5565b5b50919050565b600060a082019050611c5b600083018861164e565b8181036020830152611c6d818761175f565b9050611c7c604083018661138c565b611c89606083018561138c565b611c96608083018461138c565b9695505050505050565b7f4f776e61626c653a206e6577206f776e657220697320746865207a65726f206160008201527f6464726573730000000000000000000000000000000000000000000000000000602082015250565b6000611cfc60268361171b565b9150611d0782611ca0565b604082019050919050565b60006020820190508181036000830152611d2b81611cef565b9050919050565b6000819050919050565b611d4d611d48826113ca565b611d32565b82525050565b6000611d5f8285611d3c565b602082019150611d6f8284611d3c565b6020820191508190509392505050565b60008190508160005260206000209050919050565b60008154611da181611c14565b611dab818661171b565b94506001821660008114611dc65760018114611dd857611e0b565b60ff1983168652602086019350611e0b565b611de185611d7f565b60005b83811015611e0357815481890152600182019150602081019050611de4565b808801955050505b50505092915050565b600081519050919050565b600082825260208201905092915050565b6000611e3b82611e14565b611e458185611e1f565b9350611e5581856020860161172c565b611e5e8161140a565b840191505092915050565b60006040820190508181036000830152611e838185611d94565b90508181036020830152611e978184611e30565b90509392505050565b600067ffffffffffffffff821115611ebb57611eba61141b565b5b611ec48261140a565b9050602081019050919050565b6000611ee4611edf84611ea0565b61147b565b905082815260208101848484011115611f0057611eff611405565b5b611f0b84828561172c565b509392505050565b600082601f830112611f2857611f27611400565b5b8151611f38848260208601611ed1565b91505092915050565b600060208284031215611f5757611f566113c0565b5b600082015167ffffffffffffffff811115611f7557611f746113c5565b5b611f8184828501611f13565b91505092915050565b600081519050611f99816116a4565b92915050565b600060208284031215611fb557611fb46113c0565b5b6000611fc384828501611f8a565b91505092915050565b60006080820190508181036000830152611fe68187611d94565b9050611ff56020830186611a2e565b6120026040830185611a2e565b61200f606083018461138c565b95945050505050565b600060408201905061202d600083018561164e565b61203a602083018461138c565b9392505050565b60008115159050919050565b61205681612041565b811461206157600080fd5b50565b6000815190506120738161204d565b92915050565b60006020828403121561208f5761208e6113c0565b5b600061209d84828501612064565b91505092915050565b7f5361666545524332303a204552433230206f7065726174696f6e20646964206e60008201527f6f74207375636365656400000000000000000000000000000000000000000000602082015250565b6000612102602a8361171b565b915061210d826120a6565b604082019050919050565b60006020820190508181036000830152612131816120f5565b9050919050565b7f416464726573733a20696e73756666696369656e742062616c616e636520666f60008201527f722063616c6c0000000000000000000000000000000000000000000000000000602082015250565b600061219460268361171b565b915061219f82612138565b604082019050919050565b600060208201905081810360008301526121c381612187565b9050919050565b7f416464726573733a2063616c6c20746f206e6f6e2d636f6e7472616374000000600082015250565b6000612200601d8361171b565b915061220b826121ca565b602082019050919050565b6000602082019050818103600083015261222f816121f3565b9050919050565b600061224182611e14565b61224b8185611afc565b935061225b81856020860161172c565b80840191505092915050565b60006122738284612236565b91508190509291505056fea264697066735822122023fb27982fb502a13a3197e73253f54f7c3243e4e3113276a09acf2415a438c864736f6c63430008090033",
  "linkReferences": {},
  "deployedLinkReferences": {}
}