{
  "contracts/Travel.sol": {
    "TravelEscrow": {
      "abi": [
        {
          "inputs": [
            {
              "internalType": "address[]",
              "name": "_authorizedTravellers",
              "type": "address[]"
            },
            {
              "internalType": "string",
              "name": "_hotelSelected",
              "type": "string"
            },
            {
              "internalType": "uint256",
              "name": "_timeForPayment",
              "type": "uint256"
            },
            {
              "internalType": "uint256",
              "name": "_dateStart",
              "type": "uint256"
            },
            {
              "internalType": "uint256",
              "name": "_numberOfNights",
              "type": "uint256"
            },
            {
              "internalType": "address",
              "name": "_hotelRegistryAddress",
              "type": "address"
            },
            {
              "internalType": "address",
              "name": "_nftIssuerAddress",
              "type": "address"
            },
            {
              "internalType": "uint256",
              "name": "_price",
              "type": "uint256"
            }
          ],
          "stateMutability": "nonpayable",
          "type": "constructor"
        },
        {
          "anonymous": false,
          "inputs": [
            {
              "indexed": false,
              "internalType": "address",
              "name": "traveller",
              "type": "address"
            }
          ],
          "name": "SharePaid",
          "type": "event"
        },
        {
          "inputs": [
            {
              "internalType": "uint256",
              "name": "",
              "type": "uint256"
            }
          ],
          "name": "authorizedTravellers",
          "outputs": [
            {
              "internalType": "address",
              "name": "",
              "type": "address"
            }
          ],
          "stateMutability": "view",
          "type": "function"
        },
        {
          "inputs": [],
          "name": "getAuthorizedTravellers",
          "outputs": [
            {
              "internalType": "address[]",
              "name": "",
              "type": "address[]"
            }
          ],
          "stateMutability": "view",
          "type": "function"
        },
        {
          "inputs": [],
          "name": "getDateStart",
          "outputs": [
            {
              "internalType": "uint256",
              "name": "",
              "type": "uint256"
            }
          ],
          "stateMutability": "view",
          "type": "function"
        },
        {
          "inputs": [],
          "name": "getDates",
          "outputs": [
            {
              "internalType": "uint256",
              "name": "",
              "type": "uint256"
            },
            {
              "internalType": "uint256",
              "name": "",
              "type": "uint256"
            }
          ],
          "stateMutability": "view",
          "type": "function"
        },
        {
          "inputs": [],
          "name": "getHotelName",
          "outputs": [
            {
              "internalType": "string",
              "name": "",
              "type": "string"
            }
          ],
          "stateMutability": "view",
          "type": "function"
        },
        {
          "inputs": [],
          "name": "getNumberOfNights",
          "outputs": [
            {
              "internalType": "uint256",
              "name": "",
              "type": "uint256"
            }
          ],
          "stateMutability": "view",
          "type": "function"
        },
        {
          "inputs": [],
          "name": "getPrice",
          "outputs": [
            {
              "internalType": "uint256",
              "name": "",
              "type": "uint256"
            }
          ],
          "stateMutability": "view",
          "type": "function"
        },
        {
          "inputs": [],
          "name": "getPricePerTraveller",
          "outputs": [
            {
              "internalType": "uint256",
              "name": "",
              "type": "uint256"
            }
          ],
          "stateMutability": "view",
          "type": "function"
        },
        {
          "inputs": [],
          "name": "hasEveryonePaid",
          "outputs": [
            {
              "internalType": "bool",
              "name": "",
              "type": "bool"
            }
          ],
          "stateMutability": "view",
          "type": "function"
        },
        {
          "inputs": [
            {
              "internalType": "address",
              "name": "addressOfTraveller",
              "type": "address"
            }
          ],
          "name": "hasTravellerPaid",
          "outputs": [
            {
              "internalType": "bool",
              "name": "",
              "type": "bool"
            }
          ],
          "stateMutability": "view",
          "type": "function"
        },
        {
          "inputs": [
            {
              "internalType": "address",
              "name": "addressOfTraveller",
              "type": "address"
            }
          ],
          "name": "isTravellerAuthorized",
          "outputs": [
            {
              "internalType": "bool",
              "name": "",
              "type": "bool"
            }
          ],
          "stateMutability": "view",
          "type": "function"
        },
        {
          "inputs": [],
          "name": "numberOfPaidTravellers",
          "outputs": [
            {
              "internalType": "uint256",
              "name": "",
              "type": "uint256"
            }
          ],
          "stateMutability": "view",
          "type": "function"
        },
        {
          "inputs": [],
          "name": "numberOfTravellers",
          "outputs": [
            {
              "internalType": "uint256",
              "name": "",
              "type": "uint256"
            }
          ],
          "stateMutability": "view",
          "type": "function"
        },
        {
          "inputs": [],
          "name": "payShare",
          "outputs": [
            {
              "internalType": "bool",
              "name": "",
              "type": "bool"
            }
          ],
          "stateMutability": "payable",
          "type": "function"
        },
        {
          "inputs": [],
          "name": "pricePerTraveller",
          "outputs": [
            {
              "internalType": "uint256",
              "name": "",
              "type": "uint256"
            }
          ],
          "stateMutability": "view",
          "type": "function"
        },
        {
          "inputs": [],
          "name": "sendPaymentToHotel",
          "outputs": [],
          "stateMutability": "nonpayable",
          "type": "function"
        },
        {
          "inputs": [],
          "name": "withdrawShare",
          "outputs": [],
          "stateMutability": "nonpayable",
          "type": "function"
        }
      ],
      "evm": {
        "bytecode": {
          "linkReferences": {},
          "object": "60806040523480156200001157600080fd5b5060405162001f7f38038062001f7f8339818101604052810190620000379190620005f0565b82600d60006101000a81548173ffffffffffffffffffffffffffffffffffffffff021916908373ffffffffffffffffffffffffffffffffffffffff16021790555081600e60006101000a81548173ffffffffffffffffffffffffffffffffffffffff021916908373ffffffffffffffffffffffffffffffffffffffff1602179055508542620000c7919062000875565b60028190555033600c60006101000a81548173ffffffffffffffffffffffffffffffffffffffff021916908373ffffffffffffffffffffffffffffffffffffffff16021790555086600090805190602001906200012692919062000343565b50600d60009054906101000a900473ffffffffffffffffffffffffffffffffffffffff1673ffffffffffffffffffffffffffffffffffffffff16638e61514e60006040518263ffffffff1660e01b81526004016200018591906200079d565b602060405180830381600087803b158015620001a057600080fd5b505af1158015620001b5573d6000803e3d6000fd5b505050506040513d601f19601f82011682018060405250810190620001db9190620005c4565b600160006101000a81548173ffffffffffffffffffffffffffffffffffffffff021916908373ffffffffffffffffffffffffffffffffffffffff16021790555083600160009054906101000a900473ffffffffffffffffffffffffffffffffffffffff1673ffffffffffffffffffffffffffffffffffffffff1663ce68ff326040518163ffffffff1660e01b8152600401602060405180830381600087803b1580156200028757600080fd5b505af11580156200029c573d6000803e3d6000fd5b505050506040513d601f19601f82011682018060405250810190620002c29190620006e5565b620002ce91906200090a565b6005819055506002600554620002e59190620008d2565b600b81905550876008908051906020019062000303929190620003d4565b506000600a60006101000a81548160ff02191690831515021790555083600481905550846003819055508751600781905550505050505050505062000b4c565b8280546200035190620009df565b90600052602060002090601f016020900481019282620003755760008555620003c1565b82601f106200039057805160ff1916838001178555620003c1565b82800160010185558215620003c1579182015b82811115620003c0578251825591602001919060010190620003a3565b5b509050620003d0919062000463565b5090565b82805482825590600052602060002090810192821562000450579160200282015b828111156200044f5782518260006101000a81548173ffffffffffffffffffffffffffffffffffffffff021916908373ffffffffffffffffffffffffffffffffffffffff16021790555091602001919060010190620003f5565b5b5090506200045f919062000463565b5090565b5b808211156200047e57600081600090555060010162000464565b5090565b6000620004996200049384620007ea565b620007c1565b90508083825260208201905082856020860282011115620004b957600080fd5b60005b85811015620004ed5781620004d288826200053c565b845260208401935060208301925050600181019050620004bc565b5050509392505050565b60006200050e620005088462000819565b620007c1565b9050828152602081018484840111156200052757600080fd5b62000534848285620009a9565b509392505050565b6000815190506200054d8162000b18565b92915050565b600082601f8301126200056557600080fd5b81516200057784826020860162000482565b91505092915050565b600082601f8301126200059257600080fd5b8151620005a4848260208601620004f7565b91505092915050565b600081519050620005be8162000b32565b92915050565b600060208284031215620005d757600080fd5b6000620005e7848285016200053c565b91505092915050565b600080600080600080600080610100898b0312156200060e57600080fd5b600089015167ffffffffffffffff8111156200062957600080fd5b620006378b828c0162000553565b985050602089015167ffffffffffffffff8111156200065557600080fd5b620006638b828c0162000580565b9750506040620006768b828c01620005ad565b9650506060620006898b828c01620005ad565b95505060806200069c8b828c01620005ad565b94505060a0620006af8b828c016200053c565b93505060c0620006c28b828c016200053c565b92505060e0620006d58b828c01620005ad565b9150509295985092959890939650565b600060208284031215620006f857600080fd5b60006200070884828501620005ad565b91505092915050565b600081546200072081620009df565b6200072c818662000864565b945060018216600081146200074a57600181146200075d5762000794565b60ff198316865260208601935062000794565b62000768856200084f565b60005b838110156200078c578154818901526001820191506020810190506200076b565b808801955050505b50505092915050565b60006020820190508181036000830152620007b9818462000711565b905092915050565b6000620007cd620007e0565b9050620007db828262000a15565b919050565b6000604051905090565b600067ffffffffffffffff82111562000808576200080762000ad8565b5b602082029050602081019050919050565b600067ffffffffffffffff82111562000837576200083662000ad8565b5b620008428262000b07565b9050602081019050919050565b60008190508160005260206000209050919050565b600082825260208201905092915050565b600062000882826200099f565b91506200088f836200099f565b9250827fffffffffffffffffffffffffffffffffffffffffffffffffffffffffffffffff03821115620008c757620008c662000a4b565b5b828201905092915050565b6000620008df826200099f565b9150620008ec836200099f565b925082620008ff57620008fe62000a7a565b5b828204905092915050565b600062000917826200099f565b915062000924836200099f565b9250817fffffffffffffffffffffffffffffffffffffffffffffffffffffffffffffffff048311821515161562000960576200095f62000a4b565b5b828202905092915050565b600062000978826200097f565b9050919050565b600073ffffffffffffffffffffffffffffffffffffffff82169050919050565b6000819050919050565b60005b83811015620009c9578082015181840152602081019050620009ac565b83811115620009d9576000848401525b50505050565b60006002820490506001821680620009f857607f821691505b6020821081141562000a0f5762000a0e62000aa9565b5b50919050565b62000a208262000b07565b810181811067ffffffffffffffff8211171562000a425762000a4162000ad8565b5b80604052505050565b7f4e487b7100000000000000000000000000000000000000000000000000000000600052601160045260246000fd5b7f4e487b7100000000000000000000000000000000000000000000000000000000600052601260045260246000fd5b7f4e487b7100000000000000000000000000000000000000000000000000000000600052602260045260246000fd5b7f4e487b7100000000000000000000000000000000000000000000000000000000600052604160045260246000fd5b6000601f19601f8301169050919050565b62000b23816200096b565b811462000b2f57600080fd5b50565b62000b3d816200099f565b811462000b4957600080fd5b50565b6114238062000b5c6000396000f3fe6080604052600436106100fe5760003560e01c8063a69ea1b311610095578063beae494b11610064578063beae494b146102f7578063dae86fd114610322578063eb9650021461035f578063f3668b9d1461038a578063f863f4d2146103b5576100fe565b8063a69ea1b314610227578063ab07cdf614610264578063b9b6a55d1461028f578063b9dd3b0c146102cc576100fe565b806324349671116100d1578063243496711461019c578063263c2c64146101b357806398d5fdca146101de57806399c571e714610209576100fe565b80630e21fe0e14610103578063164418131461011a5780631e6067521461014657806323a0664a14610171575b600080fd5b34801561010f57600080fd5b506101186103e0565b005b34801561012657600080fd5b5061012f61047c565b60405161013d929190610fad565b60405180910390f35b34801561015257600080fd5b5061015b61048d565b6040516101689190610f92565b60405180910390f35b34801561017d57600080fd5b50610186610493565b6040516101939190610f92565b60405180910390f35b3480156101a857600080fd5b506101b161049d565b005b3480156101bf57600080fd5b506101c86106c2565b6040516101d59190610e55565b60405180910390f35b3480156101ea57600080fd5b506101f36106d5565b6040516102009190610f92565b60405180910390f35b6102116106df565b60405161021e9190610e55565b60405180910390f35b34801561023357600080fd5b5061024e60048036038101906102499190610bc3565b6108f3565b60405161025b9190610e55565b60405180910390f35b34801561027057600080fd5b50610279610949565b6040516102869190610e33565b60405180910390f35b34801561029b57600080fd5b506102b660048036038101906102b19190610bc3565b6109d7565b6040516102c39190610e55565b60405180910390f35b3480156102d857600080fd5b506102e1610aa8565b6040516102ee9190610f92565b60405180910390f35b34801561030357600080fd5b5061030c610ab2565b6040516103199190610f92565b60405180910390f35b34801561032e57600080fd5b5061034960048036038101906103449190610bec565b610abc565b6040516103569190610e18565b60405180910390f35b34801561036b57600080fd5b50610374610afb565b6040516103819190610f92565b60405180910390f35b34801561039657600080fd5b5061039f610b01565b6040516103ac9190610e70565b60405180910390f35b3480156103c157600080fd5b506103ca610b93565b6040516103d79190610f92565b60405180910390f35b600160009054906101000a900473ffffffffffffffffffffffffffffffffffffffff1673ffffffffffffffffffffffffffffffffffffffff16637b1cc2096005546003546004546007546040518563ffffffff1660e01b815260040161044893929190610fd6565b6000604051808303818588803b15801561046157600080fd5b505af1158015610475573d6000803e3d6000fd5b5050505050565b600080600354600454915091509091565b600b5481565b6000600b54905090565b600a60009054906101000a900460ff16156104ed576040517f08c379a00000000000000000000000000000000000000000000000000000000081526004016104e490610f32565b60405180910390fd5b6002544211610531576040517f08c379a000000000000000000000000000000000000000000000000000000000815260040161052890610f12565b60405180910390fd5b61053a336109d7565b610579576040517f08c379a000000000000000000000000000000000000000000000000000000000815260040161057090610ef2565b60405180910390fd5b600960003373ffffffffffffffffffffffffffffffffffffffff1673ffffffffffffffffffffffffffffffffffffffff16815260200190815260200160002060009054906101000a900460ff16610605576040517f08c379a00000000000000000000000000000000000000000000000000000000081526004016105fc90610e92565b60405180910390fd5b6000600960003373ffffffffffffffffffffffffffffffffffffffff1673ffffffffffffffffffffffffffffffffffffffff16815260200190815260200160002060006101000a81548160ff02191690831515021790555060016006600082825461067091906110b8565b925050819055503373ffffffffffffffffffffffffffffffffffffffff166108fc600b549081150290604051600060405180830381858888f193505050501580156106bf573d6000803e3d6000fd5b50565b600a60009054906101000a900460ff1681565b6000600554905090565b6000600a60009054906101000a900460ff1615610731576040517f08c379a000000000000000000000000000000000000000000000000000000000815260040161072890610eb2565b60405180910390fd5b3361073b816109d7565b61077a576040517f08c379a000000000000000000000000000000000000000000000000000000000815260040161077190610f72565b60405180910390fd5b33610784816108f3565b156107c4576040517f08c379a00000000000000000000000000000000000000000000000000000000081526004016107bb90610f52565b60405180910390fd5b600b543414610808576040517f08c379a00000000000000000000000000000000000000000000000000000000081526004016107ff90610ed2565b60405180910390fd5b6001600960003373ffffffffffffffffffffffffffffffffffffffff1673ffffffffffffffffffffffffffffffffffffffff16815260200190815260200160002060006101000a81548160ff0219169083151502179055506001600660008282546108739190611062565b925050819055507f069070702eb0e9e0cb68f3c9604d7db163b6535ddeb13a5a0fb297223ebb5c6d336040516108a99190610e18565b60405180910390a160075460065414156108e9576001600a60006101000a81548160ff0219169083151502179055506108e06103e0565b600192506108ee565b600092505b505090565b6000600960008373ffffffffffffffffffffffffffffffffffffffff1673ffffffffffffffffffffffffffffffffffffffff16815260200190815260200160002060009054906101000a900460ff169050919050565b606060088054806020026020016040519081016040528092919081815260200182805480156109cd57602002820191906000526020600020905b8160009054906101000a900473ffffffffffffffffffffffffffffffffffffffff1673ffffffffffffffffffffffffffffffffffffffff1681526020019060010190808311610983575b5050505050905090565b6000806000905060005b600880549050811015610a9e578373ffffffffffffffffffffffffffffffffffffffff1660088281548110610a3f577f4e487b7100000000000000000000000000000000000000000000000000000000600052603260045260246000fd5b9060005260206000200160009054906101000a900473ffffffffffffffffffffffffffffffffffffffff1673ffffffffffffffffffffffffffffffffffffffff161415610a8b57600191505b8080610a9690611199565b9150506109e1565b5080915050919050565b6000600354905090565b6000600454905090565b60088181548110610acc57600080fd5b906000526020600020016000915054906101000a900473ffffffffffffffffffffffffffffffffffffffff1681565b60065481565b606060008054610b1090611167565b80601f0160208091040260200160405190810160405280929190818152602001828054610b3c90611167565b8015610b895780601f10610b5e57610100808354040283529160200191610b89565b820191906000526020600020905b815481529060010190602001808311610b6c57829003601f168201915b5050505050905090565b60075481565b600081359050610ba8816113bf565b92915050565b600081359050610bbd816113d6565b92915050565b600060208284031215610bd557600080fd5b6000610be384828501610b99565b91505092915050565b600060208284031215610bfe57600080fd5b6000610c0c84828501610bae565b91505092915050565b6000610c218383610c2d565b60208301905092915050565b610c36816110ec565b82525050565b610c45816110ec565b82525050565b6000610c568261101d565b610c608185611040565b9350610c6b8361100d565b8060005b83811015610c9c578151610c838882610c15565b9750610c8e83611033565b925050600181019050610c6f565b5085935050505092915050565b610cb2816110fe565b82525050565b6000610cc382611028565b610ccd8185611051565b9350610cdd818560208601611134565b610ce681611240565b840191505092915050565b6000610cfe601583611051565b9150610d0982611251565b602082019050919050565b6000610d21601983611051565b9150610d2c8261127a565b602082019050919050565b6000610d44602383611051565b9150610d4f826112a3565b604082019050919050565b6000610d67601c83611051565b9150610d72826112f2565b602082019050919050565b6000610d8a601583611051565b9150610d958261131b565b602082019050919050565b6000610dad601d83611051565b9150610db882611344565b602082019050919050565b6000610dd0601a83611051565b9150610ddb8261136d565b602082019050919050565b6000610df3601b83611051565b9150610dfe82611396565b602082019050919050565b610e128161112a565b82525050565b6000602082019050610e2d6000830184610c3c565b92915050565b60006020820190508181036000830152610e4d8184610c4b565b905092915050565b6000602082019050610e6a6000830184610ca9565b92915050565b60006020820190508181036000830152610e8a8184610cb8565b905092915050565b60006020820190508181036000830152610eab81610cf1565b9050919050565b60006020820190508181036000830152610ecb81610d14565b9050919050565b60006020820190508181036000830152610eeb81610d37565b9050919050565b60006020820190508181036000830152610f0b81610d5a565b9050919050565b60006020820190508181036000830152610f2b81610d7d565b9050919050565b60006020820190508181036000830152610f4b81610da0565b9050919050565b60006020820190508181036000830152610f6b81610dc3565b9050919050565b60006020820190508181036000830152610f8b81610de6565b9050919050565b6000602082019050610fa76000830184610e09565b92915050565b6000604082019050610fc26000830185610e09565b610fcf6020830184610e09565b9392505050565b6000606082019050610feb6000830186610e09565b610ff86020830185610e09565b6110056040830184610e09565b949350505050565b6000819050602082019050919050565b600081519050919050565b600081519050919050565b6000602082019050919050565b600082825260208201905092915050565b600082825260208201905092915050565b600061106d8261112a565b91506110788361112a565b9250827fffffffffffffffffffffffffffffffffffffffffffffffffffffffffffffffff038211156110ad576110ac6111e2565b5b828201905092915050565b60006110c38261112a565b91506110ce8361112a565b9250828210156110e1576110e06111e2565b5b828203905092915050565b60006110f78261110a565b9050919050565b60008115159050919050565b600073ffffffffffffffffffffffffffffffffffffffff82169050919050565b6000819050919050565b60005b83811015611152578082015181840152602081019050611137565b83811115611161576000848401525b50505050565b6000600282049050600182168061117f57607f821691505b6020821081141561119357611192611211565b5b50919050565b60006111a48261112a565b91507fffffffffffffffffffffffffffffffffffffffffffffffffffffffffffffffff8214156111d7576111d66111e2565b5b600182019050919050565b7f4e487b7100000000000000000000000000000000000000000000000000000000600052601160045260246000fd5b7f4e487b7100000000000000000000000000000000000000000000000000000000600052602260045260246000fd5b6000601f19601f8301169050919050565b7f5573657220686173206e6f742070616964207965740000000000000000000000600082015250565b7f45766572796f6e652068617320616c7265616479207061696400000000000000600082015250565b7f54726176656c6c6572206d757374207061792074686520726967687420616d6f60008201527f756e740000000000000000000000000000000000000000000000000000000000602082015250565b7f54726176656c6c6572206d75737420626520617574686f72697a656400000000600082015250565b7f546f6f206561726c7920746f2077697468647261770000000000000000000000600082015250565b7f5061796d656e7420616c7265616479206d61646520746f20486f74656c000000600082015250565b7f54726176656c6c65722068617320616c72656164792070616964000000000000600082015250565b7f54726176656c6c6572206973206e6f7420617574686f72697a65640000000000600082015250565b6113c8816110ec565b81146113d357600080fd5b50565b6113df8161112a565b81146113ea57600080fd5b5056fea26469706673582212206a16987e89d074fa4afd815108f75531f9706a7103fac83ae13c66b82648a30e64736f6c63430008040033",
          "opcodes": "PUSH1 0x80 PUSH1 0x40 MSTORE CALLVALUE DUP1 ISZERO PUSH3 0x11 JUMPI PUSH1 0x0 DUP1 REVERT JUMPDEST POP PUSH1 0x40 MLOAD PUSH3 0x1F7F CODESIZE SUB DUP1 PUSH3 0x1F7F DUP4 CODECOPY DUP2 DUP2 ADD PUSH1 0x40 MSTORE DUP2 ADD SWAP1 PUSH3 0x37 SWAP2 SWAP1 PUSH3 0x5F0 JUMP JUMPDEST DUP3 PUSH1 0xD PUSH1 0x0 PUSH2 0x100 EXP DUP2 SLOAD DUP2 PUSH20 0xFFFFFFFFFFFFFFFFFFFFFFFFFFFFFFFFFFFFFFFF MUL NOT AND SWAP1 DUP4 PUSH20 0xFFFFFFFFFFFFFFFFFFFFFFFFFFFFFFFFFFFFFFFF AND MUL OR SWAP1 SSTORE POP DUP2 PUSH1 0xE PUSH1 0x0 PUSH2 0x100 EXP DUP2 SLOAD DUP2 PUSH20 0xFFFFFFFFFFFFFFFFFFFFFFFFFFFFFFFFFFFFFFFF MUL NOT AND SWAP1 DUP4 PUSH20 0xFFFFFFFFFFFFFFFFFFFFFFFFFFFFFFFFFFFFFFFF AND MUL OR SWAP1 SSTORE POP DUP6 TIMESTAMP PUSH3 0xC7 SWAP2 SWAP1 PUSH3 0x875 JUMP JUMPDEST PUSH1 0x2 DUP2 SWAP1 SSTORE POP CALLER PUSH1 0xC PUSH1 0x0 PUSH2 0x100 EXP DUP2 SLOAD DUP2 PUSH20 0xFFFFFFFFFFFFFFFFFFFFFFFFFFFFFFFFFFFFFFFF MUL NOT AND SWAP1 DUP4 PUSH20 0xFFFFFFFFFFFFFFFFFFFFFFFFFFFFFFFFFFFFFFFF AND MUL OR SWAP1 SSTORE POP DUP7 PUSH1 0x0 SWAP1 DUP1 MLOAD SWAP1 PUSH1 0x20 ADD SWAP1 PUSH3 0x126 SWAP3 SWAP2 SWAP1 PUSH3 0x343 JUMP JUMPDEST POP PUSH1 0xD PUSH1 0x0 SWAP1 SLOAD SWAP1 PUSH2 0x100 EXP SWAP1 DIV PUSH20 0xFFFFFFFFFFFFFFFFFFFFFFFFFFFFFFFFFFFFFFFF AND PUSH20 0xFFFFFFFFFFFFFFFFFFFFFFFFFFFFFFFFFFFFFFFF AND PUSH4 0x8E61514E PUSH1 0x0 PUSH1 0x40 MLOAD DUP3 PUSH4 0xFFFFFFFF AND PUSH1 0xE0 SHL DUP2 MSTORE PUSH1 0x4 ADD PUSH3 0x185 SWAP2 SWAP1 PUSH3 0x79D JUMP JUMPDEST PUSH1 0x20 PUSH1 0x40 MLOAD DUP1 DUP4 SUB DUP2 PUSH1 0x0 DUP8 DUP1 EXTCODESIZE ISZERO DUP1 ISZERO PUSH3 0x1A0 JUMPI PUSH1 0x0 DUP1 REVERT JUMPDEST POP GAS CALL ISZERO DUP1 ISZERO PUSH3 0x1B5 JUMPI RETURNDATASIZE PUSH1 0x0 DUP1 RETURNDATACOPY RETURNDATASIZE PUSH1 0x0 REVERT JUMPDEST POP POP POP POP PUSH1 0x40 MLOAD RETURNDATASIZE PUSH1 0x1F NOT PUSH1 0x1F DUP3 ADD AND DUP3 ADD DUP1 PUSH1 0x40 MSTORE POP DUP2 ADD SWAP1 PUSH3 0x1DB SWAP2 SWAP1 PUSH3 0x5C4 JUMP JUMPDEST PUSH1 0x1 PUSH1 0x0 PUSH2 0x100 EXP DUP2 SLOAD DUP2 PUSH20 0xFFFFFFFFFFFFFFFFFFFFFFFFFFFFFFFFFFFFFFFF MUL NOT AND SWAP1 DUP4 PUSH20 0xFFFFFFFFFFFFFFFFFFFFFFFFFFFFFFFFFFFFFFFF AND MUL OR SWAP1 SSTORE POP DUP4 PUSH1 0x1 PUSH1 0x0 SWAP1 SLOAD SWAP1 PUSH2 0x100 EXP SWAP1 DIV PUSH20 0xFFFFFFFFFFFFFFFFFFFFFFFFFFFFFFFFFFFFFFFF AND PUSH20 0xFFFFFFFFFFFFFFFFFFFFFFFFFFFFFFFFFFFFFFFF AND PUSH4 0xCE68FF32 PUSH1 0x40 MLOAD DUP2 PUSH4 0xFFFFFFFF AND PUSH1 0xE0 SHL DUP2 MSTORE PUSH1 0x4 ADD PUSH1 0x20 PUSH1 0x40 MLOAD DUP1 DUP4 SUB DUP2 PUSH1 0x0 DUP8 DUP1 EXTCODESIZE ISZERO DUP1 ISZERO PUSH3 0x287 JUMPI PUSH1 0x0 DUP1 REVERT JUMPDEST POP GAS CALL ISZERO DUP1 ISZERO PUSH3 0x29C JUMPI RETURNDATASIZE PUSH1 0x0 DUP1 RETURNDATACOPY RETURNDATASIZE PUSH1 0x0 REVERT JUMPDEST POP POP POP POP PUSH1 0x40 MLOAD RETURNDATASIZE PUSH1 0x1F NOT PUSH1 0x1F DUP3 ADD AND DUP3 ADD DUP1 PUSH1 0x40 MSTORE POP DUP2 ADD SWAP1 PUSH3 0x2C2 SWAP2 SWAP1 PUSH3 0x6E5 JUMP JUMPDEST PUSH3 0x2CE SWAP2 SWAP1 PUSH3 0x90A JUMP JUMPDEST PUSH1 0x5 DUP2 SWAP1 SSTORE POP PUSH1 0x2 PUSH1 0x5 SLOAD PUSH3 0x2E5 SWAP2 SWAP1 PUSH3 0x8D2 JUMP JUMPDEST PUSH1 0xB DUP2 SWAP1 SSTORE POP DUP8 PUSH1 0x8 SWAP1 DUP1 MLOAD SWAP1 PUSH1 0x20 ADD SWAP1 PUSH3 0x303 SWAP3 SWAP2 SWAP1 PUSH3 0x3D4 JUMP JUMPDEST POP PUSH1 0x0 PUSH1 0xA PUSH1 0x0 PUSH2 0x100 EXP DUP2 SLOAD DUP2 PUSH1 0xFF MUL NOT AND SWAP1 DUP4 ISZERO ISZERO MUL OR SWAP1 SSTORE POP DUP4 PUSH1 0x4 DUP2 SWAP1 SSTORE POP DUP5 PUSH1 0x3 DUP2 SWAP1 SSTORE POP DUP8 MLOAD PUSH1 0x7 DUP2 SWAP1 SSTORE POP POP POP POP POP POP POP POP POP PUSH3 0xB4C JUMP JUMPDEST DUP3 DUP1 SLOAD PUSH3 0x351 SWAP1 PUSH3 0x9DF JUMP JUMPDEST SWAP1 PUSH1 0x0 MSTORE PUSH1 0x20 PUSH1 0x0 KECCAK256 SWAP1 PUSH1 0x1F ADD PUSH1 0x20 SWAP1 DIV DUP2 ADD SWAP3 DUP3 PUSH3 0x375 JUMPI PUSH1 0x0 DUP6 SSTORE PUSH3 0x3C1 JUMP JUMPDEST DUP3 PUSH1 0x1F LT PUSH3 0x390 JUMPI DUP1 MLOAD PUSH1 0xFF NOT AND DUP4 DUP1 ADD OR DUP6 SSTORE PUSH3 0x3C1 JUMP JUMPDEST DUP3 DUP1 ADD PUSH1 0x1 ADD DUP6 SSTORE DUP3 ISZERO PUSH3 0x3C1 JUMPI SWAP2 DUP3 ADD JUMPDEST DUP3 DUP2 GT ISZERO PUSH3 0x3C0 JUMPI DUP3 MLOAD DUP3 SSTORE SWAP2 PUSH1 0x20 ADD SWAP2 SWAP1 PUSH1 0x1 ADD SWAP1 PUSH3 0x3A3 JUMP JUMPDEST JUMPDEST POP SWAP1 POP PUSH3 0x3D0 SWAP2 SWAP1 PUSH3 0x463 JUMP JUMPDEST POP SWAP1 JUMP JUMPDEST DUP3 DUP1 SLOAD DUP3 DUP3 SSTORE SWAP1 PUSH1 0x0 MSTORE PUSH1 0x20 PUSH1 0x0 KECCAK256 SWAP1 DUP2 ADD SWAP3 DUP3 ISZERO PUSH3 0x450 JUMPI SWAP2 PUSH1 0x20 MUL DUP3 ADD JUMPDEST DUP3 DUP2 GT ISZERO PUSH3 0x44F JUMPI DUP3 MLOAD DUP3 PUSH1 0x0 PUSH2 0x100 EXP DUP2 SLOAD DUP2 PUSH20 0xFFFFFFFFFFFFFFFFFFFFFFFFFFFFFFFFFFFFFFFF MUL NOT AND SWAP1 DUP4 PUSH20 0xFFFFFFFFFFFFFFFFFFFFFFFFFFFFFFFFFFFFFFFF AND MUL OR SWAP1 SSTORE POP SWAP2 PUSH1 0x20 ADD SWAP2 SWAP1 PUSH1 0x1 ADD SWAP1 PUSH3 0x3F5 JUMP JUMPDEST JUMPDEST POP SWAP1 POP PUSH3 0x45F SWAP2 SWAP1 PUSH3 0x463 JUMP JUMPDEST POP SWAP1 JUMP JUMPDEST JUMPDEST DUP1 DUP3 GT ISZERO PUSH3 0x47E JUMPI PUSH1 0x0 DUP2 PUSH1 0x0 SWAP1 SSTORE POP PUSH1 0x1 ADD PUSH3 0x464 JUMP JUMPDEST POP SWAP1 JUMP JUMPDEST PUSH1 0x0 PUSH3 0x499 PUSH3 0x493 DUP5 PUSH3 0x7EA JUMP JUMPDEST PUSH3 0x7C1 JUMP JUMPDEST SWAP1 POP DUP1 DUP4 DUP3 MSTORE PUSH1 0x20 DUP3 ADD SWAP1 POP DUP3 DUP6 PUSH1 0x20 DUP7 MUL DUP3 ADD GT ISZERO PUSH3 0x4B9 JUMPI PUSH1 0x0 DUP1 REVERT JUMPDEST PUSH1 0x0 JUMPDEST DUP6 DUP2 LT ISZERO PUSH3 0x4ED JUMPI DUP2 PUSH3 0x4D2 DUP9 DUP3 PUSH3 0x53C JUMP JUMPDEST DUP5 MSTORE PUSH1 0x20 DUP5 ADD SWAP4 POP PUSH1 0x20 DUP4 ADD SWAP3 POP POP PUSH1 0x1 DUP2 ADD SWAP1 POP PUSH3 0x4BC JUMP JUMPDEST POP POP POP SWAP4 SWAP3 POP POP POP JUMP JUMPDEST PUSH1 0x0 PUSH3 0x50E PUSH3 0x508 DUP5 PUSH3 0x819 JUMP JUMPDEST PUSH3 0x7C1 JUMP JUMPDEST SWAP1 POP DUP3 DUP2 MSTORE PUSH1 0x20 DUP2 ADD DUP5 DUP5 DUP5 ADD GT ISZERO PUSH3 0x527 JUMPI PUSH1 0x0 DUP1 REVERT JUMPDEST PUSH3 0x534 DUP5 DUP3 DUP6 PUSH3 0x9A9 JUMP JUMPDEST POP SWAP4 SWAP3 POP POP POP JUMP JUMPDEST PUSH1 0x0 DUP2 MLOAD SWAP1 POP PUSH3 0x54D DUP2 PUSH3 0xB18 JUMP JUMPDEST SWAP3 SWAP2 POP POP JUMP JUMPDEST PUSH1 0x0 DUP3 PUSH1 0x1F DUP4 ADD SLT PUSH3 0x565 JUMPI PUSH1 0x0 DUP1 REVERT JUMPDEST DUP2 MLOAD PUSH3 0x577 DUP5 DUP3 PUSH1 0x20 DUP7 ADD PUSH3 0x482 JUMP JUMPDEST SWAP2 POP POP SWAP3 SWAP2 POP POP JUMP JUMPDEST PUSH1 0x0 DUP3 PUSH1 0x1F DUP4 ADD SLT PUSH3 0x592 JUMPI PUSH1 0x0 DUP1 REVERT JUMPDEST DUP2 MLOAD PUSH3 0x5A4 DUP5 DUP3 PUSH1 0x20 DUP7 ADD PUSH3 0x4F7 JUMP JUMPDEST SWAP2 POP POP SWAP3 SWAP2 POP POP JUMP JUMPDEST PUSH1 0x0 DUP2 MLOAD SWAP1 POP PUSH3 0x5BE DUP2 PUSH3 0xB32 JUMP JUMPDEST SWAP3 SWAP2 POP POP JUMP JUMPDEST PUSH1 0x0 PUSH1 0x20 DUP3 DUP5 SUB SLT ISZERO PUSH3 0x5D7 JUMPI PUSH1 0x0 DUP1 REVERT JUMPDEST PUSH1 0x0 PUSH3 0x5E7 DUP5 DUP3 DUP6 ADD PUSH3 0x53C JUMP JUMPDEST SWAP2 POP POP SWAP3 SWAP2 POP POP JUMP JUMPDEST PUSH1 0x0 DUP1 PUSH1 0x0 DUP1 PUSH1 0x0 DUP1 PUSH1 0x0 DUP1 PUSH2 0x100 DUP10 DUP12 SUB SLT ISZERO PUSH3 0x60E JUMPI PUSH1 0x0 DUP1 REVERT JUMPDEST PUSH1 0x0 DUP10 ADD MLOAD PUSH8 0xFFFFFFFFFFFFFFFF DUP2 GT ISZERO PUSH3 0x629 JUMPI PUSH1 0x0 DUP1 REVERT JUMPDEST PUSH3 0x637 DUP12 DUP3 DUP13 ADD PUSH3 0x553 JUMP JUMPDEST SWAP9 POP POP PUSH1 0x20 DUP10 ADD MLOAD PUSH8 0xFFFFFFFFFFFFFFFF DUP2 GT ISZERO PUSH3 0x655 JUMPI PUSH1 0x0 DUP1 REVERT JUMPDEST PUSH3 0x663 DUP12 DUP3 DUP13 ADD PUSH3 0x580 JUMP JUMPDEST SWAP8 POP POP PUSH1 0x40 PUSH3 0x676 DUP12 DUP3 DUP13 ADD PUSH3 0x5AD JUMP JUMPDEST SWAP7 POP POP PUSH1 0x60 PUSH3 0x689 DUP12 DUP3 DUP13 ADD PUSH3 0x5AD JUMP JUMPDEST SWAP6 POP POP PUSH1 0x80 PUSH3 0x69C DUP12 DUP3 DUP13 ADD PUSH3 0x5AD JUMP JUMPDEST SWAP5 POP POP PUSH1 0xA0 PUSH3 0x6AF DUP12 DUP3 DUP13 ADD PUSH3 0x53C JUMP JUMPDEST SWAP4 POP POP PUSH1 0xC0 PUSH3 0x6C2 DUP12 DUP3 DUP13 ADD PUSH3 0x53C JUMP JUMPDEST SWAP3 POP POP PUSH1 0xE0 PUSH3 0x6D5 DUP12 DUP3 DUP13 ADD PUSH3 0x5AD JUMP JUMPDEST SWAP2 POP POP SWAP3 SWAP6 SWAP9 POP SWAP3 SWAP6 SWAP9 SWAP1 SWAP4 SWAP7 POP JUMP JUMPDEST PUSH1 0x0 PUSH1 0x20 DUP3 DUP5 SUB SLT ISZERO PUSH3 0x6F8 JUMPI PUSH1 0x0 DUP1 REVERT JUMPDEST PUSH1 0x0 PUSH3 0x708 DUP5 DUP3 DUP6 ADD PUSH3 0x5AD JUMP JUMPDEST SWAP2 POP POP SWAP3 SWAP2 POP POP JUMP JUMPDEST PUSH1 0x0 DUP2 SLOAD PUSH3 0x720 DUP2 PUSH3 0x9DF JUMP JUMPDEST PUSH3 0x72C DUP2 DUP7 PUSH3 0x864 JUMP JUMPDEST SWAP5 POP PUSH1 0x1 DUP3 AND PUSH1 0x0 DUP2 EQ PUSH3 0x74A JUMPI PUSH1 0x1 DUP2 EQ PUSH3 0x75D JUMPI PUSH3 0x794 JUMP JUMPDEST PUSH1 0xFF NOT DUP4 AND DUP7 MSTORE PUSH1 0x20 DUP7 ADD SWAP4 POP PUSH3 0x794 JUMP JUMPDEST PUSH3 0x768 DUP6 PUSH3 0x84F JUMP JUMPDEST PUSH1 0x0 JUMPDEST DUP4 DUP2 LT ISZERO PUSH3 0x78C JUMPI DUP2 SLOAD DUP2 DUP10 ADD MSTORE PUSH1 0x1 DUP3 ADD SWAP2 POP PUSH1 0x20 DUP2 ADD SWAP1 POP PUSH3 0x76B JUMP JUMPDEST DUP1 DUP9 ADD SWAP6 POP POP POP JUMPDEST POP POP POP SWAP3 SWAP2 POP POP JUMP JUMPDEST PUSH1 0x0 PUSH1 0x20 DUP3 ADD SWAP1 POP DUP2 DUP2 SUB PUSH1 0x0 DUP4 ADD MSTORE PUSH3 0x7B9 DUP2 DUP5 PUSH3 0x711 JUMP JUMPDEST SWAP1 POP SWAP3 SWAP2 POP POP JUMP JUMPDEST PUSH1 0x0 PUSH3 0x7CD PUSH3 0x7E0 JUMP JUMPDEST SWAP1 POP PUSH3 0x7DB DUP3 DUP3 PUSH3 0xA15 JUMP JUMPDEST SWAP2 SWAP1 POP JUMP JUMPDEST PUSH1 0x0 PUSH1 0x40 MLOAD SWAP1 POP SWAP1 JUMP JUMPDEST PUSH1 0x0 PUSH8 0xFFFFFFFFFFFFFFFF DUP3 GT ISZERO PUSH3 0x808 JUMPI PUSH3 0x807 PUSH3 0xAD8 JUMP JUMPDEST JUMPDEST PUSH1 0x20 DUP3 MUL SWAP1 POP PUSH1 0x20 DUP2 ADD SWAP1 POP SWAP2 SWAP1 POP JUMP JUMPDEST PUSH1 0x0 PUSH8 0xFFFFFFFFFFFFFFFF DUP3 GT ISZERO PUSH3 0x837 JUMPI PUSH3 0x836 PUSH3 0xAD8 JUMP JUMPDEST JUMPDEST PUSH3 0x842 DUP3 PUSH3 0xB07 JUMP JUMPDEST SWAP1 POP PUSH1 0x20 DUP2 ADD SWAP1 POP SWAP2 SWAP1 POP JUMP JUMPDEST PUSH1 0x0 DUP2 SWAP1 POP DUP2 PUSH1 0x0 MSTORE PUSH1 0x20 PUSH1 0x0 KECCAK256 SWAP1 POP SWAP2 SWAP1 POP JUMP JUMPDEST PUSH1 0x0 DUP3 DUP3 MSTORE PUSH1 0x20 DUP3 ADD SWAP1 POP SWAP3 SWAP2 POP POP JUMP JUMPDEST PUSH1 0x0 PUSH3 0x882 DUP3 PUSH3 0x99F JUMP JUMPDEST SWAP2 POP PUSH3 0x88F DUP4 PUSH3 0x99F JUMP JUMPDEST SWAP3 POP DUP3 PUSH32 0xFFFFFFFFFFFFFFFFFFFFFFFFFFFFFFFFFFFFFFFFFFFFFFFFFFFFFFFFFFFFFFFF SUB DUP3 GT ISZERO PUSH3 0x8C7 JUMPI PUSH3 0x8C6 PUSH3 0xA4B JUMP JUMPDEST JUMPDEST DUP3 DUP3 ADD SWAP1 POP SWAP3 SWAP2 POP POP JUMP JUMPDEST PUSH1 0x0 PUSH3 0x8DF DUP3 PUSH3 0x99F JUMP JUMPDEST SWAP2 POP PUSH3 0x8EC DUP4 PUSH3 0x99F JUMP JUMPDEST SWAP3 POP DUP3 PUSH3 0x8FF JUMPI PUSH3 0x8FE PUSH3 0xA7A JUMP JUMPDEST JUMPDEST DUP3 DUP3 DIV SWAP1 POP SWAP3 SWAP2 POP POP JUMP JUMPDEST PUSH1 0x0 PUSH3 0x917 DUP3 PUSH3 0x99F JUMP JUMPDEST SWAP2 POP PUSH3 0x924 DUP4 PUSH3 0x99F JUMP JUMPDEST SWAP3 POP DUP2 PUSH32 0xFFFFFFFFFFFFFFFFFFFFFFFFFFFFFFFFFFFFFFFFFFFFFFFFFFFFFFFFFFFFFFFF DIV DUP4 GT DUP3 ISZERO ISZERO AND ISZERO PUSH3 0x960 JUMPI PUSH3 0x95F PUSH3 0xA4B JUMP JUMPDEST JUMPDEST DUP3 DUP3 MUL SWAP1 POP SWAP3 SWAP2 POP POP JUMP JUMPDEST PUSH1 0x0 PUSH3 0x978 DUP3 PUSH3 0x97F JUMP JUMPDEST SWAP1 POP SWAP2 SWAP1 POP JUMP JUMPDEST PUSH1 0x0 PUSH20 0xFFFFFFFFFFFFFFFFFFFFFFFFFFFFFFFFFFFFFFFF DUP3 AND SWAP1 POP SWAP2 SWAP1 POP JUMP JUMPDEST PUSH1 0x0 DUP2 SWAP1 POP SWAP2 SWAP1 POP JUMP JUMPDEST PUSH1 0x0 JUMPDEST DUP4 DUP2 LT ISZERO PUSH3 0x9C9 JUMPI DUP1 DUP3 ADD MLOAD DUP2 DUP5 ADD MSTORE PUSH1 0x20 DUP2 ADD SWAP1 POP PUSH3 0x9AC JUMP JUMPDEST DUP4 DUP2 GT ISZERO PUSH3 0x9D9 JUMPI PUSH1 0x0 DUP5 DUP5 ADD MSTORE JUMPDEST POP POP POP POP JUMP JUMPDEST PUSH1 0x0 PUSH1 0x2 DUP3 DIV SWAP1 POP PUSH1 0x1 DUP3 AND DUP1 PUSH3 0x9F8 JUMPI PUSH1 0x7F DUP3 AND SWAP2 POP JUMPDEST PUSH1 0x20 DUP3 LT DUP2 EQ ISZERO PUSH3 0xA0F JUMPI PUSH3 0xA0E PUSH3 0xAA9 JUMP JUMPDEST JUMPDEST POP SWAP2 SWAP1 POP JUMP JUMPDEST PUSH3 0xA20 DUP3 PUSH3 0xB07 JUMP JUMPDEST DUP2 ADD DUP2 DUP2 LT PUSH8 0xFFFFFFFFFFFFFFFF DUP3 GT OR ISZERO PUSH3 0xA42 JUMPI PUSH3 0xA41 PUSH3 0xAD8 JUMP JUMPDEST JUMPDEST DUP1 PUSH1 0x40 MSTORE POP POP POP JUMP JUMPDEST PUSH32 0x4E487B7100000000000000000000000000000000000000000000000000000000 PUSH1 0x0 MSTORE PUSH1 0x11 PUSH1 0x4 MSTORE PUSH1 0x24 PUSH1 0x0 REVERT JUMPDEST PUSH32 0x4E487B7100000000000000000000000000000000000000000000000000000000 PUSH1 0x0 MSTORE PUSH1 0x12 PUSH1 0x4 MSTORE PUSH1 0x24 PUSH1 0x0 REVERT JUMPDEST PUSH32 0x4E487B7100000000000000000000000000000000000000000000000000000000 PUSH1 0x0 MSTORE PUSH1 0x22 PUSH1 0x4 MSTORE PUSH1 0x24 PUSH1 0x0 REVERT JUMPDEST PUSH32 0x4E487B7100000000000000000000000000000000000000000000000000000000 PUSH1 0x0 MSTORE PUSH1 0x41 PUSH1 0x4 MSTORE PUSH1 0x24 PUSH1 0x0 REVERT JUMPDEST PUSH1 0x0 PUSH1 0x1F NOT PUSH1 0x1F DUP4 ADD AND SWAP1 POP SWAP2 SWAP1 POP JUMP JUMPDEST PUSH3 0xB23 DUP2 PUSH3 0x96B JUMP JUMPDEST DUP2 EQ PUSH3 0xB2F JUMPI PUSH1 0x0 DUP1 REVERT JUMPDEST POP JUMP JUMPDEST PUSH3 0xB3D DUP2 PUSH3 0x99F JUMP JUMPDEST DUP2 EQ PUSH3 0xB49 JUMPI PUSH1 0x0 DUP1 REVERT JUMPDEST POP JUMP JUMPDEST PUSH2 0x1423 DUP1 PUSH3 0xB5C PUSH1 0x0 CODECOPY PUSH1 0x0 RETURN INVALID PUSH1 0x80 PUSH1 0x40 MSTORE PUSH1 0x4 CALLDATASIZE LT PUSH2 0xFE JUMPI PUSH1 0x0 CALLDATALOAD PUSH1 0xE0 SHR DUP1 PUSH4 0xA69EA1B3 GT PUSH2 0x95 JUMPI DUP1 PUSH4 0xBEAE494B GT PUSH2 0x64 JUMPI DUP1 PUSH4 0xBEAE494B EQ PUSH2 0x2F7 JUMPI DUP1 PUSH4 0xDAE86FD1 EQ PUSH2 0x322 JUMPI DUP1 PUSH4 0xEB965002 EQ PUSH2 0x35F JUMPI DUP1 PUSH4 0xF3668B9D EQ PUSH2 0x38A JUMPI DUP1 PUSH4 0xF863F4D2 EQ PUSH2 0x3B5 JUMPI PUSH2 0xFE JUMP JUMPDEST DUP1 PUSH4 0xA69EA1B3 EQ PUSH2 0x227 JUMPI DUP1 PUSH4 0xAB07CDF6 EQ PUSH2 0x264 JUMPI DUP1 PUSH4 0xB9B6A55D EQ PUSH2 0x28F JUMPI DUP1 PUSH4 0xB9DD3B0C EQ PUSH2 0x2CC JUMPI PUSH2 0xFE JUMP JUMPDEST DUP1 PUSH4 0x24349671 GT PUSH2 0xD1 JUMPI DUP1 PUSH4 0x24349671 EQ PUSH2 0x19C JUMPI DUP1 PUSH4 0x263C2C64 EQ PUSH2 0x1B3 JUMPI DUP1 PUSH4 0x98D5FDCA EQ PUSH2 0x1DE JUMPI DUP1 PUSH4 0x99C571E7 EQ PUSH2 0x209 JUMPI PUSH2 0xFE JUMP JUMPDEST DUP1 PUSH4 0xE21FE0E EQ PUSH2 0x103 JUMPI DUP1 PUSH4 0x16441813 EQ PUSH2 0x11A JUMPI DUP1 PUSH4 0x1E606752 EQ PUSH2 0x146 JUMPI DUP1 PUSH4 0x23A0664A EQ PUSH2 0x171 JUMPI JUMPDEST PUSH1 0x0 DUP1 REVERT JUMPDEST CALLVALUE DUP1 ISZERO PUSH2 0x10F JUMPI PUSH1 0x0 DUP1 REVERT JUMPDEST POP PUSH2 0x118 PUSH2 0x3E0 JUMP JUMPDEST STOP JUMPDEST CALLVALUE DUP1 ISZERO PUSH2 0x126 JUMPI PUSH1 0x0 DUP1 REVERT JUMPDEST POP PUSH2 0x12F PUSH2 0x47C JUMP JUMPDEST PUSH1 0x40 MLOAD PUSH2 0x13D SWAP3 SWAP2 SWAP1 PUSH2 0xFAD JUMP JUMPDEST PUSH1 0x40 MLOAD DUP1 SWAP2 SUB SWAP1 RETURN JUMPDEST CALLVALUE DUP1 ISZERO PUSH2 0x152 JUMPI PUSH1 0x0 DUP1 REVERT JUMPDEST POP PUSH2 0x15B PUSH2 0x48D JUMP JUMPDEST PUSH1 0x40 MLOAD PUSH2 0x168 SWAP2 SWAP1 PUSH2 0xF92 JUMP JUMPDEST PUSH1 0x40 MLOAD DUP1 SWAP2 SUB SWAP1 RETURN JUMPDEST CALLVALUE DUP1 ISZERO PUSH2 0x17D JUMPI PUSH1 0x0 DUP1 REVERT JUMPDEST POP PUSH2 0x186 PUSH2 0x493 JUMP JUMPDEST PUSH1 0x40 MLOAD PUSH2 0x193 SWAP2 SWAP1 PUSH2 0xF92 JUMP JUMPDEST PUSH1 0x40 MLOAD DUP1 SWAP2 SUB SWAP1 RETURN JUMPDEST CALLVALUE DUP1 ISZERO PUSH2 0x1A8 JUMPI PUSH1 0x0 DUP1 REVERT JUMPDEST POP PUSH2 0x1B1 PUSH2 0x49D JUMP JUMPDEST STOP JUMPDEST CALLVALUE DUP1 ISZERO PUSH2 0x1BF JUMPI PUSH1 0x0 DUP1 REVERT JUMPDEST POP PUSH2 0x1C8 PUSH2 0x6C2 JUMP JUMPDEST PUSH1 0x40 MLOAD PUSH2 0x1D5 SWAP2 SWAP1 PUSH2 0xE55 JUMP JUMPDEST PUSH1 0x40 MLOAD DUP1 SWAP2 SUB SWAP1 RETURN JUMPDEST CALLVALUE DUP1 ISZERO PUSH2 0x1EA JUMPI PUSH1 0x0 DUP1 REVERT JUMPDEST POP PUSH2 0x1F3 PUSH2 0x6D5 JUMP JUMPDEST PUSH1 0x40 MLOAD PUSH2 0x200 SWAP2 SWAP1 PUSH2 0xF92 JUMP JUMPDEST PUSH1 0x40 MLOAD DUP1 SWAP2 SUB SWAP1 RETURN JUMPDEST PUSH2 0x211 PUSH2 0x6DF JUMP JUMPDEST PUSH1 0x40 MLOAD PUSH2 0x21E SWAP2 SWAP1 PUSH2 0xE55 JUMP JUMPDEST PUSH1 0x40 MLOAD DUP1 SWAP2 SUB SWAP1 RETURN JUMPDEST CALLVALUE DUP1 ISZERO PUSH2 0x233 JUMPI PUSH1 0x0 DUP1 REVERT JUMPDEST POP PUSH2 0x24E PUSH1 0x4 DUP1 CALLDATASIZE SUB DUP2 ADD SWAP1 PUSH2 0x249 SWAP2 SWAP1 PUSH2 0xBC3 JUMP JUMPDEST PUSH2 0x8F3 JUMP JUMPDEST PUSH1 0x40 MLOAD PUSH2 0x25B SWAP2 SWAP1 PUSH2 0xE55 JUMP JUMPDEST PUSH1 0x40 MLOAD DUP1 SWAP2 SUB SWAP1 RETURN JUMPDEST CALLVALUE DUP1 ISZERO PUSH2 0x270 JUMPI PUSH1 0x0 DUP1 REVERT JUMPDEST POP PUSH2 0x279 PUSH2 0x949 JUMP JUMPDEST PUSH1 0x40 MLOAD PUSH2 0x286 SWAP2 SWAP1 PUSH2 0xE33 JUMP JUMPDEST PUSH1 0x40 MLOAD DUP1 SWAP2 SUB SWAP1 RETURN JUMPDEST CALLVALUE DUP1 ISZERO PUSH2 0x29B JUMPI PUSH1 0x0 DUP1 REVERT JUMPDEST POP PUSH2 0x2B6 PUSH1 0x4 DUP1 CALLDATASIZE SUB DUP2 ADD SWAP1 PUSH2 0x2B1 SWAP2 SWAP1 PUSH2 0xBC3 JUMP JUMPDEST PUSH2 0x9D7 JUMP JUMPDEST PUSH1 0x40 MLOAD PUSH2 0x2C3 SWAP2 SWAP1 PUSH2 0xE55 JUMP JUMPDEST PUSH1 0x40 MLOAD DUP1 SWAP2 SUB SWAP1 RETURN JUMPDEST CALLVALUE DUP1 ISZERO PUSH2 0x2D8 JUMPI PUSH1 0x0 DUP1 REVERT JUMPDEST POP PUSH2 0x2E1 PUSH2 0xAA8 JUMP JUMPDEST PUSH1 0x40 MLOAD PUSH2 0x2EE SWAP2 SWAP1 PUSH2 0xF92 JUMP JUMPDEST PUSH1 0x40 MLOAD DUP1 SWAP2 SUB SWAP1 RETURN JUMPDEST CALLVALUE DUP1 ISZERO PUSH2 0x303 JUMPI PUSH1 0x0 DUP1 REVERT JUMPDEST POP PUSH2 0x30C PUSH2 0xAB2 JUMP JUMPDEST PUSH1 0x40 MLOAD PUSH2 0x319 SWAP2 SWAP1 PUSH2 0xF92 JUMP JUMPDEST PUSH1 0x40 MLOAD DUP1 SWAP2 SUB SWAP1 RETURN JUMPDEST CALLVALUE DUP1 ISZERO PUSH2 0x32E JUMPI PUSH1 0x0 DUP1 REVERT JUMPDEST POP PUSH2 0x349 PUSH1 0x4 DUP1 CALLDATASIZE SUB DUP2 ADD SWAP1 PUSH2 0x344 SWAP2 SWAP1 PUSH2 0xBEC JUMP JUMPDEST PUSH2 0xABC JUMP JUMPDEST PUSH1 0x40 MLOAD PUSH2 0x356 SWAP2 SWAP1 PUSH2 0xE18 JUMP JUMPDEST PUSH1 0x40 MLOAD DUP1 SWAP2 SUB SWAP1 RETURN JUMPDEST CALLVALUE DUP1 ISZERO PUSH2 0x36B JUMPI PUSH1 0x0 DUP1 REVERT JUMPDEST POP PUSH2 0x374 PUSH2 0xAFB JUMP JUMPDEST PUSH1 0x40 MLOAD PUSH2 0x381 SWAP2 SWAP1 PUSH2 0xF92 JUMP JUMPDEST PUSH1 0x40 MLOAD DUP1 SWAP2 SUB SWAP1 RETURN JUMPDEST CALLVALUE DUP1 ISZERO PUSH2 0x396 JUMPI PUSH1 0x0 DUP1 REVERT JUMPDEST POP PUSH2 0x39F PUSH2 0xB01 JUMP JUMPDEST PUSH1 0x40 MLOAD PUSH2 0x3AC SWAP2 SWAP1 PUSH2 0xE70 JUMP JUMPDEST PUSH1 0x40 MLOAD DUP1 SWAP2 SUB SWAP1 RETURN JUMPDEST CALLVALUE DUP1 ISZERO PUSH2 0x3C1 JUMPI PUSH1 0x0 DUP1 REVERT JUMPDEST POP PUSH2 0x3CA PUSH2 0xB93 JUMP JUMPDEST PUSH1 0x40 MLOAD PUSH2 0x3D7 SWAP2 SWAP1 PUSH2 0xF92 JUMP JUMPDEST PUSH1 0x40 MLOAD DUP1 SWAP2 SUB SWAP1 RETURN JUMPDEST PUSH1 0x1 PUSH1 0x0 SWAP1 SLOAD SWAP1 PUSH2 0x100 EXP SWAP1 DIV PUSH20 0xFFFFFFFFFFFFFFFFFFFFFFFFFFFFFFFFFFFFFFFF AND PUSH20 0xFFFFFFFFFFFFFFFFFFFFFFFFFFFFFFFFFFFFFFFF AND PUSH4 0x7B1CC209 PUSH1 0x5 SLOAD PUSH1 0x3 SLOAD PUSH1 0x4 SLOAD PUSH1 0x7 SLOAD PUSH1 0x40 MLOAD DUP6 PUSH4 0xFFFFFFFF AND PUSH1 0xE0 SHL DUP2 MSTORE PUSH1 0x4 ADD PUSH2 0x448 SWAP4 SWAP3 SWAP2 SWAP1 PUSH2 0xFD6 JUMP JUMPDEST PUSH1 0x0 PUSH1 0x40 MLOAD DUP1 DUP4 SUB DUP2 DUP6 DUP9 DUP1 EXTCODESIZE ISZERO DUP1 ISZERO PUSH2 0x461 JUMPI PUSH1 0x0 DUP1 REVERT JUMPDEST POP GAS CALL ISZERO DUP1 ISZERO PUSH2 0x475 JUMPI RETURNDATASIZE PUSH1 0x0 DUP1 RETURNDATACOPY RETURNDATASIZE PUSH1 0x0 REVERT JUMPDEST POP POP POP POP POP JUMP JUMPDEST PUSH1 0x0 DUP1 PUSH1 0x3 SLOAD PUSH1 0x4 SLOAD SWAP2 POP SWAP2 POP SWAP1 SWAP2 JUMP JUMPDEST PUSH1 0xB SLOAD DUP2 JUMP JUMPDEST PUSH1 0x0 PUSH1 0xB SLOAD SWAP1 POP SWAP1 JUMP JUMPDEST PUSH1 0xA PUSH1 0x0 SWAP1 SLOAD SWAP1 PUSH2 0x100 EXP SWAP1 DIV PUSH1 0xFF AND ISZERO PUSH2 0x4ED JUMPI PUSH1 0x40 MLOAD PUSH32 0x8C379A000000000000000000000000000000000000000000000000000000000 DUP2 MSTORE PUSH1 0x4 ADD PUSH2 0x4E4 SWAP1 PUSH2 0xF32 JUMP JUMPDEST PUSH1 0x40 MLOAD DUP1 SWAP2 SUB SWAP1 REVERT JUMPDEST PUSH1 0x2 SLOAD TIMESTAMP GT PUSH2 0x531 JUMPI PUSH1 0x40 MLOAD PUSH32 0x8C379A000000000000000000000000000000000000000000000000000000000 DUP2 MSTORE PUSH1 0x4 ADD PUSH2 0x528 SWAP1 PUSH2 0xF12 JUMP JUMPDEST PUSH1 0x40 MLOAD DUP1 SWAP2 SUB SWAP1 REVERT JUMPDEST PUSH2 0x53A CALLER PUSH2 0x9D7 JUMP JUMPDEST PUSH2 0x579 JUMPI PUSH1 0x40 MLOAD PUSH32 0x8C379A000000000000000000000000000000000000000000000000000000000 DUP2 MSTORE PUSH1 0x4 ADD PUSH2 0x570 SWAP1 PUSH2 0xEF2 JUMP JUMPDEST PUSH1 0x40 MLOAD DUP1 SWAP2 SUB SWAP1 REVERT JUMPDEST PUSH1 0x9 PUSH1 0x0 CALLER PUSH20 0xFFFFFFFFFFFFFFFFFFFFFFFFFFFFFFFFFFFFFFFF AND PUSH20 0xFFFFFFFFFFFFFFFFFFFFFFFFFFFFFFFFFFFFFFFF AND DUP2 MSTORE PUSH1 0x20 ADD SWAP1 DUP2 MSTORE PUSH1 0x20 ADD PUSH1 0x0 KECCAK256 PUSH1 0x0 SWAP1 SLOAD SWAP1 PUSH2 0x100 EXP SWAP1 DIV PUSH1 0xFF AND PUSH2 0x605 JUMPI PUSH1 0x40 MLOAD PUSH32 0x8C379A000000000000000000000000000000000000000000000000000000000 DUP2 MSTORE PUSH1 0x4 ADD PUSH2 0x5FC SWAP1 PUSH2 0xE92 JUMP JUMPDEST PUSH1 0x40 MLOAD DUP1 SWAP2 SUB SWAP1 REVERT JUMPDEST PUSH1 0x0 PUSH1 0x9 PUSH1 0x0 CALLER PUSH20 0xFFFFFFFFFFFFFFFFFFFFFFFFFFFFFFFFFFFFFFFF AND PUSH20 0xFFFFFFFFFFFFFFFFFFFFFFFFFFFFFFFFFFFFFFFF AND DUP2 MSTORE PUSH1 0x20 ADD SWAP1 DUP2 MSTORE PUSH1 0x20 ADD PUSH1 0x0 KECCAK256 PUSH1 0x0 PUSH2 0x100 EXP DUP2 SLOAD DUP2 PUSH1 0xFF MUL NOT AND SWAP1 DUP4 ISZERO ISZERO MUL OR SWAP1 SSTORE POP PUSH1 0x1 PUSH1 0x6 PUSH1 0x0 DUP3 DUP3 SLOAD PUSH2 0x670 SWAP2 SWAP1 PUSH2 0x10B8 JUMP JUMPDEST SWAP3 POP POP DUP2 SWAP1 SSTORE POP CALLER PUSH20 0xFFFFFFFFFFFFFFFFFFFFFFFFFFFFFFFFFFFFFFFF AND PUSH2 0x8FC PUSH1 0xB SLOAD SWAP1 DUP2 ISZERO MUL SWAP1 PUSH1 0x40 MLOAD PUSH1 0x0 PUSH1 0x40 MLOAD DUP1 DUP4 SUB DUP2 DUP6 DUP9 DUP9 CALL SWAP4 POP POP POP POP ISZERO DUP1 ISZERO PUSH2 0x6BF JUMPI RETURNDATASIZE PUSH1 0x0 DUP1 RETURNDATACOPY RETURNDATASIZE PUSH1 0x0 REVERT JUMPDEST POP JUMP JUMPDEST PUSH1 0xA PUSH1 0x0 SWAP1 SLOAD SWAP1 PUSH2 0x100 EXP SWAP1 DIV PUSH1 0xFF AND DUP2 JUMP JUMPDEST PUSH1 0x0 PUSH1 0x5 SLOAD SWAP1 POP SWAP1 JUMP JUMPDEST PUSH1 0x0 PUSH1 0xA PUSH1 0x0 SWAP1 SLOAD SWAP1 PUSH2 0x100 EXP SWAP1 DIV PUSH1 0xFF AND ISZERO PUSH2 0x731 JUMPI PUSH1 0x40 MLOAD PUSH32 0x8C379A000000000000000000000000000000000000000000000000000000000 DUP2 MSTORE PUSH1 0x4 ADD PUSH2 0x728 SWAP1 PUSH2 0xEB2 JUMP JUMPDEST PUSH1 0x40 MLOAD DUP1 SWAP2 SUB SWAP1 REVERT JUMPDEST CALLER PUSH2 0x73B DUP2 PUSH2 0x9D7 JUMP JUMPDEST PUSH2 0x77A JUMPI PUSH1 0x40 MLOAD PUSH32 0x8C379A000000000000000000000000000000000000000000000000000000000 DUP2 MSTORE PUSH1 0x4 ADD PUSH2 0x771 SWAP1 PUSH2 0xF72 JUMP JUMPDEST PUSH1 0x40 MLOAD DUP1 SWAP2 SUB SWAP1 REVERT JUMPDEST CALLER PUSH2 0x784 DUP2 PUSH2 0x8F3 JUMP JUMPDEST ISZERO PUSH2 0x7C4 JUMPI PUSH1 0x40 MLOAD PUSH32 0x8C379A000000000000000000000000000000000000000000000000000000000 DUP2 MSTORE PUSH1 0x4 ADD PUSH2 0x7BB SWAP1 PUSH2 0xF52 JUMP JUMPDEST PUSH1 0x40 MLOAD DUP1 SWAP2 SUB SWAP1 REVERT JUMPDEST PUSH1 0xB SLOAD CALLVALUE EQ PUSH2 0x808 JUMPI PUSH1 0x40 MLOAD PUSH32 0x8C379A000000000000000000000000000000000000000000000000000000000 DUP2 MSTORE PUSH1 0x4 ADD PUSH2 0x7FF SWAP1 PUSH2 0xED2 JUMP JUMPDEST PUSH1 0x40 MLOAD DUP1 SWAP2 SUB SWAP1 REVERT JUMPDEST PUSH1 0x1 PUSH1 0x9 PUSH1 0x0 CALLER PUSH20 0xFFFFFFFFFFFFFFFFFFFFFFFFFFFFFFFFFFFFFFFF AND PUSH20 0xFFFFFFFFFFFFFFFFFFFFFFFFFFFFFFFFFFFFFFFF AND DUP2 MSTORE PUSH1 0x20 ADD SWAP1 DUP2 MSTORE PUSH1 0x20 ADD PUSH1 0x0 KECCAK256 PUSH1 0x0 PUSH2 0x100 EXP DUP2 SLOAD DUP2 PUSH1 0xFF MUL NOT AND SWAP1 DUP4 ISZERO ISZERO MUL OR SWAP1 SSTORE POP PUSH1 0x1 PUSH1 0x6 PUSH1 0x0 DUP3 DUP3 SLOAD PUSH2 0x873 SWAP2 SWAP1 PUSH2 0x1062 JUMP JUMPDEST SWAP3 POP POP DUP2 SWAP1 SSTORE POP PUSH32 0x69070702EB0E9E0CB68F3C9604D7DB163B6535DDEB13A5A0FB297223EBB5C6D CALLER PUSH1 0x40 MLOAD PUSH2 0x8A9 SWAP2 SWAP1 PUSH2 0xE18 JUMP JUMPDEST PUSH1 0x40 MLOAD DUP1 SWAP2 SUB SWAP1 LOG1 PUSH1 0x7 SLOAD PUSH1 0x6 SLOAD EQ ISZERO PUSH2 0x8E9 JUMPI PUSH1 0x1 PUSH1 0xA PUSH1 0x0 PUSH2 0x100 EXP DUP2 SLOAD DUP2 PUSH1 0xFF MUL NOT AND SWAP1 DUP4 ISZERO ISZERO MUL OR SWAP1 SSTORE POP PUSH2 0x8E0 PUSH2 0x3E0 JUMP JUMPDEST PUSH1 0x1 SWAP3 POP PUSH2 0x8EE JUMP JUMPDEST PUSH1 0x0 SWAP3 POP JUMPDEST POP POP SWAP1 JUMP JUMPDEST PUSH1 0x0 PUSH1 0x9 PUSH1 0x0 DUP4 PUSH20 0xFFFFFFFFFFFFFFFFFFFFFFFFFFFFFFFFFFFFFFFF AND PUSH20 0xFFFFFFFFFFFFFFFFFFFFFFFFFFFFFFFFFFFFFFFF AND DUP2 MSTORE PUSH1 0x20 ADD SWAP1 DUP2 MSTORE PUSH1 0x20 ADD PUSH1 0x0 KECCAK256 PUSH1 0x0 SWAP1 SLOAD SWAP1 PUSH2 0x100 EXP SWAP1 DIV PUSH1 0xFF AND SWAP1 POP SWAP2 SWAP1 POP JUMP JUMPDEST PUSH1 0x60 PUSH1 0x8 DUP1 SLOAD DUP1 PUSH1 0x20 MUL PUSH1 0x20 ADD PUSH1 0x40 MLOAD SWAP1 DUP2 ADD PUSH1 0x40 MSTORE DUP1 SWAP3 SWAP2 SWAP1 DUP2 DUP2 MSTORE PUSH1 0x20 ADD DUP3 DUP1 SLOAD DUP1 ISZERO PUSH2 0x9CD JUMPI PUSH1 0x20 MUL DUP3 ADD SWAP2 SWAP1 PUSH1 0x0 MSTORE PUSH1 0x20 PUSH1 0x0 KECCAK256 SWAP1 JUMPDEST DUP2 PUSH1 0x0 SWAP1 SLOAD SWAP1 PUSH2 0x100 EXP SWAP1 DIV PUSH20 0xFFFFFFFFFFFFFFFFFFFFFFFFFFFFFFFFFFFFFFFF AND PUSH20 0xFFFFFFFFFFFFFFFFFFFFFFFFFFFFFFFFFFFFFFFF AND DUP2 MSTORE PUSH1 0x20 ADD SWAP1 PUSH1 0x1 ADD SWAP1 DUP1 DUP4 GT PUSH2 0x983 JUMPI JUMPDEST POP POP POP POP POP SWAP1 POP SWAP1 JUMP JUMPDEST PUSH1 0x0 DUP1 PUSH1 0x0 SWAP1 POP PUSH1 0x0 JUMPDEST PUSH1 0x8 DUP1 SLOAD SWAP1 POP DUP2 LT ISZERO PUSH2 0xA9E JUMPI DUP4 PUSH20 0xFFFFFFFFFFFFFFFFFFFFFFFFFFFFFFFFFFFFFFFF AND PUSH1 0x8 DUP3 DUP2 SLOAD DUP2 LT PUSH2 0xA3F JUMPI PUSH32 0x4E487B7100000000000000000000000000000000000000000000000000000000 PUSH1 0x0 MSTORE PUSH1 0x32 PUSH1 0x4 MSTORE PUSH1 0x24 PUSH1 0x0 REVERT JUMPDEST SWAP1 PUSH1 0x0 MSTORE PUSH1 0x20 PUSH1 0x0 KECCAK256 ADD PUSH1 0x0 SWAP1 SLOAD SWAP1 PUSH2 0x100 EXP SWAP1 DIV PUSH20 0xFFFFFFFFFFFFFFFFFFFFFFFFFFFFFFFFFFFFFFFF AND PUSH20 0xFFFFFFFFFFFFFFFFFFFFFFFFFFFFFFFFFFFFFFFF AND EQ ISZERO PUSH2 0xA8B JUMPI PUSH1 0x1 SWAP2 POP JUMPDEST DUP1 DUP1 PUSH2 0xA96 SWAP1 PUSH2 0x1199 JUMP JUMPDEST SWAP2 POP POP PUSH2 0x9E1 JUMP JUMPDEST POP DUP1 SWAP2 POP POP SWAP2 SWAP1 POP JUMP JUMPDEST PUSH1 0x0 PUSH1 0x3 SLOAD SWAP1 POP SWAP1 JUMP JUMPDEST PUSH1 0x0 PUSH1 0x4 SLOAD SWAP1 POP SWAP1 JUMP JUMPDEST PUSH1 0x8 DUP2 DUP2 SLOAD DUP2 LT PUSH2 0xACC JUMPI PUSH1 0x0 DUP1 REVERT JUMPDEST SWAP1 PUSH1 0x0 MSTORE PUSH1 0x20 PUSH1 0x0 KECCAK256 ADD PUSH1 0x0 SWAP2 POP SLOAD SWAP1 PUSH2 0x100 EXP SWAP1 DIV PUSH20 0xFFFFFFFFFFFFFFFFFFFFFFFFFFFFFFFFFFFFFFFF AND DUP2 JUMP JUMPDEST PUSH1 0x6 SLOAD DUP2 JUMP JUMPDEST PUSH1 0x60 PUSH1 0x0 DUP1 SLOAD PUSH2 0xB10 SWAP1 PUSH2 0x1167 JUMP JUMPDEST DUP1 PUSH1 0x1F ADD PUSH1 0x20 DUP1 SWAP2 DIV MUL PUSH1 0x20 ADD PUSH1 0x40 MLOAD SWAP1 DUP2 ADD PUSH1 0x40 MSTORE DUP1 SWAP3 SWAP2 SWAP1 DUP2 DUP2 MSTORE PUSH1 0x20 ADD DUP3 DUP1 SLOAD PUSH2 0xB3C SWAP1 PUSH2 0x1167 JUMP JUMPDEST DUP1 ISZERO PUSH2 0xB89 JUMPI DUP1 PUSH1 0x1F LT PUSH2 0xB5E JUMPI PUSH2 0x100 DUP1 DUP4 SLOAD DIV MUL DUP4 MSTORE SWAP2 PUSH1 0x20 ADD SWAP2 PUSH2 0xB89 JUMP JUMPDEST DUP3 ADD SWAP2 SWAP1 PUSH1 0x0 MSTORE PUSH1 0x20 PUSH1 0x0 KECCAK256 SWAP1 JUMPDEST DUP2 SLOAD DUP2 MSTORE SWAP1 PUSH1 0x1 ADD SWAP1 PUSH1 0x20 ADD DUP1 DUP4 GT PUSH2 0xB6C JUMPI DUP3 SWAP1 SUB PUSH1 0x1F AND DUP3 ADD SWAP2 JUMPDEST POP POP POP POP POP SWAP1 POP SWAP1 JUMP JUMPDEST PUSH1 0x7 SLOAD DUP2 JUMP JUMPDEST PUSH1 0x0 DUP2 CALLDATALOAD SWAP1 POP PUSH2 0xBA8 DUP2 PUSH2 0x13BF JUMP JUMPDEST SWAP3 SWAP2 POP POP JUMP JUMPDEST PUSH1 0x0 DUP2 CALLDATALOAD SWAP1 POP PUSH2 0xBBD DUP2 PUSH2 0x13D6 JUMP JUMPDEST SWAP3 SWAP2 POP POP JUMP JUMPDEST PUSH1 0x0 PUSH1 0x20 DUP3 DUP5 SUB SLT ISZERO PUSH2 0xBD5 JUMPI PUSH1 0x0 DUP1 REVERT JUMPDEST PUSH1 0x0 PUSH2 0xBE3 DUP5 DUP3 DUP6 ADD PUSH2 0xB99 JUMP JUMPDEST SWAP2 POP POP SWAP3 SWAP2 POP POP JUMP JUMPDEST PUSH1 0x0 PUSH1 0x20 DUP3 DUP5 SUB SLT ISZERO PUSH2 0xBFE JUMPI PUSH1 0x0 DUP1 REVERT JUMPDEST PUSH1 0x0 PUSH2 0xC0C DUP5 DUP3 DUP6 ADD PUSH2 0xBAE JUMP JUMPDEST SWAP2 POP POP SWAP3 SWAP2 POP POP JUMP JUMPDEST PUSH1 0x0 PUSH2 0xC21 DUP4 DUP4 PUSH2 0xC2D JUMP JUMPDEST PUSH1 0x20 DUP4 ADD SWAP1 POP SWAP3 SWAP2 POP POP JUMP JUMPDEST PUSH2 0xC36 DUP2 PUSH2 0x10EC JUMP JUMPDEST DUP3 MSTORE POP POP JUMP JUMPDEST PUSH2 0xC45 DUP2 PUSH2 0x10EC JUMP JUMPDEST DUP3 MSTORE POP POP JUMP JUMPDEST PUSH1 0x0 PUSH2 0xC56 DUP3 PUSH2 0x101D JUMP JUMPDEST PUSH2 0xC60 DUP2 DUP6 PUSH2 0x1040 JUMP JUMPDEST SWAP4 POP PUSH2 0xC6B DUP4 PUSH2 0x100D JUMP JUMPDEST DUP1 PUSH1 0x0 JUMPDEST DUP4 DUP2 LT ISZERO PUSH2 0xC9C JUMPI DUP2 MLOAD PUSH2 0xC83 DUP9 DUP3 PUSH2 0xC15 JUMP JUMPDEST SWAP8 POP PUSH2 0xC8E DUP4 PUSH2 0x1033 JUMP JUMPDEST SWAP3 POP POP PUSH1 0x1 DUP2 ADD SWAP1 POP PUSH2 0xC6F JUMP JUMPDEST POP DUP6 SWAP4 POP POP POP POP SWAP3 SWAP2 POP POP JUMP JUMPDEST PUSH2 0xCB2 DUP2 PUSH2 0x10FE JUMP JUMPDEST DUP3 MSTORE POP POP JUMP JUMPDEST PUSH1 0x0 PUSH2 0xCC3 DUP3 PUSH2 0x1028 JUMP JUMPDEST PUSH2 0xCCD DUP2 DUP6 PUSH2 0x1051 JUMP JUMPDEST SWAP4 POP PUSH2 0xCDD DUP2 DUP6 PUSH1 0x20 DUP7 ADD PUSH2 0x1134 JUMP JUMPDEST PUSH2 0xCE6 DUP2 PUSH2 0x1240 JUMP JUMPDEST DUP5 ADD SWAP2 POP POP SWAP3 SWAP2 POP POP JUMP JUMPDEST PUSH1 0x0 PUSH2 0xCFE PUSH1 0x15 DUP4 PUSH2 0x1051 JUMP JUMPDEST SWAP2 POP PUSH2 0xD09 DUP3 PUSH2 0x1251 JUMP JUMPDEST PUSH1 0x20 DUP3 ADD SWAP1 POP SWAP2 SWAP1 POP JUMP JUMPDEST PUSH1 0x0 PUSH2 0xD21 PUSH1 0x19 DUP4 PUSH2 0x1051 JUMP JUMPDEST SWAP2 POP PUSH2 0xD2C DUP3 PUSH2 0x127A JUMP JUMPDEST PUSH1 0x20 DUP3 ADD SWAP1 POP SWAP2 SWAP1 POP JUMP JUMPDEST PUSH1 0x0 PUSH2 0xD44 PUSH1 0x23 DUP4 PUSH2 0x1051 JUMP JUMPDEST SWAP2 POP PUSH2 0xD4F DUP3 PUSH2 0x12A3 JUMP JUMPDEST PUSH1 0x40 DUP3 ADD SWAP1 POP SWAP2 SWAP1 POP JUMP JUMPDEST PUSH1 0x0 PUSH2 0xD67 PUSH1 0x1C DUP4 PUSH2 0x1051 JUMP JUMPDEST SWAP2 POP PUSH2 0xD72 DUP3 PUSH2 0x12F2 JUMP JUMPDEST PUSH1 0x20 DUP3 ADD SWAP1 POP SWAP2 SWAP1 POP JUMP JUMPDEST PUSH1 0x0 PUSH2 0xD8A PUSH1 0x15 DUP4 PUSH2 0x1051 JUMP JUMPDEST SWAP2 POP PUSH2 0xD95 DUP3 PUSH2 0x131B JUMP JUMPDEST PUSH1 0x20 DUP3 ADD SWAP1 POP SWAP2 SWAP1 POP JUMP JUMPDEST PUSH1 0x0 PUSH2 0xDAD PUSH1 0x1D DUP4 PUSH2 0x1051 JUMP JUMPDEST SWAP2 POP PUSH2 0xDB8 DUP3 PUSH2 0x1344 JUMP JUMPDEST PUSH1 0x20 DUP3 ADD SWAP1 POP SWAP2 SWAP1 POP JUMP JUMPDEST PUSH1 0x0 PUSH2 0xDD0 PUSH1 0x1A DUP4 PUSH2 0x1051 JUMP JUMPDEST SWAP2 POP PUSH2 0xDDB DUP3 PUSH2 0x136D JUMP JUMPDEST PUSH1 0x20 DUP3 ADD SWAP1 POP SWAP2 SWAP1 POP JUMP JUMPDEST PUSH1 0x0 PUSH2 0xDF3 PUSH1 0x1B DUP4 PUSH2 0x1051 JUMP JUMPDEST SWAP2 POP PUSH2 0xDFE DUP3 PUSH2 0x1396 JUMP JUMPDEST PUSH1 0x20 DUP3 ADD SWAP1 POP SWAP2 SWAP1 POP JUMP JUMPDEST PUSH2 0xE12 DUP2 PUSH2 0x112A JUMP JUMPDEST DUP3 MSTORE POP POP JUMP JUMPDEST PUSH1 0x0 PUSH1 0x20 DUP3 ADD SWAP1 POP PUSH2 0xE2D PUSH1 0x0 DUP4 ADD DUP5 PUSH2 0xC3C JUMP JUMPDEST SWAP3 SWAP2 POP POP JUMP JUMPDEST PUSH1 0x0 PUSH1 0x20 DUP3 ADD SWAP1 POP DUP2 DUP2 SUB PUSH1 0x0 DUP4 ADD MSTORE PUSH2 0xE4D DUP2 DUP5 PUSH2 0xC4B JUMP JUMPDEST SWAP1 POP SWAP3 SWAP2 POP POP JUMP JUMPDEST PUSH1 0x0 PUSH1 0x20 DUP3 ADD SWAP1 POP PUSH2 0xE6A PUSH1 0x0 DUP4 ADD DUP5 PUSH2 0xCA9 JUMP JUMPDEST SWAP3 SWAP2 POP POP JUMP JUMPDEST PUSH1 0x0 PUSH1 0x20 DUP3 ADD SWAP1 POP DUP2 DUP2 SUB PUSH1 0x0 DUP4 ADD MSTORE PUSH2 0xE8A DUP2 DUP5 PUSH2 0xCB8 JUMP JUMPDEST SWAP1 POP SWAP3 SWAP2 POP POP JUMP JUMPDEST PUSH1 0x0 PUSH1 0x20 DUP3 ADD SWAP1 POP DUP2 DUP2 SUB PUSH1 0x0 DUP4 ADD MSTORE PUSH2 0xEAB DUP2 PUSH2 0xCF1 JUMP JUMPDEST SWAP1 POP SWAP2 SWAP1 POP JUMP JUMPDEST PUSH1 0x0 PUSH1 0x20 DUP3 ADD SWAP1 POP DUP2 DUP2 SUB PUSH1 0x0 DUP4 ADD MSTORE PUSH2 0xECB DUP2 PUSH2 0xD14 JUMP JUMPDEST SWAP1 POP SWAP2 SWAP1 POP JUMP JUMPDEST PUSH1 0x0 PUSH1 0x20 DUP3 ADD SWAP1 POP DUP2 DUP2 SUB PUSH1 0x0 DUP4 ADD MSTORE PUSH2 0xEEB DUP2 PUSH2 0xD37 JUMP JUMPDEST SWAP1 POP SWAP2 SWAP1 POP JUMP JUMPDEST PUSH1 0x0 PUSH1 0x20 DUP3 ADD SWAP1 POP DUP2 DUP2 SUB PUSH1 0x0 DUP4 ADD MSTORE PUSH2 0xF0B DUP2 PUSH2 0xD5A JUMP JUMPDEST SWAP1 POP SWAP2 SWAP1 POP JUMP JUMPDEST PUSH1 0x0 PUSH1 0x20 DUP3 ADD SWAP1 POP DUP2 DUP2 SUB PUSH1 0x0 DUP4 ADD MSTORE PUSH2 0xF2B DUP2 PUSH2 0xD7D JUMP JUMPDEST SWAP1 POP SWAP2 SWAP1 POP JUMP JUMPDEST PUSH1 0x0 PUSH1 0x20 DUP3 ADD SWAP1 POP DUP2 DUP2 SUB PUSH1 0x0 DUP4 ADD MSTORE PUSH2 0xF4B DUP2 PUSH2 0xDA0 JUMP JUMPDEST SWAP1 POP SWAP2 SWAP1 POP JUMP JUMPDEST PUSH1 0x0 PUSH1 0x20 DUP3 ADD SWAP1 POP DUP2 DUP2 SUB PUSH1 0x0 DUP4 ADD MSTORE PUSH2 0xF6B DUP2 PUSH2 0xDC3 JUMP JUMPDEST SWAP1 POP SWAP2 SWAP1 POP JUMP JUMPDEST PUSH1 0x0 PUSH1 0x20 DUP3 ADD SWAP1 POP DUP2 DUP2 SUB PUSH1 0x0 DUP4 ADD MSTORE PUSH2 0xF8B DUP2 PUSH2 0xDE6 JUMP JUMPDEST SWAP1 POP SWAP2 SWAP1 POP JUMP JUMPDEST PUSH1 0x0 PUSH1 0x20 DUP3 ADD SWAP1 POP PUSH2 0xFA7 PUSH1 0x0 DUP4 ADD DUP5 PUSH2 0xE09 JUMP JUMPDEST SWAP3 SWAP2 POP POP JUMP JUMPDEST PUSH1 0x0 PUSH1 0x40 DUP3 ADD SWAP1 POP PUSH2 0xFC2 PUSH1 0x0 DUP4 ADD DUP6 PUSH2 0xE09 JUMP JUMPDEST PUSH2 0xFCF PUSH1 0x20 DUP4 ADD DUP5 PUSH2 0xE09 JUMP JUMPDEST SWAP4 SWAP3 POP POP POP JUMP JUMPDEST PUSH1 0x0 PUSH1 0x60 DUP3 ADD SWAP1 POP PUSH2 0xFEB PUSH1 0x0 DUP4 ADD DUP7 PUSH2 0xE09 JUMP JUMPDEST PUSH2 0xFF8 PUSH1 0x20 DUP4 ADD DUP6 PUSH2 0xE09 JUMP JUMPDEST PUSH2 0x1005 PUSH1 0x40 DUP4 ADD DUP5 PUSH2 0xE09 JUMP JUMPDEST SWAP5 SWAP4 POP POP POP POP JUMP JUMPDEST PUSH1 0x0 DUP2 SWAP1 POP PUSH1 0x20 DUP3 ADD SWAP1 POP SWAP2 SWAP1 POP JUMP JUMPDEST PUSH1 0x0 DUP2 MLOAD SWAP1 POP SWAP2 SWAP1 POP JUMP JUMPDEST PUSH1 0x0 DUP2 MLOAD SWAP1 POP SWAP2 SWAP1 POP JUMP JUMPDEST PUSH1 0x0 PUSH1 0x20 DUP3 ADD SWAP1 POP SWAP2 SWAP1 POP JUMP JUMPDEST PUSH1 0x0 DUP3 DUP3 MSTORE PUSH1 0x20 DUP3 ADD SWAP1 POP SWAP3 SWAP2 POP POP JUMP JUMPDEST PUSH1 0x0 DUP3 DUP3 MSTORE PUSH1 0x20 DUP3 ADD SWAP1 POP SWAP3 SWAP2 POP POP JUMP JUMPDEST PUSH1 0x0 PUSH2 0x106D DUP3 PUSH2 0x112A JUMP JUMPDEST SWAP2 POP PUSH2 0x1078 DUP4 PUSH2 0x112A JUMP JUMPDEST SWAP3 POP DUP3 PUSH32 0xFFFFFFFFFFFFFFFFFFFFFFFFFFFFFFFFFFFFFFFFFFFFFFFFFFFFFFFFFFFFFFFF SUB DUP3 GT ISZERO PUSH2 0x10AD JUMPI PUSH2 0x10AC PUSH2 0x11E2 JUMP JUMPDEST JUMPDEST DUP3 DUP3 ADD SWAP1 POP SWAP3 SWAP2 POP POP JUMP JUMPDEST PUSH1 0x0 PUSH2 0x10C3 DUP3 PUSH2 0x112A JUMP JUMPDEST SWAP2 POP PUSH2 0x10CE DUP4 PUSH2 0x112A JUMP JUMPDEST SWAP3 POP DUP3 DUP3 LT ISZERO PUSH2 0x10E1 JUMPI PUSH2 0x10E0 PUSH2 0x11E2 JUMP JUMPDEST JUMPDEST DUP3 DUP3 SUB SWAP1 POP SWAP3 SWAP2 POP POP JUMP JUMPDEST PUSH1 0x0 PUSH2 0x10F7 DUP3 PUSH2 0x110A JUMP JUMPDEST SWAP1 POP SWAP2 SWAP1 POP JUMP JUMPDEST PUSH1 0x0 DUP2 ISZERO ISZERO SWAP1 POP SWAP2 SWAP1 POP JUMP JUMPDEST PUSH1 0x0 PUSH20 0xFFFFFFFFFFFFFFFFFFFFFFFFFFFFFFFFFFFFFFFF DUP3 AND SWAP1 POP SWAP2 SWAP1 POP JUMP JUMPDEST PUSH1 0x0 DUP2 SWAP1 POP SWAP2 SWAP1 POP JUMP JUMPDEST PUSH1 0x0 JUMPDEST DUP4 DUP2 LT ISZERO PUSH2 0x1152 JUMPI DUP1 DUP3 ADD MLOAD DUP2 DUP5 ADD MSTORE PUSH1 0x20 DUP2 ADD SWAP1 POP PUSH2 0x1137 JUMP JUMPDEST DUP4 DUP2 GT ISZERO PUSH2 0x1161 JUMPI PUSH1 0x0 DUP5 DUP5 ADD MSTORE JUMPDEST POP POP POP POP JUMP JUMPDEST PUSH1 0x0 PUSH1 0x2 DUP3 DIV SWAP1 POP PUSH1 0x1 DUP3 AND DUP1 PUSH2 0x117F JUMPI PUSH1 0x7F DUP3 AND SWAP2 POP JUMPDEST PUSH1 0x20 DUP3 LT DUP2 EQ ISZERO PUSH2 0x1193 JUMPI PUSH2 0x1192 PUSH2 0x1211 JUMP JUMPDEST JUMPDEST POP SWAP2 SWAP1 POP JUMP JUMPDEST PUSH1 0x0 PUSH2 0x11A4 DUP3 PUSH2 0x112A JUMP JUMPDEST SWAP2 POP PUSH32 0xFFFFFFFFFFFFFFFFFFFFFFFFFFFFFFFFFFFFFFFFFFFFFFFFFFFFFFFFFFFFFFFF DUP3 EQ ISZERO PUSH2 0x11D7 JUMPI PUSH2 0x11D6 PUSH2 0x11E2 JUMP JUMPDEST JUMPDEST PUSH1 0x1 DUP3 ADD SWAP1 POP SWAP2 SWAP1 POP JUMP JUMPDEST PUSH32 0x4E487B7100000000000000000000000000000000000000000000000000000000 PUSH1 0x0 MSTORE PUSH1 0x11 PUSH1 0x4 MSTORE PUSH1 0x24 PUSH1 0x0 REVERT JUMPDEST PUSH32 0x4E487B7100000000000000000000000000000000000000000000000000000000 PUSH1 0x0 MSTORE PUSH1 0x22 PUSH1 0x4 MSTORE PUSH1 0x24 PUSH1 0x0 REVERT JUMPDEST PUSH1 0x0 PUSH1 0x1F NOT PUSH1 0x1F DUP4 ADD AND SWAP1 POP SWAP2 SWAP1 POP JUMP JUMPDEST PUSH32 0x5573657220686173206E6F742070616964207965740000000000000000000000 PUSH1 0x0 DUP3 ADD MSTORE POP JUMP JUMPDEST PUSH32 0x45766572796F6E652068617320616C7265616479207061696400000000000000 PUSH1 0x0 DUP3 ADD MSTORE POP JUMP JUMPDEST PUSH32 0x54726176656C6C6572206D757374207061792074686520726967687420616D6F PUSH1 0x0 DUP3 ADD MSTORE PUSH32 0x756E740000000000000000000000000000000000000000000000000000000000 PUSH1 0x20 DUP3 ADD MSTORE POP JUMP JUMPDEST PUSH32 0x54726176656C6C6572206D75737420626520617574686F72697A656400000000 PUSH1 0x0 DUP3 ADD MSTORE POP JUMP JUMPDEST PUSH32 0x546F6F206561726C7920746F2077697468647261770000000000000000000000 PUSH1 0x0 DUP3 ADD MSTORE POP JUMP JUMPDEST PUSH32 0x5061796D656E7420616C7265616479206D61646520746F20486F74656C000000 PUSH1 0x0 DUP3 ADD MSTORE POP JUMP JUMPDEST PUSH32 0x54726176656C6C65722068617320616C72656164792070616964000000000000 PUSH1 0x0 DUP3 ADD MSTORE POP JUMP JUMPDEST PUSH32 0x54726176656C6C6572206973206E6F7420617574686F72697A65640000000000 PUSH1 0x0 DUP3 ADD MSTORE POP JUMP JUMPDEST PUSH2 0x13C8 DUP2 PUSH2 0x10EC JUMP JUMPDEST DUP2 EQ PUSH2 0x13D3 JUMPI PUSH1 0x0 DUP1 REVERT JUMPDEST POP JUMP JUMPDEST PUSH2 0x13DF DUP2 PUSH2 0x112A JUMP JUMPDEST DUP2 EQ PUSH2 0x13EA JUMPI PUSH1 0x0 DUP1 REVERT JUMPDEST POP JUMP INVALID LOG2 PUSH5 0x6970667358 0x22 SLT KECCAK256 PUSH11 0x16987E89D074FA4AFD8151 ADDMOD 0xF7 SSTORE BALANCE 0xF9 PUSH17 0x6A7103FAC83AE13C66B82648A30E64736F PUSH13 0x63430008040033000000000000 "
        },
        "methodIdentifiers": {
          "authorizedTravellers(uint256)": "dae86fd1",
          "getAuthorizedTravellers()": "ab07cdf6",
          "getDateStart()": "b9dd3b0c",
          "getDates()": "16441813",
          "getHotelName()": "f3668b9d",
          "getNumberOfNights()": "beae494b",
          "getPrice()": "98d5fdca",
          "getPricePerTraveller()": "23a0664a",
          "hasEveryonePaid()": "263c2c64",
          "hasTravellerPaid(address)": "a69ea1b3",
          "isTravellerAuthorized(address)": "b9b6a55d",
          "numberOfPaidTravellers()": "eb965002",
          "numberOfTravellers()": "f863f4d2",
          "payShare()": "99c571e7",
          "pricePerTraveller()": "1e606752",
          "sendPaymentToHotel()": "0e21fe0e",
          "withdrawShare()": "24349671"
        }
      }
    }
  }
}