{
  "_format": "hh-sol-artifact-1",
  "contractName": "ComplexType",
  "sourceName": "contracts/ComplexType.sol",
  "abi": [
    {
      "inputs": [
        {
          "internalType": "address",
          "name": "turingHelper_",
          "type": "address"
        },
        {
          "internalType": "string",
          "name": "turingUri_",
          "type": "string"
        }
      ],
      "stateMutability": "nonpayable",
      "type": "constructor"
    },
    {
      "inputs": [
        {
          "internalType": "address",
          "name": "wallet_",
          "type": "address"
        },
        {
          "internalType": "string",
          "name": "someID_",
          "type": "string"
        }
      ],
      "name": "loadData",
      "outputs": [],
      "stateMutability": "nonpayable",
      "type": "function"
    },
    {
      "inputs": [],
      "name": "turingHelper",
      "outputs": [
        {
          "internalType": "contract ITuringHelper",
          "name": "",
          "type": "address"
        }
      ],
      "stateMutability": "view",
      "type": "function"
    }
  ],
  "bytecode": "0x60806040523480156200001157600080fd5b5060405162000e8e38038062000e8e83398181016040528101906200003791906200034a565b816000806101000a81548173ffffffffffffffffffffffffffffffffffffffff021916908373ffffffffffffffffffffffffffffffffffffffff16021790555080600190805190602001906200008f92919062000098565b50505062000415565b828054620000a690620003df565b90600052602060002090601f016020900481019282620000ca576000855562000116565b82601f10620000e557805160ff191683800117855562000116565b8280016001018555821562000116579182015b8281111562000115578251825591602001919060010190620000f8565b5b50905062000125919062000129565b5090565b5b80821115620001445760008160009055506001016200012a565b5090565b6000604051905090565b600080fd5b600080fd5b600073ffffffffffffffffffffffffffffffffffffffff82169050919050565b600062000189826200015c565b9050919050565b6200019b816200017c565b8114620001a757600080fd5b50565b600081519050620001bb8162000190565b92915050565b600080fd5b600080fd5b6000601f19601f8301169050919050565b7f4e487b7100000000000000000000000000000000000000000000000000000000600052604160045260246000fd5b6200021682620001cb565b810181811067ffffffffffffffff82111715620002385762000237620001dc565b5b80604052505050565b60006200024d62000148565b90506200025b82826200020b565b919050565b600067ffffffffffffffff8211156200027e576200027d620001dc565b5b6200028982620001cb565b9050602081019050919050565b60005b83811015620002b657808201518184015260208101905062000299565b83811115620002c6576000848401525b50505050565b6000620002e3620002dd8462000260565b62000241565b905082815260208101848484011115620003025762000301620001c6565b5b6200030f84828562000296565b509392505050565b600082601f8301126200032f576200032e620001c1565b5b815162000341848260208601620002cc565b91505092915050565b6000806040838503121562000364576200036362000152565b5b60006200037485828601620001aa565b925050602083015167ffffffffffffffff81111562000398576200039762000157565b5b620003a68582860162000317565b9150509250929050565b7f4e487b7100000000000000000000000000000000000000000000000000000000600052602260045260246000fd5b60006002820490506001821680620003f857607f821691505b602082108114156200040f576200040e620003b0565b5b50919050565b610a6980620004256000396000f3fe608060405234801561001057600080fd5b50600436106100365760003560e01c8063328684ac1461003b57806341efaee914610057575b600080fd5b61005560048036038101906100509190610279565b610075565b005b61005f61017e565b60405161006c9190610338565b60405180910390f35b600083838360405160200161008c939291906103c0565b604051602081830303815290604052905060008060009054906101000a900473ffffffffffffffffffffffffffffffffffffffff1673ffffffffffffffffffffffffffffffffffffffff1663801b5aef6001846040518363ffffffff1660e01b81526004016100fc929190610570565b600060405180830381600087803b15801561011657600080fd5b505af115801561012a573d6000803e3d6000fd5b505050506040513d6000823e3d601f19601f8201168201806040525081019061015391906106c8565b905060008060008380602001905181019061016e919061098c565b9250925092505050505050505050565b60008054906101000a900473ffffffffffffffffffffffffffffffffffffffff1681565b6000604051905090565b600080fd5b600080fd5b600073ffffffffffffffffffffffffffffffffffffffff82169050919050565b60006101e1826101b6565b9050919050565b6101f1816101d6565b81146101fc57600080fd5b50565b60008135905061020e816101e8565b92915050565b600080fd5b600080fd5b600080fd5b60008083601f84011261023957610238610214565b5b8235905067ffffffffffffffff81111561025657610255610219565b5b6020830191508360018202830111156102725761027161021e565b5b9250929050565b600080600060408486031215610292576102916101ac565b5b60006102a0868287016101ff565b935050602084013567ffffffffffffffff8111156102c1576102c06101b1565b5b6102cd86828701610223565b92509250509250925092565b6000819050919050565b60006102fe6102f96102f4846101b6565b6102d9565b6101b6565b9050919050565b6000610310826102e3565b9050919050565b600061032282610305565b9050919050565b61033281610317565b82525050565b600060208201905061034d6000830184610329565b92915050565b61035c816101d6565b82525050565b600082825260208201905092915050565b82818337600083830152505050565b6000601f19601f8301169050919050565b600061039f8385610362565b93506103ac838584610373565b6103b583610382565b840190509392505050565b60006040820190506103d56000830186610353565b81810360208301526103e8818486610393565b9050949350505050565b7f4e487b7100000000000000000000000000000000000000000000000000000000600052602260045260246000fd5b6000600282049050600182168061043957607f821691505b6020821081141561044d5761044c6103f2565b5b50919050565b60008190508160005260206000209050919050565b6000815461047581610421565b61047f8186610362565b9450600182166000811461049a57600181146104ac576104df565b60ff19831686526020860193506104df565b6104b585610453565b60005b838110156104d7578154818901526001820191506020810190506104b8565b808801955050505b50505092915050565b600081519050919050565b600082825260208201905092915050565b60005b83811015610522578082015181840152602081019050610507565b83811115610531576000848401525b50505050565b6000610542826104e8565b61054c81856104f3565b935061055c818560208601610504565b61056581610382565b840191505092915050565b6000604082019050818103600083015261058a8185610468565b9050818103602083015261059e8184610537565b90509392505050565b600080fd5b7f4e487b7100000000000000000000000000000000000000000000000000000000600052604160045260246000fd5b6105e482610382565b810181811067ffffffffffffffff82111715610603576106026105ac565b5b80604052505050565b60006106166101a2565b905061062282826105db565b919050565b600067ffffffffffffffff821115610642576106416105ac565b5b61064b82610382565b9050602081019050919050565b600061066b61066684610627565b61060c565b905082815260208101848484011115610687576106866105a7565b5b610692848285610504565b509392505050565b600082601f8301126106af576106ae610214565b5b81516106bf848260208601610658565b91505092915050565b6000602082840312156106de576106dd6101ac565b5b600082015167ffffffffffffffff8111156106fc576106fb6101b1565b5b6107088482850161069a565b91505092915050565b600067ffffffffffffffff82111561072c5761072b6105ac565b5b602082029050602081019050919050565b6000819050919050565b6107508161073d565b811461075b57600080fd5b50565b60008151905061076d81610747565b92915050565b600061078661078184610711565b61060c565b905080838252602082019050602084028301858111156107a9576107a861021e565b5b835b818110156107d257806107be888261075e565b8452602084019350506020810190506107ab565b5050509392505050565b600082601f8301126107f1576107f0610214565b5b8151610801848260208601610773565b91505092915050565b600067ffffffffffffffff821115610825576108246105ac565b5b602082029050602081019050919050565b600067ffffffffffffffff821115610851576108506105ac565b5b61085a82610382565b9050602081019050919050565b600061087a61087584610836565b61060c565b905082815260208101848484011115610896576108956105a7565b5b6108a1848285610504565b509392505050565b600082601f8301126108be576108bd610214565b5b81516108ce848260208601610867565b91505092915050565b60006108ea6108e58461080a565b61060c565b9050808382526020820190506020840283018581111561090d5761090c61021e565b5b835b8181101561095457805167ffffffffffffffff81111561093257610931610214565b5b80860161093f89826108a9565b8552602085019450505060208101905061090f565b5050509392505050565b600082601f83011261097357610972610214565b5b81516109838482602086016108d7565b91505092915050565b6000806000606084860312156109a5576109a46101ac565b5b600084015167ffffffffffffffff8111156109c3576109c26101b1565b5b6109cf868287016107dc565b935050602084015167ffffffffffffffff8111156109f0576109ef6101b1565b5b6109fc8682870161095e565b925050604084015167ffffffffffffffff811115610a1d57610a1c6101b1565b5b610a29868287016108a9565b915050925092509256fea2646970667358221220cd554f35522235f4f13723568efb948275aed331f8a3a0b3481edb512d519fea64736f6c63430008090033",
  "linkReferences": {},
  "deployedLinkReferences": {}
}