{
  "_format": "hh-sol-artifact-1",
  "contractName": "ConnecteAPI",
  "sourceName": "contracts/ConnecteAPI.sol",
  "abi": [
    {
      "inputs": [
        {
          "internalType": "address",
          "name": "_turingHelperAddress",
          "type": "address"
        }
      ],
      "stateMutability": "nonpayable",
      "type": "constructor"
    },
    {
      "inputs": [
        {
          "internalType": "string",
          "name": "_city",
          "type": "string"
        },
        {
          "internalType": "string",
          "name": "_hotelName",
          "type": "string"
        },
        {
          "internalType": "uint256",
          "name": "_startDay",
          "type": "uint256"
        },
        {
          "internalType": "uint256",
          "name": "_numberOfNights",
          "type": "uint256"
        },
        {
          "internalType": "uint256",
          "name": "_id",
          "type": "uint256"
        },
        {
          "internalType": "uint256",
          "name": "_price",
          "type": "uint256"
        }
      ],
      "name": "finalPOSTForBooking",
      "outputs": [
        {
          "internalType": "bool",
          "name": "",
          "type": "bool"
        }
      ],
      "stateMutability": "nonpayable",
      "type": "function"
    },
    {
      "inputs": [
        {
          "internalType": "string",
          "name": "_destination",
          "type": "string"
        }
      ],
      "name": "numberOfHotelPerDestination",
      "outputs": [
        {
          "internalType": "uint256",
          "name": "",
          "type": "uint256"
        }
      ],
      "stateMutability": "view",
      "type": "function"
    },
    {
      "inputs": [
        {
          "internalType": "string",
          "name": "_hotel",
          "type": "string"
        }
      ],
      "name": "pricePerHotel",
      "outputs": [
        {
          "internalType": "uint256",
          "name": "",
          "type": "uint256"
        }
      ],
      "stateMutability": "view",
      "type": "function"
    },
    {
      "inputs": [
        {
          "internalType": "string",
          "name": "_destination",
          "type": "string"
        }
      ],
      "name": "sendPOSTForBooking",
      "outputs": [
        {
          "internalType": "bool",
          "name": "",
          "type": "bool"
        }
      ],
      "stateMutability": "nonpayable",
      "type": "function"
    },
    {
      "inputs": [],
      "name": "turing",
      "outputs": [
        {
          "internalType": "contract TuringHelper",
          "name": "",
          "type": "address"
        }
      ],
      "stateMutability": "view",
      "type": "function"
    },
    {
      "inputs": [],
      "name": "turingHelperAddress",
      "outputs": [
        {
          "internalType": "address",
          "name": "",
          "type": "address"
        }
      ],
      "stateMutability": "view",
      "type": "function"
    },
    {
      "inputs": [],
      "name": "turingUrl",
      "outputs": [
        {
          "internalType": "string",
          "name": "",
          "type": "string"
        }
      ],
      "stateMutability": "view",
      "type": "function"
    },
    {
      "inputs": [
        {
          "internalType": "uint256",
          "name": "_i",
          "type": "uint256"
        }
      ],
      "name": "uintToString",
      "outputs": [
        {
          "internalType": "string",
          "name": "",
          "type": "string"
        }
      ],
      "stateMutability": "pure",
      "type": "function"
    }
  ],
  "bytecode": "0x60806040523480156200001157600080fd5b5060405162001a0c38038062001a0c83398181016040528101906200003791906200020c565b80600560006101000a81548173ffffffffffffffffffffffffffffffffffffffff021916908373ffffffffffffffffffffffffffffffffffffffff16021790555080600460006101000a81548173ffffffffffffffffffffffffffffffffffffffff021916908373ffffffffffffffffffffffffffffffffffffffff160217905550604051806080016040528060438152602001620019c96043913960069080519060200190620000ea929190620000f2565b5050620002a3565b82805462000100906200026d565b90600052602060002090601f01602090048101928262000124576000855562000170565b82601f106200013f57805160ff191683800117855562000170565b8280016001018555821562000170579182015b828111156200016f57825182559160200191906001019062000152565b5b5090506200017f919062000183565b5090565b5b808211156200019e57600081600090555060010162000184565b5090565b600080fd5b600073ffffffffffffffffffffffffffffffffffffffff82169050919050565b6000620001d482620001a7565b9050919050565b620001e681620001c7565b8114620001f257600080fd5b50565b6000815190506200020681620001db565b92915050565b600060208284031215620002255762000224620001a2565b5b60006200023584828501620001f5565b91505092915050565b7f4e487b7100000000000000000000000000000000000000000000000000000000600052602260045260246000fd5b600060028204905060018216806200028657607f821691505b602082108114156200029d576200029c6200023e565b5b50919050565b61171680620002b36000396000f3fe608060405234801561001057600080fd5b50600436106100885760003560e01c8063b02dc9681161005b578063b02dc96814610129578063c68cbfe914610147578063d9dfe9f714610177578063e9395679146101a757610088565b806318ae55171461008d578063351de186146100bd57806350c897ba146100ed578063a3b2fce11461010b575b600080fd5b6100a760048036038101906100a29190610a9a565b6101d7565b6040516100b49190610b7a565b60405180910390f35b6100d760048036038101906100d29190610b95565b6103ba565b6040516100e49190610b7a565b60405180910390f35b6100f5610679565b6040516101029190610c5d565b60405180910390f35b61011361069f565b6040516101209190610c99565b60405180910390f35b6101316106c5565b60405161013e9190610d3c565b60405180910390f35b610161600480360381019061015c9190610b95565b610753565b60405161016e9190610d6d565b60405180910390f35b610191600480360381019061018c9190610b95565b61077b565b60405161019e9190610d6d565b60405180910390f35b6101c160048036038101906101bc9190610d88565b6107a3565b6040516101ce9190610d3c565b60405180910390f35b60008087876101e5886107a3565b6101ee886107a3565b6101f7886107a3565b610200886107a3565b60405160200161021596959493929190611005565b604051602081830303815290604052905060008160405160200161023991906110aa565b60405160208183030381529060405290506000600460009054906101000a900473ffffffffffffffffffffffffffffffffffffffff1673ffffffffffffffffffffffffffffffffffffffff16632f7adf436006846040518363ffffffff1660e01b81526004016102aa92919061120c565b600060405180830381600087803b1580156102c457600080fd5b505af11580156102d8573d6000803e3d6000fd5b505050506040513d6000823e3d601f19601f8201168201806040525081019061030191906112e4565b9050600081806020019051810190610319919061139d565b905060405160200161032a90611432565b604051602081830303815290604052805190602001208160405160200161035191906110aa565b6040516020818303038152906040528051906020012014156103a8576040517f08c379a000000000000000000000000000000000000000000000000000000000815260040161039f90611493565b60405180910390fd5b60019450505050509695505050505050565b600080600680546103ca906110f0565b80601f01602080910402602001604051908101604052809291908181526020018280546103f6906110f0565b80156104435780601f1061041857610100808354040283529160200191610443565b820191906000526020600020905b81548152906001019060200180831161042657829003601f168201915b5050505050905060006040518060400160405280601981526020017f2f70726f63657373426f6f6b696e673f7061795f6e6f773d3100000000000000815250905060006040518060400160405280600a81526020017f3f686f74656c5f69643d0000000000000000000000000000000000000000000081525090506000838383886040516020016104d794939291906114b3565b60405160208183030381529060405290506000816040516020016104fb91906110aa565b60405160208183030381529060405290506000600460009054906101000a900473ffffffffffffffffffffffffffffffffffffffff1673ffffffffffffffffffffffffffffffffffffffff16632f7adf4384846040518363ffffffff1660e01b815260040161056b9291906114f1565b600060405180830381600087803b15801561058557600080fd5b505af1158015610599573d6000803e3d6000fd5b505050506040513d6000823e3d601f19601f820116820180604052508101906105c291906112e4565b90506000818060200190518101906105da919061139d565b90506040516020016105eb90611432565b604051602081830303815290604052805190602001208160405160200161061291906110aa565b604051602081830303815290604052805190602001201415610669576040517f08c379a000000000000000000000000000000000000000000000000000000000815260040161066090611493565b60405180910390fd5b6001975050505050505050919050565b600460009054906101000a900473ffffffffffffffffffffffffffffffffffffffff1681565b600560009054906101000a900473ffffffffffffffffffffffffffffffffffffffff1681565b600680546106d2906110f0565b80601f01602080910402602001604051908101604052809291908181526020018280546106fe906110f0565b801561074b5780601f106107205761010080835404028352916020019161074b565b820191906000526020600020905b81548152906001019060200180831161072e57829003601f168201915b505050505081565b600060038260405161076591906110aa565b9081526020016040518091039020549050919050565b600060028260405161078d91906110aa565b9081526020016040518091039020549050919050565b606060008214156107eb576040518060400160405280600181526020017f30000000000000000000000000000000000000000000000000000000000000008152509050610905565b600082905060005b6000821461081d57808061080690611557565b915050600a8261081691906115cf565b91506107f3565b60008167ffffffffffffffff81111561083957610838610939565b5b6040519080825280601f01601f19166020018201604052801561086b5781602001600182028036833780820191505090505b50905060008290508593505b600084146108fd57600a8461088c9190611600565b60306108989190611631565b60f81b82826108a690611687565b925082815181106108ba576108b96116b1565b5b60200101907effffffffffffffffffffffffffffffffffffffffffffffffffffffffffffff1916908160001a905350600a846108f691906115cf565b9350610877565b819450505050505b919050565b6000604051905090565b600080fd5b600080fd5b600080fd5b600080fd5b6000601f19601f8301169050919050565b7f4e487b7100000000000000000000000000000000000000000000000000000000600052604160045260246000fd5b61097182610928565b810181811067ffffffffffffffff821117156109905761098f610939565b5b80604052505050565b60006109a361090a565b90506109af8282610968565b919050565b600067ffffffffffffffff8211156109cf576109ce610939565b5b6109d882610928565b9050602081019050919050565b82818337600083830152505050565b6000610a07610a02846109b4565b610999565b905082815260208101848484011115610a2357610a22610923565b5b610a2e8482856109e5565b509392505050565b600082601f830112610a4b57610a4a61091e565b5b8135610a5b8482602086016109f4565b91505092915050565b6000819050919050565b610a7781610a64565b8114610a8257600080fd5b50565b600081359050610a9481610a6e565b92915050565b60008060008060008060c08789031215610ab757610ab6610914565b5b600087013567ffffffffffffffff811115610ad557610ad4610919565b5b610ae189828a01610a36565b965050602087013567ffffffffffffffff811115610b0257610b01610919565b5b610b0e89828a01610a36565b9550506040610b1f89828a01610a85565b9450506060610b3089828a01610a85565b9350506080610b4189828a01610a85565b92505060a0610b5289828a01610a85565b9150509295509295509295565b60008115159050919050565b610b7481610b5f565b82525050565b6000602082019050610b8f6000830184610b6b565b92915050565b600060208284031215610bab57610baa610914565b5b600082013567ffffffffffffffff811115610bc957610bc8610919565b5b610bd584828501610a36565b91505092915050565b600073ffffffffffffffffffffffffffffffffffffffff82169050919050565b6000819050919050565b6000610c23610c1e610c1984610bde565b610bfe565b610bde565b9050919050565b6000610c3582610c08565b9050919050565b6000610c4782610c2a565b9050919050565b610c5781610c3c565b82525050565b6000602082019050610c726000830184610c4e565b92915050565b6000610c8382610bde565b9050919050565b610c9381610c78565b82525050565b6000602082019050610cae6000830184610c8a565b92915050565b600081519050919050565b600082825260208201905092915050565b60005b83811015610cee578082015181840152602081019050610cd3565b83811115610cfd576000848401525b50505050565b6000610d0e82610cb4565b610d188185610cbf565b9350610d28818560208601610cd0565b610d3181610928565b840191505092915050565b60006020820190508181036000830152610d568184610d03565b905092915050565b610d6781610a64565b82525050565b6000602082019050610d826000830184610d5e565b92915050565b600060208284031215610d9e57610d9d610914565b5b6000610dac84828501610a85565b91505092915050565b600081905092915050565b7f7b22636974792220203a20220000000000000000000000000000000000000000600082015250565b6000610df6600c83610db5565b9150610e0182610dc0565b600c82019050919050565b6000610e1782610cb4565b610e218185610db5565b9350610e31818560208601610cd0565b80840191505092915050565b7f222c2022686f74656c4e616d6522203a20220000000000000000000000000000600082015250565b6000610e73601283610db5565b9150610e7e82610e3d565b601282019050919050565b7f222c2022737461727444617922203a2022000000000000000000000000000000600082015250565b6000610ebf601183610db5565b9150610eca82610e89565b601182019050919050565b7f222c20226e756d6265724f664e696768747322203a2022000000000000000000600082015250565b6000610f0b601783610db5565b9150610f1682610ed5565b601782019050919050565b7f222c2022696422203a2022000000000000000000000000000000000000000000600082015250565b6000610f57600b83610db5565b9150610f6282610f21565b600b82019050919050565b7f222c2022707269636522203a2022000000000000000000000000000000000000600082015250565b6000610fa3600e83610db5565b9150610fae82610f6d565b600e82019050919050565b7f227d000000000000000000000000000000000000000000000000000000000000600082015250565b6000610fef600283610db5565b9150610ffa82610fb9565b600282019050919050565b600061101082610de9565b915061101c8289610e0c565b915061102782610e66565b91506110338288610e0c565b915061103e82610eb2565b915061104a8287610e0c565b915061105582610efe565b91506110618286610e0c565b915061106c82610f4a565b91506110788285610e0c565b915061108382610f96565b915061108f8284610e0c565b915061109a82610fe2565b9150819050979650505050505050565b60006110b68284610e0c565b915081905092915050565b7f4e487b7100000000000000000000000000000000000000000000000000000000600052602260045260246000fd5b6000600282049050600182168061110857607f821691505b6020821081141561111c5761111b6110c1565b5b50919050565b60008190508160005260206000209050919050565b60008154611144816110f0565b61114e8186610cbf565b94506001821660008114611169576001811461117b576111ae565b60ff19831686526020860193506111ae565b61118485611122565b60005b838110156111a657815481890152600182019150602081019050611187565b808801955050505b50505092915050565b600081519050919050565b600082825260208201905092915050565b60006111de826111b7565b6111e881856111c2565b93506111f8818560208601610cd0565b61120181610928565b840191505092915050565b600060408201905081810360008301526112268185611137565b9050818103602083015261123a81846111d3565b90509392505050565b600067ffffffffffffffff82111561125e5761125d610939565b5b61126782610928565b9050602081019050919050565b600061128761128284611243565b610999565b9050828152602081018484840111156112a3576112a2610923565b5b6112ae848285610cd0565b509392505050565b600082601f8301126112cb576112ca61091e565b5b81516112db848260208601611274565b91505092915050565b6000602082840312156112fa576112f9610914565b5b600082015167ffffffffffffffff81111561131857611317610919565b5b611324848285016112b6565b91505092915050565b600061134061133b846109b4565b610999565b90508281526020810184848401111561135c5761135b610923565b5b611367848285610cd0565b509392505050565b600082601f8301126113845761138361091e565b5b815161139484826020860161132d565b91505092915050565b6000602082840312156113b3576113b2610914565b5b600082015167ffffffffffffffff8111156113d1576113d0610919565b5b6113dd8482850161136f565b91505092915050565b7f6572726f72000000000000000000000000000000000000000000000000000000600082015250565b600061141c600583610db5565b9150611427826113e6565b600582019050919050565b600061143d8261140f565b9150819050919050565b7f5061796d656e74206661696c6564000000000000000000000000000000000000600082015250565b600061147d600e83610cbf565b915061148882611447565b602082019050919050565b600060208201905081810360008301526114ac81611470565b9050919050565b60006114bf8287610e0c565b91506114cb8286610e0c565b91506114d78285610e0c565b91506114e38284610e0c565b915081905095945050505050565b6000604082019050818103600083015261150b8185610d03565b9050818103602083015261151f81846111d3565b90509392505050565b7f4e487b7100000000000000000000000000000000000000000000000000000000600052601160045260246000fd5b600061156282610a64565b91507fffffffffffffffffffffffffffffffffffffffffffffffffffffffffffffffff82141561159557611594611528565b5b600182019050919050565b7f4e487b7100000000000000000000000000000000000000000000000000000000600052601260045260246000fd5b60006115da82610a64565b91506115e583610a64565b9250826115f5576115f46115a0565b5b828204905092915050565b600061160b82610a64565b915061161683610a64565b925082611626576116256115a0565b5b828206905092915050565b600061163c82610a64565b915061164783610a64565b9250827fffffffffffffffffffffffffffffffffffffffffffffffffffffffffffffffff0382111561167c5761167b611528565b5b828201905092915050565b600061169282610a64565b915060008214156116a6576116a5611528565b5b600182039050919050565b7f4e487b7100000000000000000000000000000000000000000000000000000000600052603260045260246000fdfea2646970667358221220ab08f9178370ad450d0edf918b44e9f6e68d6c0764295ec1e259b316592af14564736f6c6343000809003368747470733a2f2f656b6a6f3434626763312e657865637574652d6170692e75732d656173742d322e616d617a6f6e6177732e636f6d2f74726176656c426f6f6b6564",
  "linkReferences": {},
  "deployedLinkReferences": {}
}