{
  "_format": "hh-sol-artifact-1",
  "contractName": "TuringHelper",
  "sourceName": "contracts/TuringHelper.sol",
  "abi": [
    {
      "inputs": [],
      "stateMutability": "nonpayable",
      "type": "constructor"
    },
    {
      "anonymous": false,
      "inputs": [
        {
          "indexed": false,
          "internalType": "address",
          "name": "_callerAddress",
          "type": "address"
        }
      ],
      "name": "AddPermittedCaller",
      "type": "event"
    },
    {
      "anonymous": false,
      "inputs": [
        {
          "indexed": false,
          "internalType": "address",
          "name": "_callerAddress",
          "type": "address"
        },
        {
          "indexed": false,
          "internalType": "bool",
          "name": "permitted",
          "type": "bool"
        }
      ],
      "name": "CheckPermittedCaller",
      "type": "event"
    },
    {
      "anonymous": false,
      "inputs": [
        {
          "indexed": false,
          "internalType": "uint256",
          "name": "version",
          "type": "uint256"
        },
        {
          "indexed": false,
          "internalType": "uint256",
          "name": "random",
          "type": "uint256"
        }
      ],
      "name": "Offchain42",
      "type": "event"
    },
    {
      "anonymous": false,
      "inputs": [
        {
          "indexed": false,
          "internalType": "uint256",
          "name": "version",
          "type": "uint256"
        },
        {
          "indexed": false,
          "internalType": "uint256",
          "name": "random",
          "type": "uint256"
        }
      ],
      "name": "OffchainRandom",
      "type": "event"
    },
    {
      "anonymous": false,
      "inputs": [
        {
          "indexed": false,
          "internalType": "uint256",
          "name": "version",
          "type": "uint256"
        },
        {
          "indexed": false,
          "internalType": "bytes",
          "name": "responseData",
          "type": "bytes"
        }
      ],
      "name": "OffchainResponse",
      "type": "event"
    },
    {
      "anonymous": false,
      "inputs": [
        {
          "indexed": true,
          "internalType": "address",
          "name": "previousOwner",
          "type": "address"
        },
        {
          "indexed": true,
          "internalType": "address",
          "name": "newOwner",
          "type": "address"
        }
      ],
      "name": "OwnershipTransferred",
      "type": "event"
    },
    {
      "anonymous": false,
      "inputs": [
        {
          "indexed": false,
          "internalType": "address",
          "name": "_callerAddress",
          "type": "address"
        }
      ],
      "name": "RemovePermittedCaller",
      "type": "event"
    },
    {
      "inputs": [
        {
          "internalType": "uint32",
          "name": "rType",
          "type": "uint32"
        },
        {
          "internalType": "uint256",
          "name": "_random",
          "type": "uint256"
        }
      ],
      "name": "Get42",
      "outputs": [
        {
          "internalType": "uint256",
          "name": "",
          "type": "uint256"
        }
      ],
      "stateMutability": "nonpayable",
      "type": "function"
    },
    {
      "inputs": [
        {
          "internalType": "uint32",
          "name": "rType",
          "type": "uint32"
        },
        {
          "internalType": "uint256",
          "name": "_random",
          "type": "uint256"
        }
      ],
      "name": "GetRandom",
      "outputs": [
        {
          "internalType": "uint256",
          "name": "",
          "type": "uint256"
        }
      ],
      "stateMutability": "nonpayable",
      "type": "function"
    },
    {
      "inputs": [
        {
          "internalType": "uint32",
          "name": "rType",
          "type": "uint32"
        },
        {
          "internalType": "string",
          "name": "_url",
          "type": "string"
        },
        {
          "internalType": "bytes",
          "name": "_payload",
          "type": "bytes"
        }
      ],
      "name": "GetResponse",
      "outputs": [
        {
          "internalType": "bytes",
          "name": "",
          "type": "bytes"
        }
      ],
      "stateMutability": "nonpayable",
      "type": "function"
    },
    {
      "inputs": [],
      "name": "Turing42",
      "outputs": [
        {
          "internalType": "uint256",
          "name": "",
          "type": "uint256"
        }
      ],
      "stateMutability": "nonpayable",
      "type": "function"
    },
    {
      "inputs": [],
      "name": "TuringRandom",
      "outputs": [
        {
          "internalType": "uint256",
          "name": "",
          "type": "uint256"
        }
      ],
      "stateMutability": "nonpayable",
      "type": "function"
    },
    {
      "inputs": [
        {
          "internalType": "string",
          "name": "_url",
          "type": "string"
        },
        {
          "internalType": "bytes",
          "name": "_payload",
          "type": "bytes"
        }
      ],
      "name": "TuringTx",
      "outputs": [
        {
          "internalType": "bytes",
          "name": "",
          "type": "bytes"
        }
      ],
      "stateMutability": "nonpayable",
      "type": "function"
    },
    {
      "inputs": [
        {
          "internalType": "string",
          "name": "_url",
          "type": "string"
        },
        {
          "internalType": "bytes",
          "name": "_payload",
          "type": "bytes"
        }
      ],
      "name": "TuringTxV1",
      "outputs": [
        {
          "internalType": "bytes",
          "name": "",
          "type": "bytes"
        }
      ],
      "stateMutability": "nonpayable",
      "type": "function"
    },
    {
      "inputs": [
        {
          "internalType": "address",
          "name": "_callerAddress",
          "type": "address"
        }
      ],
      "name": "addPermittedCaller",
      "outputs": [],
      "stateMutability": "nonpayable",
      "type": "function"
    },
    {
      "inputs": [
        {
          "internalType": "address",
          "name": "_callerAddress",
          "type": "address"
        }
      ],
      "name": "checkPermittedCaller",
      "outputs": [
        {
          "internalType": "bool",
          "name": "",
          "type": "bool"
        }
      ],
      "stateMutability": "nonpayable",
      "type": "function"
    },
    {
      "inputs": [],
      "name": "owner",
      "outputs": [
        {
          "internalType": "address",
          "name": "",
          "type": "address"
        }
      ],
      "stateMutability": "view",
      "type": "function"
    },
    {
      "inputs": [
        {
          "internalType": "address",
          "name": "",
          "type": "address"
        }
      ],
      "name": "permittedCaller",
      "outputs": [
        {
          "internalType": "bool",
          "name": "",
          "type": "bool"
        }
      ],
      "stateMutability": "view",
      "type": "function"
    },
    {
      "inputs": [
        {
          "internalType": "address",
          "name": "_callerAddress",
          "type": "address"
        }
      ],
      "name": "removePermittedCaller",
      "outputs": [],
      "stateMutability": "nonpayable",
      "type": "function"
    },
    {
      "inputs": [],
      "name": "renounceOwnership",
      "outputs": [],
      "stateMutability": "nonpayable",
      "type": "function"
    },
    {
      "inputs": [
        {
          "internalType": "bytes4",
          "name": "_interfaceId",
          "type": "bytes4"
        }
      ],
      "name": "supportsInterface",
      "outputs": [
        {
          "internalType": "bool",
          "name": "",
          "type": "bool"
        }
      ],
      "stateMutability": "pure",
      "type": "function"
    },
    {
      "inputs": [
        {
          "internalType": "address",
          "name": "newOwner",
          "type": "address"
        }
      ],
      "name": "transferOwnership",
      "outputs": [],
      "stateMutability": "nonpayable",
      "type": "function"
    }
  ],
  "bytecode": "0x608060405234801561001057600080fd5b5061002d61002261007360201b60201c565b61007b60201b60201c565b30600160006101000a81548173ffffffffffffffffffffffffffffffffffffffff021916908373ffffffffffffffffffffffffffffffffffffffff16021790555061013f565b600033905090565b60008060009054906101000a900473ffffffffffffffffffffffffffffffffffffffff169050816000806101000a81548173ffffffffffffffffffffffffffffffffffffffff021916908373ffffffffffffffffffffffffffffffffffffffff1602179055508173ffffffffffffffffffffffffffffffffffffffff168173ffffffffffffffffffffffffffffffffffffffff167f8be0079c531659141344cd1fd0a4f28419497f9722a3daafe3b4186f6b6457e060405160405180910390a35050565b612375806200014f6000396000f3fe608060405234801561001057600080fd5b50600436106100f55760003560e01c80638da5cb5b11610097578063cbcd0c2c11610066578063cbcd0c2c14610286578063e86f1899146102b6578063f2f3fa07146102e6578063f2fde38b14610316576100f5565b80638da5cb5b14610212578063a432ee2714610230578063aadebcb91461024c578063b8d1605614610268576100f5565b8063493d57d6116100d3578063493d57d614610178578063715018a6146101a85780637d93616c146101b2578063801b5aef146101e2576100f5565b806301ffc9a7146100fa5780632f7adf431461012a57806345ff812a1461015a575b600080fd5b610114600480360381019061010f9190611666565b610332565b60405161012191906116ae565b60405180910390f35b610144600480360381019061013f91906118b0565b6103f6565b60405161015191906119b0565b60405180910390f35b6101626105c7565b60405161016f91906119eb565b60405180910390f35b610192600480360381019061018d9190611a6e565b61074b565b60405161019f91906119eb565b60405180910390f35b6101b0610819565b005b6101cc60048036038101906101c79190611aae565b6108a1565b6040516101d991906119b0565b60405180910390f35b6101fc60048036038101906101f791906118b0565b6109b9565b60405161020991906119b0565b60405180910390f35b61021a610b8d565b6040516102279190611b7a565b60405180910390f35b61024a60048036038101906102459190611bc1565b610bb6565b005b61026660048036038101906102619190611bc1565b610cc4565b005b610270610dd2565b60405161027d91906119eb565b60405180910390f35b6102a0600480360381019061029b9190611bc1565b610f56565b6040516102ad91906116ae565b60405180910390f35b6102d060048036038101906102cb9190611a6e565b610fea565b6040516102dd91906119eb565b60405180910390f35b61030060048036038101906102fb9190611bc1565b6110b8565b60405161030d91906116ae565b60405180910390f35b610330600480360381019061032b9190611bc1565b6110d8565b005b6000807f01ffc9a7a5cef8baa21ed3c5c0d7e23accb804b619e9333b597f47a0d84076e290506000632f7adf4360e01b9050817bffffffffffffffffffffffffffffffffffffffffffffffffffffffff1916847bffffffffffffffffffffffffffffffffffffffffffffffffffffffff191614806103ed5750807bffffffffffffffffffffffffffffffffffffffffffffffffffffffff1916847bffffffffffffffffffffffffffffffffffffffffffffffffffffffff1916145b92505050919050565b6060600260003373ffffffffffffffffffffffffffffffffffffffff1673ffffffffffffffffffffffffffffffffffffffff16815260200190815260200160002060009054906101000a900460ff16610484576040517f08c379a000000000000000000000000000000000000000000000000000000000815260040161047b90611c4b565b60405180910390fd5b60008251116104c8576040517f08c379a00000000000000000000000000000000000000000000000000000000081526004016104bf90611cb7565b60405180910390fd5b6000600160009054906101000a900473ffffffffffffffffffffffffffffffffffffffff1673ffffffffffffffffffffffffffffffffffffffff16637d93616c600186866040518463ffffffff1660e01b815260040161052a93929190611d60565b600060405180830381600087803b15801561054457600080fd5b505af1158015610558573d6000803e3d6000fd5b505050506040513d6000823e3d601f19601f820116820180604052508101906105819190611e15565b90507ffde6d9b9b674fe8a495a825379378eb214e03439d12f342ac5e8af9768c1d85c6001826040516105b5929190611e8f565b60405180910390a18091505092915050565b6000600260003373ffffffffffffffffffffffffffffffffffffffff1673ffffffffffffffffffffffffffffffffffffffff16815260200190815260200160002060009054906101000a900460ff16610655576040517f08c379a000000000000000000000000000000000000000000000000000000000815260040161064c90611c4b565b60405180910390fd5b6000600160009054906101000a900473ffffffffffffffffffffffffffffffffffffffff1673ffffffffffffffffffffffffffffffffffffffff1663493d57d6600160006040518363ffffffff1660e01b81526004016106b6929190611efa565b602060405180830381600087803b1580156106d057600080fd5b505af11580156106e4573d6000803e3d6000fd5b505050506040513d601f19601f820116820180604052508101906107089190611f38565b90507f450d62889c3a6e19c9586840ce9c21040b90d81950fe31f2ba982090adaf53e860018260405161073c929190611f65565b60405180910390a18091505090565b60003073ffffffffffffffffffffffffffffffffffffffff163373ffffffffffffffffffffffffffffffffffffffff16146107bb576040517f08c379a00000000000000000000000000000000000000000000000000000000081526004016107b290612000565b60405180910390fd5b60028363ffffffff16146107ce846111d0565b9061080f576040517f08c379a00000000000000000000000000000000000000000000000000000000081526004016108069190612020565b60405180910390fd5b5081905092915050565b61082161152e565b73ffffffffffffffffffffffffffffffffffffffff1661083f610b8d565b73ffffffffffffffffffffffffffffffffffffffff1614610895576040517f08c379a000000000000000000000000000000000000000000000000000000000815260040161088c9061208e565b60405180910390fd5b61089f6000611536565b565b60603073ffffffffffffffffffffffffffffffffffffffff163373ffffffffffffffffffffffffffffffffffffffff1614610911576040517f08c379a000000000000000000000000000000000000000000000000000000000815260040161090890612000565b60405180910390fd5b6000825111610955576040517f08c379a000000000000000000000000000000000000000000000000000000000815260040161094c906120fa565b60405180910390fd5b600262ffffff851663ffffffff161461096d856111d0565b906109ae576040517f08c379a00000000000000000000000000000000000000000000000000000000081526004016109a59190612020565b60405180910390fd5b508190509392505050565b6060600260003373ffffffffffffffffffffffffffffffffffffffff1673ffffffffffffffffffffffffffffffffffffffff16815260200190815260200160002060009054906101000a900460ff16610a47576040517f08c379a0000000000000000000000000000000000000000000000000000000008152600401610a3e90611c4b565b60405180910390fd5b6000825111610a8b576040517f08c379a0000000000000000000000000000000000000000000000000000000008152600401610a8290611cb7565b60405180910390fd5b6000600160009054906101000a900473ffffffffffffffffffffffffffffffffffffffff1673ffffffffffffffffffffffffffffffffffffffff16637d93616c630100000186866040518463ffffffff1660e01b8152600401610af093929190612155565b600060405180830381600087803b158015610b0a57600080fd5b505af1158015610b1e573d6000803e3d6000fd5b505050506040513d6000823e3d601f19601f82011682018060405250810190610b479190611e15565b90507ffde6d9b9b674fe8a495a825379378eb214e03439d12f342ac5e8af9768c1d85c600182604051610b7b929190611e8f565b60405180910390a18091505092915050565b60008060009054906101000a900473ffffffffffffffffffffffffffffffffffffffff16905090565b610bbe61152e565b73ffffffffffffffffffffffffffffffffffffffff16610bdc610b8d565b73ffffffffffffffffffffffffffffffffffffffff1614610c32576040517f08c379a0000000000000000000000000000000000000000000000000000000008152600401610c299061208e565b60405180910390fd5b6001600260008373ffffffffffffffffffffffffffffffffffffffff1673ffffffffffffffffffffffffffffffffffffffff16815260200190815260200160002060006101000a81548160ff0219169083151502179055507f9ce84a7ab8065f5f6f23c19be05400b2edbabf71e4b29837f56a016c951b97d281604051610cb99190611b7a565b60405180910390a150565b610ccc61152e565b73ffffffffffffffffffffffffffffffffffffffff16610cea610b8d565b73ffffffffffffffffffffffffffffffffffffffff1614610d40576040517f08c379a0000000000000000000000000000000000000000000000000000000008152600401610d379061208e565b60405180910390fd5b6000600260008373ffffffffffffffffffffffffffffffffffffffff1673ffffffffffffffffffffffffffffffffffffffff16815260200190815260200160002060006101000a81548160ff0219169083151502179055507feacddceebef9fdf16961c5dba55871a098bd93be9160335139bdeb226537c6ed81604051610dc79190611b7a565b60405180910390a150565b6000600260003373ffffffffffffffffffffffffffffffffffffffff1673ffffffffffffffffffffffffffffffffffffffff16815260200190815260200160002060009054906101000a900460ff16610e60576040517f08c379a0000000000000000000000000000000000000000000000000000000008152600401610e5790611c4b565b60405180910390fd5b6000600160009054906101000a900473ffffffffffffffffffffffffffffffffffffffff1673ffffffffffffffffffffffffffffffffffffffff1663e86f18996002602a6040518363ffffffff1660e01b8152600401610ec1929190612210565b602060405180830381600087803b158015610edb57600080fd5b505af1158015610eef573d6000803e3d6000fd5b505050506040513d601f19601f82011682018060405250810190610f139190611f38565b90507fcf56007112ef7f986f258f82114b449a536da425cefac3982f64e306b07c7921600182604051610f47929190611f65565b60405180910390a18091505090565b600080600260008473ffffffffffffffffffffffffffffffffffffffff1673ffffffffffffffffffffffffffffffffffffffff16815260200190815260200160002060009054906101000a900460ff1690507fabf082f4a354a0ea137bf1c9b0f6660d1340b3f84e293fb4a4cb01c7602c39628382604051610fd9929190612239565b60405180910390a180915050919050565b60003073ffffffffffffffffffffffffffffffffffffffff163373ffffffffffffffffffffffffffffffffffffffff161461105a576040517f08c379a000000000000000000000000000000000000000000000000000000000815260040161105190612000565b60405180910390fd5b60028363ffffffff161461106d846111d0565b906110ae576040517f08c379a00000000000000000000000000000000000000000000000000000000081526004016110a59190612020565b60405180910390fd5b5081905092915050565b60026020528060005260406000206000915054906101000a900460ff1681565b6110e061152e565b73ffffffffffffffffffffffffffffffffffffffff166110fe610b8d565b73ffffffffffffffffffffffffffffffffffffffff1614611154576040517f08c379a000000000000000000000000000000000000000000000000000000000815260040161114b9061208e565b60405180910390fd5b600073ffffffffffffffffffffffffffffffffffffffff168173ffffffffffffffffffffffffffffffffffffffff1614156111c4576040517f08c379a00000000000000000000000000000000000000000000000000000000081526004016111bb906122d4565b60405180910390fd5b6111cd81611536565b50565b606060018263ffffffff16141561121e576040518060400160405280601e81526020017f545552494e473a204765746820696e74657263657074206661696c75726500008152509050611529565b600a8263ffffffff16141561126a576040518060400160405280601d81526020017f545552494e473a20496e636f727265637420696e7075742073746174650000008152509050611529565b600b8263ffffffff1614156112b6576040518060400160405280601a81526020017f545552494e473a2043616c6c6461746120746f6f2073686f72740000000000008152509050611529565b600c8263ffffffff161415611302576040518060400160405280601581526020017f545552494e473a2055524c203e363420627974657300000000000000000000008152509050611529565b600d8263ffffffff16141561134e576040518060400160405280601481526020017f545552494e473a20536572766572206572726f720000000000000000000000008152509050611529565b600e8263ffffffff16141561137d576040518060600160405280602881526020016122f5602891399050611529565b600f8263ffffffff1614156113ac5760405180606001604052806023815260200161231d602391399050611529565b60108263ffffffff1614156113f8576040518060400160405280601381526020017f545552494e473a20524e47206661696c757265000000000000000000000000008152509050611529565b60118263ffffffff161415611444576040518060400160405280601f81526020017f545552494e473a2041504920526573706f6e7365203e333232206368617273008152509050611529565b60128263ffffffff161415611490576040518060400160405280601f81526020017f545552494e473a2041504920526573706f6e7365203e313630206279746573008152509050611529565b60138263ffffffff1614156114dc576040518060400160405280601b81526020017f545552494e473a20496e73756666696369656e742063726564697400000000008152509050611529565b60148263ffffffff161415611528576040518060400160405280601b81526020017f545552494e473a204d697373696e6720636163686520656e74727900000000008152509050611529565b5b919050565b600033905090565b60008060009054906101000a900473ffffffffffffffffffffffffffffffffffffffff169050816000806101000a81548173ffffffffffffffffffffffffffffffffffffffff021916908373ffffffffffffffffffffffffffffffffffffffff1602179055508173ffffffffffffffffffffffffffffffffffffffff168173ffffffffffffffffffffffffffffffffffffffff167f8be0079c531659141344cd1fd0a4f28419497f9722a3daafe3b4186f6b6457e060405160405180910390a35050565b6000604051905090565b600080fd5b600080fd5b60007fffffffff0000000000000000000000000000000000000000000000000000000082169050919050565b6116438161160e565b811461164e57600080fd5b50565b6000813590506116608161163a565b92915050565b60006020828403121561167c5761167b611604565b5b600061168a84828501611651565b91505092915050565b60008115159050919050565b6116a881611693565b82525050565b60006020820190506116c3600083018461169f565b92915050565b600080fd5b600080fd5b6000601f19601f8301169050919050565b7f4e487b7100000000000000000000000000000000000000000000000000000000600052604160045260246000fd5b61171c826116d3565b810181811067ffffffffffffffff8211171561173b5761173a6116e4565b5b80604052505050565b600061174e6115fa565b905061175a8282611713565b919050565b600067ffffffffffffffff82111561177a576117796116e4565b5b611783826116d3565b9050602081019050919050565b82818337600083830152505050565b60006117b26117ad8461175f565b611744565b9050828152602081018484840111156117ce576117cd6116ce565b5b6117d9848285611790565b509392505050565b600082601f8301126117f6576117f56116c9565b5b813561180684826020860161179f565b91505092915050565b600067ffffffffffffffff82111561182a576118296116e4565b5b611833826116d3565b9050602081019050919050565b600061185361184e8461180f565b611744565b90508281526020810184848401111561186f5761186e6116ce565b5b61187a848285611790565b509392505050565b600082601f830112611897576118966116c9565b5b81356118a7848260208601611840565b91505092915050565b600080604083850312156118c7576118c6611604565b5b600083013567ffffffffffffffff8111156118e5576118e4611609565b5b6118f1858286016117e1565b925050602083013567ffffffffffffffff81111561191257611911611609565b5b61191e85828601611882565b9150509250929050565b600081519050919050565b600082825260208201905092915050565b60005b83811015611962578082015181840152602081019050611947565b83811115611971576000848401525b50505050565b600061198282611928565b61198c8185611933565b935061199c818560208601611944565b6119a5816116d3565b840191505092915050565b600060208201905081810360008301526119ca8184611977565b905092915050565b6000819050919050565b6119e5816119d2565b82525050565b6000602082019050611a0060008301846119dc565b92915050565b600063ffffffff82169050919050565b611a1f81611a06565b8114611a2a57600080fd5b50565b600081359050611a3c81611a16565b92915050565b611a4b816119d2565b8114611a5657600080fd5b50565b600081359050611a6881611a42565b92915050565b60008060408385031215611a8557611a84611604565b5b6000611a9385828601611a2d565b9250506020611aa485828601611a59565b9150509250929050565b600080600060608486031215611ac757611ac6611604565b5b6000611ad586828701611a2d565b935050602084013567ffffffffffffffff811115611af657611af5611609565b5b611b02868287016117e1565b925050604084013567ffffffffffffffff811115611b2357611b22611609565b5b611b2f86828701611882565b9150509250925092565b600073ffffffffffffffffffffffffffffffffffffffff82169050919050565b6000611b6482611b39565b9050919050565b611b7481611b59565b82525050565b6000602082019050611b8f6000830184611b6b565b92915050565b611b9e81611b59565b8114611ba957600080fd5b50565b600081359050611bbb81611b95565b92915050565b600060208284031215611bd757611bd6611604565b5b6000611be584828501611bac565b91505092915050565b600082825260208201905092915050565b7f496e76616c69642043616c6c6572204164647265737300000000000000000000600082015250565b6000611c35601683611bee565b9150611c4082611bff565b602082019050919050565b60006020820190508181036000830152611c6481611c28565b9050919050565b7f547572696e673a547572696e6754783a6e6f207061796c6f6164000000000000600082015250565b6000611ca1601a83611bee565b9150611cac82611c6b565b602082019050919050565b60006020820190508181036000830152611cd081611c94565b9050919050565b6000819050919050565b6000819050919050565b6000611d06611d01611cfc84611cd7565b611ce1565b611a06565b9050919050565b611d1681611ceb565b82525050565b600081519050919050565b6000611d3282611d1c565b611d3c8185611bee565b9350611d4c818560208601611944565b611d55816116d3565b840191505092915050565b6000606082019050611d756000830186611d0d565b8181036020830152611d878185611d27565b90508181036040830152611d9b8184611977565b9050949350505050565b6000611db8611db38461180f565b611744565b905082815260208101848484011115611dd457611dd36116ce565b5b611ddf848285611944565b509392505050565b600082601f830112611dfc57611dfb6116c9565b5b8151611e0c848260208601611da5565b91505092915050565b600060208284031215611e2b57611e2a611604565b5b600082015167ffffffffffffffff811115611e4957611e48611609565b5b611e5584828501611de7565b91505092915050565b6000611e79611e74611e6f84611cd7565b611ce1565b6119d2565b9050919050565b611e8981611e5e565b82525050565b6000604082019050611ea46000830185611e80565b8181036020830152611eb68184611977565b90509392505050565b6000819050919050565b6000611ee4611edf611eda84611ebf565b611ce1565b6119d2565b9050919050565b611ef481611ec9565b82525050565b6000604082019050611f0f6000830185611d0d565b611f1c6020830184611eeb565b9392505050565b600081519050611f3281611a42565b92915050565b600060208284031215611f4e57611f4d611604565b5b6000611f5c84828501611f23565b91505092915050565b6000604082019050611f7a6000830185611e80565b611f8760208301846119dc565b9392505050565b7f547572696e673a476574526573706f6e73653a6d73672e73656e64657220213d60008201527f2061646472657373287468697329000000000000000000000000000000000000602082015250565b6000611fea602e83611bee565b9150611ff582611f8e565b604082019050919050565b6000602082019050818103600083015261201981611fdd565b9050919050565b6000602082019050818103600083015261203a8184611d27565b905092915050565b7f4f776e61626c653a2063616c6c6572206973206e6f7420746865206f776e6572600082015250565b6000612078602083611bee565b915061208382612042565b602082019050919050565b600060208201905081810360008301526120a78161206b565b9050919050565b7f547572696e673a476574526573706f6e73653a6e6f207061796c6f6164000000600082015250565b60006120e4601d83611bee565b91506120ef826120ae565b602082019050919050565b60006020820190508181036000830152612113816120d7565b9050919050565b6000819050919050565b600061213f61213a6121358461211a565b611ce1565b611a06565b9050919050565b61214f81612124565b82525050565b600060608201905061216a6000830186612146565b818103602083015261217c8185611d27565b905081810360408301526121908184611977565b9050949350505050565b6000819050919050565b60006121bf6121ba6121b58461219a565b611ce1565b611a06565b9050919050565b6121cf816121a4565b82525050565b6000819050919050565b60006121fa6121f56121f0846121d5565b611ce1565b6119d2565b9050919050565b61220a816121df565b82525050565b600060408201905061222560008301856121c6565b6122326020830184612201565b9392505050565b600060408201905061224e6000830185611b6b565b61225b602083018461169f565b9392505050565b7f4f776e61626c653a206e6577206f776e657220697320746865207a65726f206160008201527f6464726573730000000000000000000000000000000000000000000000000000602082015250565b60006122be602683611bee565b91506122c982612262565b604082019050919050565b600060208201905081810360008301526122ed816122b1565b905091905056fe545552494e473a20436f756c64206e6f74206465636f64652073657276657220726573706f6e7365545552494e473a20436f756c64206e6f74206372656174652072706320636c69656e74a2646970667358221220990e58198dab129468129c9a3826872f48666c6c59504bf3a20dfffdc9a70bd864736f6c63430008090033",
  "linkReferences": {},
  "deployedLinkReferences": {}
}