{
  "_format": "hh-sol-artifact-1",
  "contractName": "TravelEscrowFactory",
  "sourceName": "contracts/Travel.sol",
  "abi": [
    {
      "inputs": [
        {
          "internalType": "address",
          "name": "_hotelRegistryAddress",
          "type": "address"
        },
        {
          "internalType": "address",
          "name": "_nftIssuerAddress",
          "type": "address"
        }
      ],
      "stateMutability": "nonpayable",
      "type": "constructor"
    },
    {
      "anonymous": false,
      "inputs": [
        {
          "indexed": false,
          "internalType": "address",
          "name": "travelEscrow",
          "type": "address"
        }
      ],
      "name": "TravelEscrowCreated",
      "type": "event"
    },
    {
      "inputs": [
        {
          "internalType": "address[]",
          "name": "authorizedTravellers",
          "type": "address[]"
        },
        {
          "internalType": "string",
          "name": "hotelSelected",
          "type": "string"
        },
        {
          "internalType": "uint256",
          "name": "timeForPayment",
          "type": "uint256"
        },
        {
          "internalType": "uint256",
          "name": "dateStart",
          "type": "uint256"
        },
        {
          "internalType": "uint256",
          "name": "numberOfNights",
          "type": "uint256"
        },
        {
          "internalType": "uint256",
          "name": "price",
          "type": "uint256"
        }
      ],
      "name": "createTravel",
      "outputs": [
        {
          "internalType": "address",
          "name": "",
          "type": "address"
        }
      ],
      "stateMutability": "nonpayable",
      "type": "function"
    },
    {
      "inputs": [],
      "name": "getLastTravelDeployedAddress",
      "outputs": [
        {
          "internalType": "address",
          "name": "",
          "type": "address"
        }
      ],
      "stateMutability": "view",
      "type": "function"
    },
    {
      "inputs": [],
      "name": "hotelRegistryAddress",
      "outputs": [
        {
          "internalType": "address",
          "name": "",
          "type": "address"
        }
      ],
      "stateMutability": "view",
      "type": "function"
    },
    {
      "inputs": [],
      "name": "lastTravelDeployedAddress",
      "outputs": [
        {
          "internalType": "address",
          "name": "",
          "type": "address"
        }
      ],
      "stateMutability": "view",
      "type": "function"
    },
    {
      "inputs": [],
      "name": "nftIssuerAddress",
      "outputs": [
        {
          "internalType": "address",
          "name": "",
          "type": "address"
        }
      ],
      "stateMutability": "view",
      "type": "function"
    },
    {
      "inputs": [
        {
          "internalType": "address",
          "name": "_newIHotelRegistryAddress",
          "type": "address"
        }
      ],
      "name": "setIHotelRegistry",
      "outputs": [],
      "stateMutability": "nonpayable",
      "type": "function"
    },
    {
      "inputs": [
        {
          "internalType": "address",
          "name": "_newNftIssuerAddress",
          "type": "address"
        }
      ],
      "name": "setINFTIssuer",
      "outputs": [],
      "stateMutability": "nonpayable",
      "type": "function"
    }
  ],
  "bytecode": "0x608060405234801561001057600080fd5b50604051612e33380380612e338339818101604052810190610032919061011d565b816000806101000a81548173ffffffffffffffffffffffffffffffffffffffff021916908373ffffffffffffffffffffffffffffffffffffffff16021790555080600160006101000a81548173ffffffffffffffffffffffffffffffffffffffff021916908373ffffffffffffffffffffffffffffffffffffffff160217905550505061015d565b600080fd5b600073ffffffffffffffffffffffffffffffffffffffff82169050919050565b60006100ea826100bf565b9050919050565b6100fa816100df565b811461010557600080fd5b50565b600081519050610117816100f1565b92915050565b60008060408385031215610134576101336100ba565b5b600061014285828601610108565b925050602061015385828601610108565b9150509250929050565b612cc78061016c6000396000f3fe60806040523480156200001157600080fd5b5060043610620000885760003560e01c8063a7c4ef691162000063578063a7c4ef6914620000ef578063e1ad51701462000125578063e4f8e5551462000147578063f930b6c414620001695762000088565b80631d56934b146200008d578063518958f314620000ad57806362061ed714620000cf575b600080fd5b620000ab6004803603810190620000a5919062000488565b6200018b565b005b620000b7620001ce565b604051620000c69190620004cb565b60405180910390f35b620000ed6004803603810190620000e7919062000488565b620001f4565b005b6200010d600480360381019062000107919062000760565b62000238565b6040516200011c9190620004cb565b60405180910390f35b6200012f6200038d565b6040516200013e9190620004cb565b60405180910390f35b62000151620003b1565b604051620001609190620004cb565b60405180910390f35b62000173620003d7565b604051620001829190620004cb565b60405180910390f35b806000806101000a81548173ffffffffffffffffffffffffffffffffffffffff021916908373ffffffffffffffffffffffffffffffffffffffff16021790555050565b600160009054906101000a900473ffffffffffffffffffffffffffffffffffffffff1681565b80600160006101000a81548173ffffffffffffffffffffffffffffffffffffffff021916908373ffffffffffffffffffffffffffffffffffffffff16021790555050565b6000868686868660008054906101000a900473ffffffffffffffffffffffffffffffffffffffff16600160009054906101000a900473ffffffffffffffffffffffffffffffffffffffff1688604051620002929062000401565b620002a5989796959493929190620009ac565b604051809103906000f080158015620002c2573d6000803e3d6000fd5b50600260006101000a81548173ffffffffffffffffffffffffffffffffffffffff021916908373ffffffffffffffffffffffffffffffffffffffff1602179055507fdd1f024a5dba0d8dd1f0a47de84128f8474f2308fa379249633208f7d2082245600260009054906101000a900473ffffffffffffffffffffffffffffffffffffffff16604051620003569190620004cb565b60405180910390a1600260009054906101000a900473ffffffffffffffffffffffffffffffffffffffff1690509695505050505050565b60008054906101000a900473ffffffffffffffffffffffffffffffffffffffff1681565b600260009054906101000a900473ffffffffffffffffffffffffffffffffffffffff1681565b6000600260009054906101000a900473ffffffffffffffffffffffffffffffffffffffff16905090565b6122498062000a4983390190565b6000604051905090565b600080fd5b600080fd5b600073ffffffffffffffffffffffffffffffffffffffff82169050919050565b6000620004508262000423565b9050919050565b620004628162000443565b81146200046e57600080fd5b50565b600081359050620004828162000457565b92915050565b600060208284031215620004a157620004a062000419565b5b6000620004b18482850162000471565b91505092915050565b620004c58162000443565b82525050565b6000602082019050620004e26000830184620004ba565b92915050565b600080fd5b6000601f19601f8301169050919050565b7f4e487b7100000000000000000000000000000000000000000000000000000000600052604160045260246000fd5b6200053882620004ed565b810181811067ffffffffffffffff821117156200055a5762000559620004fe565b5b80604052505050565b60006200056f6200040f565b90506200057d82826200052d565b919050565b600067ffffffffffffffff821115620005a0576200059f620004fe565b5b602082029050602081019050919050565b600080fd5b6000620005cd620005c78462000582565b62000563565b90508083825260208201905060208402830185811115620005f357620005f2620005b1565b5b835b818110156200062057806200060b888262000471565b845260208401935050602081019050620005f5565b5050509392505050565b600082601f830112620006425762000641620004e8565b5b813562000654848260208601620005b6565b91505092915050565b600080fd5b600067ffffffffffffffff82111562000680576200067f620004fe565b5b6200068b82620004ed565b9050602081019050919050565b82818337600083830152505050565b6000620006be620006b88462000662565b62000563565b905082815260208101848484011115620006dd57620006dc6200065d565b5b620006ea84828562000698565b509392505050565b600082601f8301126200070a5762000709620004e8565b5b81356200071c848260208601620006a7565b91505092915050565b6000819050919050565b6200073a8162000725565b81146200074657600080fd5b50565b6000813590506200075a816200072f565b92915050565b60008060008060008060c0878903121562000780576200077f62000419565b5b600087013567ffffffffffffffff811115620007a157620007a06200041e565b5b620007af89828a016200062a565b965050602087013567ffffffffffffffff811115620007d357620007d26200041e565b5b620007e189828a01620006f2565b9550506040620007f489828a0162000749565b94505060606200080789828a0162000749565b93505060806200081a89828a0162000749565b92505060a06200082d89828a0162000749565b9150509295509295509295565b600081519050919050565b600082825260208201905092915050565b6000819050602082019050919050565b620008718162000443565b82525050565b600062000885838362000866565b60208301905092915050565b6000602082019050919050565b6000620008ab826200083a565b620008b7818562000845565b9350620008c48362000856565b8060005b83811015620008fb578151620008df888262000877565b9750620008ec8362000891565b925050600181019050620008c8565b5085935050505092915050565b600081519050919050565b600082825260208201905092915050565b60005b838110156200094457808201518184015260208101905062000927565b8381111562000954576000848401525b50505050565b6000620009678262000908565b62000973818562000913565b93506200098581856020860162000924565b6200099081620004ed565b840191505092915050565b620009a68162000725565b82525050565b6000610100820190508181036000830152620009c9818b6200089e565b90508181036020830152620009df818a6200095a565b9050620009f060408301896200099b565b620009ff60608301886200099b565b62000a0e60808301876200099b565b62000a1d60a0830186620004ba565b62000a2c60c0830185620004ba565b62000a3b60e08301846200099b565b999850505050505050505056fe60806040523480156200001157600080fd5b50604051620022493803806200224983398181016040528101906200003791906200079a565b82600d60006101000a81548173ffffffffffffffffffffffffffffffffffffffff021916908373ffffffffffffffffffffffffffffffffffffffff16021790555081600e60006101000a81548173ffffffffffffffffffffffffffffffffffffffff021916908373ffffffffffffffffffffffffffffffffffffffff1602179055508542620000c79190620008d0565b60028190555033600c60006101000a81548173ffffffffffffffffffffffffffffffffffffffff021916908373ffffffffffffffffffffffffffffffffffffffff16021790555086600090805190602001906200012692919062000343565b50600d60009054906101000a900473ffffffffffffffffffffffffffffffffffffffff1673ffffffffffffffffffffffffffffffffffffffff16638e61514e60006040518263ffffffff1660e01b815260040162000185919062000a44565b602060405180830381600087803b158015620001a057600080fd5b505af1158015620001b5573d6000803e3d6000fd5b505050506040513d601f19601f82011682018060405250810190620001db919062000a68565b600160006101000a81548173ffffffffffffffffffffffffffffffffffffffff021916908373ffffffffffffffffffffffffffffffffffffffff16021790555083600160009054906101000a900473ffffffffffffffffffffffffffffffffffffffff1673ffffffffffffffffffffffffffffffffffffffff1663ce68ff326040518163ffffffff1660e01b8152600401602060405180830381600087803b1580156200028757600080fd5b505af11580156200029c573d6000803e3d6000fd5b505050506040513d601f19601f82011682018060405250810190620002c2919062000a9a565b620002ce919062000acc565b6005819055506002600554620002e5919062000b5c565b600b81905550876008908051906020019062000303929190620003d4565b506000600a60006101000a81548160ff02191690831515021790555083600481905550846003819055508751600781905550505050505050505062000b94565b82805462000351906200095c565b90600052602060002090601f016020900481019282620003755760008555620003c1565b82601f106200039057805160ff1916838001178555620003c1565b82800160010185558215620003c1579182015b82811115620003c0578251825591602001919060010190620003a3565b5b509050620003d0919062000463565b5090565b82805482825590600052602060002090810192821562000450579160200282015b828111156200044f5782518260006101000a81548173ffffffffffffffffffffffffffffffffffffffff021916908373ffffffffffffffffffffffffffffffffffffffff16021790555091602001919060010190620003f5565b5b5090506200045f919062000463565b5090565b5b808211156200047e57600081600090555060010162000464565b5090565b6000604051905090565b600080fd5b600080fd5b600080fd5b6000601f19601f8301169050919050565b7f4e487b7100000000000000000000000000000000000000000000000000000000600052604160045260246000fd5b620004e6826200049b565b810181811067ffffffffffffffff82111715620005085762000507620004ac565b5b80604052505050565b60006200051d62000482565b90506200052b8282620004db565b919050565b600067ffffffffffffffff8211156200054e576200054d620004ac565b5b602082029050602081019050919050565b600080fd5b600073ffffffffffffffffffffffffffffffffffffffff82169050919050565b6000620005918262000564565b9050919050565b620005a38162000584565b8114620005af57600080fd5b50565b600081519050620005c38162000598565b92915050565b6000620005e0620005da8462000530565b62000511565b905080838252602082019050602084028301858111156200060657620006056200055f565b5b835b818110156200063357806200061e8882620005b2565b84526020840193505060208101905062000608565b5050509392505050565b600082601f83011262000655576200065462000496565b5b815162000667848260208601620005c9565b91505092915050565b600080fd5b600067ffffffffffffffff821115620006935762000692620004ac565b5b6200069e826200049b565b9050602081019050919050565b60005b83811015620006cb578082015181840152602081019050620006ae565b83811115620006db576000848401525b50505050565b6000620006f8620006f28462000675565b62000511565b90508281526020810184848401111562000717576200071662000670565b5b62000724848285620006ab565b509392505050565b600082601f83011262000744576200074362000496565b5b815162000756848260208601620006e1565b91505092915050565b6000819050919050565b62000774816200075f565b81146200078057600080fd5b50565b600081519050620007948162000769565b92915050565b600080600080600080600080610100898b031215620007be57620007bd6200048c565b5b600089015167ffffffffffffffff811115620007df57620007de62000491565b5b620007ed8b828c016200063d565b985050602089015167ffffffffffffffff81111562000811576200081062000491565b5b6200081f8b828c016200072c565b9750506040620008328b828c0162000783565b9650506060620008458b828c0162000783565b9550506080620008588b828c0162000783565b94505060a06200086b8b828c01620005b2565b93505060c06200087e8b828c01620005b2565b92505060e0620008918b828c0162000783565b9150509295985092959890939650565b7f4e487b7100000000000000000000000000000000000000000000000000000000600052601160045260246000fd5b6000620008dd826200075f565b9150620008ea836200075f565b9250827fffffffffffffffffffffffffffffffffffffffffffffffffffffffffffffffff03821115620009225762000921620008a1565b5b828201905092915050565b7f4e487b7100000000000000000000000000000000000000000000000000000000600052602260045260246000fd5b600060028204905060018216806200097557607f821691505b602082108114156200098c576200098b6200092d565b5b50919050565b600082825260208201905092915050565b60008190508160005260206000209050919050565b60008154620009c7816200095c565b620009d3818662000992565b94506001821660008114620009f1576001811462000a045762000a3b565b60ff198316865260208601935062000a3b565b62000a0f85620009a3565b60005b8381101562000a335781548189015260018201915060208101905062000a12565b808801955050505b50505092915050565b6000602082019050818103600083015262000a608184620009b8565b905092915050565b60006020828403121562000a815762000a806200048c565b5b600062000a9184828501620005b2565b91505092915050565b60006020828403121562000ab35762000ab26200048c565b5b600062000ac38482850162000783565b91505092915050565b600062000ad9826200075f565b915062000ae6836200075f565b9250817fffffffffffffffffffffffffffffffffffffffffffffffffffffffffffffffff048311821515161562000b225762000b21620008a1565b5b828202905092915050565b7f4e487b7100000000000000000000000000000000000000000000000000000000600052601260045260246000fd5b600062000b69826200075f565b915062000b76836200075f565b92508262000b895762000b8862000b2d565b5b828204905092915050565b6116a58062000ba46000396000f3fe60806040526004361061014b5760003560e01c8063a3b6120c116100b6578063bdff336c1161006f578063bdff336c14610446578063beae494b14610471578063dae86fd11461049c578063eb965002146104d9578063f3668b9d14610504578063f863f4d21461052f5761014b565b8063a3b6120c14610320578063a69ea1b31461034b578063ab07cdf614610388578063b9b6a55d146103b3578063b9dd3b0c146103f0578063bcab73b91461041b5761014b565b806326e71acb1161010857806326e71acb1461022b57806329dcb0cf14610256578063624c90521461028157806398d5fdca146102ac57806399c571e7146102d7578063a035b1fe146102f55761014b565b80630e21fe0e1461015057806316441813146101675780631e6067521461019357806323a0664a146101be57806324349671146101e9578063263c2c6414610200575b600080fd5b34801561015c57600080fd5b5061016561055a565b005b34801561017357600080fd5b5061017c6105f6565b60405161018a929190610df8565b60405180910390f35b34801561019f57600080fd5b506101a8610607565b6040516101b59190610e21565b60405180910390f35b3480156101ca57600080fd5b506101d361060d565b6040516101e09190610e21565b60405180910390f35b3480156101f557600080fd5b506101fe610617565b005b34801561020c57600080fd5b5061021561083c565b6040516102229190610e57565b60405180910390f35b34801561023757600080fd5b5061024061084f565b60405161024d9190610eb3565b60405180910390f35b34801561026257600080fd5b5061026b610875565b6040516102789190610e21565b60405180910390f35b34801561028d57600080fd5b5061029661087b565b6040516102a39190610eb3565b60405180910390f35b3480156102b857600080fd5b506102c16108a1565b6040516102ce9190610e21565b60405180910390f35b6102df6108ab565b6040516102ec9190610e57565b60405180910390f35b34801561030157600080fd5b5061030a610abf565b6040516103179190610e21565b60405180910390f35b34801561032c57600080fd5b50610335610ac5565b6040516103429190610e21565b60405180910390f35b34801561035757600080fd5b50610372600480360381019061036d9190610eff565b610acb565b60405161037f9190610e57565b60405180910390f35b34801561039457600080fd5b5061039d610b21565b6040516103aa9190610fea565b60405180910390f35b3480156103bf57600080fd5b506103da60048036038101906103d59190610eff565b610baf565b6040516103e79190610e57565b60405180910390f35b3480156103fc57600080fd5b50610405610c5a565b6040516104129190610e21565b60405180910390f35b34801561042757600080fd5b50610430610c64565b60405161043d9190610e21565b60405180910390f35b34801561045257600080fd5b5061045b610c6a565b60405161046891906110a5565b60405180910390f35b34801561047d57600080fd5b50610486610cf8565b6040516104939190610e21565b60405180910390f35b3480156104a857600080fd5b506104c360048036038101906104be91906110f3565b610d02565b6040516104d09190610eb3565b60405180910390f35b3480156104e557600080fd5b506104ee610d41565b6040516104fb9190610e21565b60405180910390f35b34801561051057600080fd5b50610519610d47565b60405161052691906110a5565b60405180910390f35b34801561053b57600080fd5b50610544610dd9565b6040516105519190610e21565b60405180910390f35b600160009054906101000a900473ffffffffffffffffffffffffffffffffffffffff1673ffffffffffffffffffffffffffffffffffffffff16637b1cc2096005546003546004546007546040518563ffffffff1660e01b81526004016105c293929190611120565b6000604051808303818588803b1580156105db57600080fd5b505af11580156105ef573d6000803e3d6000fd5b5050505050565b600080600354600454915091509091565b600b5481565b6000600b54905090565b600a60009054906101000a900460ff1615610667576040517f08c379a000000000000000000000000000000000000000000000000000000000815260040161065e906111a3565b60405180910390fd5b60025442116106ab576040517f08c379a00000000000000000000000000000000000000000000000000000000081526004016106a29061120f565b60405180910390fd5b6106b433610baf565b6106f3576040517f08c379a00000000000000000000000000000000000000000000000000000000081526004016106ea9061127b565b60405180910390fd5b600960003373ffffffffffffffffffffffffffffffffffffffff1673ffffffffffffffffffffffffffffffffffffffff16815260200190815260200160002060009054906101000a900460ff1661077f576040517f08c379a0000000000000000000000000000000000000000000000000000000008152600401610776906112e7565b60405180910390fd5b6000600960003373ffffffffffffffffffffffffffffffffffffffff1673ffffffffffffffffffffffffffffffffffffffff16815260200190815260200160002060006101000a81548160ff0219169083151502179055506001600660008282546107ea9190611336565b925050819055503373ffffffffffffffffffffffffffffffffffffffff166108fc600b549081150290604051600060405180830381858888f19350505050158015610839573d6000803e3d6000fd5b50565b600a60009054906101000a900460ff1681565b600c60009054906101000a900473ffffffffffffffffffffffffffffffffffffffff1681565b60025481565b600160009054906101000a900473ffffffffffffffffffffffffffffffffffffffff1681565b6000600554905090565b6000600a60009054906101000a900460ff16156108fd576040517f08c379a00000000000000000000000000000000000000000000000000000000081526004016108f4906113b6565b60405180910390fd5b3361090781610baf565b610946576040517f08c379a000000000000000000000000000000000000000000000000000000000815260040161093d90611422565b60405180910390fd5b3361095081610acb565b15610990576040517f08c379a00000000000000000000000000000000000000000000000000000000081526004016109879061148e565b60405180910390fd5b600b5434146109d4576040517f08c379a00000000000000000000000000000000000000000000000000000000081526004016109cb90611520565b60405180910390fd5b6001600960003373ffffffffffffffffffffffffffffffffffffffff1673ffffffffffffffffffffffffffffffffffffffff16815260200190815260200160002060006101000a81548160ff021916908315150217905550600160066000828254610a3f9190611540565b925050819055507f069070702eb0e9e0cb68f3c9604d7db163b6535ddeb13a5a0fb297223ebb5c6d33604051610a759190610eb3565b60405180910390a16007546006541415610ab5576001600a60006101000a81548160ff021916908315150217905550610aac61055a565b60019250610aba565b600092505b505090565b60055481565b60035481565b6000600960008373ffffffffffffffffffffffffffffffffffffffff1673ffffffffffffffffffffffffffffffffffffffff16815260200190815260200160002060009054906101000a900460ff169050919050565b60606008805480602002602001604051908101604052809291908181526020018280548015610ba557602002820191906000526020600020905b8160009054906101000a900473ffffffffffffffffffffffffffffffffffffffff1673ffffffffffffffffffffffffffffffffffffffff1681526020019060010190808311610b5b575b5050505050905090565b6000806000905060005b600880549050811015610c50578373ffffffffffffffffffffffffffffffffffffffff1660088281548110610bf157610bf0611596565b5b9060005260206000200160009054906101000a900473ffffffffffffffffffffffffffffffffffffffff1673ffffffffffffffffffffffffffffffffffffffff161415610c3d57600191505b8080610c48906115c5565b915050610bb9565b5080915050919050565b6000600354905090565b60045481565b60008054610c779061163d565b80601f0160208091040260200160405190810160405280929190818152602001828054610ca39061163d565b8015610cf05780601f10610cc557610100808354040283529160200191610cf0565b820191906000526020600020905b815481529060010190602001808311610cd357829003601f168201915b505050505081565b6000600454905090565b60088181548110610d1257600080fd5b906000526020600020016000915054906101000a900473ffffffffffffffffffffffffffffffffffffffff1681565b60065481565b606060008054610d569061163d565b80601f0160208091040260200160405190810160405280929190818152602001828054610d829061163d565b8015610dcf5780601f10610da457610100808354040283529160200191610dcf565b820191906000526020600020905b815481529060010190602001808311610db257829003601f168201915b5050505050905090565b60075481565b6000819050919050565b610df281610ddf565b82525050565b6000604082019050610e0d6000830185610de9565b610e1a6020830184610de9565b9392505050565b6000602082019050610e366000830184610de9565b92915050565b60008115159050919050565b610e5181610e3c565b82525050565b6000602082019050610e6c6000830184610e48565b92915050565b600073ffffffffffffffffffffffffffffffffffffffff82169050919050565b6000610e9d82610e72565b9050919050565b610ead81610e92565b82525050565b6000602082019050610ec86000830184610ea4565b92915050565b600080fd5b610edc81610e92565b8114610ee757600080fd5b50565b600081359050610ef981610ed3565b92915050565b600060208284031215610f1557610f14610ece565b5b6000610f2384828501610eea565b91505092915050565b600081519050919050565b600082825260208201905092915050565b6000819050602082019050919050565b610f6181610e92565b82525050565b6000610f738383610f58565b60208301905092915050565b6000602082019050919050565b6000610f9782610f2c565b610fa18185610f37565b9350610fac83610f48565b8060005b83811015610fdd578151610fc48882610f67565b9750610fcf83610f7f565b925050600181019050610fb0565b5085935050505092915050565b600060208201905081810360008301526110048184610f8c565b905092915050565b600081519050919050565b600082825260208201905092915050565b60005b8381101561104657808201518184015260208101905061102b565b83811115611055576000848401525b50505050565b6000601f19601f8301169050919050565b60006110778261100c565b6110818185611017565b9350611091818560208601611028565b61109a8161105b565b840191505092915050565b600060208201905081810360008301526110bf818461106c565b905092915050565b6110d081610ddf565b81146110db57600080fd5b50565b6000813590506110ed816110c7565b92915050565b60006020828403121561110957611108610ece565b5b6000611117848285016110de565b91505092915050565b60006060820190506111356000830186610de9565b6111426020830185610de9565b61114f6040830184610de9565b949350505050565b7f5061796d656e7420616c7265616479206d61646520746f20486f74656c000000600082015250565b600061118d601d83611017565b915061119882611157565b602082019050919050565b600060208201905081810360008301526111bc81611180565b9050919050565b7f546f6f206561726c7920746f2077697468647261770000000000000000000000600082015250565b60006111f9601583611017565b9150611204826111c3565b602082019050919050565b60006020820190508181036000830152611228816111ec565b9050919050565b7f54726176656c6c6572206d75737420626520617574686f72697a656400000000600082015250565b6000611265601c83611017565b91506112708261122f565b602082019050919050565b6000602082019050818103600083015261129481611258565b9050919050565b7f5573657220686173206e6f742070616964207965740000000000000000000000600082015250565b60006112d1601583611017565b91506112dc8261129b565b602082019050919050565b60006020820190508181036000830152611300816112c4565b9050919050565b7f4e487b7100000000000000000000000000000000000000000000000000000000600052601160045260246000fd5b600061134182610ddf565b915061134c83610ddf565b92508282101561135f5761135e611307565b5b828203905092915050565b7f45766572796f6e652068617320616c7265616479207061696400000000000000600082015250565b60006113a0601983611017565b91506113ab8261136a565b602082019050919050565b600060208201905081810360008301526113cf81611393565b9050919050565b7f54726176656c6c6572206973206e6f7420617574686f72697a65640000000000600082015250565b600061140c601b83611017565b9150611417826113d6565b602082019050919050565b6000602082019050818103600083015261143b816113ff565b9050919050565b7f54726176656c6c65722068617320616c72656164792070616964000000000000600082015250565b6000611478601a83611017565b915061148382611442565b602082019050919050565b600060208201905081810360008301526114a78161146b565b9050919050565b7f54726176656c6c6572206d757374207061792074686520726967687420616d6f60008201527f756e740000000000000000000000000000000000000000000000000000000000602082015250565b600061150a602383611017565b9150611515826114ae565b604082019050919050565b60006020820190508181036000830152611539816114fd565b9050919050565b600061154b82610ddf565b915061155683610ddf565b9250827fffffffffffffffffffffffffffffffffffffffffffffffffffffffffffffffff0382111561158b5761158a611307565b5b828201905092915050565b7f4e487b7100000000000000000000000000000000000000000000000000000000600052603260045260246000fd5b60006115d082610ddf565b91507fffffffffffffffffffffffffffffffffffffffffffffffffffffffffffffffff82141561160357611602611307565b5b600182019050919050565b7f4e487b7100000000000000000000000000000000000000000000000000000000600052602260045260246000fd5b6000600282049050600182168061165557607f821691505b602082108114156116695761166861160e565b5b5091905056fea2646970667358221220f7ea53bb245526acf81dece96569c0e1795f5f7311ce8f2c0c695c01fcd8a3dc64736f6c63430008090033a2646970667358221220a7285bfe70657ca4e1a06fee979cbce206e1545a896637f5ad03314aae5c92c964736f6c63430008090033",
  "linkReferences": {},
  "deployedLinkReferences": {}
}