{
  "_format": "hh-sol-artifact-1",
  "contractName": "TravelEscrowFactory",
  "sourceName": "contracts/Travel.sol",
  "abi": [
    {
      "inputs": [
        {
          "internalType": "address",
          "name": "_hotelRegistryAddress",
          "type": "address"
        },
        {
          "internalType": "address",
          "name": "_nftIssuerAddress",
          "type": "address"
        }
      ],
      "stateMutability": "nonpayable",
      "type": "constructor"
    },
    {
      "anonymous": false,
      "inputs": [
        {
          "indexed": false,
          "internalType": "address",
          "name": "travelEscrow",
          "type": "address"
        }
      ],
      "name": "TravelEscrowCreated",
      "type": "event"
    },
    {
      "inputs": [
        {
          "internalType": "address[]",
          "name": "authorizedTravellers",
          "type": "address[]"
        },
        {
          "internalType": "string",
          "name": "hotelSelected",
          "type": "string"
        },
        {
          "internalType": "uint256",
          "name": "timeForPayment",
          "type": "uint256"
        },
        {
          "internalType": "uint256",
          "name": "dateStart",
          "type": "uint256"
        },
        {
          "internalType": "uint256",
          "name": "numberOfNights",
          "type": "uint256"
        },
        {
          "internalType": "uint256",
          "name": "price",
          "type": "uint256"
        }
      ],
      "name": "createTravel",
      "outputs": [
        {
          "internalType": "address",
          "name": "",
          "type": "address"
        }
      ],
      "stateMutability": "nonpayable",
      "type": "function"
    },
    {
      "inputs": [],
      "name": "getLastTravelDeployedAddress",
      "outputs": [
        {
          "internalType": "address",
          "name": "",
          "type": "address"
        }
      ],
      "stateMutability": "view",
      "type": "function"
    },
    {
      "inputs": [],
      "name": "hotelRegistryAddress",
      "outputs": [
        {
          "internalType": "address",
          "name": "",
          "type": "address"
        }
      ],
      "stateMutability": "view",
      "type": "function"
    },
    {
      "inputs": [],
      "name": "lastTravelDeployedAddress",
      "outputs": [
        {
          "internalType": "address",
          "name": "",
          "type": "address"
        }
      ],
      "stateMutability": "view",
      "type": "function"
    },
    {
      "inputs": [],
      "name": "nftIssuerAddress",
      "outputs": [
        {
          "internalType": "address",
          "name": "",
          "type": "address"
        }
      ],
      "stateMutability": "view",
      "type": "function"
    },
    {
      "inputs": [
        {
          "internalType": "address",
          "name": "_newIHotelRegistryAddress",
          "type": "address"
        }
      ],
      "name": "setIHotelRegistry",
      "outputs": [],
      "stateMutability": "nonpayable",
      "type": "function"
    },
    {
      "inputs": [
        {
          "internalType": "address",
          "name": "_newNftIssuerAddress",
          "type": "address"
        }
      ],
      "name": "setINFTIssuer",
      "outputs": [],
      "stateMutability": "nonpayable",
      "type": "function"
    }
  ],
  "bytecode": "0x608060405234801561001057600080fd5b50604051612d8a380380612d8a833981810160405281019061003291906100cf565b816000806101000a81548173ffffffffffffffffffffffffffffffffffffffff021916908373ffffffffffffffffffffffffffffffffffffffff16021790555080600160006101000a81548173ffffffffffffffffffffffffffffffffffffffff021916908373ffffffffffffffffffffffffffffffffffffffff1602179055505050610154565b6000815190506100c98161013d565b92915050565b600080604083850312156100e257600080fd5b60006100f0858286016100ba565b9250506020610101858286016100ba565b9150509250929050565b60006101168261011d565b9050919050565b600073ffffffffffffffffffffffffffffffffffffffff82169050919050565b6101468161010b565b811461015157600080fd5b50565b612c27806101636000396000f3fe60806040523480156200001157600080fd5b5060043610620000885760003560e01c8063a7c4ef691162000063578063a7c4ef6914620000ef578063e1ad51701462000125578063e4f8e5551462000147578063f930b6c414620001695762000088565b80631d56934b146200008d578063518958f314620000ad57806362061ed714620000cf575b600080fd5b620000ab6004803603810190620000a5919062000551565b6200018b565b005b620000b7620001ce565b604051620000c691906200073d565b60405180910390f35b620000ed6004803603810190620000e7919062000551565b620001f4565b005b6200010d60048036038101906200010791906200057d565b62000238565b6040516200011c91906200073d565b60405180910390f35b6200012f6200038d565b6040516200013e91906200073d565b60405180910390f35b62000151620003b1565b6040516200016091906200073d565b60405180910390f35b62000173620003d7565b6040516200018291906200073d565b60405180910390f35b806000806101000a81548173ffffffffffffffffffffffffffffffffffffffff021916908373ffffffffffffffffffffffffffffffffffffffff16021790555050565b600160009054906101000a900473ffffffffffffffffffffffffffffffffffffffff1681565b80600160006101000a81548173ffffffffffffffffffffffffffffffffffffffff021916908373ffffffffffffffffffffffffffffffffffffffff16021790555050565b6000868686868660008054906101000a900473ffffffffffffffffffffffffffffffffffffffff16600160009054906101000a900473ffffffffffffffffffffffffffffffffffffffff1688604051620002929062000401565b620002a59897969594939291906200075a565b604051809103906000f080158015620002c2573d6000803e3d6000fd5b50600260006101000a81548173ffffffffffffffffffffffffffffffffffffffff021916908373ffffffffffffffffffffffffffffffffffffffff1602179055507fdd1f024a5dba0d8dd1f0a47de84128f8474f2308fa379249633208f7d2082245600260009054906101000a900473ffffffffffffffffffffffffffffffffffffffff166040516200035691906200073d565b60405180910390a1600260009054906101000a900473ffffffffffffffffffffffffffffffffffffffff1690509695505050505050565b60008054906101000a900473ffffffffffffffffffffffffffffffffffffffff1681565b600260009054906101000a900473ffffffffffffffffffffffffffffffffffffffff1681565b6000600260009054906101000a900473ffffffffffffffffffffffffffffffffffffffff16905090565b6121eb8062000a0783390190565b60006200042662000420846200081f565b620007f6565b905080838252602082019050828560208602820111156200044657600080fd5b60005b858110156200047a57816200045f8882620004c9565b84526020840193506020830192505060018101905062000449565b5050509392505050565b60006200049b62000495846200084e565b620007f6565b905082815260208101848484011115620004b457600080fd5b620004c184828562000917565b509392505050565b600081359050620004da81620009d2565b92915050565b600082601f830112620004f257600080fd5b8135620005048482602086016200040f565b91505092915050565b600082601f8301126200051f57600080fd5b81356200053184826020860162000484565b91505092915050565b6000813590506200054b81620009ec565b92915050565b6000602082840312156200056457600080fd5b60006200057484828501620004c9565b91505092915050565b60008060008060008060c087890312156200059757600080fd5b600087013567ffffffffffffffff811115620005b257600080fd5b620005c089828a01620004e0565b965050602087013567ffffffffffffffff811115620005de57600080fd5b620005ec89828a016200050d565b9550506040620005ff89828a016200053a565b94505060606200061289828a016200053a565b93505060806200062589828a016200053a565b92505060a06200063889828a016200053a565b9150509295509295509295565b60006200065383836200065f565b60208301905092915050565b6200066a81620008d9565b82525050565b6200067b81620008d9565b82525050565b60006200068e8262000894565b6200069a8185620008b7565b9350620006a78362000884565b8060005b83811015620006de578151620006c2888262000645565b9750620006cf83620008aa565b925050600181019050620006ab565b5085935050505092915050565b6000620006f8826200089f565b620007048185620008c8565b93506200071681856020860162000926565b6200072181620009c1565b840191505092915050565b62000737816200090d565b82525050565b600060208201905062000754600083018462000670565b92915050565b600061010082019050818103600083015262000777818b62000681565b905081810360208301526200078d818a620006eb565b90506200079e60408301896200072c565b620007ad60608301886200072c565b620007bc60808301876200072c565b620007cb60a083018662000670565b620007da60c083018562000670565b620007e960e08301846200072c565b9998505050505050505050565b60006200080262000815565b90506200081082826200095c565b919050565b6000604051905090565b600067ffffffffffffffff8211156200083d576200083c62000992565b5b602082029050602081019050919050565b600067ffffffffffffffff8211156200086c576200086b62000992565b5b6200087782620009c1565b9050602081019050919050565b6000819050602082019050919050565b600081519050919050565b600081519050919050565b6000602082019050919050565b600082825260208201905092915050565b600082825260208201905092915050565b6000620008e682620008ed565b9050919050565b600073ffffffffffffffffffffffffffffffffffffffff82169050919050565b6000819050919050565b82818337600083830152505050565b60005b838110156200094657808201518184015260208101905062000929565b8381111562000956576000848401525b50505050565b6200096782620009c1565b810181811067ffffffffffffffff8211171562000989576200098862000992565b5b80604052505050565b7f4e487b7100000000000000000000000000000000000000000000000000000000600052604160045260246000fd5b6000601f19601f8301169050919050565b620009dd81620008d9565b8114620009e957600080fd5b50565b620009f7816200090d565b811462000a0357600080fd5b5056fe60806040523480156200001157600080fd5b50604051620021eb380380620021eb8339818101604052810190620000379190620005f0565b82600d60006101000a81548173ffffffffffffffffffffffffffffffffffffffff021916908373ffffffffffffffffffffffffffffffffffffffff16021790555081600e60006101000a81548173ffffffffffffffffffffffffffffffffffffffff021916908373ffffffffffffffffffffffffffffffffffffffff1602179055508542620000c7919062000875565b60028190555033600c60006101000a81548173ffffffffffffffffffffffffffffffffffffffff021916908373ffffffffffffffffffffffffffffffffffffffff16021790555086600090805190602001906200012692919062000343565b50600d60009054906101000a900473ffffffffffffffffffffffffffffffffffffffff1673ffffffffffffffffffffffffffffffffffffffff16638e61514e60006040518263ffffffff1660e01b81526004016200018591906200079d565b602060405180830381600087803b158015620001a057600080fd5b505af1158015620001b5573d6000803e3d6000fd5b505050506040513d601f19601f82011682018060405250810190620001db9190620005c4565b600160006101000a81548173ffffffffffffffffffffffffffffffffffffffff021916908373ffffffffffffffffffffffffffffffffffffffff16021790555083600160009054906101000a900473ffffffffffffffffffffffffffffffffffffffff1673ffffffffffffffffffffffffffffffffffffffff1663ce68ff326040518163ffffffff1660e01b8152600401602060405180830381600087803b1580156200028757600080fd5b505af11580156200029c573d6000803e3d6000fd5b505050506040513d601f19601f82011682018060405250810190620002c29190620006e5565b620002ce91906200090a565b6005819055506002600554620002e59190620008d2565b600b81905550876008908051906020019062000303929190620003d4565b506000600a60006101000a81548160ff02191690831515021790555083600481905550846003819055508751600781905550505050505050505062000b4c565b8280546200035190620009df565b90600052602060002090601f016020900481019282620003755760008555620003c1565b82601f106200039057805160ff1916838001178555620003c1565b82800160010185558215620003c1579182015b82811115620003c0578251825591602001919060010190620003a3565b5b509050620003d0919062000463565b5090565b82805482825590600052602060002090810192821562000450579160200282015b828111156200044f5782518260006101000a81548173ffffffffffffffffffffffffffffffffffffffff021916908373ffffffffffffffffffffffffffffffffffffffff16021790555091602001919060010190620003f5565b5b5090506200045f919062000463565b5090565b5b808211156200047e57600081600090555060010162000464565b5090565b6000620004996200049384620007ea565b620007c1565b90508083825260208201905082856020860282011115620004b957600080fd5b60005b85811015620004ed5781620004d288826200053c565b845260208401935060208301925050600181019050620004bc565b5050509392505050565b60006200050e620005088462000819565b620007c1565b9050828152602081018484840111156200052757600080fd5b62000534848285620009a9565b509392505050565b6000815190506200054d8162000b18565b92915050565b600082601f8301126200056557600080fd5b81516200057784826020860162000482565b91505092915050565b600082601f8301126200059257600080fd5b8151620005a4848260208601620004f7565b91505092915050565b600081519050620005be8162000b32565b92915050565b600060208284031215620005d757600080fd5b6000620005e7848285016200053c565b91505092915050565b600080600080600080600080610100898b0312156200060e57600080fd5b600089015167ffffffffffffffff8111156200062957600080fd5b620006378b828c0162000553565b985050602089015167ffffffffffffffff8111156200065557600080fd5b620006638b828c0162000580565b9750506040620006768b828c01620005ad565b9650506060620006898b828c01620005ad565b95505060806200069c8b828c01620005ad565b94505060a0620006af8b828c016200053c565b93505060c0620006c28b828c016200053c565b92505060e0620006d58b828c01620005ad565b9150509295985092959890939650565b600060208284031215620006f857600080fd5b60006200070884828501620005ad565b91505092915050565b600081546200072081620009df565b6200072c818662000864565b945060018216600081146200074a57600181146200075d5762000794565b60ff198316865260208601935062000794565b62000768856200084f565b60005b838110156200078c578154818901526001820191506020810190506200076b565b808801955050505b50505092915050565b60006020820190508181036000830152620007b9818462000711565b905092915050565b6000620007cd620007e0565b9050620007db828262000a15565b919050565b6000604051905090565b600067ffffffffffffffff82111562000808576200080762000ad8565b5b602082029050602081019050919050565b600067ffffffffffffffff82111562000837576200083662000ad8565b5b620008428262000b07565b9050602081019050919050565b60008190508160005260206000209050919050565b600082825260208201905092915050565b600062000882826200099f565b91506200088f836200099f565b9250827fffffffffffffffffffffffffffffffffffffffffffffffffffffffffffffffff03821115620008c757620008c662000a4b565b5b828201905092915050565b6000620008df826200099f565b9150620008ec836200099f565b925082620008ff57620008fe62000a7a565b5b828204905092915050565b600062000917826200099f565b915062000924836200099f565b9250817fffffffffffffffffffffffffffffffffffffffffffffffffffffffffffffffff048311821515161562000960576200095f62000a4b565b5b828202905092915050565b600062000978826200097f565b9050919050565b600073ffffffffffffffffffffffffffffffffffffffff82169050919050565b6000819050919050565b60005b83811015620009c9578082015181840152602081019050620009ac565b83811115620009d9576000848401525b50505050565b60006002820490506001821680620009f857607f821691505b6020821081141562000a0f5762000a0e62000aa9565b5b50919050565b62000a208262000b07565b810181811067ffffffffffffffff8211171562000a425762000a4162000ad8565b5b80604052505050565b7f4e487b7100000000000000000000000000000000000000000000000000000000600052601160045260246000fd5b7f4e487b7100000000000000000000000000000000000000000000000000000000600052601260045260246000fd5b7f4e487b7100000000000000000000000000000000000000000000000000000000600052602260045260246000fd5b7f4e487b7100000000000000000000000000000000000000000000000000000000600052604160045260246000fd5b6000601f19601f8301169050919050565b62000b23816200096b565b811462000b2f57600080fd5b50565b62000b3d816200099f565b811462000b4957600080fd5b50565b61168f8062000b5c6000396000f3fe60806040526004361061014b5760003560e01c8063a3b6120c116100b6578063bdff336c1161006f578063bdff336c14610446578063beae494b14610471578063dae86fd11461049c578063eb965002146104d9578063f3668b9d14610504578063f863f4d21461052f5761014b565b8063a3b6120c14610320578063a69ea1b31461034b578063ab07cdf614610388578063b9b6a55d146103b3578063b9dd3b0c146103f0578063bcab73b91461041b5761014b565b806326e71acb1161010857806326e71acb1461022b57806329dcb0cf14610256578063624c90521461028157806398d5fdca146102ac57806399c571e7146102d7578063a035b1fe146102f55761014b565b80630e21fe0e1461015057806316441813146101675780631e6067521461019357806323a0664a146101be57806324349671146101e9578063263c2c6414610200575b600080fd5b34801561015c57600080fd5b5061016561055a565b005b34801561017357600080fd5b5061017c6105f6565b60405161018a929190611219565b60405180910390f35b34801561019f57600080fd5b506101a8610607565b6040516101b591906111fe565b60405180910390f35b3480156101ca57600080fd5b506101d361060d565b6040516101e091906111fe565b60405180910390f35b3480156101f557600080fd5b506101fe610617565b005b34801561020c57600080fd5b5061021561083c565b60405161022291906110c1565b60405180910390f35b34801561023757600080fd5b5061024061084f565b60405161024d9190611084565b60405180910390f35b34801561026257600080fd5b5061026b610875565b60405161027891906111fe565b60405180910390f35b34801561028d57600080fd5b5061029661087b565b6040516102a39190611084565b60405180910390f35b3480156102b857600080fd5b506102c16108a1565b6040516102ce91906111fe565b60405180910390f35b6102df6108ab565b6040516102ec91906110c1565b60405180910390f35b34801561030157600080fd5b5061030a610abf565b60405161031791906111fe565b60405180910390f35b34801561032c57600080fd5b50610335610ac5565b60405161034291906111fe565b60405180910390f35b34801561035757600080fd5b50610372600480360381019061036d9190610e2f565b610acb565b60405161037f91906110c1565b60405180910390f35b34801561039457600080fd5b5061039d610b21565b6040516103aa919061109f565b60405180910390f35b3480156103bf57600080fd5b506103da60048036038101906103d59190610e2f565b610baf565b6040516103e791906110c1565b60405180910390f35b3480156103fc57600080fd5b50610405610c80565b60405161041291906111fe565b60405180910390f35b34801561042757600080fd5b50610430610c8a565b60405161043d91906111fe565b60405180910390f35b34801561045257600080fd5b5061045b610c90565b60405161046891906110dc565b60405180910390f35b34801561047d57600080fd5b50610486610d1e565b60405161049391906111fe565b60405180910390f35b3480156104a857600080fd5b506104c360048036038101906104be9190610e58565b610d28565b6040516104d09190611084565b60405180910390f35b3480156104e557600080fd5b506104ee610d67565b6040516104fb91906111fe565b60405180910390f35b34801561051057600080fd5b50610519610d6d565b60405161052691906110dc565b60405180910390f35b34801561053b57600080fd5b50610544610dff565b60405161055191906111fe565b60405180910390f35b600160009054906101000a900473ffffffffffffffffffffffffffffffffffffffff1673ffffffffffffffffffffffffffffffffffffffff16637b1cc2096005546003546004546007546040518563ffffffff1660e01b81526004016105c293929190611242565b6000604051808303818588803b1580156105db57600080fd5b505af11580156105ef573d6000803e3d6000fd5b5050505050565b600080600354600454915091509091565b600b5481565b6000600b54905090565b600a60009054906101000a900460ff1615610667576040517f08c379a000000000000000000000000000000000000000000000000000000000815260040161065e9061119e565b60405180910390fd5b60025442116106ab576040517f08c379a00000000000000000000000000000000000000000000000000000000081526004016106a29061117e565b60405180910390fd5b6106b433610baf565b6106f3576040517f08c379a00000000000000000000000000000000000000000000000000000000081526004016106ea9061115e565b60405180910390fd5b600960003373ffffffffffffffffffffffffffffffffffffffff1673ffffffffffffffffffffffffffffffffffffffff16815260200190815260200160002060009054906101000a900460ff1661077f576040517f08c379a0000000000000000000000000000000000000000000000000000000008152600401610776906110fe565b60405180910390fd5b6000600960003373ffffffffffffffffffffffffffffffffffffffff1673ffffffffffffffffffffffffffffffffffffffff16815260200190815260200160002060006101000a81548160ff0219169083151502179055506001600660008282546107ea9190611324565b925050819055503373ffffffffffffffffffffffffffffffffffffffff166108fc600b549081150290604051600060405180830381858888f19350505050158015610839573d6000803e3d6000fd5b50565b600a60009054906101000a900460ff1681565b600c60009054906101000a900473ffffffffffffffffffffffffffffffffffffffff1681565b60025481565b600160009054906101000a900473ffffffffffffffffffffffffffffffffffffffff1681565b6000600554905090565b6000600a60009054906101000a900460ff16156108fd576040517f08c379a00000000000000000000000000000000000000000000000000000000081526004016108f49061111e565b60405180910390fd5b3361090781610baf565b610946576040517f08c379a000000000000000000000000000000000000000000000000000000000815260040161093d906111de565b60405180910390fd5b3361095081610acb565b15610990576040517f08c379a0000000000000000000000000000000000000000000000000000000008152600401610987906111be565b60405180910390fd5b600b5434146109d4576040517f08c379a00000000000000000000000000000000000000000000000000000000081526004016109cb9061113e565b60405180910390fd5b6001600960003373ffffffffffffffffffffffffffffffffffffffff1673ffffffffffffffffffffffffffffffffffffffff16815260200190815260200160002060006101000a81548160ff021916908315150217905550600160066000828254610a3f91906112ce565b925050819055507f069070702eb0e9e0cb68f3c9604d7db163b6535ddeb13a5a0fb297223ebb5c6d33604051610a759190611084565b60405180910390a16007546006541415610ab5576001600a60006101000a81548160ff021916908315150217905550610aac61055a565b60019250610aba565b600092505b505090565b60055481565b60035481565b6000600960008373ffffffffffffffffffffffffffffffffffffffff1673ffffffffffffffffffffffffffffffffffffffff16815260200190815260200160002060009054906101000a900460ff169050919050565b60606008805480602002602001604051908101604052809291908181526020018280548015610ba557602002820191906000526020600020905b8160009054906101000a900473ffffffffffffffffffffffffffffffffffffffff1673ffffffffffffffffffffffffffffffffffffffff1681526020019060010190808311610b5b575b5050505050905090565b6000806000905060005b600880549050811015610c76578373ffffffffffffffffffffffffffffffffffffffff1660088281548110610c17577f4e487b7100000000000000000000000000000000000000000000000000000000600052603260045260246000fd5b9060005260206000200160009054906101000a900473ffffffffffffffffffffffffffffffffffffffff1673ffffffffffffffffffffffffffffffffffffffff161415610c6357600191505b8080610c6e90611405565b915050610bb9565b5080915050919050565b6000600354905090565b60045481565b60008054610c9d906113d3565b80601f0160208091040260200160405190810160405280929190818152602001828054610cc9906113d3565b8015610d165780601f10610ceb57610100808354040283529160200191610d16565b820191906000526020600020905b815481529060010190602001808311610cf957829003601f168201915b505050505081565b6000600454905090565b60088181548110610d3857600080fd5b906000526020600020016000915054906101000a900473ffffffffffffffffffffffffffffffffffffffff1681565b60065481565b606060008054610d7c906113d3565b80601f0160208091040260200160405190810160405280929190818152602001828054610da8906113d3565b8015610df55780601f10610dca57610100808354040283529160200191610df5565b820191906000526020600020905b815481529060010190602001808311610dd857829003601f168201915b5050505050905090565b60075481565b600081359050610e148161162b565b92915050565b600081359050610e2981611642565b92915050565b600060208284031215610e4157600080fd5b6000610e4f84828501610e05565b91505092915050565b600060208284031215610e6a57600080fd5b6000610e7884828501610e1a565b91505092915050565b6000610e8d8383610e99565b60208301905092915050565b610ea281611358565b82525050565b610eb181611358565b82525050565b6000610ec282611289565b610ecc81856112ac565b9350610ed783611279565b8060005b83811015610f08578151610eef8882610e81565b9750610efa8361129f565b925050600181019050610edb565b5085935050505092915050565b610f1e8161136a565b82525050565b6000610f2f82611294565b610f3981856112bd565b9350610f498185602086016113a0565b610f52816114ac565b840191505092915050565b6000610f6a6015836112bd565b9150610f75826114bd565b602082019050919050565b6000610f8d6019836112bd565b9150610f98826114e6565b602082019050919050565b6000610fb06023836112bd565b9150610fbb8261150f565b604082019050919050565b6000610fd3601c836112bd565b9150610fde8261155e565b602082019050919050565b6000610ff66015836112bd565b915061100182611587565b602082019050919050565b6000611019601d836112bd565b9150611024826115b0565b602082019050919050565b600061103c601a836112bd565b9150611047826115d9565b602082019050919050565b600061105f601b836112bd565b915061106a82611602565b602082019050919050565b61107e81611396565b82525050565b60006020820190506110996000830184610ea8565b92915050565b600060208201905081810360008301526110b98184610eb7565b905092915050565b60006020820190506110d66000830184610f15565b92915050565b600060208201905081810360008301526110f68184610f24565b905092915050565b6000602082019050818103600083015261111781610f5d565b9050919050565b6000602082019050818103600083015261113781610f80565b9050919050565b6000602082019050818103600083015261115781610fa3565b9050919050565b6000602082019050818103600083015261117781610fc6565b9050919050565b6000602082019050818103600083015261119781610fe9565b9050919050565b600060208201905081810360008301526111b78161100c565b9050919050565b600060208201905081810360008301526111d78161102f565b9050919050565b600060208201905081810360008301526111f781611052565b9050919050565b60006020820190506112136000830184611075565b92915050565b600060408201905061122e6000830185611075565b61123b6020830184611075565b9392505050565b60006060820190506112576000830186611075565b6112646020830185611075565b6112716040830184611075565b949350505050565b6000819050602082019050919050565b600081519050919050565b600081519050919050565b6000602082019050919050565b600082825260208201905092915050565b600082825260208201905092915050565b60006112d982611396565b91506112e483611396565b9250827fffffffffffffffffffffffffffffffffffffffffffffffffffffffffffffffff038211156113195761131861144e565b5b828201905092915050565b600061132f82611396565b915061133a83611396565b92508282101561134d5761134c61144e565b5b828203905092915050565b600061136382611376565b9050919050565b60008115159050919050565b600073ffffffffffffffffffffffffffffffffffffffff82169050919050565b6000819050919050565b60005b838110156113be5780820151818401526020810190506113a3565b838111156113cd576000848401525b50505050565b600060028204905060018216806113eb57607f821691505b602082108114156113ff576113fe61147d565b5b50919050565b600061141082611396565b91507fffffffffffffffffffffffffffffffffffffffffffffffffffffffffffffffff8214156114435761144261144e565b5b600182019050919050565b7f4e487b7100000000000000000000000000000000000000000000000000000000600052601160045260246000fd5b7f4e487b7100000000000000000000000000000000000000000000000000000000600052602260045260246000fd5b6000601f19601f8301169050919050565b7f5573657220686173206e6f742070616964207965740000000000000000000000600082015250565b7f45766572796f6e652068617320616c7265616479207061696400000000000000600082015250565b7f54726176656c6c6572206d757374207061792074686520726967687420616d6f60008201527f756e740000000000000000000000000000000000000000000000000000000000602082015250565b7f54726176656c6c6572206d75737420626520617574686f72697a656400000000600082015250565b7f546f6f206561726c7920746f2077697468647261770000000000000000000000600082015250565b7f5061796d656e7420616c7265616479206d61646520746f20486f74656c000000600082015250565b7f54726176656c6c65722068617320616c72656164792070616964000000000000600082015250565b7f54726176656c6c6572206973206e6f7420617574686f72697a65640000000000600082015250565b61163481611358565b811461163f57600080fd5b50565b61164b81611396565b811461165657600080fd5b5056fea264697066735822122032d3edc94430b112b79561e4de1abb982dfd7bc474097ac24465f8c16a04d4df64736f6c63430008040033a2646970667358221220fcd3910c600c9494c5f15e609e0d8f82ff6c62ba4ac9c7120d0ff277cf7a6c7564736f6c63430008040033",
  "linkReferences": {},
  "deployedLinkReferences": {}
}