{
  "_format": "hh-sol-artifact-1",
  "contractName": "TravelEscrow",
  "sourceName": "contracts/Travel.sol",
  "abi": [
    {
      "inputs": [
        {
          "internalType": "address[]",
          "name": "_authorizedTravellers",
          "type": "address[]"
        },
        {
          "internalType": "string",
          "name": "_hotelSelected",
          "type": "string"
        },
        {
          "internalType": "uint256",
          "name": "_timeForPayment",
          "type": "uint256"
        },
        {
          "internalType": "uint256",
          "name": "_dateStart",
          "type": "uint256"
        },
        {
          "internalType": "uint256",
          "name": "_numberOfNights",
          "type": "uint256"
        },
        {
          "internalType": "address",
          "name": "_hotelRegistryAddress",
          "type": "address"
        },
        {
          "internalType": "address",
          "name": "_nftIssuerAddress",
          "type": "address"
        },
        {
          "internalType": "uint256",
          "name": "_price",
          "type": "uint256"
        }
      ],
      "stateMutability": "nonpayable",
      "type": "constructor"
    },
    {
      "anonymous": false,
      "inputs": [
        {
          "indexed": false,
          "internalType": "address",
          "name": "traveller",
          "type": "address"
        }
      ],
      "name": "SharePaid",
      "type": "event"
    },
    {
      "inputs": [
        {
          "internalType": "uint256",
          "name": "",
          "type": "uint256"
        }
      ],
      "name": "authorizedTravellers",
      "outputs": [
        {
          "internalType": "address",
          "name": "",
          "type": "address"
        }
      ],
      "stateMutability": "view",
      "type": "function"
    },
    {
      "inputs": [],
      "name": "getAuthorizedTravellers",
      "outputs": [
        {
          "internalType": "address[]",
          "name": "",
          "type": "address[]"
        }
      ],
      "stateMutability": "view",
      "type": "function"
    },
    {
      "inputs": [],
      "name": "getDateStart",
      "outputs": [
        {
          "internalType": "uint256",
          "name": "",
          "type": "uint256"
        }
      ],
      "stateMutability": "view",
      "type": "function"
    },
    {
      "inputs": [],
      "name": "getDates",
      "outputs": [
        {
          "internalType": "uint256",
          "name": "",
          "type": "uint256"
        },
        {
          "internalType": "uint256",
          "name": "",
          "type": "uint256"
        }
      ],
      "stateMutability": "view",
      "type": "function"
    },
    {
      "inputs": [],
      "name": "getHotelName",
      "outputs": [
        {
          "internalType": "string",
          "name": "",
          "type": "string"
        }
      ],
      "stateMutability": "view",
      "type": "function"
    },
    {
      "inputs": [],
      "name": "getNumberOfNights",
      "outputs": [
        {
          "internalType": "uint256",
          "name": "",
          "type": "uint256"
        }
      ],
      "stateMutability": "view",
      "type": "function"
    },
    {
      "inputs": [],
      "name": "getPrice",
      "outputs": [
        {
          "internalType": "uint256",
          "name": "",
          "type": "uint256"
        }
      ],
      "stateMutability": "view",
      "type": "function"
    },
    {
      "inputs": [],
      "name": "getPricePerTraveller",
      "outputs": [
        {
          "internalType": "uint256",
          "name": "",
          "type": "uint256"
        }
      ],
      "stateMutability": "view",
      "type": "function"
    },
    {
      "inputs": [],
      "name": "hasEveryonePaid",
      "outputs": [
        {
          "internalType": "bool",
          "name": "",
          "type": "bool"
        }
      ],
      "stateMutability": "view",
      "type": "function"
    },
    {
      "inputs": [
        {
          "internalType": "address",
          "name": "addressOfTraveller",
          "type": "address"
        }
      ],
      "name": "hasTravellerPaid",
      "outputs": [
        {
          "internalType": "bool",
          "name": "",
          "type": "bool"
        }
      ],
      "stateMutability": "view",
      "type": "function"
    },
    {
      "inputs": [
        {
          "internalType": "address",
          "name": "addressOfTraveller",
          "type": "address"
        }
      ],
      "name": "isTravellerAuthorized",
      "outputs": [
        {
          "internalType": "bool",
          "name": "",
          "type": "bool"
        }
      ],
      "stateMutability": "view",
      "type": "function"
    },
    {
      "inputs": [],
      "name": "numberOfPaidTravellers",
      "outputs": [
        {
          "internalType": "uint256",
          "name": "",
          "type": "uint256"
        }
      ],
      "stateMutability": "view",
      "type": "function"
    },
    {
      "inputs": [],
      "name": "numberOfTravellers",
      "outputs": [
        {
          "internalType": "uint256",
          "name": "",
          "type": "uint256"
        }
      ],
      "stateMutability": "view",
      "type": "function"
    },
    {
      "inputs": [],
      "name": "payShare",
      "outputs": [
        {
          "internalType": "bool",
          "name": "",
          "type": "bool"
        }
      ],
      "stateMutability": "payable",
      "type": "function"
    },
    {
      "inputs": [],
      "name": "pricePerTraveller",
      "outputs": [
        {
          "internalType": "uint256",
          "name": "",
          "type": "uint256"
        }
      ],
      "stateMutability": "view",
      "type": "function"
    },
    {
      "inputs": [],
      "name": "sendPaymentToHotel",
      "outputs": [],
      "stateMutability": "nonpayable",
      "type": "function"
    },
    {
      "inputs": [],
      "name": "withdrawShare",
      "outputs": [],
      "stateMutability": "nonpayable",
      "type": "function"
    }
  ],
  "bytecode": "0x60806040523480156200001157600080fd5b5060405162001f7f38038062001f7f8339818101604052810190620000379190620005f0565b82600d60006101000a81548173ffffffffffffffffffffffffffffffffffffffff021916908373ffffffffffffffffffffffffffffffffffffffff16021790555081600e60006101000a81548173ffffffffffffffffffffffffffffffffffffffff021916908373ffffffffffffffffffffffffffffffffffffffff1602179055508542620000c7919062000875565b60028190555033600c60006101000a81548173ffffffffffffffffffffffffffffffffffffffff021916908373ffffffffffffffffffffffffffffffffffffffff16021790555086600090805190602001906200012692919062000343565b50600d60009054906101000a900473ffffffffffffffffffffffffffffffffffffffff1673ffffffffffffffffffffffffffffffffffffffff16638e61514e60006040518263ffffffff1660e01b81526004016200018591906200079d565b602060405180830381600087803b158015620001a057600080fd5b505af1158015620001b5573d6000803e3d6000fd5b505050506040513d601f19601f82011682018060405250810190620001db9190620005c4565b600160006101000a81548173ffffffffffffffffffffffffffffffffffffffff021916908373ffffffffffffffffffffffffffffffffffffffff16021790555083600160009054906101000a900473ffffffffffffffffffffffffffffffffffffffff1673ffffffffffffffffffffffffffffffffffffffff1663ce68ff326040518163ffffffff1660e01b8152600401602060405180830381600087803b1580156200028757600080fd5b505af11580156200029c573d6000803e3d6000fd5b505050506040513d601f19601f82011682018060405250810190620002c29190620006e5565b620002ce91906200090a565b6005819055506002600554620002e59190620008d2565b600b81905550876008908051906020019062000303929190620003d4565b506000600a60006101000a81548160ff02191690831515021790555083600481905550846003819055508751600781905550505050505050505062000b4c565b8280546200035190620009df565b90600052602060002090601f016020900481019282620003755760008555620003c1565b82601f106200039057805160ff1916838001178555620003c1565b82800160010185558215620003c1579182015b82811115620003c0578251825591602001919060010190620003a3565b5b509050620003d0919062000463565b5090565b82805482825590600052602060002090810192821562000450579160200282015b828111156200044f5782518260006101000a81548173ffffffffffffffffffffffffffffffffffffffff021916908373ffffffffffffffffffffffffffffffffffffffff16021790555091602001919060010190620003f5565b5b5090506200045f919062000463565b5090565b5b808211156200047e57600081600090555060010162000464565b5090565b6000620004996200049384620007ea565b620007c1565b90508083825260208201905082856020860282011115620004b957600080fd5b60005b85811015620004ed5781620004d288826200053c565b845260208401935060208301925050600181019050620004bc565b5050509392505050565b60006200050e620005088462000819565b620007c1565b9050828152602081018484840111156200052757600080fd5b62000534848285620009a9565b509392505050565b6000815190506200054d8162000b18565b92915050565b600082601f8301126200056557600080fd5b81516200057784826020860162000482565b91505092915050565b600082601f8301126200059257600080fd5b8151620005a4848260208601620004f7565b91505092915050565b600081519050620005be8162000b32565b92915050565b600060208284031215620005d757600080fd5b6000620005e7848285016200053c565b91505092915050565b600080600080600080600080610100898b0312156200060e57600080fd5b600089015167ffffffffffffffff8111156200062957600080fd5b620006378b828c0162000553565b985050602089015167ffffffffffffffff8111156200065557600080fd5b620006638b828c0162000580565b9750506040620006768b828c01620005ad565b9650506060620006898b828c01620005ad565b95505060806200069c8b828c01620005ad565b94505060a0620006af8b828c016200053c565b93505060c0620006c28b828c016200053c565b92505060e0620006d58b828c01620005ad565b9150509295985092959890939650565b600060208284031215620006f857600080fd5b60006200070884828501620005ad565b91505092915050565b600081546200072081620009df565b6200072c818662000864565b945060018216600081146200074a57600181146200075d5762000794565b60ff198316865260208601935062000794565b62000768856200084f565b60005b838110156200078c578154818901526001820191506020810190506200076b565b808801955050505b50505092915050565b60006020820190508181036000830152620007b9818462000711565b905092915050565b6000620007cd620007e0565b9050620007db828262000a15565b919050565b6000604051905090565b600067ffffffffffffffff82111562000808576200080762000ad8565b5b602082029050602081019050919050565b600067ffffffffffffffff82111562000837576200083662000ad8565b5b620008428262000b07565b9050602081019050919050565b60008190508160005260206000209050919050565b600082825260208201905092915050565b600062000882826200099f565b91506200088f836200099f565b9250827fffffffffffffffffffffffffffffffffffffffffffffffffffffffffffffffff03821115620008c757620008c662000a4b565b5b828201905092915050565b6000620008df826200099f565b9150620008ec836200099f565b925082620008ff57620008fe62000a7a565b5b828204905092915050565b600062000917826200099f565b915062000924836200099f565b9250817fffffffffffffffffffffffffffffffffffffffffffffffffffffffffffffffff048311821515161562000960576200095f62000a4b565b5b828202905092915050565b600062000978826200097f565b9050919050565b600073ffffffffffffffffffffffffffffffffffffffff82169050919050565b6000819050919050565b60005b83811015620009c9578082015181840152602081019050620009ac565b83811115620009d9576000848401525b50505050565b60006002820490506001821680620009f857607f821691505b6020821081141562000a0f5762000a0e62000aa9565b5b50919050565b62000a208262000b07565b810181811067ffffffffffffffff8211171562000a425762000a4162000ad8565b5b80604052505050565b7f4e487b7100000000000000000000000000000000000000000000000000000000600052601160045260246000fd5b7f4e487b7100000000000000000000000000000000000000000000000000000000600052601260045260246000fd5b7f4e487b7100000000000000000000000000000000000000000000000000000000600052602260045260246000fd5b7f4e487b7100000000000000000000000000000000000000000000000000000000600052604160045260246000fd5b6000601f19601f8301169050919050565b62000b23816200096b565b811462000b2f57600080fd5b50565b62000b3d816200099f565b811462000b4957600080fd5b50565b6114238062000b5c6000396000f3fe6080604052600436106100fe5760003560e01c8063a69ea1b311610095578063beae494b11610064578063beae494b146102f7578063dae86fd114610322578063eb9650021461035f578063f3668b9d1461038a578063f863f4d2146103b5576100fe565b8063a69ea1b314610227578063ab07cdf614610264578063b9b6a55d1461028f578063b9dd3b0c146102cc576100fe565b806324349671116100d1578063243496711461019c578063263c2c64146101b357806398d5fdca146101de57806399c571e714610209576100fe565b80630e21fe0e14610103578063164418131461011a5780631e6067521461014657806323a0664a14610171575b600080fd5b34801561010f57600080fd5b506101186103e0565b005b34801561012657600080fd5b5061012f61047c565b60405161013d929190610fad565b60405180910390f35b34801561015257600080fd5b5061015b61048d565b6040516101689190610f92565b60405180910390f35b34801561017d57600080fd5b50610186610493565b6040516101939190610f92565b60405180910390f35b3480156101a857600080fd5b506101b161049d565b005b3480156101bf57600080fd5b506101c86106c2565b6040516101d59190610e55565b60405180910390f35b3480156101ea57600080fd5b506101f36106d5565b6040516102009190610f92565b60405180910390f35b6102116106df565b60405161021e9190610e55565b60405180910390f35b34801561023357600080fd5b5061024e60048036038101906102499190610bc3565b6108f3565b60405161025b9190610e55565b60405180910390f35b34801561027057600080fd5b50610279610949565b6040516102869190610e33565b60405180910390f35b34801561029b57600080fd5b506102b660048036038101906102b19190610bc3565b6109d7565b6040516102c39190610e55565b60405180910390f35b3480156102d857600080fd5b506102e1610aa8565b6040516102ee9190610f92565b60405180910390f35b34801561030357600080fd5b5061030c610ab2565b6040516103199190610f92565b60405180910390f35b34801561032e57600080fd5b5061034960048036038101906103449190610bec565b610abc565b6040516103569190610e18565b60405180910390f35b34801561036b57600080fd5b50610374610afb565b6040516103819190610f92565b60405180910390f35b34801561039657600080fd5b5061039f610b01565b6040516103ac9190610e70565b60405180910390f35b3480156103c157600080fd5b506103ca610b93565b6040516103d79190610f92565b60405180910390f35b600160009054906101000a900473ffffffffffffffffffffffffffffffffffffffff1673ffffffffffffffffffffffffffffffffffffffff16637b1cc2096005546003546004546007546040518563ffffffff1660e01b815260040161044893929190610fd6565b6000604051808303818588803b15801561046157600080fd5b505af1158015610475573d6000803e3d6000fd5b5050505050565b600080600354600454915091509091565b600b5481565b6000600b54905090565b600a60009054906101000a900460ff16156104ed576040517f08c379a00000000000000000000000000000000000000000000000000000000081526004016104e490610f32565b60405180910390fd5b6002544211610531576040517f08c379a000000000000000000000000000000000000000000000000000000000815260040161052890610f12565b60405180910390fd5b61053a336109d7565b610579576040517f08c379a000000000000000000000000000000000000000000000000000000000815260040161057090610ef2565b60405180910390fd5b600960003373ffffffffffffffffffffffffffffffffffffffff1673ffffffffffffffffffffffffffffffffffffffff16815260200190815260200160002060009054906101000a900460ff16610605576040517f08c379a00000000000000000000000000000000000000000000000000000000081526004016105fc90610e92565b60405180910390fd5b6000600960003373ffffffffffffffffffffffffffffffffffffffff1673ffffffffffffffffffffffffffffffffffffffff16815260200190815260200160002060006101000a81548160ff02191690831515021790555060016006600082825461067091906110b8565b925050819055503373ffffffffffffffffffffffffffffffffffffffff166108fc600b549081150290604051600060405180830381858888f193505050501580156106bf573d6000803e3d6000fd5b50565b600a60009054906101000a900460ff1681565b6000600554905090565b6000600a60009054906101000a900460ff1615610731576040517f08c379a000000000000000000000000000000000000000000000000000000000815260040161072890610eb2565b60405180910390fd5b3361073b816109d7565b61077a576040517f08c379a000000000000000000000000000000000000000000000000000000000815260040161077190610f72565b60405180910390fd5b33610784816108f3565b156107c4576040517f08c379a00000000000000000000000000000000000000000000000000000000081526004016107bb90610f52565b60405180910390fd5b600b543414610808576040517f08c379a00000000000000000000000000000000000000000000000000000000081526004016107ff90610ed2565b60405180910390fd5b6001600960003373ffffffffffffffffffffffffffffffffffffffff1673ffffffffffffffffffffffffffffffffffffffff16815260200190815260200160002060006101000a81548160ff0219169083151502179055506001600660008282546108739190611062565b925050819055507f069070702eb0e9e0cb68f3c9604d7db163b6535ddeb13a5a0fb297223ebb5c6d336040516108a99190610e18565b60405180910390a160075460065414156108e9576001600a60006101000a81548160ff0219169083151502179055506108e06103e0565b600192506108ee565b600092505b505090565b6000600960008373ffffffffffffffffffffffffffffffffffffffff1673ffffffffffffffffffffffffffffffffffffffff16815260200190815260200160002060009054906101000a900460ff169050919050565b606060088054806020026020016040519081016040528092919081815260200182805480156109cd57602002820191906000526020600020905b8160009054906101000a900473ffffffffffffffffffffffffffffffffffffffff1673ffffffffffffffffffffffffffffffffffffffff1681526020019060010190808311610983575b5050505050905090565b6000806000905060005b600880549050811015610a9e578373ffffffffffffffffffffffffffffffffffffffff1660088281548110610a3f577f4e487b7100000000000000000000000000000000000000000000000000000000600052603260045260246000fd5b9060005260206000200160009054906101000a900473ffffffffffffffffffffffffffffffffffffffff1673ffffffffffffffffffffffffffffffffffffffff161415610a8b57600191505b8080610a9690611199565b9150506109e1565b5080915050919050565b6000600354905090565b6000600454905090565b60088181548110610acc57600080fd5b906000526020600020016000915054906101000a900473ffffffffffffffffffffffffffffffffffffffff1681565b60065481565b606060008054610b1090611167565b80601f0160208091040260200160405190810160405280929190818152602001828054610b3c90611167565b8015610b895780601f10610b5e57610100808354040283529160200191610b89565b820191906000526020600020905b815481529060010190602001808311610b6c57829003601f168201915b5050505050905090565b60075481565b600081359050610ba8816113bf565b92915050565b600081359050610bbd816113d6565b92915050565b600060208284031215610bd557600080fd5b6000610be384828501610b99565b91505092915050565b600060208284031215610bfe57600080fd5b6000610c0c84828501610bae565b91505092915050565b6000610c218383610c2d565b60208301905092915050565b610c36816110ec565b82525050565b610c45816110ec565b82525050565b6000610c568261101d565b610c608185611040565b9350610c6b8361100d565b8060005b83811015610c9c578151610c838882610c15565b9750610c8e83611033565b925050600181019050610c6f565b5085935050505092915050565b610cb2816110fe565b82525050565b6000610cc382611028565b610ccd8185611051565b9350610cdd818560208601611134565b610ce681611240565b840191505092915050565b6000610cfe601583611051565b9150610d0982611251565b602082019050919050565b6000610d21601983611051565b9150610d2c8261127a565b602082019050919050565b6000610d44602383611051565b9150610d4f826112a3565b604082019050919050565b6000610d67601c83611051565b9150610d72826112f2565b602082019050919050565b6000610d8a601583611051565b9150610d958261131b565b602082019050919050565b6000610dad601d83611051565b9150610db882611344565b602082019050919050565b6000610dd0601a83611051565b9150610ddb8261136d565b602082019050919050565b6000610df3601b83611051565b9150610dfe82611396565b602082019050919050565b610e128161112a565b82525050565b6000602082019050610e2d6000830184610c3c565b92915050565b60006020820190508181036000830152610e4d8184610c4b565b905092915050565b6000602082019050610e6a6000830184610ca9565b92915050565b60006020820190508181036000830152610e8a8184610cb8565b905092915050565b60006020820190508181036000830152610eab81610cf1565b9050919050565b60006020820190508181036000830152610ecb81610d14565b9050919050565b60006020820190508181036000830152610eeb81610d37565b9050919050565b60006020820190508181036000830152610f0b81610d5a565b9050919050565b60006020820190508181036000830152610f2b81610d7d565b9050919050565b60006020820190508181036000830152610f4b81610da0565b9050919050565b60006020820190508181036000830152610f6b81610dc3565b9050919050565b60006020820190508181036000830152610f8b81610de6565b9050919050565b6000602082019050610fa76000830184610e09565b92915050565b6000604082019050610fc26000830185610e09565b610fcf6020830184610e09565b9392505050565b6000606082019050610feb6000830186610e09565b610ff86020830185610e09565b6110056040830184610e09565b949350505050565b6000819050602082019050919050565b600081519050919050565b600081519050919050565b6000602082019050919050565b600082825260208201905092915050565b600082825260208201905092915050565b600061106d8261112a565b91506110788361112a565b9250827fffffffffffffffffffffffffffffffffffffffffffffffffffffffffffffffff038211156110ad576110ac6111e2565b5b828201905092915050565b60006110c38261112a565b91506110ce8361112a565b9250828210156110e1576110e06111e2565b5b828203905092915050565b60006110f78261110a565b9050919050565b60008115159050919050565b600073ffffffffffffffffffffffffffffffffffffffff82169050919050565b6000819050919050565b60005b83811015611152578082015181840152602081019050611137565b83811115611161576000848401525b50505050565b6000600282049050600182168061117f57607f821691505b6020821081141561119357611192611211565b5b50919050565b60006111a48261112a565b91507fffffffffffffffffffffffffffffffffffffffffffffffffffffffffffffffff8214156111d7576111d66111e2565b5b600182019050919050565b7f4e487b7100000000000000000000000000000000000000000000000000000000600052601160045260246000fd5b7f4e487b7100000000000000000000000000000000000000000000000000000000600052602260045260246000fd5b6000601f19601f8301169050919050565b7f5573657220686173206e6f742070616964207965740000000000000000000000600082015250565b7f45766572796f6e652068617320616c7265616479207061696400000000000000600082015250565b7f54726176656c6c6572206d757374207061792074686520726967687420616d6f60008201527f756e740000000000000000000000000000000000000000000000000000000000602082015250565b7f54726176656c6c6572206d75737420626520617574686f72697a656400000000600082015250565b7f546f6f206561726c7920746f2077697468647261770000000000000000000000600082015250565b7f5061796d656e7420616c7265616479206d61646520746f20486f74656c000000600082015250565b7f54726176656c6c65722068617320616c72656164792070616964000000000000600082015250565b7f54726176656c6c6572206973206e6f7420617574686f72697a65640000000000600082015250565b6113c8816110ec565b81146113d357600080fd5b50565b6113df8161112a565b81146113ea57600080fd5b5056fea26469706673582212206a16987e89d074fa4afd815108f75531f9706a7103fac83ae13c66b82648a30e64736f6c63430008040033",
  "linkReferences": {},
  "deployedLinkReferences": {}
}