{
  "_format": "hh-sol-artifact-1",
  "contractName": "TravelEscrowFactory",
  "sourceName": "contracts/Travel.sol",
  "abi": [
    {
      "inputs": [
        {
          "internalType": "address",
          "name": "_hotelRegistryAddress",
          "type": "address"
        },
        {
          "internalType": "address",
          "name": "_nftIssuerAddress",
          "type": "address"
        }
      ],
      "stateMutability": "nonpayable",
      "type": "constructor"
    },
    {
      "anonymous": false,
      "inputs": [
        {
          "indexed": false,
          "internalType": "address",
          "name": "travelEscrow",
          "type": "address"
        }
      ],
      "name": "TravelEscrowCreated",
      "type": "event"
    },
    {
      "inputs": [
        {
          "internalType": "address[]",
          "name": "authorizedTravellers",
          "type": "address[]"
        },
        {
          "internalType": "string",
          "name": "hotelSelected",
          "type": "string"
        },
        {
          "internalType": "uint256",
          "name": "timeForPayment",
          "type": "uint256"
        },
        {
          "internalType": "uint256",
          "name": "dateStart",
          "type": "uint256"
        },
        {
          "internalType": "uint256",
          "name": "numberOfNights",
          "type": "uint256"
        },
        {
          "internalType": "uint256",
          "name": "price",
          "type": "uint256"
        }
      ],
      "name": "createTravel",
      "outputs": [
        {
          "internalType": "address",
          "name": "",
          "type": "address"
        }
      ],
      "stateMutability": "nonpayable",
      "type": "function"
    },
    {
      "inputs": [
        {
          "internalType": "address",
          "name": "_newIHotelRegistryAddress",
          "type": "address"
        }
      ],
      "name": "setIHotelRegistry",
      "outputs": [],
      "stateMutability": "nonpayable",
      "type": "function"
    },
    {
      "inputs": [
        {
          "internalType": "address",
          "name": "_newNftIssuerAddress",
          "type": "address"
        }
      ],
      "name": "setINFTIssuer",
      "outputs": [],
      "stateMutability": "nonpayable",
      "type": "function"
    }
  ],
  "bytecode": "0x608060405234801561001057600080fd5b50604051612983380380612983833981810160405281019061003291906100cf565b816000806101000a81548173ffffffffffffffffffffffffffffffffffffffff021916908373ffffffffffffffffffffffffffffffffffffffff16021790555080600160006101000a81548173ffffffffffffffffffffffffffffffffffffffff021916908373ffffffffffffffffffffffffffffffffffffffff1602179055505050610154565b6000815190506100c98161013d565b92915050565b600080604083850312156100e257600080fd5b60006100f0858286016100ba565b9250506020610101858286016100ba565b9150509250929050565b60006101168261011d565b9050919050565b600073ffffffffffffffffffffffffffffffffffffffff82169050919050565b6101468161010b565b811461015157600080fd5b50565b612820806101636000396000f3fe60806040523480156200001157600080fd5b5060043610620000465760003560e01c80631d56934b146200004b57806362061ed7146200006b578063a7c4ef69146200008b575b600080fd5b620000696004803603810190620000639190620003ed565b620000c1565b005b620000896004803603810190620000839190620003ed565b62000104565b005b620000a96004803603810190620000a3919062000419565b62000148565b604051620000b89190620005d9565b60405180910390f35b806000806101000a81548173ffffffffffffffffffffffffffffffffffffffff021916908373ffffffffffffffffffffffffffffffffffffffff16021790555050565b80600160006101000a81548173ffffffffffffffffffffffffffffffffffffffff021916908373ffffffffffffffffffffffffffffffffffffffff16021790555050565b6000868686868660008054906101000a900473ffffffffffffffffffffffffffffffffffffffff16600160009054906101000a900473ffffffffffffffffffffffffffffffffffffffff1688604051620001a2906200029d565b620001b5989796959493929190620005f6565b604051809103906000f080158015620001d2573d6000803e3d6000fd5b50600260006101000a81548173ffffffffffffffffffffffffffffffffffffffff021916908373ffffffffffffffffffffffffffffffffffffffff1602179055507fdd1f024a5dba0d8dd1f0a47de84128f8474f2308fa379249633208f7d2082245600260009054906101000a900473ffffffffffffffffffffffffffffffffffffffff16604051620002669190620005d9565b60405180910390a1600260009054906101000a900473ffffffffffffffffffffffffffffffffffffffff1690509695505050505050565b611f4880620008a383390190565b6000620002c2620002bc84620006bb565b62000692565b90508083825260208201905082856020860282011115620002e257600080fd5b60005b85811015620003165781620002fb888262000365565b845260208401935060208301925050600181019050620002e5565b5050509392505050565b6000620003376200033184620006ea565b62000692565b9050828152602081018484840111156200035057600080fd5b6200035d848285620007b3565b509392505050565b60008135905062000376816200086e565b92915050565b600082601f8301126200038e57600080fd5b8135620003a0848260208601620002ab565b91505092915050565b600082601f830112620003bb57600080fd5b8135620003cd84826020860162000320565b91505092915050565b600081359050620003e78162000888565b92915050565b6000602082840312156200040057600080fd5b6000620004108482850162000365565b91505092915050565b60008060008060008060c087890312156200043357600080fd5b600087013567ffffffffffffffff8111156200044e57600080fd5b6200045c89828a016200037c565b965050602087013567ffffffffffffffff8111156200047a57600080fd5b6200048889828a01620003a9565b95505060406200049b89828a01620003d6565b9450506060620004ae89828a01620003d6565b9350506080620004c189828a01620003d6565b92505060a0620004d489828a01620003d6565b9150509295509295509295565b6000620004ef8383620004fb565b60208301905092915050565b620005068162000775565b82525050565b620005178162000775565b82525050565b60006200052a8262000730565b62000536818562000753565b9350620005438362000720565b8060005b838110156200057a5781516200055e8882620004e1565b97506200056b8362000746565b92505060018101905062000547565b5085935050505092915050565b600062000594826200073b565b620005a0818562000764565b9350620005b2818560208601620007c2565b620005bd816200085d565b840191505092915050565b620005d381620007a9565b82525050565b6000602082019050620005f060008301846200050c565b92915050565b600061010082019050818103600083015262000613818b6200051d565b9050818103602083015262000629818a62000587565b90506200063a6040830189620005c8565b620006496060830188620005c8565b620006586080830187620005c8565b6200066760a08301866200050c565b6200067660c08301856200050c565b6200068560e0830184620005c8565b9998505050505050505050565b60006200069e620006b1565b9050620006ac8282620007f8565b919050565b6000604051905090565b600067ffffffffffffffff821115620006d957620006d86200082e565b5b602082029050602081019050919050565b600067ffffffffffffffff8211156200070857620007076200082e565b5b62000713826200085d565b9050602081019050919050565b6000819050602082019050919050565b600081519050919050565b600081519050919050565b6000602082019050919050565b600082825260208201905092915050565b600082825260208201905092915050565b6000620007828262000789565b9050919050565b600073ffffffffffffffffffffffffffffffffffffffff82169050919050565b6000819050919050565b82818337600083830152505050565b60005b83811015620007e2578082015181840152602081019050620007c5565b83811115620007f2576000848401525b50505050565b62000803826200085d565b810181811067ffffffffffffffff821117156200082557620008246200082e565b5b80604052505050565b7f4e487b7100000000000000000000000000000000000000000000000000000000600052604160045260246000fd5b6000601f19601f8301169050919050565b620008798162000775565b81146200088557600080fd5b50565b6200089381620007a9565b81146200089f57600080fd5b5056fe60806040523480156200001157600080fd5b5060405162001f4838038062001f488339818101604052810190620000379190620005f0565b82600d60006101000a81548173ffffffffffffffffffffffffffffffffffffffff021916908373ffffffffffffffffffffffffffffffffffffffff16021790555081600e60006101000a81548173ffffffffffffffffffffffffffffffffffffffff021916908373ffffffffffffffffffffffffffffffffffffffff1602179055508542620000c7919062000875565b60028190555033600c60006101000a81548173ffffffffffffffffffffffffffffffffffffffff021916908373ffffffffffffffffffffffffffffffffffffffff16021790555086600090805190602001906200012692919062000343565b50600d60009054906101000a900473ffffffffffffffffffffffffffffffffffffffff1673ffffffffffffffffffffffffffffffffffffffff16638e61514e60006040518263ffffffff1660e01b81526004016200018591906200079d565b602060405180830381600087803b158015620001a057600080fd5b505af1158015620001b5573d6000803e3d6000fd5b505050506040513d601f19601f82011682018060405250810190620001db9190620005c4565b600160006101000a81548173ffffffffffffffffffffffffffffffffffffffff021916908373ffffffffffffffffffffffffffffffffffffffff16021790555083600160009054906101000a900473ffffffffffffffffffffffffffffffffffffffff1673ffffffffffffffffffffffffffffffffffffffff1663ce68ff326040518163ffffffff1660e01b8152600401602060405180830381600087803b1580156200028757600080fd5b505af11580156200029c573d6000803e3d6000fd5b505050506040513d601f19601f82011682018060405250810190620002c29190620006e5565b620002ce91906200090a565b6005819055506002600554620002e59190620008d2565b600b81905550876008908051906020019062000303929190620003d4565b506000600a60006101000a81548160ff02191690831515021790555083600481905550846003819055508751600781905550505050505050505062000b4c565b8280546200035190620009df565b90600052602060002090601f016020900481019282620003755760008555620003c1565b82601f106200039057805160ff1916838001178555620003c1565b82800160010185558215620003c1579182015b82811115620003c0578251825591602001919060010190620003a3565b5b509050620003d0919062000463565b5090565b82805482825590600052602060002090810192821562000450579160200282015b828111156200044f5782518260006101000a81548173ffffffffffffffffffffffffffffffffffffffff021916908373ffffffffffffffffffffffffffffffffffffffff16021790555091602001919060010190620003f5565b5b5090506200045f919062000463565b5090565b5b808211156200047e57600081600090555060010162000464565b5090565b6000620004996200049384620007ea565b620007c1565b90508083825260208201905082856020860282011115620004b957600080fd5b60005b85811015620004ed5781620004d288826200053c565b845260208401935060208301925050600181019050620004bc565b5050509392505050565b60006200050e620005088462000819565b620007c1565b9050828152602081018484840111156200052757600080fd5b62000534848285620009a9565b509392505050565b6000815190506200054d8162000b18565b92915050565b600082601f8301126200056557600080fd5b81516200057784826020860162000482565b91505092915050565b600082601f8301126200059257600080fd5b8151620005a4848260208601620004f7565b91505092915050565b600081519050620005be8162000b32565b92915050565b600060208284031215620005d757600080fd5b6000620005e7848285016200053c565b91505092915050565b600080600080600080600080610100898b0312156200060e57600080fd5b600089015167ffffffffffffffff8111156200062957600080fd5b620006378b828c0162000553565b985050602089015167ffffffffffffffff8111156200065557600080fd5b620006638b828c0162000580565b9750506040620006768b828c01620005ad565b9650506060620006898b828c01620005ad565b95505060806200069c8b828c01620005ad565b94505060a0620006af8b828c016200053c565b93505060c0620006c28b828c016200053c565b92505060e0620006d58b828c01620005ad565b9150509295985092959890939650565b600060208284031215620006f857600080fd5b60006200070884828501620005ad565b91505092915050565b600081546200072081620009df565b6200072c818662000864565b945060018216600081146200074a57600181146200075d5762000794565b60ff198316865260208601935062000794565b62000768856200084f565b60005b838110156200078c578154818901526001820191506020810190506200076b565b808801955050505b50505092915050565b60006020820190508181036000830152620007b9818462000711565b905092915050565b6000620007cd620007e0565b9050620007db828262000a15565b919050565b6000604051905090565b600067ffffffffffffffff82111562000808576200080762000ad8565b5b602082029050602081019050919050565b600067ffffffffffffffff82111562000837576200083662000ad8565b5b620008428262000b07565b9050602081019050919050565b60008190508160005260206000209050919050565b600082825260208201905092915050565b600062000882826200099f565b91506200088f836200099f565b9250827fffffffffffffffffffffffffffffffffffffffffffffffffffffffffffffffff03821115620008c757620008c662000a4b565b5b828201905092915050565b6000620008df826200099f565b9150620008ec836200099f565b925082620008ff57620008fe62000a7a565b5b828204905092915050565b600062000917826200099f565b915062000924836200099f565b9250817fffffffffffffffffffffffffffffffffffffffffffffffffffffffffffffffff048311821515161562000960576200095f62000a4b565b5b828202905092915050565b600062000978826200097f565b9050919050565b600073ffffffffffffffffffffffffffffffffffffffff82169050919050565b6000819050919050565b60005b83811015620009c9578082015181840152602081019050620009ac565b83811115620009d9576000848401525b50505050565b60006002820490506001821680620009f857607f821691505b6020821081141562000a0f5762000a0e62000aa9565b5b50919050565b62000a208262000b07565b810181811067ffffffffffffffff8211171562000a425762000a4162000ad8565b5b80604052505050565b7f4e487b7100000000000000000000000000000000000000000000000000000000600052601160045260246000fd5b7f4e487b7100000000000000000000000000000000000000000000000000000000600052601260045260246000fd5b7f4e487b7100000000000000000000000000000000000000000000000000000000600052602260045260246000fd5b7f4e487b7100000000000000000000000000000000000000000000000000000000600052604160045260246000fd5b6000601f19601f8301169050919050565b62000b23816200096b565b811462000b2f57600080fd5b50565b62000b3d816200099f565b811462000b4957600080fd5b50565b6113ec8062000b5c6000396000f3fe6080604052600436106100fe5760003560e01c8063a69ea1b311610095578063beae494b11610064578063beae494b146102f7578063dae86fd114610322578063eb9650021461035f578063f3668b9d1461038a578063f863f4d2146103b5576100fe565b8063a69ea1b314610227578063ab07cdf614610264578063b9b6a55d1461028f578063b9dd3b0c146102cc576100fe565b806324349671116100d1578063243496711461019c578063263c2c64146101b357806398d5fdca146101de57806399c571e714610209576100fe565b80630e21fe0e14610103578063164418131461011a5780631e6067521461014657806323a0664a14610171575b600080fd5b34801561010f57600080fd5b506101186103e0565b005b34801561012657600080fd5b5061012f61047c565b60405161013d929190610f76565b60405180910390f35b34801561015257600080fd5b5061015b61048d565b6040516101689190610f5b565b60405180910390f35b34801561017d57600080fd5b50610186610493565b6040516101939190610f5b565b60405180910390f35b3480156101a857600080fd5b506101b161049d565b005b3480156101bf57600080fd5b506101c86106c2565b6040516101d59190610e1e565b60405180910390f35b3480156101ea57600080fd5b506101f36106d5565b6040516102009190610f5b565b60405180910390f35b6102116106df565b60405161021e9190610e1e565b60405180910390f35b34801561023357600080fd5b5061024e60048036038101906102499190610b8c565b6108bc565b60405161025b9190610e1e565b60405180910390f35b34801561027057600080fd5b50610279610912565b6040516102869190610dfc565b60405180910390f35b34801561029b57600080fd5b506102b660048036038101906102b19190610b8c565b6109a0565b6040516102c39190610e1e565b60405180910390f35b3480156102d857600080fd5b506102e1610a71565b6040516102ee9190610f5b565b60405180910390f35b34801561030357600080fd5b5061030c610a7b565b6040516103199190610f5b565b60405180910390f35b34801561032e57600080fd5b5061034960048036038101906103449190610bb5565b610a85565b6040516103569190610de1565b60405180910390f35b34801561036b57600080fd5b50610374610ac4565b6040516103819190610f5b565b60405180910390f35b34801561039657600080fd5b5061039f610aca565b6040516103ac9190610e39565b60405180910390f35b3480156103c157600080fd5b506103ca610b5c565b6040516103d79190610f5b565b60405180910390f35b600160009054906101000a900473ffffffffffffffffffffffffffffffffffffffff1673ffffffffffffffffffffffffffffffffffffffff16637b1cc2096005546003546004546007546040518563ffffffff1660e01b815260040161044893929190610f9f565b6000604051808303818588803b15801561046157600080fd5b505af1158015610475573d6000803e3d6000fd5b5050505050565b600080600354600454915091509091565b600b5481565b6000600b54905090565b600a60009054906101000a900460ff16156104ed576040517f08c379a00000000000000000000000000000000000000000000000000000000081526004016104e490610efb565b60405180910390fd5b6002544211610531576040517f08c379a000000000000000000000000000000000000000000000000000000000815260040161052890610edb565b60405180910390fd5b61053a336109a0565b610579576040517f08c379a000000000000000000000000000000000000000000000000000000000815260040161057090610ebb565b60405180910390fd5b600960003373ffffffffffffffffffffffffffffffffffffffff1673ffffffffffffffffffffffffffffffffffffffff16815260200190815260200160002060009054906101000a900460ff16610605576040517f08c379a00000000000000000000000000000000000000000000000000000000081526004016105fc90610e5b565b60405180910390fd5b6000600960003373ffffffffffffffffffffffffffffffffffffffff1673ffffffffffffffffffffffffffffffffffffffff16815260200190815260200160002060006101000a81548160ff0219169083151502179055506001600660008282546106709190611081565b925050819055503373ffffffffffffffffffffffffffffffffffffffff166108fc600b549081150290604051600060405180830381858888f193505050501580156106bf573d6000803e3d6000fd5b50565b600a60009054906101000a900460ff1681565b6000600554905090565b6000600a60009054906101000a900460ff1615610731576040517f08c379a000000000000000000000000000000000000000000000000000000000815260040161072890610e7b565b60405180910390fd5b3361073b816109a0565b61077a576040517f08c379a000000000000000000000000000000000000000000000000000000000815260040161077190610f3b565b60405180910390fd5b33610784816108bc565b156107c4576040517f08c379a00000000000000000000000000000000000000000000000000000000081526004016107bb90610f1b565b60405180910390fd5b600b543414610808576040517f08c379a00000000000000000000000000000000000000000000000000000000081526004016107ff90610e9b565b60405180910390fd5b6001600960003373ffffffffffffffffffffffffffffffffffffffff1673ffffffffffffffffffffffffffffffffffffffff16815260200190815260200160002060006101000a81548160ff021916908315150217905550600160066000828254610873919061102b565b9250508190555060075460065414156108b2576001600a60006101000a81548160ff0219169083151502179055506108a96103e0565b600192506108b7565b600092505b505090565b6000600960008373ffffffffffffffffffffffffffffffffffffffff1673ffffffffffffffffffffffffffffffffffffffff16815260200190815260200160002060009054906101000a900460ff169050919050565b6060600880548060200260200160405190810160405280929190818152602001828054801561099657602002820191906000526020600020905b8160009054906101000a900473ffffffffffffffffffffffffffffffffffffffff1673ffffffffffffffffffffffffffffffffffffffff168152602001906001019080831161094c575b5050505050905090565b6000806000905060005b600880549050811015610a67578373ffffffffffffffffffffffffffffffffffffffff1660088281548110610a08577f4e487b7100000000000000000000000000000000000000000000000000000000600052603260045260246000fd5b9060005260206000200160009054906101000a900473ffffffffffffffffffffffffffffffffffffffff1673ffffffffffffffffffffffffffffffffffffffff161415610a5457600191505b8080610a5f90611162565b9150506109aa565b5080915050919050565b6000600354905090565b6000600454905090565b60088181548110610a9557600080fd5b906000526020600020016000915054906101000a900473ffffffffffffffffffffffffffffffffffffffff1681565b60065481565b606060008054610ad990611130565b80601f0160208091040260200160405190810160405280929190818152602001828054610b0590611130565b8015610b525780601f10610b2757610100808354040283529160200191610b52565b820191906000526020600020905b815481529060010190602001808311610b3557829003601f168201915b5050505050905090565b60075481565b600081359050610b7181611388565b92915050565b600081359050610b868161139f565b92915050565b600060208284031215610b9e57600080fd5b6000610bac84828501610b62565b91505092915050565b600060208284031215610bc757600080fd5b6000610bd584828501610b77565b91505092915050565b6000610bea8383610bf6565b60208301905092915050565b610bff816110b5565b82525050565b610c0e816110b5565b82525050565b6000610c1f82610fe6565b610c298185611009565b9350610c3483610fd6565b8060005b83811015610c65578151610c4c8882610bde565b9750610c5783610ffc565b925050600181019050610c38565b5085935050505092915050565b610c7b816110c7565b82525050565b6000610c8c82610ff1565b610c96818561101a565b9350610ca68185602086016110fd565b610caf81611209565b840191505092915050565b6000610cc760158361101a565b9150610cd28261121a565b602082019050919050565b6000610cea60198361101a565b9150610cf582611243565b602082019050919050565b6000610d0d60238361101a565b9150610d188261126c565b604082019050919050565b6000610d30601c8361101a565b9150610d3b826112bb565b602082019050919050565b6000610d5360158361101a565b9150610d5e826112e4565b602082019050919050565b6000610d76601d8361101a565b9150610d818261130d565b602082019050919050565b6000610d99601a8361101a565b9150610da482611336565b602082019050919050565b6000610dbc601b8361101a565b9150610dc78261135f565b602082019050919050565b610ddb816110f3565b82525050565b6000602082019050610df66000830184610c05565b92915050565b60006020820190508181036000830152610e168184610c14565b905092915050565b6000602082019050610e336000830184610c72565b92915050565b60006020820190508181036000830152610e538184610c81565b905092915050565b60006020820190508181036000830152610e7481610cba565b9050919050565b60006020820190508181036000830152610e9481610cdd565b9050919050565b60006020820190508181036000830152610eb481610d00565b9050919050565b60006020820190508181036000830152610ed481610d23565b9050919050565b60006020820190508181036000830152610ef481610d46565b9050919050565b60006020820190508181036000830152610f1481610d69565b9050919050565b60006020820190508181036000830152610f3481610d8c565b9050919050565b60006020820190508181036000830152610f5481610daf565b9050919050565b6000602082019050610f706000830184610dd2565b92915050565b6000604082019050610f8b6000830185610dd2565b610f986020830184610dd2565b9392505050565b6000606082019050610fb46000830186610dd2565b610fc16020830185610dd2565b610fce6040830184610dd2565b949350505050565b6000819050602082019050919050565b600081519050919050565b600081519050919050565b6000602082019050919050565b600082825260208201905092915050565b600082825260208201905092915050565b6000611036826110f3565b9150611041836110f3565b9250827fffffffffffffffffffffffffffffffffffffffffffffffffffffffffffffffff03821115611076576110756111ab565b5b828201905092915050565b600061108c826110f3565b9150611097836110f3565b9250828210156110aa576110a96111ab565b5b828203905092915050565b60006110c0826110d3565b9050919050565b60008115159050919050565b600073ffffffffffffffffffffffffffffffffffffffff82169050919050565b6000819050919050565b60005b8381101561111b578082015181840152602081019050611100565b8381111561112a576000848401525b50505050565b6000600282049050600182168061114857607f821691505b6020821081141561115c5761115b6111da565b5b50919050565b600061116d826110f3565b91507fffffffffffffffffffffffffffffffffffffffffffffffffffffffffffffffff8214156111a05761119f6111ab565b5b600182019050919050565b7f4e487b7100000000000000000000000000000000000000000000000000000000600052601160045260246000fd5b7f4e487b7100000000000000000000000000000000000000000000000000000000600052602260045260246000fd5b6000601f19601f8301169050919050565b7f5573657220686173206e6f742070616964207965740000000000000000000000600082015250565b7f45766572796f6e652068617320616c7265616479207061696400000000000000600082015250565b7f54726176656c6c6572206d757374207061792074686520726967687420616d6f60008201527f756e740000000000000000000000000000000000000000000000000000000000602082015250565b7f54726176656c6c6572206d75737420626520617574686f72697a656400000000600082015250565b7f546f6f206561726c7920746f2077697468647261770000000000000000000000600082015250565b7f5061796d656e7420616c7265616479206d61646520746f20486f74656c000000600082015250565b7f54726176656c6c65722068617320616c72656164792070616964000000000000600082015250565b7f54726176656c6c6572206973206e6f7420617574686f72697a65640000000000600082015250565b611391816110b5565b811461139c57600080fd5b50565b6113a8816110f3565b81146113b357600080fd5b5056fea26469706673582212207ed211bc3a35712b8ac0b055cc233bc74754228fe9a0d51a1fb028213683d49664736f6c63430008040033a26469706673582212200a442960558e2e44ab98c36b58d1f6d04a383a67744b7c6574f3d5ade3d0b2f564736f6c63430008040033",
  "linkReferences": {},
  "deployedLinkReferences": {}
}