{
  "_format": "hh-sol-artifact-1",
  "contractName": "BobaTuringCredit",
  "sourceName": "contracts/bobaTuringCredit.sol",
  "abi": [
    {
      "inputs": [
        {
          "internalType": "uint256",
          "name": "_turingPrice",
          "type": "uint256"
        }
      ],
      "stateMutability": "nonpayable",
      "type": "constructor"
    },
    {
      "anonymous": false,
      "inputs": [
        {
          "indexed": false,
          "internalType": "address",
          "name": "sender",
          "type": "address"
        },
        {
          "indexed": false,
          "internalType": "uint256",
          "name": "balanceAmount",
          "type": "uint256"
        },
        {
          "indexed": false,
          "internalType": "address",
          "name": "helperContractAddress",
          "type": "address"
        }
      ],
      "name": "AddBalanceTo",
      "type": "event"
    },
    {
      "anonymous": false,
      "inputs": [
        {
          "indexed": false,
          "internalType": "address",
          "name": "oldOwner",
          "type": "address"
        },
        {
          "indexed": false,
          "internalType": "address",
          "name": "newOwner",
          "type": "address"
        }
      ],
      "name": "TransferOwnership",
      "type": "event"
    },
    {
      "anonymous": false,
      "inputs": [
        {
          "indexed": false,
          "internalType": "address",
          "name": "sender",
          "type": "address"
        },
        {
          "indexed": false,
          "internalType": "uint256",
          "name": "withdrawAmount",
          "type": "uint256"
        }
      ],
      "name": "WithdrawRevenue",
      "type": "event"
    },
    {
      "inputs": [
        {
          "internalType": "uint256",
          "name": "_addBalanceAmount",
          "type": "uint256"
        },
        {
          "internalType": "address",
          "name": "_helperContractAddress",
          "type": "address"
        }
      ],
      "name": "addBalanceTo",
      "outputs": [],
      "stateMutability": "nonpayable",
      "type": "function"
    },
    {
      "inputs": [
        {
          "internalType": "address",
          "name": "_helperContractAddress",
          "type": "address"
        }
      ],
      "name": "getCreditAmount",
      "outputs": [
        {
          "internalType": "uint256",
          "name": "",
          "type": "uint256"
        }
      ],
      "stateMutability": "view",
      "type": "function"
    },
    {
      "inputs": [],
      "name": "owner",
      "outputs": [
        {
          "internalType": "address",
          "name": "",
          "type": "address"
        }
      ],
      "stateMutability": "view",
      "type": "function"
    },
    {
      "inputs": [],
      "name": "ownerRevenue",
      "outputs": [
        {
          "internalType": "uint256",
          "name": "",
          "type": "uint256"
        }
      ],
      "stateMutability": "view",
      "type": "function"
    },
    {
      "inputs": [
        {
          "internalType": "address",
          "name": "",
          "type": "address"
        }
      ],
      "name": "prepaidBalance",
      "outputs": [
        {
          "internalType": "uint256",
          "name": "",
          "type": "uint256"
        }
      ],
      "stateMutability": "view",
      "type": "function"
    },
    {
      "inputs": [
        {
          "internalType": "address",
          "name": "_newOwner",
          "type": "address"
        }
      ],
      "name": "transferOwnership",
      "outputs": [],
      "stateMutability": "nonpayable",
      "type": "function"
    },
    {
      "inputs": [],
      "name": "turingPrice",
      "outputs": [
        {
          "internalType": "uint256",
          "name": "",
          "type": "uint256"
        }
      ],
      "stateMutability": "view",
      "type": "function"
    },
    {
      "inputs": [],
      "name": "turingToken",
      "outputs": [
        {
          "internalType": "address",
          "name": "",
          "type": "address"
        }
      ],
      "stateMutability": "view",
      "type": "function"
    },
    {
      "inputs": [
        {
          "internalType": "uint256",
          "name": "_turingPrice",
          "type": "uint256"
        }
      ],
      "name": "updateTuringPrice",
      "outputs": [],
      "stateMutability": "nonpayable",
      "type": "function"
    },
    {
      "inputs": [
        {
          "internalType": "address",
          "name": "_turingToken",
          "type": "address"
        }
      ],
      "name": "updateTuringToken",
      "outputs": [],
      "stateMutability": "nonpayable",
      "type": "function"
    },
    {
      "inputs": [
        {
          "internalType": "uint256",
          "name": "_withdrawAmount",
          "type": "uint256"
        }
      ],
      "name": "withdrawRevenue",
      "outputs": [],
      "stateMutability": "nonpayable",
      "type": "function"
    }
  ],
  "bytecode": "0x60806040523480156200001157600080fd5b5060405162001cbb38038062001cbb833981810160405281019062000037919062000085565b8060038190555050620000b7565b600080fd5b6000819050919050565b6200005f816200004a565b81146200006b57600080fd5b50565b6000815190506200007f8162000054565b92915050565b6000602082840312156200009e576200009d62000045565b5b6000620000ae848285016200006e565b91505092915050565b611bf480620000c76000396000f3fe608060405234801561001057600080fd5b50600436106100a85760003560e01c80638da5cb5b116100715780638da5cb5b14610151578063a52b962d1461016f578063e24dfcde1461019f578063f2fde38b146101bd578063f7cd3be8146101d9578063fd892278146101f5576100a8565b8062292526146100ad57806309da3981146100cb5780630ceff204146100fb57806335d6eac4146101175780638533839214610133575b600080fd5b6100b5610211565b6040516100c2919061118d565b60405180910390f35b6100e560048036038101906100e0919061120b565b610217565b6040516100f2919061118d565b60405180910390f35b61011560048036038101906101109190611264565b61022f565b005b610131600480360381019061012c919061120b565b6104ad565b005b61013b610667565b60405161014891906112a0565b60405180910390f35b61015961068d565b60405161016691906112a0565b60405180910390f35b6101896004803603810190610184919061120b565b6106b1565b604051610196919061118d565b60405180910390f35b6101a7610753565b6040516101b4919061118d565b60405180910390f35b6101d760048036038101906101d2919061120b565b610759565b005b6101f360048036038101906101ee9190611264565b6108f4565b005b61020f600480360381019061020a91906112bb565b6109e3565b005b60045481565b60016020528060005260406000206000915090505481565b60008054906101000a900473ffffffffffffffffffffffffffffffffffffffff1673ffffffffffffffffffffffffffffffffffffffff163373ffffffffffffffffffffffffffffffffffffffff1614806102d55750600073ffffffffffffffffffffffffffffffffffffffff1660008054906101000a900473ffffffffffffffffffffffffffffffffffffffff1673ffffffffffffffffffffffffffffffffffffffff16145b610314576040517f08c379a000000000000000000000000000000000000000000000000000000000815260040161030b90611358565b60405180910390fd5b600073ffffffffffffffffffffffffffffffffffffffff16600260009054906101000a900473ffffffffffffffffffffffffffffffffffffffff1673ffffffffffffffffffffffffffffffffffffffff1614156103a6576040517f08c379a000000000000000000000000000000000000000000000000000000000815260040161039d906113ea565b60405180910390fd5b6004548111156103eb576040517f08c379a00000000000000000000000000000000000000000000000000000000081526004016103e290611456565b60405180910390fd5b80600460008282546103fd91906114a5565b925050819055507f447d53be88e315476bdbe2e63cef309461f6305d09aada67641c29e6b897e30133826040516104359291906114d9565b60405180910390a16104aa60008054906101000a900473ffffffffffffffffffffffffffffffffffffffff1682600260009054906101000a900473ffffffffffffffffffffffffffffffffffffffff1673ffffffffffffffffffffffffffffffffffffffff16610c359092919063ffffffff16565b50565b60008054906101000a900473ffffffffffffffffffffffffffffffffffffffff1673ffffffffffffffffffffffffffffffffffffffff163373ffffffffffffffffffffffffffffffffffffffff1614806105535750600073ffffffffffffffffffffffffffffffffffffffff1660008054906101000a900473ffffffffffffffffffffffffffffffffffffffff1673ffffffffffffffffffffffffffffffffffffffff16145b610592576040517f08c379a000000000000000000000000000000000000000000000000000000000815260040161058990611358565b60405180910390fd5b600073ffffffffffffffffffffffffffffffffffffffff16600260009054906101000a900473ffffffffffffffffffffffffffffffffffffffff1673ffffffffffffffffffffffffffffffffffffffff1614610623576040517f08c379a000000000000000000000000000000000000000000000000000000000815260040161061a9061154e565b60405180910390fd5b80600260006101000a81548173ffffffffffffffffffffffffffffffffffffffff021916908373ffffffffffffffffffffffffffffffffffffffff16021790555050565b600260009054906101000a900473ffffffffffffffffffffffffffffffffffffffff1681565b60008054906101000a900473ffffffffffffffffffffffffffffffffffffffff1681565b60008060035414156106f8576040517f08c379a00000000000000000000000000000000000000000000000000000000081526004016106ef906115ba565b60405180910390fd5b61074c600354600160008573ffffffffffffffffffffffffffffffffffffffff1673ffffffffffffffffffffffffffffffffffffffff16815260200190815260200160002054610cbb90919063ffffffff16565b9050919050565b60035481565b60008054906101000a900473ffffffffffffffffffffffffffffffffffffffff1673ffffffffffffffffffffffffffffffffffffffff163373ffffffffffffffffffffffffffffffffffffffff1614806107ff5750600073ffffffffffffffffffffffffffffffffffffffff1660008054906101000a900473ffffffffffffffffffffffffffffffffffffffff1673ffffffffffffffffffffffffffffffffffffffff16145b61083e576040517f08c379a000000000000000000000000000000000000000000000000000000000815260040161083590611358565b60405180910390fd5b600073ffffffffffffffffffffffffffffffffffffffff168173ffffffffffffffffffffffffffffffffffffffff16141561087857600080fd5b806000806101000a81548173ffffffffffffffffffffffffffffffffffffffff021916908373ffffffffffffffffffffffffffffffffffffffff1602179055507f5c486528ec3e3f0ea91181cff8116f02bfa350e03b8b6f12e00765adbb5af85c33826040516108e99291906115da565b60405180910390a150565b60008054906101000a900473ffffffffffffffffffffffffffffffffffffffff1673ffffffffffffffffffffffffffffffffffffffff163373ffffffffffffffffffffffffffffffffffffffff16148061099a5750600073ffffffffffffffffffffffffffffffffffffffff1660008054906101000a900473ffffffffffffffffffffffffffffffffffffffff1673ffffffffffffffffffffffffffffffffffffffff16145b6109d9576040517f08c379a00000000000000000000000000000000000000000000000000000000081526004016109d090611358565b60405180910390fd5b8060038190555050565b600073ffffffffffffffffffffffffffffffffffffffff16600260009054906101000a900473ffffffffffffffffffffffffffffffffffffffff1673ffffffffffffffffffffffffffffffffffffffff161415610a75576040517f08c379a0000000000000000000000000000000000000000000000000000000008152600401610a6c906113ea565b60405180910390fd5b6000821415610ab9576040517f08c379a0000000000000000000000000000000000000000000000000000000008152600401610ab09061164f565b60405180910390fd5b610ac281610cd1565b610b01576040517f08c379a0000000000000000000000000000000000000000000000000000000008152600401610af8906116bb565b60405180910390fd5b610b1281632f7adf4360e01b610cf4565b610b51576040517f08c379a0000000000000000000000000000000000000000000000000000000008152600401610b4890611727565b60405180910390fd5b81600160008373ffffffffffffffffffffffffffffffffffffffff1673ffffffffffffffffffffffffffffffffffffffff1681526020019081526020016000206000828254610ba09190611747565b925050819055507f63611f4b2e0fff4acd8e17bd95ebb62a3bc834c76cf85e7a972a502990b6257a338383604051610bda9392919061179d565b60405180910390a1610c31333084600260009054906101000a900473ffffffffffffffffffffffffffffffffffffffff1673ffffffffffffffffffffffffffffffffffffffff16610d19909392919063ffffffff16565b5050565b610cb68363a9059cbb60e01b8484604051602401610c549291906114d9565b604051602081830303815290604052907bffffffffffffffffffffffffffffffffffffffffffffffffffffffff19166020820180517bffffffffffffffffffffffffffffffffffffffffffffffffffffffff8381831617835250505050610da2565b505050565b60008183610cc99190611803565b905092915050565b6000808273ffffffffffffffffffffffffffffffffffffffff163b119050919050565b6000610cff83610e69565b8015610d115750610d108383610eb6565b5b905092915050565b610d9c846323b872dd60e01b858585604051602401610d3a93929190611834565b604051602081830303815290604052907bffffffffffffffffffffffffffffffffffffffffffffffffffffffff19166020820180517bffffffffffffffffffffffffffffffffffffffffffffffffffffffff8381831617835250505050610da2565b50505050565b6000610e04826040518060400160405280602081526020017f5361666545524332303a206c6f772d6c6576656c2063616c6c206661696c65648152508573ffffffffffffffffffffffffffffffffffffffff16610fe19092919063ffffffff16565b9050600081511115610e645780806020019051810190610e2491906118a3565b610e63576040517f08c379a0000000000000000000000000000000000000000000000000000000008152600401610e5a90611942565b60405180910390fd5b5b505050565b6000610e95827f01ffc9a700000000000000000000000000000000000000000000000000000000610eb6565b8015610eaf5750610ead8263ffffffff60e01b610eb6565b155b9050919050565b6000806301ffc9a760e01b83604051602401610ed2919061199d565b604051602081830303815290604052907bffffffffffffffffffffffffffffffffffffffffffffffffffffffff19166020820180517bffffffffffffffffffffffffffffffffffffffffffffffffffffffff838183161783525050505090506000808573ffffffffffffffffffffffffffffffffffffffff1661753084604051610f5c9190611a32565b6000604051808303818686fa925050503d8060008114610f98576040519150601f19603f3d011682016040523d82523d6000602084013e610f9d565b606091505b5091509150602081511015610fb85760009350505050610fdb565b818015610fd5575080806020019051810190610fd491906118a3565b5b93505050505b92915050565b6060610ff08484600085610ff9565b90509392505050565b60608247101561103e576040517f08c379a000000000000000000000000000000000000000000000000000000000815260040161103590611abb565b60405180910390fd5b61104785610cd1565b611086576040517f08c379a000000000000000000000000000000000000000000000000000000000815260040161107d90611b27565b60405180910390fd5b6000808673ffffffffffffffffffffffffffffffffffffffff1685876040516110af9190611a32565b60006040518083038185875af1925050503d80600081146110ec576040519150601f19603f3d011682016040523d82523d6000602084013e6110f1565b606091505b509150915061110182828661110d565b92505050949350505050565b6060831561111d5782905061116d565b6000835111156111305782518084602001fd5b816040517f08c379a00000000000000000000000000000000000000000000000000000000081526004016111649190611b9c565b60405180910390fd5b9392505050565b6000819050919050565b61118781611174565b82525050565b60006020820190506111a2600083018461117e565b92915050565b600080fd5b600073ffffffffffffffffffffffffffffffffffffffff82169050919050565b60006111d8826111ad565b9050919050565b6111e8816111cd565b81146111f357600080fd5b50565b600081359050611205816111df565b92915050565b600060208284031215611221576112206111a8565b5b600061122f848285016111f6565b91505092915050565b61124181611174565b811461124c57600080fd5b50565b60008135905061125e81611238565b92915050565b60006020828403121561127a576112796111a8565b5b60006112888482850161124f565b91505092915050565b61129a816111cd565b82525050565b60006020820190506112b56000830184611291565b92915050565b600080604083850312156112d2576112d16111a8565b5b60006112e08582860161124f565b92505060206112f1858286016111f6565b9150509250929050565b600082825260208201905092915050565b7f63616c6c6572206973206e6f7420746865206f776e6572000000000000000000600082015250565b60006113426017836112fb565b915061134d8261130c565b602082019050919050565b6000602082019050818103600083015261137181611335565b9050919050565b7f436f6e747261637420686173206e6f7420796574206265656e20696e6974696160008201527f6c697a6564000000000000000000000000000000000000000000000000000000602082015250565b60006113d46025836112fb565b91506113df82611378565b604082019050919050565b60006020820190508181036000830152611403816113c7565b9050919050565b7f496e76616c696420416d6f756e74000000000000000000000000000000000000600082015250565b6000611440600e836112fb565b915061144b8261140a565b602082019050919050565b6000602082019050818103600083015261146f81611433565b9050919050565b7f4e487b7100000000000000000000000000000000000000000000000000000000600052601160045260246000fd5b60006114b082611174565b91506114bb83611174565b9250828210156114ce576114cd611476565b5b828203905092915050565b60006040820190506114ee6000830185611291565b6114fb602083018461117e565b9392505050565b7f436f6e747261637420686173206265656e20696e697469616c697a6564000000600082015250565b6000611538601d836112fb565b915061154382611502565b602082019050919050565b600060208201905081810360008301526115678161152b565b9050919050565b7f556e6c696d697465642063726564697400000000000000000000000000000000600082015250565b60006115a46010836112fb565b91506115af8261156e565b602082019050919050565b600060208201905081810360008301526115d381611597565b9050919050565b60006040820190506115ef6000830185611291565b6115fc6020830184611291565b9392505050565b7f496e76616c696420616d6f756e74000000000000000000000000000000000000600082015250565b6000611639600e836112fb565b915061164482611603565b602082019050919050565b600060208201905081810360008301526116688161162c565b9050919050565b7f4164647265737320697320454f41000000000000000000000000000000000000600082015250565b60006116a5600e836112fb565b91506116b08261166f565b602082019050919050565b600060208201905081810360008301526116d481611698565b9050919050565b7f496e76616c69642048656c70657220436f6e7472616374000000000000000000600082015250565b60006117116017836112fb565b915061171c826116db565b602082019050919050565b6000602082019050818103600083015261174081611704565b9050919050565b600061175282611174565b915061175d83611174565b9250827fffffffffffffffffffffffffffffffffffffffffffffffffffffffffffffffff0382111561179257611791611476565b5b828201905092915050565b60006060820190506117b26000830186611291565b6117bf602083018561117e565b6117cc6040830184611291565b949350505050565b7f4e487b7100000000000000000000000000000000000000000000000000000000600052601260045260246000fd5b600061180e82611174565b915061181983611174565b925082611829576118286117d4565b5b828204905092915050565b60006060820190506118496000830186611291565b6118566020830185611291565b611863604083018461117e565b949350505050565b60008115159050919050565b6118808161186b565b811461188b57600080fd5b50565b60008151905061189d81611877565b92915050565b6000602082840312156118b9576118b86111a8565b5b60006118c78482850161188e565b91505092915050565b7f5361666545524332303a204552433230206f7065726174696f6e20646964206e60008201527f6f74207375636365656400000000000000000000000000000000000000000000602082015250565b600061192c602a836112fb565b9150611937826118d0565b604082019050919050565b6000602082019050818103600083015261195b8161191f565b9050919050565b60007fffffffff0000000000000000000000000000000000000000000000000000000082169050919050565b61199781611962565b82525050565b60006020820190506119b2600083018461198e565b92915050565b600081519050919050565b600081905092915050565b60005b838110156119ec5780820151818401526020810190506119d1565b838111156119fb576000848401525b50505050565b6000611a0c826119b8565b611a1681856119c3565b9350611a268185602086016119ce565b80840191505092915050565b6000611a3e8284611a01565b915081905092915050565b7f416464726573733a20696e73756666696369656e742062616c616e636520666f60008201527f722063616c6c0000000000000000000000000000000000000000000000000000602082015250565b6000611aa56026836112fb565b9150611ab082611a49565b604082019050919050565b60006020820190508181036000830152611ad481611a98565b9050919050565b7f416464726573733a2063616c6c20746f206e6f6e2d636f6e7472616374000000600082015250565b6000611b11601d836112fb565b9150611b1c82611adb565b602082019050919050565b60006020820190508181036000830152611b4081611b04565b9050919050565b600081519050919050565b6000601f19601f8301169050919050565b6000611b6e82611b47565b611b7881856112fb565b9350611b888185602086016119ce565b611b9181611b52565b840191505092915050565b60006020820190508181036000830152611bb68184611b63565b90509291505056fea2646970667358221220ab4df081a047007f4af8926026b5eba877e9c637bc485603679529a91ecd713b64736f6c63430008090033",
  "linkReferences": {},
  "deployedLinkReferences": {}
}