{
  "_format": "hh-sol-artifact-1",
  "contractName": "Hotel",
  "sourceName": "contracts/Hotel.sol",
  "abi": [
    {
      "inputs": [
        {
          "internalType": "string",
          "name": "_name",
          "type": "string"
        },
        {
          "internalType": "uint256",
          "name": "_pricePerNight",
          "type": "uint256"
        },
        {
          "internalType": "address",
          "name": "hotelRegistryAddress",
          "type": "address"
        }
      ],
      "stateMutability": "nonpayable",
      "type": "constructor"
    },
    {
      "inputs": [
        {
          "internalType": "uint256",
          "name": "datestart",
          "type": "uint256"
        },
        {
          "internalType": "uint256",
          "name": "numberOfNights",
          "type": "uint256"
        },
        {
          "internalType": "uint256",
          "name": "numberOfTraveller",
          "type": "uint256"
        }
      ],
      "name": "bookTrip",
      "outputs": [],
      "stateMutability": "payable",
      "type": "function"
    },
    {
      "inputs": [],
      "name": "hotelRegistry",
      "outputs": [
        {
          "internalType": "address",
          "name": "",
          "type": "address"
        }
      ],
      "stateMutability": "view",
      "type": "function"
    },
    {
      "inputs": [],
      "name": "name",
      "outputs": [
        {
          "internalType": "string",
          "name": "",
          "type": "string"
        }
      ],
      "stateMutability": "view",
      "type": "function"
    },
    {
      "inputs": [],
      "name": "pricePerNight",
      "outputs": [
        {
          "internalType": "uint256",
          "name": "",
          "type": "uint256"
        }
      ],
      "stateMutability": "view",
      "type": "function"
    }
  ],
  "bytecode": "0x60806040523480156200001157600080fd5b5060405162000b2238038062000b228339818101604052810190620000379190620001f1565b82600090805190602001906200004f929190620000a1565b508160018190555080600260006101000a81548173ffffffffffffffffffffffffffffffffffffffff021916908373ffffffffffffffffffffffffffffffffffffffff16021790555050505062000442565b828054620000af9062000333565b90600052602060002090601f016020900481019282620000d357600085556200011f565b82601f10620000ee57805160ff19168380011785556200011f565b828001600101855582156200011f579182015b828111156200011e57825182559160200191906001019062000101565b5b5090506200012e919062000132565b5090565b5b808211156200014d57600081600090555060010162000133565b5090565b600062000168620001628462000289565b62000260565b9050828152602081018484840111156200018157600080fd5b6200018e848285620002fd565b509392505050565b600081519050620001a7816200040e565b92915050565b600082601f830112620001bf57600080fd5b8151620001d184826020860162000151565b91505092915050565b600081519050620001eb8162000428565b92915050565b6000806000606084860312156200020757600080fd5b600084015167ffffffffffffffff8111156200022257600080fd5b6200023086828701620001ad565b93505060206200024386828701620001da565b9250506040620002568682870162000196565b9150509250925092565b60006200026c6200027f565b90506200027a828262000369565b919050565b6000604051905090565b600067ffffffffffffffff821115620002a757620002a6620003ce565b5b620002b282620003fd565b9050602081019050919050565b6000620002cc82620002d3565b9050919050565b600073ffffffffffffffffffffffffffffffffffffffff82169050919050565b6000819050919050565b60005b838110156200031d57808201518184015260208101905062000300565b838111156200032d576000848401525b50505050565b600060028204905060018216806200034c57607f821691505b602082108114156200036357620003626200039f565b5b50919050565b6200037482620003fd565b810181811067ffffffffffffffff82111715620003965762000395620003ce565b5b80604052505050565b7f4e487b7100000000000000000000000000000000000000000000000000000000600052602260045260246000fd5b7f4e487b7100000000000000000000000000000000000000000000000000000000600052604160045260246000fd5b6000601f19601f8301169050919050565b6200041981620002bf565b81146200042557600080fd5b50565b6200043381620002f3565b81146200043f57600080fd5b50565b6106d080620004526000396000f3fe60806040526004361061003f5760003560e01c806306fdde031461004457806314ba9c781461006f5780637b1cc2091461009a578063ce68ff32146100b6575b600080fd5b34801561005057600080fd5b506100596100e1565b604051610066919061043a565b60405180910390f35b34801561007b57600080fd5b5061008461016f565b604051610091919061041f565b60405180910390f35b6100b460048036038101906100af9190610356565b610195565b005b3480156100c257600080fd5b506100cb6102fd565b6040516100d8919061047c565b60405180910390f35b600080546100ee9061057c565b80601f016020809104026020016040519081016040528092919081815260200182805461011a9061057c565b80156101675780601f1061013c57610100808354040283529160200191610167565b820191906000526020600020905b81548152906001019060200180831161014a57829003601f168201915b505050505081565b600260009054906101000a900473ffffffffffffffffffffffffffffffffffffffff1681565b816001546101a391906104b3565b3481146101e5576040517f08c379a00000000000000000000000000000000000000000000000000000000081526004016101dc9061045c565b60405180910390fd5b6000339050600260009054906101000a900473ffffffffffffffffffffffffffffffffffffffff1673ffffffffffffffffffffffffffffffffffffffff16635b4118606040518163ffffffff1660e01b8152600401602060405180830381600087803b15801561025457600080fd5b505af1158015610268573d6000803e3d6000fd5b505050506040513d601f19601f8201168201806040525081019061028c919061032d565b73ffffffffffffffffffffffffffffffffffffffff16636a61d041826040518263ffffffff1660e01b81526004016102c4919061041f565b600060405180830381600087803b1580156102de57600080fd5b505af11580156102f2573d6000803e3d6000fd5b505050505050505050565b60015481565b6000815190506103128161066c565b92915050565b60008135905061032781610683565b92915050565b60006020828403121561033f57600080fd5b600061034d84828501610303565b91505092915050565b60008060006060848603121561036b57600080fd5b600061037986828701610318565b935050602061038a86828701610318565b925050604061039b86828701610318565b9150509250925092565b6103ae8161050d565b82525050565b60006103bf82610497565b6103c981856104a2565b93506103d9818560208601610549565b6103e28161060c565b840191505092915050565b60006103fa6027836104a2565b91506104058261061d565b604082019050919050565b6104198161053f565b82525050565b600060208201905061043460008301846103a5565b92915050565b6000602082019050818103600083015261045481846103b4565b905092915050565b60006020820190508181036000830152610475816103ed565b9050919050565b60006020820190506104916000830184610410565b92915050565b600081519050919050565b600082825260208201905092915050565b60006104be8261053f565b91506104c98361053f565b9250817fffffffffffffffffffffffffffffffffffffffffffffffffffffffffffffffff0483118215151615610502576105016105ae565b5b828202905092915050565b60006105188261051f565b9050919050565b600073ffffffffffffffffffffffffffffffffffffffff82169050919050565b6000819050919050565b60005b8381101561056757808201518184015260208101905061054c565b83811115610576576000848401525b50505050565b6000600282049050600182168061059457607f821691505b602082108114156105a8576105a76105dd565b5b50919050565b7f4e487b7100000000000000000000000000000000000000000000000000000000600052601160045260246000fd5b7f4e487b7100000000000000000000000000000000000000000000000000000000600052602260045260246000fd5b6000601f19601f8301169050919050565b7f54686520616d6f756e74206f66206d6f6e65792073656e74206973206e6f742060008201527f636f727265637400000000000000000000000000000000000000000000000000602082015250565b6106758161050d565b811461068057600080fd5b50565b61068c8161053f565b811461069757600080fd5b5056fea264697066735822122024bf103ccbd9369a2b4c1a5d61ef79fad7e3c80192bcf8a01ae5ec7dd458903364736f6c63430008040033",
  "linkReferences": {},
  "deployedLinkReferences": {}
}