{
  "_format": "hh-sol-artifact-1",
  "contractName": "HotelRegistry",
  "sourceName": "contracts/Hotel.sol",
  "abi": [
    {
      "inputs": [],
      "stateMutability": "nonpayable",
      "type": "constructor"
    },
    {
      "inputs": [
        {
          "internalType": "address",
          "name": "hotelAddress",
          "type": "address"
        }
      ],
      "name": "addHotelToRegistry",
      "outputs": [],
      "stateMutability": "nonpayable",
      "type": "function"
    },
    {
      "inputs": [
        {
          "internalType": "string",
          "name": "hotelName",
          "type": "string"
        }
      ],
      "name": "getAddressFromName",
      "outputs": [
        {
          "internalType": "address",
          "name": "",
          "type": "address"
        }
      ],
      "stateMutability": "view",
      "type": "function"
    },
    {
      "inputs": [
        {
          "internalType": "address",
          "name": "hotelAddress",
          "type": "address"
        }
      ],
      "name": "isRegistered",
      "outputs": [
        {
          "internalType": "bool",
          "name": "",
          "type": "bool"
        }
      ],
      "stateMutability": "view",
      "type": "function"
    },
    {
      "inputs": [],
      "name": "nftIssuer",
      "outputs": [
        {
          "internalType": "address",
          "name": "",
          "type": "address"
        }
      ],
      "stateMutability": "view",
      "type": "function"
    },
    {
      "inputs": [
        {
          "internalType": "address",
          "name": "newAddress",
          "type": "address"
        }
      ],
      "name": "setNftIssuer",
      "outputs": [],
      "stateMutability": "nonpayable",
      "type": "function"
    }
  ],
  "bytecode": "0x608060405234801561001057600080fd5b50610876806100206000396000f3fe608060405234801561001057600080fd5b50600436106100575760003560e01c80635b4118601461005c578063826715ea1461007a5780638e61514e14610096578063c3c5a547146100c6578063e8ce887a146100f6575b600080fd5b610064610112565b6040516100719190610616565b60405180910390f35b610094600480360381019061008f91906104e2565b610138565b005b6100b060048036038101906100ab919061050b565b6102b0565b6040516100bd9190610616565b60405180910390f35b6100e060048036038101906100db91906104e2565b610363565b6040516100ed9190610631565b60405180910390f35b610110600480360381019061010b91906104e2565b6103b9565b005b600360009054906101000a900473ffffffffffffffffffffffffffffffffffffffff1681565b60008173ffffffffffffffffffffffffffffffffffffffff166306fdde036040518163ffffffff1660e01b8152600401600060405180830381600087803b15801561018257600080fd5b505af1158015610196573d6000803e3d6000fd5b505050506040513d6000823e3d601f19601f820116820180604052508101906101bf919061054c565b9050816000826040516101d291906105ff565b908152602001604051809103902060006101000a81548173ffffffffffffffffffffffffffffffffffffffff021916908373ffffffffffffffffffffffffffffffffffffffff1602179055506001808260405161022f91906105ff565b908152602001604051809103902060006101000a81548160ff0219169083151502179055506001600260008473ffffffffffffffffffffffffffffffffffffffff1673ffffffffffffffffffffffffffffffffffffffff16815260200190815260200160002060006101000a81548160ff0219169083151502179055505050565b60006001826040516102c291906105ff565b908152602001604051809103902060009054906101000a900460ff1661031d576040517f08c379a00000000000000000000000000000000000000000000000000000000081526004016103149061064c565b60405180910390fd5b60008260405161032d91906105ff565b908152602001604051809103902060009054906101000a900473ffffffffffffffffffffffffffffffffffffffff169050919050565b6000600260008373ffffffffffffffffffffffffffffffffffffffff1673ffffffffffffffffffffffffffffffffffffffff16815260200190815260200160002060009054906101000a900460ff169050919050565b80600360006101000a81548173ffffffffffffffffffffffffffffffffffffffff021916908373ffffffffffffffffffffffffffffffffffffffff16021790555050565b600061041061040b84610691565b61066c565b90508281526020810184848401111561042857600080fd5b610433848285610727565b509392505050565b600061044e61044984610691565b61066c565b90508281526020810184848401111561046657600080fd5b610471848285610736565b509392505050565b60008135905061048881610829565b92915050565b600082601f83011261049f57600080fd5b81356104af8482602086016103fd565b91505092915050565b600082601f8301126104c957600080fd5b81516104d984826020860161043b565b91505092915050565b6000602082840312156104f457600080fd5b600061050284828501610479565b91505092915050565b60006020828403121561051d57600080fd5b600082013567ffffffffffffffff81111561053757600080fd5b6105438482850161048e565b91505092915050565b60006020828403121561055e57600080fd5b600082015167ffffffffffffffff81111561057857600080fd5b610584848285016104b8565b91505092915050565b610596816106e9565b82525050565b6105a5816106fb565b82525050565b60006105b6826106c2565b6105c081856106de565b93506105d0818560208601610736565b80840191505092915050565b60006105e96028836106cd565b91506105f4826107da565b604082019050919050565b600061060b82846105ab565b915081905092915050565b600060208201905061062b600083018461058d565b92915050565b6000602082019050610646600083018461059c565b92915050565b60006020820190508181036000830152610665816105dc565b9050919050565b6000610676610687565b90506106828282610769565b919050565b6000604051905090565b600067ffffffffffffffff8211156106ac576106ab61079a565b5b6106b5826107c9565b9050602081019050919050565b600081519050919050565b600082825260208201905092915050565b600081905092915050565b60006106f482610707565b9050919050565b60008115159050919050565b600073ffffffffffffffffffffffffffffffffffffffff82169050919050565b82818337600083830152505050565b60005b83811015610754578082015181840152602081019050610739565b83811115610763576000848401525b50505050565b610772826107c9565b810181811067ffffffffffffffff821117156107915761079061079a565b5b80604052505050565b7f4e487b7100000000000000000000000000000000000000000000000000000000600052604160045260246000fd5b6000601f19601f8301169050919050565b7f5468657265206973206e6f74207468697320686f74656c20696e20746869732060008201527f7265676973747279000000000000000000000000000000000000000000000000602082015250565b610832816106e9565b811461083d57600080fd5b5056fea2646970667358221220fa21b83e10338317521eb23081eaace207b32ddec905cdcdde899d6b6c969f9564736f6c63430008040033",
  "linkReferences": {},
  "deployedLinkReferences": {}
}