{
  "_format": "hh-sol-artifact-1",
  "contractName": "Hotel",
  "sourceName": "contracts/Hotel.sol",
  "abi": [
    {
      "inputs": [
        {
          "internalType": "string",
          "name": "_name",
          "type": "string"
        },
        {
          "internalType": "uint256",
          "name": "_pricePerNight",
          "type": "uint256"
        },
        {
          "internalType": "address",
          "name": "hotelRegistryAddress",
          "type": "address"
        }
      ],
      "stateMutability": "nonpayable",
      "type": "constructor"
    },
    {
      "inputs": [
        {
          "internalType": "uint256",
          "name": "datestart",
          "type": "uint256"
        },
        {
          "internalType": "uint256",
          "name": "numberOfNights",
          "type": "uint256"
        },
        {
          "internalType": "uint256",
          "name": "numberOfTraveller",
          "type": "uint256"
        }
      ],
      "name": "bookTrip",
      "outputs": [],
      "stateMutability": "payable",
      "type": "function"
    },
    {
      "inputs": [],
      "name": "hotelRegistry",
      "outputs": [
        {
          "internalType": "address",
          "name": "",
          "type": "address"
        }
      ],
      "stateMutability": "view",
      "type": "function"
    },
    {
      "inputs": [],
      "name": "name",
      "outputs": [
        {
          "internalType": "string",
          "name": "",
          "type": "string"
        }
      ],
      "stateMutability": "view",
      "type": "function"
    },
    {
      "inputs": [],
      "name": "pricePerNight",
      "outputs": [
        {
          "internalType": "uint256",
          "name": "",
          "type": "uint256"
        }
      ],
      "stateMutability": "view",
      "type": "function"
    }
  ],
  "bytecode": "0x60806040523480156200001157600080fd5b5060405162000b5b38038062000b5b83398181016040528101906200003791906200038e565b82600090805190602001906200004f929190620000a1565b508160018190555080600260006101000a81548173ffffffffffffffffffffffffffffffffffffffff021916908373ffffffffffffffffffffffffffffffffffffffff1602179055505050506200046e565b828054620000af9062000438565b90600052602060002090601f016020900481019282620000d357600085556200011f565b82601f10620000ee57805160ff19168380011785556200011f565b828001600101855582156200011f579182015b828111156200011e57825182559160200191906001019062000101565b5b5090506200012e919062000132565b5090565b5b808211156200014d57600081600090555060010162000133565b5090565b6000604051905090565b600080fd5b600080fd5b600080fd5b600080fd5b6000601f19601f8301169050919050565b7f4e487b7100000000000000000000000000000000000000000000000000000000600052604160045260246000fd5b620001ba826200016f565b810181811067ffffffffffffffff82111715620001dc57620001db62000180565b5b80604052505050565b6000620001f162000151565b9050620001ff8282620001af565b919050565b600067ffffffffffffffff82111562000222576200022162000180565b5b6200022d826200016f565b9050602081019050919050565b60005b838110156200025a5780820151818401526020810190506200023d565b838111156200026a576000848401525b50505050565b600062000287620002818462000204565b620001e5565b905082815260208101848484011115620002a657620002a56200016a565b5b620002b38482856200023a565b509392505050565b600082601f830112620002d357620002d262000165565b5b8151620002e584826020860162000270565b91505092915050565b6000819050919050565b6200030381620002ee565b81146200030f57600080fd5b50565b6000815190506200032381620002f8565b92915050565b600073ffffffffffffffffffffffffffffffffffffffff82169050919050565b6000620003568262000329565b9050919050565b620003688162000349565b81146200037457600080fd5b50565b60008151905062000388816200035d565b92915050565b600080600060608486031215620003aa57620003a96200015b565b5b600084015167ffffffffffffffff811115620003cb57620003ca62000160565b5b620003d986828701620002bb565b9350506020620003ec8682870162000312565b9250506040620003ff8682870162000377565b9150509250925092565b7f4e487b7100000000000000000000000000000000000000000000000000000000600052602260045260246000fd5b600060028204905060018216806200045157607f821691505b6020821081141562000468576200046762000409565b5b50919050565b6106dd806200047e6000396000f3fe60806040526004361061003f5760003560e01c806306fdde031461004457806314ba9c781461006f5780637b1cc2091461009a578063ce68ff32146100b6575b600080fd5b34801561005057600080fd5b506100596100e1565b604051610066919061039c565b60405180910390f35b34801561007b57600080fd5b5061008461016f565b60405161009191906103ff565b60405180910390f35b6100b460048036038101906100af9190610455565b610195565b005b3480156100c257600080fd5b506100cb6102fd565b6040516100d891906104b7565b60405180910390f35b600080546100ee90610501565b80601f016020809104026020016040519081016040528092919081815260200182805461011a90610501565b80156101675780601f1061013c57610100808354040283529160200191610167565b820191906000526020600020905b81548152906001019060200180831161014a57829003601f168201915b505050505081565b600260009054906101000a900473ffffffffffffffffffffffffffffffffffffffff1681565b816001546101a39190610562565b3481146101e5576040517f08c379a00000000000000000000000000000000000000000000000000000000081526004016101dc9061062e565b60405180910390fd5b6000339050600260009054906101000a900473ffffffffffffffffffffffffffffffffffffffff1673ffffffffffffffffffffffffffffffffffffffff16635b4118606040518163ffffffff1660e01b8152600401602060405180830381600087803b15801561025457600080fd5b505af1158015610268573d6000803e3d6000fd5b505050506040513d601f19601f8201168201806040525081019061028c919061067a565b73ffffffffffffffffffffffffffffffffffffffff16636a61d041826040518263ffffffff1660e01b81526004016102c491906103ff565b600060405180830381600087803b1580156102de57600080fd5b505af11580156102f2573d6000803e3d6000fd5b505050505050505050565b60015481565b600081519050919050565b600082825260208201905092915050565b60005b8381101561033d578082015181840152602081019050610322565b8381111561034c576000848401525b50505050565b6000601f19601f8301169050919050565b600061036e82610303565b610378818561030e565b935061038881856020860161031f565b61039181610352565b840191505092915050565b600060208201905081810360008301526103b68184610363565b905092915050565b600073ffffffffffffffffffffffffffffffffffffffff82169050919050565b60006103e9826103be565b9050919050565b6103f9816103de565b82525050565b600060208201905061041460008301846103f0565b92915050565b600080fd5b6000819050919050565b6104328161041f565b811461043d57600080fd5b50565b60008135905061044f81610429565b92915050565b60008060006060848603121561046e5761046d61041a565b5b600061047c86828701610440565b935050602061048d86828701610440565b925050604061049e86828701610440565b9150509250925092565b6104b18161041f565b82525050565b60006020820190506104cc60008301846104a8565b92915050565b7f4e487b7100000000000000000000000000000000000000000000000000000000600052602260045260246000fd5b6000600282049050600182168061051957607f821691505b6020821081141561052d5761052c6104d2565b5b50919050565b7f4e487b7100000000000000000000000000000000000000000000000000000000600052601160045260246000fd5b600061056d8261041f565b91506105788361041f565b9250817fffffffffffffffffffffffffffffffffffffffffffffffffffffffffffffffff04831182151516156105b1576105b0610533565b5b828202905092915050565b7f54686520616d6f756e74206f66206d6f6e65792073656e74206973206e6f742060008201527f636f727265637400000000000000000000000000000000000000000000000000602082015250565b600061061860278361030e565b9150610623826105bc565b604082019050919050565b600060208201905081810360008301526106478161060b565b9050919050565b610657816103de565b811461066257600080fd5b50565b6000815190506106748161064e565b92915050565b6000602082840312156106905761068f61041a565b5b600061069e84828501610665565b9150509291505056fea26469706673582212206ef22d3642ed283b0c581fa42b49163356fb56c383dfc107b2a5ef4c689da27d64736f6c63430008090033",
  "linkReferences": {},
  "deployedLinkReferences": {}
}