{
  "_format": "hh-sol-artifact-1",
  "contractName": "HotelRegistry",
  "sourceName": "contracts/Hotel.sol",
  "abi": [
    {
      "inputs": [],
      "stateMutability": "nonpayable",
      "type": "constructor"
    },
    {
      "inputs": [
        {
          "internalType": "address",
          "name": "hotelAddress",
          "type": "address"
        }
      ],
      "name": "addHotelToRegistry",
      "outputs": [],
      "stateMutability": "nonpayable",
      "type": "function"
    },
    {
      "inputs": [
        {
          "internalType": "string",
          "name": "hotelName",
          "type": "string"
        }
      ],
      "name": "getAddressFromName",
      "outputs": [
        {
          "internalType": "address",
          "name": "",
          "type": "address"
        }
      ],
      "stateMutability": "view",
      "type": "function"
    },
    {
      "inputs": [
        {
          "internalType": "address",
          "name": "hotelAddress",
          "type": "address"
        }
      ],
      "name": "isRegistered",
      "outputs": [
        {
          "internalType": "bool",
          "name": "",
          "type": "bool"
        }
      ],
      "stateMutability": "view",
      "type": "function"
    },
    {
      "inputs": [],
      "name": "nftIssuer",
      "outputs": [
        {
          "internalType": "address",
          "name": "",
          "type": "address"
        }
      ],
      "stateMutability": "view",
      "type": "function"
    },
    {
      "inputs": [
        {
          "internalType": "address",
          "name": "newAddress",
          "type": "address"
        }
      ],
      "name": "setNftIssuer",
      "outputs": [],
      "stateMutability": "nonpayable",
      "type": "function"
    }
  ],
  "bytecode": "0x608060405234801561001057600080fd5b506108ae806100206000396000f3fe608060405234801561001057600080fd5b50600436106100575760003560e01c80635b4118601461005c578063826715ea1461007a5780638e61514e14610096578063c3c5a547146100c6578063e8ce887a146100f6575b600080fd5b610064610112565b604051610071919061043e565b60405180910390f35b610094600480360381019061008f9190610499565b610138565b005b6100b060048036038101906100ab919061060c565b6102b0565b6040516100bd919061043e565b60405180910390f35b6100e060048036038101906100db9190610499565b610363565b6040516100ed9190610670565b60405180910390f35b610110600480360381019061010b9190610499565b6103b9565b005b600360009054906101000a900473ffffffffffffffffffffffffffffffffffffffff1681565b60008173ffffffffffffffffffffffffffffffffffffffff166306fdde036040518163ffffffff1660e01b8152600401600060405180830381600087803b15801561018257600080fd5b505af1158015610196573d6000803e3d6000fd5b505050506040513d6000823e3d601f19601f820116820180604052508101906101bf919061072e565b9050816000826040516101d291906107be565b908152602001604051809103902060006101000a81548173ffffffffffffffffffffffffffffffffffffffff021916908373ffffffffffffffffffffffffffffffffffffffff1602179055506001808260405161022f91906107be565b908152602001604051809103902060006101000a81548160ff0219169083151502179055506001600260008473ffffffffffffffffffffffffffffffffffffffff1673ffffffffffffffffffffffffffffffffffffffff16815260200190815260200160002060006101000a81548160ff0219169083151502179055505050565b60006001826040516102c291906107be565b908152602001604051809103902060009054906101000a900460ff1661031d576040517f08c379a000000000000000000000000000000000000000000000000000000000815260040161031490610858565b60405180910390fd5b60008260405161032d91906107be565b908152602001604051809103902060009054906101000a900473ffffffffffffffffffffffffffffffffffffffff169050919050565b6000600260008373ffffffffffffffffffffffffffffffffffffffff1673ffffffffffffffffffffffffffffffffffffffff16815260200190815260200160002060009054906101000a900460ff169050919050565b80600360006101000a81548173ffffffffffffffffffffffffffffffffffffffff021916908373ffffffffffffffffffffffffffffffffffffffff16021790555050565b600073ffffffffffffffffffffffffffffffffffffffff82169050919050565b6000610428826103fd565b9050919050565b6104388161041d565b82525050565b6000602082019050610453600083018461042f565b92915050565b6000604051905090565b600080fd5b600080fd5b6104768161041d565b811461048157600080fd5b50565b6000813590506104938161046d565b92915050565b6000602082840312156104af576104ae610463565b5b60006104bd84828501610484565b91505092915050565b600080fd5b600080fd5b6000601f19601f8301169050919050565b7f4e487b7100000000000000000000000000000000000000000000000000000000600052604160045260246000fd5b610519826104d0565b810181811067ffffffffffffffff82111715610538576105376104e1565b5b80604052505050565b600061054b610459565b90506105578282610510565b919050565b600067ffffffffffffffff821115610577576105766104e1565b5b610580826104d0565b9050602081019050919050565b82818337600083830152505050565b60006105af6105aa8461055c565b610541565b9050828152602081018484840111156105cb576105ca6104cb565b5b6105d684828561058d565b509392505050565b600082601f8301126105f3576105f26104c6565b5b813561060384826020860161059c565b91505092915050565b60006020828403121561062257610621610463565b5b600082013567ffffffffffffffff8111156106405761063f610468565b5b61064c848285016105de565b91505092915050565b60008115159050919050565b61066a81610655565b82525050565b60006020820190506106856000830184610661565b92915050565b60005b838110156106a957808201518184015260208101905061068e565b838111156106b8576000848401525b50505050565b60006106d16106cc8461055c565b610541565b9050828152602081018484840111156106ed576106ec6104cb565b5b6106f884828561068b565b509392505050565b600082601f830112610715576107146104c6565b5b81516107258482602086016106be565b91505092915050565b60006020828403121561074457610743610463565b5b600082015167ffffffffffffffff81111561076257610761610468565b5b61076e84828501610700565b91505092915050565b600081519050919050565b600081905092915050565b600061079882610777565b6107a28185610782565b93506107b281856020860161068b565b80840191505092915050565b60006107ca828461078d565b915081905092915050565b600082825260208201905092915050565b7f5468657265206973206e6f74207468697320686f74656c20696e20746869732060008201527f7265676973747279000000000000000000000000000000000000000000000000602082015250565b60006108426028836107d5565b915061084d826107e6565b604082019050919050565b6000602082019050818103600083015261087181610835565b905091905056fea26469706673582212204731a95687980b6836ded5a6b7e51c085b1bbb9868731984bdc21c307d9754f864736f6c63430008090033",
  "linkReferences": {},
  "deployedLinkReferences": {}
}