{
  "_format": "hh-sol-artifact-1",
  "contractName": "NFTIssuer",
  "sourceName": "contracts/NFTIssuer.sol",
  "abi": [
    {
      "inputs": [
        {
          "internalType": "address",
          "name": "_hotelRegistryAddress",
          "type": "address"
        }
      ],
      "stateMutability": "nonpayable",
      "type": "constructor"
    },
    {
      "anonymous": false,
      "inputs": [
        {
          "indexed": true,
          "internalType": "address",
          "name": "owner",
          "type": "address"
        },
        {
          "indexed": true,
          "internalType": "address",
          "name": "approved",
          "type": "address"
        },
        {
          "indexed": true,
          "internalType": "uint256",
          "name": "tokenId",
          "type": "uint256"
        }
      ],
      "name": "Approval",
      "type": "event"
    },
    {
      "anonymous": false,
      "inputs": [
        {
          "indexed": true,
          "internalType": "address",
          "name": "owner",
          "type": "address"
        },
        {
          "indexed": true,
          "internalType": "address",
          "name": "operator",
          "type": "address"
        },
        {
          "indexed": false,
          "internalType": "bool",
          "name": "approved",
          "type": "bool"
        }
      ],
      "name": "ApprovalForAll",
      "type": "event"
    },
    {
      "anonymous": false,
      "inputs": [
        {
          "indexed": false,
          "internalType": "uint256",
          "name": "tokenId",
          "type": "uint256"
        }
      ],
      "name": "NFTMinted",
      "type": "event"
    },
    {
      "anonymous": false,
      "inputs": [
        {
          "indexed": true,
          "internalType": "address",
          "name": "from",
          "type": "address"
        },
        {
          "indexed": true,
          "internalType": "address",
          "name": "to",
          "type": "address"
        },
        {
          "indexed": true,
          "internalType": "uint256",
          "name": "tokenId",
          "type": "uint256"
        }
      ],
      "name": "Transfer",
      "type": "event"
    },
    {
      "inputs": [
        {
          "internalType": "address",
          "name": "to",
          "type": "address"
        },
        {
          "internalType": "uint256",
          "name": "tokenId",
          "type": "uint256"
        }
      ],
      "name": "approve",
      "outputs": [],
      "stateMutability": "nonpayable",
      "type": "function"
    },
    {
      "inputs": [
        {
          "internalType": "address",
          "name": "owner",
          "type": "address"
        }
      ],
      "name": "balanceOf",
      "outputs": [
        {
          "internalType": "uint256",
          "name": "",
          "type": "uint256"
        }
      ],
      "stateMutability": "view",
      "type": "function"
    },
    {
      "inputs": [
        {
          "internalType": "uint256",
          "name": "tokenId",
          "type": "uint256"
        }
      ],
      "name": "getApproved",
      "outputs": [
        {
          "internalType": "address",
          "name": "",
          "type": "address"
        }
      ],
      "stateMutability": "view",
      "type": "function"
    },
    {
      "inputs": [
        {
          "internalType": "uint256",
          "name": "tokenId",
          "type": "uint256"
        }
      ],
      "name": "getMetadata",
      "outputs": [
        {
          "components": [
            {
              "internalType": "string",
              "name": "hotelName",
              "type": "string"
            },
            {
              "internalType": "address",
              "name": "hotelAddress",
              "type": "address"
            },
            {
              "internalType": "uint256",
              "name": "dateStart",
              "type": "uint256"
            },
            {
              "internalType": "uint256",
              "name": "numberOfNights",
              "type": "uint256"
            },
            {
              "internalType": "address",
              "name": "travellerAddress",
              "type": "address"
            }
          ],
          "internalType": "struct NFTIssuer.BookingInfo",
          "name": "",
          "type": "tuple"
        }
      ],
      "stateMutability": "view",
      "type": "function"
    },
    {
      "inputs": [
        {
          "internalType": "address",
          "name": "owner",
          "type": "address"
        },
        {
          "internalType": "address",
          "name": "operator",
          "type": "address"
        }
      ],
      "name": "isApprovedForAll",
      "outputs": [
        {
          "internalType": "bool",
          "name": "",
          "type": "bool"
        }
      ],
      "stateMutability": "view",
      "type": "function"
    },
    {
      "inputs": [
        {
          "internalType": "uint256",
          "name": "",
          "type": "uint256"
        }
      ],
      "name": "metadata",
      "outputs": [
        {
          "internalType": "string",
          "name": "hotelName",
          "type": "string"
        },
        {
          "internalType": "address",
          "name": "hotelAddress",
          "type": "address"
        },
        {
          "internalType": "uint256",
          "name": "dateStart",
          "type": "uint256"
        },
        {
          "internalType": "uint256",
          "name": "numberOfNights",
          "type": "uint256"
        },
        {
          "internalType": "address",
          "name": "travellerAddress",
          "type": "address"
        }
      ],
      "stateMutability": "view",
      "type": "function"
    },
    {
      "inputs": [
        {
          "internalType": "address",
          "name": "travelEscrowAddress",
          "type": "address"
        }
      ],
      "name": "mintBookingNFT",
      "outputs": [],
      "stateMutability": "nonpayable",
      "type": "function"
    },
    {
      "inputs": [],
      "name": "name",
      "outputs": [
        {
          "internalType": "string",
          "name": "",
          "type": "string"
        }
      ],
      "stateMutability": "view",
      "type": "function"
    },
    {
      "inputs": [
        {
          "internalType": "uint256",
          "name": "tokenId",
          "type": "uint256"
        }
      ],
      "name": "ownerOf",
      "outputs": [
        {
          "internalType": "address",
          "name": "",
          "type": "address"
        }
      ],
      "stateMutability": "view",
      "type": "function"
    },
    {
      "inputs": [
        {
          "internalType": "address",
          "name": "from",
          "type": "address"
        },
        {
          "internalType": "address",
          "name": "to",
          "type": "address"
        },
        {
          "internalType": "uint256",
          "name": "tokenId",
          "type": "uint256"
        }
      ],
      "name": "safeTransferFrom",
      "outputs": [],
      "stateMutability": "nonpayable",
      "type": "function"
    },
    {
      "inputs": [
        {
          "internalType": "address",
          "name": "from",
          "type": "address"
        },
        {
          "internalType": "address",
          "name": "to",
          "type": "address"
        },
        {
          "internalType": "uint256",
          "name": "tokenId",
          "type": "uint256"
        },
        {
          "internalType": "bytes",
          "name": "_data",
          "type": "bytes"
        }
      ],
      "name": "safeTransferFrom",
      "outputs": [],
      "stateMutability": "nonpayable",
      "type": "function"
    },
    {
      "inputs": [
        {
          "internalType": "address",
          "name": "operator",
          "type": "address"
        },
        {
          "internalType": "bool",
          "name": "approved",
          "type": "bool"
        }
      ],
      "name": "setApprovalForAll",
      "outputs": [],
      "stateMutability": "nonpayable",
      "type": "function"
    },
    {
      "inputs": [
        {
          "internalType": "address",
          "name": "hotelRegistryAddressNew",
          "type": "address"
        }
      ],
      "name": "setHotelRegistry",
      "outputs": [],
      "stateMutability": "nonpayable",
      "type": "function"
    },
    {
      "inputs": [
        {
          "internalType": "bytes4",
          "name": "interfaceId",
          "type": "bytes4"
        }
      ],
      "name": "supportsInterface",
      "outputs": [
        {
          "internalType": "bool",
          "name": "",
          "type": "bool"
        }
      ],
      "stateMutability": "view",
      "type": "function"
    },
    {
      "inputs": [],
      "name": "symbol",
      "outputs": [
        {
          "internalType": "string",
          "name": "",
          "type": "string"
        }
      ],
      "stateMutability": "view",
      "type": "function"
    },
    {
      "inputs": [
        {
          "internalType": "uint256",
          "name": "tokenId",
          "type": "uint256"
        }
      ],
      "name": "tokenURI",
      "outputs": [
        {
          "internalType": "string",
          "name": "",
          "type": "string"
        }
      ],
      "stateMutability": "view",
      "type": "function"
    },
    {
      "inputs": [
        {
          "internalType": "address",
          "name": "from",
          "type": "address"
        },
        {
          "internalType": "address",
          "name": "to",
          "type": "address"
        },
        {
          "internalType": "uint256",
          "name": "tokenId",
          "type": "uint256"
        }
      ],
      "name": "transferFrom",
      "outputs": [],
      "stateMutability": "nonpayable",
      "type": "function"
    }
  ],
  "bytecode": "0x60806040523480156200001157600080fd5b5060405162003baa38038062003baa833981810160405281019062000037919062000277565b6040518060400160405280600a81526020017f5649534954455f4e4654000000000000000000000000000000000000000000008152506040518060400160405280600481526020017f564e4654000000000000000000000000000000000000000000000000000000008152508160009080519060200190620000bb929190620001b0565b508060019080519060200190620000d4929190620001b0565b50505080600760006101000a81548173ffffffffffffffffffffffffffffffffffffffff021916908373ffffffffffffffffffffffffffffffffffffffff160217905550600760009054906101000a900473ffffffffffffffffffffffffffffffffffffffff1673ffffffffffffffffffffffffffffffffffffffff1663e8ce887a306040518263ffffffff1660e01b8152600401620001759190620002b4565b600060405180830381600087803b1580156200019057600080fd5b505af1158015620001a5573d6000803e3d6000fd5b505050505062000384565b828054620001be9062000305565b90600052602060002090601f016020900481019282620001e257600085556200022e565b82601f10620001fd57805160ff19168380011785556200022e565b828001600101855582156200022e579182015b828111156200022d57825182559160200191906001019062000210565b5b5090506200023d919062000241565b5090565b5b808211156200025c57600081600090555060010162000242565b5090565b60008151905062000271816200036a565b92915050565b6000602082840312156200028a57600080fd5b60006200029a8482850162000260565b91505092915050565b620002ae81620002d1565b82525050565b6000602082019050620002cb6000830184620002a3565b92915050565b6000620002de82620002e5565b9050919050565b600073ffffffffffffffffffffffffffffffffffffffff82169050919050565b600060028204905060018216806200031e57607f821691505b602082108114156200033557620003346200033b565b5b50919050565b7f4e487b7100000000000000000000000000000000000000000000000000000000600052602260045260246000fd5b6200037581620002d1565b81146200038157600080fd5b50565b61381680620003946000396000f3fe608060405234801561001057600080fd5b506004361061010b5760003560e01c806370a08231116100a2578063b88d4fde11610071578063b88d4fde146102c8578063c87b56dd146102e4578063d76e705b14610314578063e3684e3914610330578063e985e9c5146103645761010b565b806370a082311461022e57806395d89b411461025e578063a22cb4651461027c578063a574cea4146102985761010b565b806323b872dd116100de57806323b872dd146101aa57806342842e0e146101c65780636352211e146101e25780636a61d041146102125761010b565b806301ffc9a71461011057806306fdde0314610140578063081812fc1461015e578063095ea7b31461018e575b600080fd5b61012a60048036038101906101259190612635565b610394565b6040516101379190612bfb565b60405180910390f35b610148610476565b6040516101559190612c16565b60405180910390f35b610178600480360381019061017391906126c8565b610508565b6040516101859190612b94565b60405180910390f35b6101a860048036038101906101a3919061258f565b61058d565b005b6101c460048036038101906101bf9190612489565b6106a5565b005b6101e060048036038101906101db9190612489565b610705565b005b6101fc60048036038101906101f791906126c8565b610725565b6040516102099190612b94565b60405180910390f35b61022c60048036038101906102279190612424565b6107d7565b005b61024860048036038101906102439190612424565b610d3f565b6040516102559190612eb4565b60405180910390f35b610266610df7565b6040516102739190612c16565b60405180910390f35b61029660048036038101906102919190612553565b610e89565b005b6102b260048036038101906102ad91906126c8565b610e9f565b6040516102bf9190612e92565b60405180910390f35b6102e260048036038101906102dd91906124d8565b61101e565b005b6102fe60048036038101906102f991906126c8565b611080565b60405161030b9190612c16565b60405180910390f35b61032e60048036038101906103299190612424565b6111d2565b005b61034a600480360381019061034591906126c8565b611216565b60405161035b959493929190612c38565b60405180910390f35b61037e6004803603810190610379919061244d565b611314565b60405161038b9190612bfb565b60405180910390f35b60007f80ac58cd000000000000000000000000000000000000000000000000000000007bffffffffffffffffffffffffffffffffffffffffffffffffffffffff1916827bffffffffffffffffffffffffffffffffffffffffffffffffffffffff1916148061045f57507f5b5e139f000000000000000000000000000000000000000000000000000000007bffffffffffffffffffffffffffffffffffffffffffffffffffffffff1916827bffffffffffffffffffffffffffffffffffffffffffffffffffffffff1916145b8061046f575061046e826113a8565b5b9050919050565b60606000805461048590613147565b80601f01602080910402602001604051908101604052809291908181526020018280546104b190613147565b80156104fe5780601f106104d3576101008083540402835291602001916104fe565b820191906000526020600020905b8154815290600101906020018083116104e157829003601f168201915b5050505050905090565b600061051382611412565b610552576040517f08c379a000000000000000000000000000000000000000000000000000000000815260040161054990612df2565b60405180910390fd5b6004600083815260200190815260200160002060009054906101000a900473ffffffffffffffffffffffffffffffffffffffff169050919050565b600061059882610725565b90508073ffffffffffffffffffffffffffffffffffffffff168373ffffffffffffffffffffffffffffffffffffffff161415610609576040517f08c379a000000000000000000000000000000000000000000000000000000000815260040161060090612e32565b60405180910390fd5b8073ffffffffffffffffffffffffffffffffffffffff1661062861147e565b73ffffffffffffffffffffffffffffffffffffffff16148061065757506106568161065161147e565b611314565b5b610696576040517f08c379a000000000000000000000000000000000000000000000000000000000815260040161068d90612d52565b60405180910390fd5b6106a08383611486565b505050565b6106b66106b061147e565b8261153f565b6106f5576040517f08c379a00000000000000000000000000000000000000000000000000000000081526004016106ec90612e52565b60405180910390fd5b61070083838361161d565b505050565b6107208383836040518060200160405280600081525061101e565b505050565b6000806002600084815260200190815260200160002060009054906101000a900473ffffffffffffffffffffffffffffffffffffffff169050600073ffffffffffffffffffffffffffffffffffffffff168173ffffffffffffffffffffffffffffffffffffffff1614156107ce576040517f08c379a00000000000000000000000000000000000000000000000000000000081526004016107c590612d92565b60405180910390fd5b80915050919050565b33600760009054906101000a900473ffffffffffffffffffffffffffffffffffffffff1673ffffffffffffffffffffffffffffffffffffffff1663c3c5a547826040518263ffffffff1660e01b81526004016108339190612b94565b602060405180830381600087803b15801561084d57600080fd5b505af1158015610861573d6000803e3d6000fd5b505050506040513d601f19601f82011682018060405250810190610885919061260c565b6108c4576040517f08c379a00000000000000000000000000000000000000000000000000000000081526004016108bb90612e72565b60405180910390fd5b60008273ffffffffffffffffffffffffffffffffffffffff1663ab07cdf66040518163ffffffff1660e01b8152600401600060405180830381600087803b15801561090e57600080fd5b505af1158015610922573d6000803e3d6000fd5b505050506040513d6000823e3d601f19601f8201168201806040525081019061094b91906125cb565b905060008373ffffffffffffffffffffffffffffffffffffffff1663b9dd3b0c6040518163ffffffff1660e01b8152600401602060405180830381600087803b15801561099757600080fd5b505af11580156109ab573d6000803e3d6000fd5b505050506040513d601f19601f820116820180604052508101906109cf91906126f1565b905060008473ffffffffffffffffffffffffffffffffffffffff1663beae494b6040518163ffffffff1660e01b8152600401602060405180830381600087803b158015610a1b57600080fd5b505af1158015610a2f573d6000803e3d6000fd5b505050506040513d601f19601f82011682018060405250810190610a5391906126f1565b905060008573ffffffffffffffffffffffffffffffffffffffff1663f3668b9d6040518163ffffffff1660e01b8152600401600060405180830381600087803b158015610a9f57600080fd5b505af1158015610ab3573d6000803e3d6000fd5b505050506040513d6000823e3d601f19601f82011682018060405250810190610adc9190612687565b9050600033905060005b8551811015610d35576000868281518110610b2a577f4e487b7100000000000000000000000000000000000000000000000000000000600052603260045260246000fd5b60200260200101519050610b3c612118565b868160400181815250508581606001818152505083816020019073ffffffffffffffffffffffffffffffffffffffff16908173ffffffffffffffffffffffffffffffffffffffff168152505084816000018190525081816080019073ffffffffffffffffffffffffffffffffffffffff16908173ffffffffffffffffffffffffffffffffffffffff168152505060008585898986604051602001610be4959493929190612b15565b6040516020818303038152906040528051906020012060001c9050610c098382611884565b81600860008381526020019081526020016000206000820151816000019080519060200190610c39929190612173565b5060208201518160010160006101000a81548173ffffffffffffffffffffffffffffffffffffffff021916908373ffffffffffffffffffffffffffffffffffffffff160217905550604082015181600201556060820151816003015560808201518160040160006101000a81548173ffffffffffffffffffffffffffffffffffffffff021916908373ffffffffffffffffffffffffffffffffffffffff160217905550905050610ce881611a5e565b7fd9dc24857f317ed9abbbb42e920ede0104231eb1d3d70236a74887ffaf15986881604051610d179190612eb4565b60405180910390a15050508080610d2d906131aa565b915050610ae6565b5050505050505050565b60008073ffffffffffffffffffffffffffffffffffffffff168273ffffffffffffffffffffffffffffffffffffffff161415610db0576040517f08c379a0000000000000000000000000000000000000000000000000000000008152600401610da790612d72565b60405180910390fd5b600360008373ffffffffffffffffffffffffffffffffffffffff1673ffffffffffffffffffffffffffffffffffffffff168152602001908152602001600020549050919050565b606060018054610e0690613147565b80601f0160208091040260200160405190810160405280929190818152602001828054610e3290613147565b8015610e7f5780601f10610e5457610100808354040283529160200191610e7f565b820191906000526020600020905b815481529060010190602001808311610e6257829003601f168201915b5050505050905090565b610e9b610e9461147e565b8383611af7565b5050565b610ea7612118565b600860008381526020019081526020016000206040518060a0016040529081600082018054610ed590613147565b80601f0160208091040260200160405190810160405280929190818152602001828054610f0190613147565b8015610f4e5780601f10610f2357610100808354040283529160200191610f4e565b820191906000526020600020905b815481529060010190602001808311610f3157829003601f168201915b505050505081526020016001820160009054906101000a900473ffffffffffffffffffffffffffffffffffffffff1673ffffffffffffffffffffffffffffffffffffffff1673ffffffffffffffffffffffffffffffffffffffff16815260200160028201548152602001600382015481526020016004820160009054906101000a900473ffffffffffffffffffffffffffffffffffffffff1673ffffffffffffffffffffffffffffffffffffffff1673ffffffffffffffffffffffffffffffffffffffff16815250509050919050565b61102f61102961147e565b8361153f565b61106e576040517f08c379a000000000000000000000000000000000000000000000000000000000815260040161106590612e52565b60405180910390fd5b61107a84848484611c64565b50505050565b606061108b82611412565b6110ca576040517f08c379a00000000000000000000000000000000000000000000000000000000081526004016110c190612dd2565b60405180910390fd5b60006006600084815260200190815260200160002080546110ea90613147565b80601f016020809104026020016040519081016040528092919081815260200182805461111690613147565b80156111635780601f1061113857610100808354040283529160200191611163565b820191906000526020600020905b81548152906001019060200180831161114657829003601f168201915b505050505090506000611174611cc0565b905060008151141561118a5781925050506111cd565b6000825111156111bf5780826040516020016111a7929190612b70565b604051602081830303815290604052925050506111cd565b6111c884611cd7565b925050505b919050565b80600760006101000a81548173ffffffffffffffffffffffffffffffffffffffff021916908373ffffffffffffffffffffffffffffffffffffffff16021790555050565b600860205280600052604060002060009150905080600001805461123990613147565b80601f016020809104026020016040519081016040528092919081815260200182805461126590613147565b80156112b25780601f10611287576101008083540402835291602001916112b2565b820191906000526020600020905b81548152906001019060200180831161129557829003601f168201915b5050505050908060010160009054906101000a900473ffffffffffffffffffffffffffffffffffffffff16908060020154908060030154908060040160009054906101000a900473ffffffffffffffffffffffffffffffffffffffff16905085565b6000600560008473ffffffffffffffffffffffffffffffffffffffff1673ffffffffffffffffffffffffffffffffffffffff16815260200190815260200160002060008373ffffffffffffffffffffffffffffffffffffffff1673ffffffffffffffffffffffffffffffffffffffff16815260200190815260200160002060009054906101000a900460ff16905092915050565b60007f01ffc9a7000000000000000000000000000000000000000000000000000000007bffffffffffffffffffffffffffffffffffffffffffffffffffffffff1916827bffffffffffffffffffffffffffffffffffffffffffffffffffffffff1916149050919050565b60008073ffffffffffffffffffffffffffffffffffffffff166002600084815260200190815260200160002060009054906101000a900473ffffffffffffffffffffffffffffffffffffffff1673ffffffffffffffffffffffffffffffffffffffff1614159050919050565b600033905090565b816004600083815260200190815260200160002060006101000a81548173ffffffffffffffffffffffffffffffffffffffff021916908373ffffffffffffffffffffffffffffffffffffffff160217905550808273ffffffffffffffffffffffffffffffffffffffff166114f983610725565b73ffffffffffffffffffffffffffffffffffffffff167f8c5be1e5ebec7d5bd14f71427d1e84f3dd0314c0f7b2291e5b200ac8c7c3b92560405160405180910390a45050565b600061154a82611412565b611589576040517f08c379a000000000000000000000000000000000000000000000000000000000815260040161158090612d32565b60405180910390fd5b600061159483610725565b90508073ffffffffffffffffffffffffffffffffffffffff168473ffffffffffffffffffffffffffffffffffffffff1614806115d657506115d58185611314565b5b8061161457508373ffffffffffffffffffffffffffffffffffffffff166115fc84610508565b73ffffffffffffffffffffffffffffffffffffffff16145b91505092915050565b8273ffffffffffffffffffffffffffffffffffffffff1661163d82610725565b73ffffffffffffffffffffffffffffffffffffffff1614611693576040517f08c379a000000000000000000000000000000000000000000000000000000000815260040161168a90612cb2565b60405180910390fd5b600073ffffffffffffffffffffffffffffffffffffffff168273ffffffffffffffffffffffffffffffffffffffff161415611703576040517f08c379a00000000000000000000000000000000000000000000000000000000081526004016116fa90612cf2565b60405180910390fd5b61170e838383611d7e565b611719600082611486565b6001600360008573ffffffffffffffffffffffffffffffffffffffff1673ffffffffffffffffffffffffffffffffffffffff1681526020019081526020016000206000828254611769919061305d565b925050819055506001600360008473ffffffffffffffffffffffffffffffffffffffff1673ffffffffffffffffffffffffffffffffffffffff16815260200190815260200160002060008282546117c09190612fd6565b92505081905550816002600083815260200190815260200160002060006101000a81548173ffffffffffffffffffffffffffffffffffffffff021916908373ffffffffffffffffffffffffffffffffffffffff160217905550808273ffffffffffffffffffffffffffffffffffffffff168473ffffffffffffffffffffffffffffffffffffffff167fddf252ad1be2c89b69c2b068fc378daa952ba7f163c4a11628f55a4df523b3ef60405160405180910390a461187f838383611d83565b505050565b600073ffffffffffffffffffffffffffffffffffffffff168273ffffffffffffffffffffffffffffffffffffffff1614156118f4576040517f08c379a00000000000000000000000000000000000000000000000000000000081526004016118eb90612db2565b60405180910390fd5b6118fd81611412565b1561193d576040517f08c379a000000000000000000000000000000000000000000000000000000000815260040161193490612cd2565b60405180910390fd5b61194960008383611d7e565b6001600360008473ffffffffffffffffffffffffffffffffffffffff1673ffffffffffffffffffffffffffffffffffffffff16815260200190815260200160002060008282546119999190612fd6565b92505081905550816002600083815260200190815260200160002060006101000a81548173ffffffffffffffffffffffffffffffffffffffff021916908373ffffffffffffffffffffffffffffffffffffffff160217905550808273ffffffffffffffffffffffffffffffffffffffff16600073ffffffffffffffffffffffffffffffffffffffff167fddf252ad1be2c89b69c2b068fc378daa952ba7f163c4a11628f55a4df523b3ef60405160405180910390a4611a5a60008383611d83565b5050565b611af481604051602401611a729190612eb4565b6040516020818303038152906040527ff5b1bba9000000000000000000000000000000000000000000000000000000007bffffffffffffffffffffffffffffffffffffffffffffffffffffffff19166020820180517bffffffffffffffffffffffffffffffffffffffffffffffffffffffff8381831617835250505050611d88565b50565b8173ffffffffffffffffffffffffffffffffffffffff168373ffffffffffffffffffffffffffffffffffffffff161415611b66576040517f08c379a0000000000000000000000000000000000000000000000000000000008152600401611b5d90612d12565b60405180910390fd5b80600560008573ffffffffffffffffffffffffffffffffffffffff1673ffffffffffffffffffffffffffffffffffffffff16815260200190815260200160002060008473ffffffffffffffffffffffffffffffffffffffff1673ffffffffffffffffffffffffffffffffffffffff16815260200190815260200160002060006101000a81548160ff0219169083151502179055508173ffffffffffffffffffffffffffffffffffffffff168373ffffffffffffffffffffffffffffffffffffffff167f17307eab39ab6107e8899845ad3d59bd9653f200f220920489ca2b5937696c3183604051611c579190612bfb565b60405180910390a3505050565b611c6f84848461161d565b611c7b84848484611db1565b611cba576040517f08c379a0000000000000000000000000000000000000000000000000000000008152600401611cb190612c92565b60405180910390fd5b50505050565b606060405180602001604052806000815250905090565b6060611ce282611412565b611d21576040517f08c379a0000000000000000000000000000000000000000000000000000000008152600401611d1890612e12565b60405180910390fd5b6000611d2b611cc0565b90506000815111611d4b5760405180602001604052806000815250611d76565b80611d5584611f48565b604051602001611d66929190612b70565b6040516020818303038152906040525b915050919050565b505050565b505050565b60008151905060006a636f6e736f6c652e6c6f679050602083016000808483855afa5050505050565b6000611dd28473ffffffffffffffffffffffffffffffffffffffff166120f5565b15611f3b578373ffffffffffffffffffffffffffffffffffffffff1663150b7a02611dfb61147e565b8786866040518563ffffffff1660e01b8152600401611e1d9493929190612baf565b602060405180830381600087803b158015611e3757600080fd5b505af1925050508015611e6857506040513d601f19601f82011682018060405250810190611e65919061265e565b60015b611eeb573d8060008114611e98576040519150601f19603f3d011682016040523d82523d6000602084013e611e9d565b606091505b50600081511415611ee3576040517f08c379a0000000000000000000000000000000000000000000000000000000008152600401611eda90612c92565b60405180910390fd5b805181602001fd5b63150b7a0260e01b7bffffffffffffffffffffffffffffffffffffffffffffffffffffffff1916817bffffffffffffffffffffffffffffffffffffffffffffffffffffffff191614915050611f40565b600190505b949350505050565b60606000821415611f90576040518060400160405280600181526020017f300000000000000000000000000000000000000000000000000000000000000081525090506120f0565b600082905060005b60008214611fc2578080611fab906131aa565b915050600a82611fbb919061302c565b9150611f98565b60008167ffffffffffffffff811115612004577f4e487b7100000000000000000000000000000000000000000000000000000000600052604160045260246000fd5b6040519080825280601f01601f1916602001820160405280156120365781602001600182028036833780820191505090505b5090505b600085146120e95760018261204f919061305d565b9150600a8561205e9190613221565b603061206a9190612fd6565b60f81b8183815181106120a6577f4e487b7100000000000000000000000000000000000000000000000000000000600052603260045260246000fd5b60200101907effffffffffffffffffffffffffffffffffffffffffffffffffffffffffffff1916908160001a905350600a856120e2919061302c565b945061203a565b8093505050505b919050565b6000808273ffffffffffffffffffffffffffffffffffffffff163b119050919050565b6040518060a0016040528060608152602001600073ffffffffffffffffffffffffffffffffffffffff1681526020016000815260200160008152602001600073ffffffffffffffffffffffffffffffffffffffff1681525090565b82805461217f90613147565b90600052602060002090601f0160209004810192826121a157600085556121e8565b82601f106121ba57805160ff19168380011785556121e8565b828001600101855582156121e8579182015b828111156121e75782518255916020019190600101906121cc565b5b5090506121f591906121f9565b5090565b5b808211156122125760008160009055506001016121fa565b5090565b600061222961222484612ef4565b612ecf565b9050808382526020820190508285602086028201111561224857600080fd5b60005b85811015612278578161225e8882612313565b84526020840193506020830192505060018101905061224b565b5050509392505050565b600061229561229084612f20565b612ecf565b9050828152602081018484840111156122ad57600080fd5b6122b8848285613105565b509392505050565b60006122d36122ce84612f51565b612ecf565b9050828152602081018484840111156122eb57600080fd5b6122f6848285613114565b509392505050565b60008135905061230d81613784565b92915050565b60008151905061232281613784565b92915050565b600082601f83011261233957600080fd5b8151612349848260208601612216565b91505092915050565b6000813590506123618161379b565b92915050565b6000815190506123768161379b565b92915050565b60008135905061238b816137b2565b92915050565b6000815190506123a0816137b2565b92915050565b600082601f8301126123b757600080fd5b81356123c7848260208601612282565b91505092915050565b600082601f8301126123e157600080fd5b81516123f18482602086016122c0565b91505092915050565b600081359050612409816137c9565b92915050565b60008151905061241e816137c9565b92915050565b60006020828403121561243657600080fd5b6000612444848285016122fe565b91505092915050565b6000806040838503121561246057600080fd5b600061246e858286016122fe565b925050602061247f858286016122fe565b9150509250929050565b60008060006060848603121561249e57600080fd5b60006124ac868287016122fe565b93505060206124bd868287016122fe565b92505060406124ce868287016123fa565b9150509250925092565b600080600080608085870312156124ee57600080fd5b60006124fc878288016122fe565b945050602061250d878288016122fe565b935050604061251e878288016123fa565b925050606085013567ffffffffffffffff81111561253b57600080fd5b612547878288016123a6565b91505092959194509250565b6000806040838503121561256657600080fd5b6000612574858286016122fe565b925050602061258585828601612352565b9150509250929050565b600080604083850312156125a257600080fd5b60006125b0858286016122fe565b92505060206125c1858286016123fa565b9150509250929050565b6000602082840312156125dd57600080fd5b600082015167ffffffffffffffff8111156125f757600080fd5b61260384828501612328565b91505092915050565b60006020828403121561261e57600080fd5b600061262c84828501612367565b91505092915050565b60006020828403121561264757600080fd5b60006126558482850161237c565b91505092915050565b60006020828403121561267057600080fd5b600061267e84828501612391565b91505092915050565b60006020828403121561269957600080fd5b600082015167ffffffffffffffff8111156126b357600080fd5b6126bf848285016123d0565b91505092915050565b6000602082840312156126da57600080fd5b60006126e8848285016123fa565b91505092915050565b60006020828403121561270357600080fd5b60006127118482850161240f565b91505092915050565b61272381613091565b82525050565b61273281613091565b82525050565b61274961274482613091565b6131f3565b82525050565b612758816130a3565b82525050565b600061276982612f82565b6127738185612f98565b9350612783818560208601613114565b61278c8161330e565b840191505092915050565b60006127a282612f8d565b6127ac8185612fa9565b93506127bc818560208601613114565b6127c58161330e565b840191505092915050565b60006127db82612f8d565b6127e58185612fba565b93506127f5818560208601613114565b6127fe8161330e565b840191505092915050565b600061281482612f8d565b61281e8185612fcb565b935061282e818560208601613114565b80840191505092915050565b6000612847603283612fba565b91506128528261332c565b604082019050919050565b600061286a602583612fba565b91506128758261337b565b604082019050919050565b600061288d601c83612fba565b9150612898826133ca565b602082019050919050565b60006128b0602483612fba565b91506128bb826133f3565b604082019050919050565b60006128d3601983612fba565b91506128de82613442565b602082019050919050565b60006128f6602c83612fba565b91506129018261346b565b604082019050919050565b6000612919603883612fba565b9150612924826134ba565b604082019050919050565b600061293c602a83612fba565b915061294782613509565b604082019050919050565b600061295f602983612fba565b915061296a82613558565b604082019050919050565b6000612982602083612fba565b915061298d826135a7565b602082019050919050565b60006129a5603183612fba565b91506129b0826135d0565b604082019050919050565b60006129c8602c83612fba565b91506129d38261361f565b604082019050919050565b60006129eb602f83612fba565b91506129f68261366e565b604082019050919050565b6000612a0e602183612fba565b9150612a19826136bd565b604082019050919050565b6000612a31603183612fba565b9150612a3c8261370c565b604082019050919050565b6000612a54601583612fba565b9150612a5f8261375b565b602082019050919050565b600060a0830160008301518482036000860152612a878282612797565b9150506020830151612a9c602086018261271a565b506040830151612aaf6040860182612ae0565b506060830151612ac26060860182612ae0565b506080830151612ad5608086018261271a565b508091505092915050565b612ae9816130fb565b82525050565b612af8816130fb565b82525050565b612b0f612b0a826130fb565b613217565b82525050565b6000612b218288612809565b9150612b2d8287612738565b601482019150612b3d8286612afe565b602082019150612b4d8285612afe565b602082019150612b5d8284612738565b6014820191508190509695505050505050565b6000612b7c8285612809565b9150612b888284612809565b91508190509392505050565b6000602082019050612ba96000830184612729565b92915050565b6000608082019050612bc46000830187612729565b612bd16020830186612729565b612bde6040830185612aef565b8181036060830152612bf0818461275e565b905095945050505050565b6000602082019050612c10600083018461274f565b92915050565b60006020820190508181036000830152612c3081846127d0565b905092915050565b600060a0820190508181036000830152612c5281886127d0565b9050612c616020830187612729565b612c6e6040830186612aef565b612c7b6060830185612aef565b612c886080830184612729565b9695505050505050565b60006020820190508181036000830152612cab8161283a565b9050919050565b60006020820190508181036000830152612ccb8161285d565b9050919050565b60006020820190508181036000830152612ceb81612880565b9050919050565b60006020820190508181036000830152612d0b816128a3565b9050919050565b60006020820190508181036000830152612d2b816128c6565b9050919050565b60006020820190508181036000830152612d4b816128e9565b9050919050565b60006020820190508181036000830152612d6b8161290c565b9050919050565b60006020820190508181036000830152612d8b8161292f565b9050919050565b60006020820190508181036000830152612dab81612952565b9050919050565b60006020820190508181036000830152612dcb81612975565b9050919050565b60006020820190508181036000830152612deb81612998565b9050919050565b60006020820190508181036000830152612e0b816129bb565b9050919050565b60006020820190508181036000830152612e2b816129de565b9050919050565b60006020820190508181036000830152612e4b81612a01565b9050919050565b60006020820190508181036000830152612e6b81612a24565b9050919050565b60006020820190508181036000830152612e8b81612a47565b9050919050565b60006020820190508181036000830152612eac8184612a6a565b905092915050565b6000602082019050612ec96000830184612aef565b92915050565b6000612ed9612eea565b9050612ee58282613179565b919050565b6000604051905090565b600067ffffffffffffffff821115612f0f57612f0e6132df565b5b602082029050602081019050919050565b600067ffffffffffffffff821115612f3b57612f3a6132df565b5b612f448261330e565b9050602081019050919050565b600067ffffffffffffffff821115612f6c57612f6b6132df565b5b612f758261330e565b9050602081019050919050565b600081519050919050565b600081519050919050565b600082825260208201905092915050565b600082825260208201905092915050565b600082825260208201905092915050565b600081905092915050565b6000612fe1826130fb565b9150612fec836130fb565b9250827fffffffffffffffffffffffffffffffffffffffffffffffffffffffffffffffff0382111561302157613020613252565b5b828201905092915050565b6000613037826130fb565b9150613042836130fb565b92508261305257613051613281565b5b828204905092915050565b6000613068826130fb565b9150613073836130fb565b92508282101561308657613085613252565b5b828203905092915050565b600061309c826130db565b9050919050565b60008115159050919050565b60007fffffffff0000000000000000000000000000000000000000000000000000000082169050919050565b600073ffffffffffffffffffffffffffffffffffffffff82169050919050565b6000819050919050565b82818337600083830152505050565b60005b83811015613132578082015181840152602081019050613117565b83811115613141576000848401525b50505050565b6000600282049050600182168061315f57607f821691505b60208210811415613173576131726132b0565b5b50919050565b6131828261330e565b810181811067ffffffffffffffff821117156131a1576131a06132df565b5b80604052505050565b60006131b5826130fb565b91507fffffffffffffffffffffffffffffffffffffffffffffffffffffffffffffffff8214156131e8576131e7613252565b5b600182019050919050565b60006131fe82613205565b9050919050565b60006132108261331f565b9050919050565b6000819050919050565b600061322c826130fb565b9150613237836130fb565b92508261324757613246613281565b5b828206905092915050565b7f4e487b7100000000000000000000000000000000000000000000000000000000600052601160045260246000fd5b7f4e487b7100000000000000000000000000000000000000000000000000000000600052601260045260246000fd5b7f4e487b7100000000000000000000000000000000000000000000000000000000600052602260045260246000fd5b7f4e487b7100000000000000000000000000000000000000000000000000000000600052604160045260246000fd5b6000601f19601f8301169050919050565b60008160601b9050919050565b7f4552433732313a207472616e7366657220746f206e6f6e20455243373231526560008201527f63656976657220696d706c656d656e7465720000000000000000000000000000602082015250565b7f4552433732313a207472616e736665722066726f6d20696e636f72726563742060008201527f6f776e6572000000000000000000000000000000000000000000000000000000602082015250565b7f4552433732313a20746f6b656e20616c7265616479206d696e74656400000000600082015250565b7f4552433732313a207472616e7366657220746f20746865207a65726f2061646460008201527f7265737300000000000000000000000000000000000000000000000000000000602082015250565b7f4552433732313a20617070726f766520746f2063616c6c657200000000000000600082015250565b7f4552433732313a206f70657261746f7220717565727920666f72206e6f6e657860008201527f697374656e7420746f6b656e0000000000000000000000000000000000000000602082015250565b7f4552433732313a20617070726f76652063616c6c6572206973206e6f74206f7760008201527f6e6572206e6f7220617070726f76656420666f7220616c6c0000000000000000602082015250565b7f4552433732313a2062616c616e636520717565727920666f7220746865207a6560008201527f726f206164647265737300000000000000000000000000000000000000000000602082015250565b7f4552433732313a206f776e657220717565727920666f72206e6f6e657869737460008201527f656e7420746f6b656e0000000000000000000000000000000000000000000000602082015250565b7f4552433732313a206d696e7420746f20746865207a65726f2061646472657373600082015250565b7f45524337323155524953746f726167653a2055524920717565727920666f722060008201527f6e6f6e6578697374656e7420746f6b656e000000000000000000000000000000602082015250565b7f4552433732313a20617070726f76656420717565727920666f72206e6f6e657860008201527f697374656e7420746f6b656e0000000000000000000000000000000000000000602082015250565b7f4552433732314d657461646174613a2055524920717565727920666f72206e6f60008201527f6e6578697374656e7420746f6b656e0000000000000000000000000000000000602082015250565b7f4552433732313a20617070726f76616c20746f2063757272656e74206f776e6560008201527f7200000000000000000000000000000000000000000000000000000000000000602082015250565b7f4552433732313a207472616e736665722063616c6c6572206973206e6f74206f60008201527f776e6572206e6f7220617070726f766564000000000000000000000000000000602082015250565b7f486f74656c206e6f7420696e2072656769737472790000000000000000000000600082015250565b61378d81613091565b811461379857600080fd5b50565b6137a4816130a3565b81146137af57600080fd5b50565b6137bb816130af565b81146137c657600080fd5b50565b6137d2816130fb565b81146137dd57600080fd5b5056fea26469706673582212204cf6a85c0cc8da8c2f9815279d8580553611576c5207f0091e99daff1c9df20964736f6c63430008040033",
  "linkReferences": {},
  "deployedLinkReferences": {}
}