{
  "_format": "hh-sol-artifact-1",
  "contractName": "NFTIssuer",
  "sourceName": "contracts/NFTIssuer.sol",
  "abi": [
    {
      "inputs": [
        {
          "internalType": "address",
          "name": "_hotelRegistryAddress",
          "type": "address"
        }
      ],
      "stateMutability": "nonpayable",
      "type": "constructor"
    },
    {
      "anonymous": false,
      "inputs": [
        {
          "indexed": true,
          "internalType": "address",
          "name": "owner",
          "type": "address"
        },
        {
          "indexed": true,
          "internalType": "address",
          "name": "approved",
          "type": "address"
        },
        {
          "indexed": true,
          "internalType": "uint256",
          "name": "tokenId",
          "type": "uint256"
        }
      ],
      "name": "Approval",
      "type": "event"
    },
    {
      "anonymous": false,
      "inputs": [
        {
          "indexed": true,
          "internalType": "address",
          "name": "owner",
          "type": "address"
        },
        {
          "indexed": true,
          "internalType": "address",
          "name": "operator",
          "type": "address"
        },
        {
          "indexed": false,
          "internalType": "bool",
          "name": "approved",
          "type": "bool"
        }
      ],
      "name": "ApprovalForAll",
      "type": "event"
    },
    {
      "anonymous": false,
      "inputs": [
        {
          "indexed": true,
          "internalType": "address",
          "name": "from",
          "type": "address"
        },
        {
          "indexed": true,
          "internalType": "address",
          "name": "to",
          "type": "address"
        },
        {
          "indexed": true,
          "internalType": "uint256",
          "name": "tokenId",
          "type": "uint256"
        }
      ],
      "name": "Transfer",
      "type": "event"
    },
    {
      "inputs": [
        {
          "internalType": "address",
          "name": "to",
          "type": "address"
        },
        {
          "internalType": "uint256",
          "name": "tokenId",
          "type": "uint256"
        }
      ],
      "name": "approve",
      "outputs": [],
      "stateMutability": "nonpayable",
      "type": "function"
    },
    {
      "inputs": [
        {
          "internalType": "address",
          "name": "owner",
          "type": "address"
        }
      ],
      "name": "balanceOf",
      "outputs": [
        {
          "internalType": "uint256",
          "name": "",
          "type": "uint256"
        }
      ],
      "stateMutability": "view",
      "type": "function"
    },
    {
      "inputs": [
        {
          "internalType": "uint256",
          "name": "tokenId",
          "type": "uint256"
        }
      ],
      "name": "getApproved",
      "outputs": [
        {
          "internalType": "address",
          "name": "",
          "type": "address"
        }
      ],
      "stateMutability": "view",
      "type": "function"
    },
    {
      "inputs": [
        {
          "internalType": "address",
          "name": "owner",
          "type": "address"
        },
        {
          "internalType": "address",
          "name": "operator",
          "type": "address"
        }
      ],
      "name": "isApprovedForAll",
      "outputs": [
        {
          "internalType": "bool",
          "name": "",
          "type": "bool"
        }
      ],
      "stateMutability": "view",
      "type": "function"
    },
    {
      "inputs": [
        {
          "internalType": "address",
          "name": "travelEscrowAddress",
          "type": "address"
        }
      ],
      "name": "mintBookingNFT",
      "outputs": [],
      "stateMutability": "nonpayable",
      "type": "function"
    },
    {
      "inputs": [],
      "name": "name",
      "outputs": [
        {
          "internalType": "string",
          "name": "",
          "type": "string"
        }
      ],
      "stateMutability": "view",
      "type": "function"
    },
    {
      "inputs": [
        {
          "internalType": "uint256",
          "name": "tokenId",
          "type": "uint256"
        }
      ],
      "name": "ownerOf",
      "outputs": [
        {
          "internalType": "address",
          "name": "",
          "type": "address"
        }
      ],
      "stateMutability": "view",
      "type": "function"
    },
    {
      "inputs": [
        {
          "internalType": "address",
          "name": "from",
          "type": "address"
        },
        {
          "internalType": "address",
          "name": "to",
          "type": "address"
        },
        {
          "internalType": "uint256",
          "name": "tokenId",
          "type": "uint256"
        }
      ],
      "name": "safeTransferFrom",
      "outputs": [],
      "stateMutability": "nonpayable",
      "type": "function"
    },
    {
      "inputs": [
        {
          "internalType": "address",
          "name": "from",
          "type": "address"
        },
        {
          "internalType": "address",
          "name": "to",
          "type": "address"
        },
        {
          "internalType": "uint256",
          "name": "tokenId",
          "type": "uint256"
        },
        {
          "internalType": "bytes",
          "name": "_data",
          "type": "bytes"
        }
      ],
      "name": "safeTransferFrom",
      "outputs": [],
      "stateMutability": "nonpayable",
      "type": "function"
    },
    {
      "inputs": [
        {
          "internalType": "address",
          "name": "operator",
          "type": "address"
        },
        {
          "internalType": "bool",
          "name": "approved",
          "type": "bool"
        }
      ],
      "name": "setApprovalForAll",
      "outputs": [],
      "stateMutability": "nonpayable",
      "type": "function"
    },
    {
      "inputs": [
        {
          "internalType": "address",
          "name": "hotelRegistryAddressNew",
          "type": "address"
        }
      ],
      "name": "setHotelRegistry",
      "outputs": [],
      "stateMutability": "nonpayable",
      "type": "function"
    },
    {
      "inputs": [
        {
          "internalType": "bytes4",
          "name": "interfaceId",
          "type": "bytes4"
        }
      ],
      "name": "supportsInterface",
      "outputs": [
        {
          "internalType": "bool",
          "name": "",
          "type": "bool"
        }
      ],
      "stateMutability": "view",
      "type": "function"
    },
    {
      "inputs": [],
      "name": "symbol",
      "outputs": [
        {
          "internalType": "string",
          "name": "",
          "type": "string"
        }
      ],
      "stateMutability": "view",
      "type": "function"
    },
    {
      "inputs": [
        {
          "internalType": "uint256",
          "name": "tokenId",
          "type": "uint256"
        }
      ],
      "name": "tokenURI",
      "outputs": [
        {
          "internalType": "string",
          "name": "",
          "type": "string"
        }
      ],
      "stateMutability": "view",
      "type": "function"
    },
    {
      "inputs": [
        {
          "internalType": "address",
          "name": "from",
          "type": "address"
        },
        {
          "internalType": "address",
          "name": "to",
          "type": "address"
        },
        {
          "internalType": "uint256",
          "name": "tokenId",
          "type": "uint256"
        }
      ],
      "name": "transferFrom",
      "outputs": [],
      "stateMutability": "nonpayable",
      "type": "function"
    }
  ],
  "bytecode": "0x60806040523480156200001157600080fd5b506040516200348938038062003489833981810160405281019062000037919062000277565b6040518060400160405280600a81526020017f5649534954455f4e4654000000000000000000000000000000000000000000008152506040518060400160405280600481526020017f564e4654000000000000000000000000000000000000000000000000000000008152508160009080519060200190620000bb929190620001b0565b508060019080519060200190620000d4929190620001b0565b50505080600760006101000a81548173ffffffffffffffffffffffffffffffffffffffff021916908373ffffffffffffffffffffffffffffffffffffffff160217905550600760009054906101000a900473ffffffffffffffffffffffffffffffffffffffff1673ffffffffffffffffffffffffffffffffffffffff1663e8ce887a306040518263ffffffff1660e01b8152600401620001759190620002b4565b600060405180830381600087803b1580156200019057600080fd5b505af1158015620001a5573d6000803e3d6000fd5b505050505062000384565b828054620001be9062000305565b90600052602060002090601f016020900481019282620001e257600085556200022e565b82601f10620001fd57805160ff19168380011785556200022e565b828001600101855582156200022e579182015b828111156200022d57825182559160200191906001019062000210565b5b5090506200023d919062000241565b5090565b5b808211156200025c57600081600090555060010162000242565b5090565b60008151905062000271816200036a565b92915050565b6000602082840312156200028a57600080fd5b60006200029a8482850162000260565b91505092915050565b620002ae81620002d1565b82525050565b6000602082019050620002cb6000830184620002a3565b92915050565b6000620002de82620002e5565b9050919050565b600073ffffffffffffffffffffffffffffffffffffffff82169050919050565b600060028204905060018216806200031e57607f821691505b602082108114156200033557620003346200033b565b5b50919050565b7f4e487b7100000000000000000000000000000000000000000000000000000000600052602260045260246000fd5b6200037581620002d1565b81146200038157600080fd5b50565b6130f580620003946000396000f3fe608060405234801561001057600080fd5b50600436106100f55760003560e01c80636a61d04111610097578063b88d4fde11610066578063b88d4fde14610282578063c87b56dd1461029e578063d76e705b146102ce578063e985e9c5146102ea576100f5565b80636a61d041146101fc57806370a082311461021857806395d89b4114610248578063a22cb46514610266576100f5565b8063095ea7b3116100d3578063095ea7b31461017857806323b872dd1461019457806342842e0e146101b05780636352211e146101cc576100f5565b806301ffc9a7146100fa57806306fdde031461012a578063081812fc14610148575b600080fd5b610114600480360381019061010f919061206e565b61031a565b6040516101219190612567565b60405180910390f35b6101326103fc565b60405161013f9190612582565b60405180910390f35b610162600480360381019061015d9190612101565b61048e565b60405161016f9190612500565b60405180910390f35b610192600480360381019061018d9190611fc8565b610513565b005b6101ae60048036038101906101a99190611ec2565b61062b565b005b6101ca60048036038101906101c59190611ec2565b61068b565b005b6101e660048036038101906101e19190612101565b6106ab565b6040516101f39190612500565b60405180910390f35b61021660048036038101906102119190611e5d565b61075d565b005b610232600480360381019061022d9190611e5d565b610b77565b60405161023f91906127a4565b60405180910390f35b610250610c2f565b60405161025d9190612582565b60405180910390f35b610280600480360381019061027b9190611f8c565b610cc1565b005b61029c60048036038101906102979190611f11565b610cd7565b005b6102b860048036038101906102b39190612101565b610d39565b6040516102c59190612582565b60405180910390f35b6102e860048036038101906102e39190611e5d565b610e8b565b005b61030460048036038101906102ff9190611e86565b610ecf565b6040516103119190612567565b60405180910390f35b60007f80ac58cd000000000000000000000000000000000000000000000000000000007bffffffffffffffffffffffffffffffffffffffffffffffffffffffff1916827bffffffffffffffffffffffffffffffffffffffffffffffffffffffff191614806103e557507f5b5e139f000000000000000000000000000000000000000000000000000000007bffffffffffffffffffffffffffffffffffffffffffffffffffffffff1916827bffffffffffffffffffffffffffffffffffffffffffffffffffffffff1916145b806103f557506103f482610f63565b5b9050919050565b60606000805461040b90612a26565b80601f016020809104026020016040519081016040528092919081815260200182805461043790612a26565b80156104845780601f1061045957610100808354040283529160200191610484565b820191906000526020600020905b81548152906001019060200180831161046757829003601f168201915b5050505050905090565b600061049982610fcd565b6104d8576040517f08c379a00000000000000000000000000000000000000000000000000000000081526004016104cf90612704565b60405180910390fd5b6004600083815260200190815260200160002060009054906101000a900473ffffffffffffffffffffffffffffffffffffffff169050919050565b600061051e826106ab565b90508073ffffffffffffffffffffffffffffffffffffffff168373ffffffffffffffffffffffffffffffffffffffff16141561058f576040517f08c379a000000000000000000000000000000000000000000000000000000000815260040161058690612744565b60405180910390fd5b8073ffffffffffffffffffffffffffffffffffffffff166105ae611039565b73ffffffffffffffffffffffffffffffffffffffff1614806105dd57506105dc816105d7611039565b610ecf565b5b61061c576040517f08c379a000000000000000000000000000000000000000000000000000000000815260040161061390612664565b60405180910390fd5b6106268383611041565b505050565b61063c610636611039565b826110fa565b61067b576040517f08c379a000000000000000000000000000000000000000000000000000000000815260040161067290612764565b60405180910390fd5b6106868383836111d8565b505050565b6106a683838360405180602001604052806000815250610cd7565b505050565b6000806002600084815260200190815260200160002060009054906101000a900473ffffffffffffffffffffffffffffffffffffffff169050600073ffffffffffffffffffffffffffffffffffffffff168173ffffffffffffffffffffffffffffffffffffffff161415610754576040517f08c379a000000000000000000000000000000000000000000000000000000000815260040161074b906126a4565b60405180910390fd5b80915050919050565b33600760009054906101000a900473ffffffffffffffffffffffffffffffffffffffff1673ffffffffffffffffffffffffffffffffffffffff1663c3c5a547826040518263ffffffff1660e01b81526004016107b99190612500565b602060405180830381600087803b1580156107d357600080fd5b505af11580156107e7573d6000803e3d6000fd5b505050506040513d601f19601f8201168201806040525081019061080b9190612045565b61084a576040517f08c379a000000000000000000000000000000000000000000000000000000000815260040161084190612784565b60405180910390fd5b60008273ffffffffffffffffffffffffffffffffffffffff1663ab07cdf66040518163ffffffff1660e01b8152600401600060405180830381600087803b15801561089457600080fd5b505af11580156108a8573d6000803e3d6000fd5b505050506040513d6000823e3d601f19601f820116820180604052508101906108d19190612004565b905060008373ffffffffffffffffffffffffffffffffffffffff1663b9dd3b0c6040518163ffffffff1660e01b8152600401602060405180830381600087803b15801561091d57600080fd5b505af1158015610931573d6000803e3d6000fd5b505050506040513d601f19601f82011682018060405250810190610955919061212a565b905060008473ffffffffffffffffffffffffffffffffffffffff1663beae494b6040518163ffffffff1660e01b8152600401602060405180830381600087803b1580156109a157600080fd5b505af11580156109b5573d6000803e3d6000fd5b505050506040513d601f19601f820116820180604052508101906109d9919061212a565b905060008573ffffffffffffffffffffffffffffffffffffffff1663f3668b9d6040518163ffffffff1660e01b8152600401600060405180830381600087803b158015610a2557600080fd5b505af1158015610a39573d6000803e3d6000fd5b505050506040513d6000823e3d601f19601f82011682018060405250810190610a6291906120c0565b9050600033905060005b8551811015610b6d576000868281518110610ab0577f4e487b7100000000000000000000000000000000000000000000000000000000600052603260045260246000fd5b60200260200101519050610ac2611c11565b868160400181815250508581606001818152505083816020019073ffffffffffffffffffffffffffffffffffffffff16908173ffffffffffffffffffffffffffffffffffffffff168152505084816000018190525060008585898986604051602001610b32959493929190612481565b6040516020818303038152906040528051906020012060001c9050610b57838261143f565b5050508080610b6590612a89565b915050610a6c565b5050505050505050565b60008073ffffffffffffffffffffffffffffffffffffffff168273ffffffffffffffffffffffffffffffffffffffff161415610be8576040517f08c379a0000000000000000000000000000000000000000000000000000000008152600401610bdf90612684565b60405180910390fd5b600360008373ffffffffffffffffffffffffffffffffffffffff1673ffffffffffffffffffffffffffffffffffffffff168152602001908152602001600020549050919050565b606060018054610c3e90612a26565b80601f0160208091040260200160405190810160405280929190818152602001828054610c6a90612a26565b8015610cb75780601f10610c8c57610100808354040283529160200191610cb7565b820191906000526020600020905b815481529060010190602001808311610c9a57829003601f168201915b5050505050905090565b610cd3610ccc611039565b8383611619565b5050565b610ce8610ce2611039565b836110fa565b610d27576040517f08c379a0000000000000000000000000000000000000000000000000000000008152600401610d1e90612764565b60405180910390fd5b610d3384848484611786565b50505050565b6060610d4482610fcd565b610d83576040517f08c379a0000000000000000000000000000000000000000000000000000000008152600401610d7a906126e4565b60405180910390fd5b6000600660008481526020019081526020016000208054610da390612a26565b80601f0160208091040260200160405190810160405280929190818152602001828054610dcf90612a26565b8015610e1c5780601f10610df157610100808354040283529160200191610e1c565b820191906000526020600020905b815481529060010190602001808311610dff57829003601f168201915b505050505090506000610e2d6117e2565b9050600081511415610e43578192505050610e86565b600082511115610e78578082604051602001610e609291906124dc565b60405160208183030381529060405292505050610e86565b610e81846117f9565b925050505b919050565b80600760006101000a81548173ffffffffffffffffffffffffffffffffffffffff021916908373ffffffffffffffffffffffffffffffffffffffff16021790555050565b6000600560008473ffffffffffffffffffffffffffffffffffffffff1673ffffffffffffffffffffffffffffffffffffffff16815260200190815260200160002060008373ffffffffffffffffffffffffffffffffffffffff1673ffffffffffffffffffffffffffffffffffffffff16815260200190815260200160002060009054906101000a900460ff16905092915050565b60007f01ffc9a7000000000000000000000000000000000000000000000000000000007bffffffffffffffffffffffffffffffffffffffffffffffffffffffff1916827bffffffffffffffffffffffffffffffffffffffffffffffffffffffff1916149050919050565b60008073ffffffffffffffffffffffffffffffffffffffff166002600084815260200190815260200160002060009054906101000a900473ffffffffffffffffffffffffffffffffffffffff1673ffffffffffffffffffffffffffffffffffffffff1614159050919050565b600033905090565b816004600083815260200190815260200160002060006101000a81548173ffffffffffffffffffffffffffffffffffffffff021916908373ffffffffffffffffffffffffffffffffffffffff160217905550808273ffffffffffffffffffffffffffffffffffffffff166110b4836106ab565b73ffffffffffffffffffffffffffffffffffffffff167f8c5be1e5ebec7d5bd14f71427d1e84f3dd0314c0f7b2291e5b200ac8c7c3b92560405160405180910390a45050565b600061110582610fcd565b611144576040517f08c379a000000000000000000000000000000000000000000000000000000000815260040161113b90612644565b60405180910390fd5b600061114f836106ab565b90508073ffffffffffffffffffffffffffffffffffffffff168473ffffffffffffffffffffffffffffffffffffffff16148061119157506111908185610ecf565b5b806111cf57508373ffffffffffffffffffffffffffffffffffffffff166111b78461048e565b73ffffffffffffffffffffffffffffffffffffffff16145b91505092915050565b8273ffffffffffffffffffffffffffffffffffffffff166111f8826106ab565b73ffffffffffffffffffffffffffffffffffffffff161461124e576040517f08c379a0000000000000000000000000000000000000000000000000000000008152600401611245906125c4565b60405180910390fd5b600073ffffffffffffffffffffffffffffffffffffffff168273ffffffffffffffffffffffffffffffffffffffff1614156112be576040517f08c379a00000000000000000000000000000000000000000000000000000000081526004016112b590612604565b60405180910390fd5b6112c98383836118a0565b6112d4600082611041565b6001600360008573ffffffffffffffffffffffffffffffffffffffff1673ffffffffffffffffffffffffffffffffffffffff1681526020019081526020016000206000828254611324919061293c565b925050819055506001600360008473ffffffffffffffffffffffffffffffffffffffff1673ffffffffffffffffffffffffffffffffffffffff168152602001908152602001600020600082825461137b91906128b5565b92505081905550816002600083815260200190815260200160002060006101000a81548173ffffffffffffffffffffffffffffffffffffffff021916908373ffffffffffffffffffffffffffffffffffffffff160217905550808273ffffffffffffffffffffffffffffffffffffffff168473ffffffffffffffffffffffffffffffffffffffff167fddf252ad1be2c89b69c2b068fc378daa952ba7f163c4a11628f55a4df523b3ef60405160405180910390a461143a8383836118a5565b505050565b600073ffffffffffffffffffffffffffffffffffffffff168273ffffffffffffffffffffffffffffffffffffffff1614156114af576040517f08c379a00000000000000000000000000000000000000000000000000000000081526004016114a6906126c4565b60405180910390fd5b6114b881610fcd565b156114f8576040517f08c379a00000000000000000000000000000000000000000000000000000000081526004016114ef906125e4565b60405180910390fd5b611504600083836118a0565b6001600360008473ffffffffffffffffffffffffffffffffffffffff1673ffffffffffffffffffffffffffffffffffffffff168152602001908152602001600020600082825461155491906128b5565b92505081905550816002600083815260200190815260200160002060006101000a81548173ffffffffffffffffffffffffffffffffffffffff021916908373ffffffffffffffffffffffffffffffffffffffff160217905550808273ffffffffffffffffffffffffffffffffffffffff16600073ffffffffffffffffffffffffffffffffffffffff167fddf252ad1be2c89b69c2b068fc378daa952ba7f163c4a11628f55a4df523b3ef60405160405180910390a4611615600083836118a5565b5050565b8173ffffffffffffffffffffffffffffffffffffffff168373ffffffffffffffffffffffffffffffffffffffff161415611688576040517f08c379a000000000000000000000000000000000000000000000000000000000815260040161167f90612624565b60405180910390fd5b80600560008573ffffffffffffffffffffffffffffffffffffffff1673ffffffffffffffffffffffffffffffffffffffff16815260200190815260200160002060008473ffffffffffffffffffffffffffffffffffffffff1673ffffffffffffffffffffffffffffffffffffffff16815260200190815260200160002060006101000a81548160ff0219169083151502179055508173ffffffffffffffffffffffffffffffffffffffff168373ffffffffffffffffffffffffffffffffffffffff167f17307eab39ab6107e8899845ad3d59bd9653f200f220920489ca2b5937696c31836040516117799190612567565b60405180910390a3505050565b6117918484846111d8565b61179d848484846118aa565b6117dc576040517f08c379a00000000000000000000000000000000000000000000000000000000081526004016117d3906125a4565b60405180910390fd5b50505050565b606060405180602001604052806000815250905090565b606061180482610fcd565b611843576040517f08c379a000000000000000000000000000000000000000000000000000000000815260040161183a90612724565b60405180910390fd5b600061184d6117e2565b9050600081511161186d5760405180602001604052806000815250611898565b8061187784611a41565b6040516020016118889291906124dc565b6040516020818303038152906040525b915050919050565b505050565b505050565b60006118cb8473ffffffffffffffffffffffffffffffffffffffff16611bee565b15611a34578373ffffffffffffffffffffffffffffffffffffffff1663150b7a026118f4611039565b8786866040518563ffffffff1660e01b8152600401611916949392919061251b565b602060405180830381600087803b15801561193057600080fd5b505af192505050801561196157506040513d601f19601f8201168201806040525081019061195e9190612097565b60015b6119e4573d8060008114611991576040519150601f19603f3d011682016040523d82523d6000602084013e611996565b606091505b506000815114156119dc576040517f08c379a00000000000000000000000000000000000000000000000000000000081526004016119d3906125a4565b60405180910390fd5b805181602001fd5b63150b7a0260e01b7bffffffffffffffffffffffffffffffffffffffffffffffffffffffff1916817bffffffffffffffffffffffffffffffffffffffffffffffffffffffff191614915050611a39565b600190505b949350505050565b60606000821415611a89576040518060400160405280600181526020017f30000000000000000000000000000000000000000000000000000000000000008152509050611be9565b600082905060005b60008214611abb578080611aa490612a89565b915050600a82611ab4919061290b565b9150611a91565b60008167ffffffffffffffff811115611afd577f4e487b7100000000000000000000000000000000000000000000000000000000600052604160045260246000fd5b6040519080825280601f01601f191660200182016040528015611b2f5781602001600182028036833780820191505090505b5090505b60008514611be257600182611b48919061293c565b9150600a85611b579190612b00565b6030611b6391906128b5565b60f81b818381518110611b9f577f4e487b7100000000000000000000000000000000000000000000000000000000600052603260045260246000fd5b60200101907effffffffffffffffffffffffffffffffffffffffffffffffffffffffffffff1916908160001a905350600a85611bdb919061290b565b9450611b33565b8093505050505b919050565b6000808273ffffffffffffffffffffffffffffffffffffffff163b119050919050565b604051806080016040528060608152602001600073ffffffffffffffffffffffffffffffffffffffff16815260200160008152602001600081525090565b6000611c62611c5d846127e4565b6127bf565b90508083825260208201905082856020860282011115611c8157600080fd5b60005b85811015611cb15781611c978882611d4c565b845260208401935060208301925050600181019050611c84565b5050509392505050565b6000611cce611cc984612810565b6127bf565b905082815260208101848484011115611ce657600080fd5b611cf18482856129e4565b509392505050565b6000611d0c611d0784612841565b6127bf565b905082815260208101848484011115611d2457600080fd5b611d2f8482856129f3565b509392505050565b600081359050611d4681613063565b92915050565b600081519050611d5b81613063565b92915050565b600082601f830112611d7257600080fd5b8151611d82848260208601611c4f565b91505092915050565b600081359050611d9a8161307a565b92915050565b600081519050611daf8161307a565b92915050565b600081359050611dc481613091565b92915050565b600081519050611dd981613091565b92915050565b600082601f830112611df057600080fd5b8135611e00848260208601611cbb565b91505092915050565b600082601f830112611e1a57600080fd5b8151611e2a848260208601611cf9565b91505092915050565b600081359050611e42816130a8565b92915050565b600081519050611e57816130a8565b92915050565b600060208284031215611e6f57600080fd5b6000611e7d84828501611d37565b91505092915050565b60008060408385031215611e9957600080fd5b6000611ea785828601611d37565b9250506020611eb885828601611d37565b9150509250929050565b600080600060608486031215611ed757600080fd5b6000611ee586828701611d37565b9350506020611ef686828701611d37565b9250506040611f0786828701611e33565b9150509250925092565b60008060008060808587031215611f2757600080fd5b6000611f3587828801611d37565b9450506020611f4687828801611d37565b9350506040611f5787828801611e33565b925050606085013567ffffffffffffffff811115611f7457600080fd5b611f8087828801611ddf565b91505092959194509250565b60008060408385031215611f9f57600080fd5b6000611fad85828601611d37565b9250506020611fbe85828601611d8b565b9150509250929050565b60008060408385031215611fdb57600080fd5b6000611fe985828601611d37565b9250506020611ffa85828601611e33565b9150509250929050565b60006020828403121561201657600080fd5b600082015167ffffffffffffffff81111561203057600080fd5b61203c84828501611d61565b91505092915050565b60006020828403121561205757600080fd5b600061206584828501611da0565b91505092915050565b60006020828403121561208057600080fd5b600061208e84828501611db5565b91505092915050565b6000602082840312156120a957600080fd5b60006120b784828501611dca565b91505092915050565b6000602082840312156120d257600080fd5b600082015167ffffffffffffffff8111156120ec57600080fd5b6120f884828501611e09565b91505092915050565b60006020828403121561211357600080fd5b600061212184828501611e33565b91505092915050565b60006020828403121561213c57600080fd5b600061214a84828501611e48565b91505092915050565b61215c81612970565b82525050565b61217361216e82612970565b612ad2565b82525050565b61218281612982565b82525050565b600061219382612872565b61219d8185612888565b93506121ad8185602086016129f3565b6121b681612bed565b840191505092915050565b60006121cc8261287d565b6121d68185612899565b93506121e68185602086016129f3565b6121ef81612bed565b840191505092915050565b60006122058261287d565b61220f81856128aa565b935061221f8185602086016129f3565b80840191505092915050565b6000612238603283612899565b915061224382612c0b565b604082019050919050565b600061225b602583612899565b915061226682612c5a565b604082019050919050565b600061227e601c83612899565b915061228982612ca9565b602082019050919050565b60006122a1602483612899565b91506122ac82612cd2565b604082019050919050565b60006122c4601983612899565b91506122cf82612d21565b602082019050919050565b60006122e7602c83612899565b91506122f282612d4a565b604082019050919050565b600061230a603883612899565b915061231582612d99565b604082019050919050565b600061232d602a83612899565b915061233882612de8565b604082019050919050565b6000612350602983612899565b915061235b82612e37565b604082019050919050565b6000612373602083612899565b915061237e82612e86565b602082019050919050565b6000612396603183612899565b91506123a182612eaf565b604082019050919050565b60006123b9602c83612899565b91506123c482612efe565b604082019050919050565b60006123dc602f83612899565b91506123e782612f4d565b604082019050919050565b60006123ff602183612899565b915061240a82612f9c565b604082019050919050565b6000612422603183612899565b915061242d82612feb565b604082019050919050565b6000612445601583612899565b91506124508261303a565b602082019050919050565b612464816129da565b82525050565b61247b612476826129da565b612af6565b82525050565b600061248d82886121fa565b91506124998287612162565b6014820191506124a9828661246a565b6020820191506124b9828561246a565b6020820191506124c98284612162565b6014820191508190509695505050505050565b60006124e882856121fa565b91506124f482846121fa565b91508190509392505050565b60006020820190506125156000830184612153565b92915050565b60006080820190506125306000830187612153565b61253d6020830186612153565b61254a604083018561245b565b818103606083015261255c8184612188565b905095945050505050565b600060208201905061257c6000830184612179565b92915050565b6000602082019050818103600083015261259c81846121c1565b905092915050565b600060208201905081810360008301526125bd8161222b565b9050919050565b600060208201905081810360008301526125dd8161224e565b9050919050565b600060208201905081810360008301526125fd81612271565b9050919050565b6000602082019050818103600083015261261d81612294565b9050919050565b6000602082019050818103600083015261263d816122b7565b9050919050565b6000602082019050818103600083015261265d816122da565b9050919050565b6000602082019050818103600083015261267d816122fd565b9050919050565b6000602082019050818103600083015261269d81612320565b9050919050565b600060208201905081810360008301526126bd81612343565b9050919050565b600060208201905081810360008301526126dd81612366565b9050919050565b600060208201905081810360008301526126fd81612389565b9050919050565b6000602082019050818103600083015261271d816123ac565b9050919050565b6000602082019050818103600083015261273d816123cf565b9050919050565b6000602082019050818103600083015261275d816123f2565b9050919050565b6000602082019050818103600083015261277d81612415565b9050919050565b6000602082019050818103600083015261279d81612438565b9050919050565b60006020820190506127b9600083018461245b565b92915050565b60006127c96127da565b90506127d58282612a58565b919050565b6000604051905090565b600067ffffffffffffffff8211156127ff576127fe612bbe565b5b602082029050602081019050919050565b600067ffffffffffffffff82111561282b5761282a612bbe565b5b61283482612bed565b9050602081019050919050565b600067ffffffffffffffff82111561285c5761285b612bbe565b5b61286582612bed565b9050602081019050919050565b600081519050919050565b600081519050919050565b600082825260208201905092915050565b600082825260208201905092915050565b600081905092915050565b60006128c0826129da565b91506128cb836129da565b9250827fffffffffffffffffffffffffffffffffffffffffffffffffffffffffffffffff03821115612900576128ff612b31565b5b828201905092915050565b6000612916826129da565b9150612921836129da565b92508261293157612930612b60565b5b828204905092915050565b6000612947826129da565b9150612952836129da565b92508282101561296557612964612b31565b5b828203905092915050565b600061297b826129ba565b9050919050565b60008115159050919050565b60007fffffffff0000000000000000000000000000000000000000000000000000000082169050919050565b600073ffffffffffffffffffffffffffffffffffffffff82169050919050565b6000819050919050565b82818337600083830152505050565b60005b83811015612a115780820151818401526020810190506129f6565b83811115612a20576000848401525b50505050565b60006002820490506001821680612a3e57607f821691505b60208210811415612a5257612a51612b8f565b5b50919050565b612a6182612bed565b810181811067ffffffffffffffff82111715612a8057612a7f612bbe565b5b80604052505050565b6000612a94826129da565b91507fffffffffffffffffffffffffffffffffffffffffffffffffffffffffffffffff821415612ac757612ac6612b31565b5b600182019050919050565b6000612add82612ae4565b9050919050565b6000612aef82612bfe565b9050919050565b6000819050919050565b6000612b0b826129da565b9150612b16836129da565b925082612b2657612b25612b60565b5b828206905092915050565b7f4e487b7100000000000000000000000000000000000000000000000000000000600052601160045260246000fd5b7f4e487b7100000000000000000000000000000000000000000000000000000000600052601260045260246000fd5b7f4e487b7100000000000000000000000000000000000000000000000000000000600052602260045260246000fd5b7f4e487b7100000000000000000000000000000000000000000000000000000000600052604160045260246000fd5b6000601f19601f8301169050919050565b60008160601b9050919050565b7f4552433732313a207472616e7366657220746f206e6f6e20455243373231526560008201527f63656976657220696d706c656d656e7465720000000000000000000000000000602082015250565b7f4552433732313a207472616e736665722066726f6d20696e636f72726563742060008201527f6f776e6572000000000000000000000000000000000000000000000000000000602082015250565b7f4552433732313a20746f6b656e20616c7265616479206d696e74656400000000600082015250565b7f4552433732313a207472616e7366657220746f20746865207a65726f2061646460008201527f7265737300000000000000000000000000000000000000000000000000000000602082015250565b7f4552433732313a20617070726f766520746f2063616c6c657200000000000000600082015250565b7f4552433732313a206f70657261746f7220717565727920666f72206e6f6e657860008201527f697374656e7420746f6b656e0000000000000000000000000000000000000000602082015250565b7f4552433732313a20617070726f76652063616c6c6572206973206e6f74206f7760008201527f6e6572206e6f7220617070726f76656420666f7220616c6c0000000000000000602082015250565b7f4552433732313a2062616c616e636520717565727920666f7220746865207a6560008201527f726f206164647265737300000000000000000000000000000000000000000000602082015250565b7f4552433732313a206f776e657220717565727920666f72206e6f6e657869737460008201527f656e7420746f6b656e0000000000000000000000000000000000000000000000602082015250565b7f4552433732313a206d696e7420746f20746865207a65726f2061646472657373600082015250565b7f45524337323155524953746f726167653a2055524920717565727920666f722060008201527f6e6f6e6578697374656e7420746f6b656e000000000000000000000000000000602082015250565b7f4552433732313a20617070726f76656420717565727920666f72206e6f6e657860008201527f697374656e7420746f6b656e0000000000000000000000000000000000000000602082015250565b7f4552433732314d657461646174613a2055524920717565727920666f72206e6f60008201527f6e6578697374656e7420746f6b656e0000000000000000000000000000000000602082015250565b7f4552433732313a20617070726f76616c20746f2063757272656e74206f776e6560008201527f7200000000000000000000000000000000000000000000000000000000000000602082015250565b7f4552433732313a207472616e736665722063616c6c6572206973206e6f74206f60008201527f776e6572206e6f7220617070726f766564000000000000000000000000000000602082015250565b7f486f74656c206e6f7420696e2072656769737472790000000000000000000000600082015250565b61306c81612970565b811461307757600080fd5b50565b61308381612982565b811461308e57600080fd5b50565b61309a8161298e565b81146130a557600080fd5b50565b6130b1816129da565b81146130bc57600080fd5b5056fea264697066735822122046cb4753a9530d2962c6dba160b94f0afb103096aad2f67e2970ab06de7ddfa564736f6c63430008040033",
  "linkReferences": {},
  "deployedLinkReferences": {}
}