{
  "_format": "hh-sol-artifact-1",
  "contractName": "NFTIssuer",
  "sourceName": "contracts/NFTIssuer.sol",
  "abi": [
    {
      "inputs": [
        {
          "internalType": "address",
          "name": "_hotelRegistryAddress",
          "type": "address"
        }
      ],
      "stateMutability": "nonpayable",
      "type": "constructor"
    },
    {
      "anonymous": false,
      "inputs": [
        {
          "indexed": true,
          "internalType": "address",
          "name": "owner",
          "type": "address"
        },
        {
          "indexed": true,
          "internalType": "address",
          "name": "approved",
          "type": "address"
        },
        {
          "indexed": true,
          "internalType": "uint256",
          "name": "tokenId",
          "type": "uint256"
        }
      ],
      "name": "Approval",
      "type": "event"
    },
    {
      "anonymous": false,
      "inputs": [
        {
          "indexed": true,
          "internalType": "address",
          "name": "owner",
          "type": "address"
        },
        {
          "indexed": true,
          "internalType": "address",
          "name": "operator",
          "type": "address"
        },
        {
          "indexed": false,
          "internalType": "bool",
          "name": "approved",
          "type": "bool"
        }
      ],
      "name": "ApprovalForAll",
      "type": "event"
    },
    {
      "anonymous": false,
      "inputs": [
        {
          "indexed": false,
          "internalType": "uint256",
          "name": "tokenId",
          "type": "uint256"
        }
      ],
      "name": "NFTMinted",
      "type": "event"
    },
    {
      "anonymous": false,
      "inputs": [
        {
          "indexed": true,
          "internalType": "address",
          "name": "from",
          "type": "address"
        },
        {
          "indexed": true,
          "internalType": "address",
          "name": "to",
          "type": "address"
        },
        {
          "indexed": true,
          "internalType": "uint256",
          "name": "tokenId",
          "type": "uint256"
        }
      ],
      "name": "Transfer",
      "type": "event"
    },
    {
      "inputs": [
        {
          "internalType": "address",
          "name": "to",
          "type": "address"
        },
        {
          "internalType": "uint256",
          "name": "tokenId",
          "type": "uint256"
        }
      ],
      "name": "approve",
      "outputs": [],
      "stateMutability": "nonpayable",
      "type": "function"
    },
    {
      "inputs": [
        {
          "internalType": "address",
          "name": "owner",
          "type": "address"
        }
      ],
      "name": "balanceOf",
      "outputs": [
        {
          "internalType": "uint256",
          "name": "",
          "type": "uint256"
        }
      ],
      "stateMutability": "view",
      "type": "function"
    },
    {
      "inputs": [
        {
          "internalType": "uint256",
          "name": "tokenId",
          "type": "uint256"
        }
      ],
      "name": "getApproved",
      "outputs": [
        {
          "internalType": "address",
          "name": "",
          "type": "address"
        }
      ],
      "stateMutability": "view",
      "type": "function"
    },
    {
      "inputs": [
        {
          "internalType": "uint256",
          "name": "tokenId",
          "type": "uint256"
        }
      ],
      "name": "getMetadata",
      "outputs": [
        {
          "components": [
            {
              "internalType": "string",
              "name": "hotelName",
              "type": "string"
            },
            {
              "internalType": "address",
              "name": "hotelAddress",
              "type": "address"
            },
            {
              "internalType": "uint256",
              "name": "dateStart",
              "type": "uint256"
            },
            {
              "internalType": "uint256",
              "name": "numberOfNights",
              "type": "uint256"
            },
            {
              "internalType": "address",
              "name": "travellerAddress",
              "type": "address"
            }
          ],
          "internalType": "struct NFTIssuer.BookingInfo",
          "name": "",
          "type": "tuple"
        }
      ],
      "stateMutability": "view",
      "type": "function"
    },
    {
      "inputs": [
        {
          "internalType": "address",
          "name": "owner",
          "type": "address"
        },
        {
          "internalType": "address",
          "name": "operator",
          "type": "address"
        }
      ],
      "name": "isApprovedForAll",
      "outputs": [
        {
          "internalType": "bool",
          "name": "",
          "type": "bool"
        }
      ],
      "stateMutability": "view",
      "type": "function"
    },
    {
      "inputs": [
        {
          "internalType": "uint256",
          "name": "",
          "type": "uint256"
        }
      ],
      "name": "metadata",
      "outputs": [
        {
          "internalType": "string",
          "name": "hotelName",
          "type": "string"
        },
        {
          "internalType": "address",
          "name": "hotelAddress",
          "type": "address"
        },
        {
          "internalType": "uint256",
          "name": "dateStart",
          "type": "uint256"
        },
        {
          "internalType": "uint256",
          "name": "numberOfNights",
          "type": "uint256"
        },
        {
          "internalType": "address",
          "name": "travellerAddress",
          "type": "address"
        }
      ],
      "stateMutability": "view",
      "type": "function"
    },
    {
      "inputs": [
        {
          "internalType": "address",
          "name": "travelEscrowAddress",
          "type": "address"
        }
      ],
      "name": "mintBookingNFT",
      "outputs": [],
      "stateMutability": "nonpayable",
      "type": "function"
    },
    {
      "inputs": [],
      "name": "name",
      "outputs": [
        {
          "internalType": "string",
          "name": "",
          "type": "string"
        }
      ],
      "stateMutability": "view",
      "type": "function"
    },
    {
      "inputs": [
        {
          "internalType": "uint256",
          "name": "tokenId",
          "type": "uint256"
        }
      ],
      "name": "ownerOf",
      "outputs": [
        {
          "internalType": "address",
          "name": "",
          "type": "address"
        }
      ],
      "stateMutability": "view",
      "type": "function"
    },
    {
      "inputs": [
        {
          "internalType": "address",
          "name": "from",
          "type": "address"
        },
        {
          "internalType": "address",
          "name": "to",
          "type": "address"
        },
        {
          "internalType": "uint256",
          "name": "tokenId",
          "type": "uint256"
        }
      ],
      "name": "safeTransferFrom",
      "outputs": [],
      "stateMutability": "nonpayable",
      "type": "function"
    },
    {
      "inputs": [
        {
          "internalType": "address",
          "name": "from",
          "type": "address"
        },
        {
          "internalType": "address",
          "name": "to",
          "type": "address"
        },
        {
          "internalType": "uint256",
          "name": "tokenId",
          "type": "uint256"
        },
        {
          "internalType": "bytes",
          "name": "_data",
          "type": "bytes"
        }
      ],
      "name": "safeTransferFrom",
      "outputs": [],
      "stateMutability": "nonpayable",
      "type": "function"
    },
    {
      "inputs": [
        {
          "internalType": "address",
          "name": "operator",
          "type": "address"
        },
        {
          "internalType": "bool",
          "name": "approved",
          "type": "bool"
        }
      ],
      "name": "setApprovalForAll",
      "outputs": [],
      "stateMutability": "nonpayable",
      "type": "function"
    },
    {
      "inputs": [
        {
          "internalType": "address",
          "name": "hotelRegistryAddressNew",
          "type": "address"
        }
      ],
      "name": "setHotelRegistry",
      "outputs": [],
      "stateMutability": "nonpayable",
      "type": "function"
    },
    {
      "inputs": [
        {
          "internalType": "bytes4",
          "name": "interfaceId",
          "type": "bytes4"
        }
      ],
      "name": "supportsInterface",
      "outputs": [
        {
          "internalType": "bool",
          "name": "",
          "type": "bool"
        }
      ],
      "stateMutability": "view",
      "type": "function"
    },
    {
      "inputs": [],
      "name": "symbol",
      "outputs": [
        {
          "internalType": "string",
          "name": "",
          "type": "string"
        }
      ],
      "stateMutability": "view",
      "type": "function"
    },
    {
      "inputs": [
        {
          "internalType": "uint256",
          "name": "tokenId",
          "type": "uint256"
        }
      ],
      "name": "tokenURI",
      "outputs": [
        {
          "internalType": "string",
          "name": "",
          "type": "string"
        }
      ],
      "stateMutability": "view",
      "type": "function"
    },
    {
      "inputs": [
        {
          "internalType": "address",
          "name": "from",
          "type": "address"
        },
        {
          "internalType": "address",
          "name": "to",
          "type": "address"
        },
        {
          "internalType": "uint256",
          "name": "tokenId",
          "type": "uint256"
        }
      ],
      "name": "transferFrom",
      "outputs": [],
      "stateMutability": "nonpayable",
      "type": "function"
    }
  ],
  "bytecode": "0x60806040523480156200001157600080fd5b5060405162003bdc38038062003bdc8339818101604052810190620000379190620002ca565b6040518060400160405280600a81526020017f5649534954455f4e4654000000000000000000000000000000000000000000008152506040518060400160405280600481526020017f564e4654000000000000000000000000000000000000000000000000000000008152508160009080519060200190620000bb929190620001b0565b508060019080519060200190620000d4929190620001b0565b50505080600760006101000a81548173ffffffffffffffffffffffffffffffffffffffff021916908373ffffffffffffffffffffffffffffffffffffffff160217905550600760009054906101000a900473ffffffffffffffffffffffffffffffffffffffff1673ffffffffffffffffffffffffffffffffffffffff1663e8ce887a306040518263ffffffff1660e01b81526004016200017591906200030d565b600060405180830381600087803b1580156200019057600080fd5b505af1158015620001a5573d6000803e3d6000fd5b50505050506200038f565b828054620001be9062000359565b90600052602060002090601f016020900481019282620001e257600085556200022e565b82601f10620001fd57805160ff19168380011785556200022e565b828001600101855582156200022e579182015b828111156200022d57825182559160200191906001019062000210565b5b5090506200023d919062000241565b5090565b5b808211156200025c57600081600090555060010162000242565b5090565b600080fd5b600073ffffffffffffffffffffffffffffffffffffffff82169050919050565b6000620002928262000265565b9050919050565b620002a48162000285565b8114620002b057600080fd5b50565b600081519050620002c48162000299565b92915050565b600060208284031215620002e357620002e262000260565b5b6000620002f384828501620002b3565b91505092915050565b620003078162000285565b82525050565b6000602082019050620003246000830184620002fc565b92915050565b7f4e487b7100000000000000000000000000000000000000000000000000000000600052602260045260246000fd5b600060028204905060018216806200037257607f821691505b602082108114156200038957620003886200032a565b5b50919050565b61383d806200039f6000396000f3fe608060405234801561001057600080fd5b506004361061010b5760003560e01c806370a08231116100a2578063b88d4fde11610071578063b88d4fde146102c8578063c87b56dd146102e4578063d76e705b14610314578063e3684e3914610330578063e985e9c5146103645761010b565b806370a082311461022e57806395d89b411461025e578063a22cb4651461027c578063a574cea4146102985761010b565b806323b872dd116100de57806323b872dd146101aa57806342842e0e146101c65780636352211e146101e25780636a61d041146102125761010b565b806301ffc9a71461011057806306fdde0314610140578063081812fc1461015e578063095ea7b31461018e575b600080fd5b61012a60048036038101906101259190612210565b610394565b6040516101379190612258565b60405180910390f35b610148610476565b604051610155919061230c565b60405180910390f35b61017860048036038101906101739190612364565b610508565b60405161018591906123d2565b60405180910390f35b6101a860048036038101906101a39190612419565b61058d565b005b6101c460048036038101906101bf9190612459565b6106a5565b005b6101e060048036038101906101db9190612459565b610705565b005b6101fc60048036038101906101f79190612364565b610725565b60405161020991906123d2565b60405180910390f35b61022c600480360381019061022791906124ac565b6107d7565b005b610248600480360381019061024391906124ac565b610d19565b60405161025591906124e8565b60405180910390f35b610266610dd1565b604051610273919061230c565b60405180910390f35b6102966004803603810190610291919061252f565b610e63565b005b6102b260048036038101906102ad9190612364565b610e79565b6040516102bf919061264d565b60405180910390f35b6102e260048036038101906102dd91906127a4565b610ff8565b005b6102fe60048036038101906102f99190612364565b61105a565b60405161030b919061230c565b60405180910390f35b61032e600480360381019061032991906124ac565b6111ac565b005b61034a60048036038101906103459190612364565b6111f0565b60405161035b959493929190612827565b60405180910390f35b61037e60048036038101906103799190612881565b6112ee565b60405161038b9190612258565b60405180910390f35b60007f80ac58cd000000000000000000000000000000000000000000000000000000007bffffffffffffffffffffffffffffffffffffffffffffffffffffffff1916827bffffffffffffffffffffffffffffffffffffffffffffffffffffffff1916148061045f57507f5b5e139f000000000000000000000000000000000000000000000000000000007bffffffffffffffffffffffffffffffffffffffffffffffffffffffff1916827bffffffffffffffffffffffffffffffffffffffffffffffffffffffff1916145b8061046f575061046e82611382565b5b9050919050565b606060008054610485906128f0565b80601f01602080910402602001604051908101604052809291908181526020018280546104b1906128f0565b80156104fe5780601f106104d3576101008083540402835291602001916104fe565b820191906000526020600020905b8154815290600101906020018083116104e157829003601f168201915b5050505050905090565b6000610513826113ec565b610552576040517f08c379a000000000000000000000000000000000000000000000000000000000815260040161054990612994565b60405180910390fd5b6004600083815260200190815260200160002060009054906101000a900473ffffffffffffffffffffffffffffffffffffffff169050919050565b600061059882610725565b90508073ffffffffffffffffffffffffffffffffffffffff168373ffffffffffffffffffffffffffffffffffffffff161415610609576040517f08c379a000000000000000000000000000000000000000000000000000000000815260040161060090612a26565b60405180910390fd5b8073ffffffffffffffffffffffffffffffffffffffff16610628611458565b73ffffffffffffffffffffffffffffffffffffffff161480610657575061065681610651611458565b6112ee565b5b610696576040517f08c379a000000000000000000000000000000000000000000000000000000000815260040161068d90612ab8565b60405180910390fd5b6106a08383611460565b505050565b6106b66106b0611458565b82611519565b6106f5576040517f08c379a00000000000000000000000000000000000000000000000000000000081526004016106ec90612b4a565b60405180910390fd5b6107008383836115f7565b505050565b61072083838360405180602001604052806000815250610ff8565b505050565b6000806002600084815260200190815260200160002060009054906101000a900473ffffffffffffffffffffffffffffffffffffffff169050600073ffffffffffffffffffffffffffffffffffffffff168173ffffffffffffffffffffffffffffffffffffffff1614156107ce576040517f08c379a00000000000000000000000000000000000000000000000000000000081526004016107c590612bdc565b60405180910390fd5b80915050919050565b33600760009054906101000a900473ffffffffffffffffffffffffffffffffffffffff1673ffffffffffffffffffffffffffffffffffffffff1663c3c5a547826040518263ffffffff1660e01b815260040161083391906123d2565b602060405180830381600087803b15801561084d57600080fd5b505af1158015610861573d6000803e3d6000fd5b505050506040513d601f19601f820116820180604052508101906108859190612c11565b6108c4576040517f08c379a00000000000000000000000000000000000000000000000000000000081526004016108bb90612c8a565b60405180910390fd5b60008273ffffffffffffffffffffffffffffffffffffffff1663ab07cdf66040518163ffffffff1660e01b8152600401600060405180830381600087803b15801561090e57600080fd5b505af1158015610922573d6000803e3d6000fd5b505050506040513d6000823e3d601f19601f8201168201806040525081019061094b9190612d87565b905060008373ffffffffffffffffffffffffffffffffffffffff1663b9dd3b0c6040518163ffffffff1660e01b8152600401602060405180830381600087803b15801561099757600080fd5b505af11580156109ab573d6000803e3d6000fd5b505050506040513d601f19601f820116820180604052508101906109cf9190612de5565b905060008473ffffffffffffffffffffffffffffffffffffffff1663beae494b6040518163ffffffff1660e01b8152600401602060405180830381600087803b158015610a1b57600080fd5b505af1158015610a2f573d6000803e3d6000fd5b505050506040513d601f19601f82011682018060405250810190610a539190612de5565b905060008573ffffffffffffffffffffffffffffffffffffffff1663f3668b9d6040518163ffffffff1660e01b8152600401600060405180830381600087803b158015610a9f57600080fd5b505af1158015610ab3573d6000803e3d6000fd5b505050506040513d6000823e3d601f19601f82011682018060405250810190610adc9190612eb3565b9050600033905060005b8551811015610d0f576000868281518110610b0457610b03612efc565b5b60200260200101519050610b166120a6565b868160400181815250508581606001818152505083816020019073ffffffffffffffffffffffffffffffffffffffff16908173ffffffffffffffffffffffffffffffffffffffff168152505084816000018190525081816080019073ffffffffffffffffffffffffffffffffffffffff16908173ffffffffffffffffffffffffffffffffffffffff168152505060008585898986604051602001610bbe959493929190612fd0565b6040516020818303038152906040528051906020012060001c9050610be3838261185e565b81600860008381526020019081526020016000206000820151816000019080519060200190610c13929190612101565b5060208201518160010160006101000a81548173ffffffffffffffffffffffffffffffffffffffff021916908373ffffffffffffffffffffffffffffffffffffffff160217905550604082015181600201556060820151816003015560808201518160040160006101000a81548173ffffffffffffffffffffffffffffffffffffffff021916908373ffffffffffffffffffffffffffffffffffffffff160217905550905050610cc281611a38565b7fd9dc24857f317ed9abbbb42e920ede0104231eb1d3d70236a74887ffaf15986881604051610cf191906124e8565b60405180910390a15050508080610d079061305a565b915050610ae6565b5050505050505050565b60008073ffffffffffffffffffffffffffffffffffffffff168273ffffffffffffffffffffffffffffffffffffffff161415610d8a576040517f08c379a0000000000000000000000000000000000000000000000000000000008152600401610d8190613115565b60405180910390fd5b600360008373ffffffffffffffffffffffffffffffffffffffff1673ffffffffffffffffffffffffffffffffffffffff168152602001908152602001600020549050919050565b606060018054610de0906128f0565b80601f0160208091040260200160405190810160405280929190818152602001828054610e0c906128f0565b8015610e595780601f10610e2e57610100808354040283529160200191610e59565b820191906000526020600020905b815481529060010190602001808311610e3c57829003601f168201915b5050505050905090565b610e75610e6e611458565b8383611ad1565b5050565b610e816120a6565b600860008381526020019081526020016000206040518060a0016040529081600082018054610eaf906128f0565b80601f0160208091040260200160405190810160405280929190818152602001828054610edb906128f0565b8015610f285780601f10610efd57610100808354040283529160200191610f28565b820191906000526020600020905b815481529060010190602001808311610f0b57829003601f168201915b505050505081526020016001820160009054906101000a900473ffffffffffffffffffffffffffffffffffffffff1673ffffffffffffffffffffffffffffffffffffffff1673ffffffffffffffffffffffffffffffffffffffff16815260200160028201548152602001600382015481526020016004820160009054906101000a900473ffffffffffffffffffffffffffffffffffffffff1673ffffffffffffffffffffffffffffffffffffffff1673ffffffffffffffffffffffffffffffffffffffff16815250509050919050565b611009611003611458565b83611519565b611048576040517f08c379a000000000000000000000000000000000000000000000000000000000815260040161103f90612b4a565b60405180910390fd5b61105484848484611c3e565b50505050565b6060611065826113ec565b6110a4576040517f08c379a000000000000000000000000000000000000000000000000000000000815260040161109b906131a7565b60405180910390fd5b60006006600084815260200190815260200160002080546110c4906128f0565b80601f01602080910402602001604051908101604052809291908181526020018280546110f0906128f0565b801561113d5780601f106111125761010080835404028352916020019161113d565b820191906000526020600020905b81548152906001019060200180831161112057829003601f168201915b50505050509050600061114e611c9a565b90506000815114156111645781925050506111a7565b6000825111156111995780826040516020016111819291906131c7565b604051602081830303815290604052925050506111a7565b6111a284611cb1565b925050505b919050565b80600760006101000a81548173ffffffffffffffffffffffffffffffffffffffff021916908373ffffffffffffffffffffffffffffffffffffffff16021790555050565b6008602052806000526040600020600091509050806000018054611213906128f0565b80601f016020809104026020016040519081016040528092919081815260200182805461123f906128f0565b801561128c5780601f106112615761010080835404028352916020019161128c565b820191906000526020600020905b81548152906001019060200180831161126f57829003601f168201915b5050505050908060010160009054906101000a900473ffffffffffffffffffffffffffffffffffffffff16908060020154908060030154908060040160009054906101000a900473ffffffffffffffffffffffffffffffffffffffff16905085565b6000600560008473ffffffffffffffffffffffffffffffffffffffff1673ffffffffffffffffffffffffffffffffffffffff16815260200190815260200160002060008373ffffffffffffffffffffffffffffffffffffffff1673ffffffffffffffffffffffffffffffffffffffff16815260200190815260200160002060009054906101000a900460ff16905092915050565b60007f01ffc9a7000000000000000000000000000000000000000000000000000000007bffffffffffffffffffffffffffffffffffffffffffffffffffffffff1916827bffffffffffffffffffffffffffffffffffffffffffffffffffffffff1916149050919050565b60008073ffffffffffffffffffffffffffffffffffffffff166002600084815260200190815260200160002060009054906101000a900473ffffffffffffffffffffffffffffffffffffffff1673ffffffffffffffffffffffffffffffffffffffff1614159050919050565b600033905090565b816004600083815260200190815260200160002060006101000a81548173ffffffffffffffffffffffffffffffffffffffff021916908373ffffffffffffffffffffffffffffffffffffffff160217905550808273ffffffffffffffffffffffffffffffffffffffff166114d383610725565b73ffffffffffffffffffffffffffffffffffffffff167f8c5be1e5ebec7d5bd14f71427d1e84f3dd0314c0f7b2291e5b200ac8c7c3b92560405160405180910390a45050565b6000611524826113ec565b611563576040517f08c379a000000000000000000000000000000000000000000000000000000000815260040161155a9061325d565b60405180910390fd5b600061156e83610725565b90508073ffffffffffffffffffffffffffffffffffffffff168473ffffffffffffffffffffffffffffffffffffffff1614806115b057506115af81856112ee565b5b806115ee57508373ffffffffffffffffffffffffffffffffffffffff166115d684610508565b73ffffffffffffffffffffffffffffffffffffffff16145b91505092915050565b8273ffffffffffffffffffffffffffffffffffffffff1661161782610725565b73ffffffffffffffffffffffffffffffffffffffff161461166d576040517f08c379a0000000000000000000000000000000000000000000000000000000008152600401611664906132ef565b60405180910390fd5b600073ffffffffffffffffffffffffffffffffffffffff168273ffffffffffffffffffffffffffffffffffffffff1614156116dd576040517f08c379a00000000000000000000000000000000000000000000000000000000081526004016116d490613381565b60405180910390fd5b6116e8838383611d58565b6116f3600082611460565b6001600360008573ffffffffffffffffffffffffffffffffffffffff1673ffffffffffffffffffffffffffffffffffffffff168152602001908152602001600020600082825461174391906133a1565b925050819055506001600360008473ffffffffffffffffffffffffffffffffffffffff1673ffffffffffffffffffffffffffffffffffffffff168152602001908152602001600020600082825461179a91906133d5565b92505081905550816002600083815260200190815260200160002060006101000a81548173ffffffffffffffffffffffffffffffffffffffff021916908373ffffffffffffffffffffffffffffffffffffffff160217905550808273ffffffffffffffffffffffffffffffffffffffff168473ffffffffffffffffffffffffffffffffffffffff167fddf252ad1be2c89b69c2b068fc378daa952ba7f163c4a11628f55a4df523b3ef60405160405180910390a4611859838383611d5d565b505050565b600073ffffffffffffffffffffffffffffffffffffffff168273ffffffffffffffffffffffffffffffffffffffff1614156118ce576040517f08c379a00000000000000000000000000000000000000000000000000000000081526004016118c590613477565b60405180910390fd5b6118d7816113ec565b15611917576040517f08c379a000000000000000000000000000000000000000000000000000000000815260040161190e906134e3565b60405180910390fd5b61192360008383611d58565b6001600360008473ffffffffffffffffffffffffffffffffffffffff1673ffffffffffffffffffffffffffffffffffffffff168152602001908152602001600020600082825461197391906133d5565b92505081905550816002600083815260200190815260200160002060006101000a81548173ffffffffffffffffffffffffffffffffffffffff021916908373ffffffffffffffffffffffffffffffffffffffff160217905550808273ffffffffffffffffffffffffffffffffffffffff16600073ffffffffffffffffffffffffffffffffffffffff167fddf252ad1be2c89b69c2b068fc378daa952ba7f163c4a11628f55a4df523b3ef60405160405180910390a4611a3460008383611d5d565b5050565b611ace81604051602401611a4c91906124e8565b6040516020818303038152906040527ff5b1bba9000000000000000000000000000000000000000000000000000000007bffffffffffffffffffffffffffffffffffffffffffffffffffffffff19166020820180517bffffffffffffffffffffffffffffffffffffffffffffffffffffffff8381831617835250505050611d62565b50565b8173ffffffffffffffffffffffffffffffffffffffff168373ffffffffffffffffffffffffffffffffffffffff161415611b40576040517f08c379a0000000000000000000000000000000000000000000000000000000008152600401611b379061354f565b60405180910390fd5b80600560008573ffffffffffffffffffffffffffffffffffffffff1673ffffffffffffffffffffffffffffffffffffffff16815260200190815260200160002060008473ffffffffffffffffffffffffffffffffffffffff1673ffffffffffffffffffffffffffffffffffffffff16815260200190815260200160002060006101000a81548160ff0219169083151502179055508173ffffffffffffffffffffffffffffffffffffffff168373ffffffffffffffffffffffffffffffffffffffff167f17307eab39ab6107e8899845ad3d59bd9653f200f220920489ca2b5937696c3183604051611c319190612258565b60405180910390a3505050565b611c498484846115f7565b611c5584848484611d8b565b611c94576040517f08c379a0000000000000000000000000000000000000000000000000000000008152600401611c8b906135e1565b60405180910390fd5b50505050565b606060405180602001604052806000815250905090565b6060611cbc826113ec565b611cfb576040517f08c379a0000000000000000000000000000000000000000000000000000000008152600401611cf290613673565b60405180910390fd5b6000611d05611c9a565b90506000815111611d255760405180602001604052806000815250611d50565b80611d2f84611f22565b604051602001611d409291906131c7565b6040516020818303038152906040525b915050919050565b505050565b505050565b60008151905060006a636f6e736f6c652e6c6f679050602083016000808483855afa5050505050565b6000611dac8473ffffffffffffffffffffffffffffffffffffffff16612083565b15611f15578373ffffffffffffffffffffffffffffffffffffffff1663150b7a02611dd5611458565b8786866040518563ffffffff1660e01b8152600401611df794939291906136e8565b602060405180830381600087803b158015611e1157600080fd5b505af1925050508015611e4257506040513d601f19601f82011682018060405250810190611e3f9190613749565b60015b611ec5573d8060008114611e72576040519150601f19603f3d011682016040523d82523d6000602084013e611e77565b606091505b50600081511415611ebd576040517f08c379a0000000000000000000000000000000000000000000000000000000008152600401611eb4906135e1565b60405180910390fd5b805181602001fd5b63150b7a0260e01b7bffffffffffffffffffffffffffffffffffffffffffffffffffffffff1916817bffffffffffffffffffffffffffffffffffffffffffffffffffffffff191614915050611f1a565b600190505b949350505050565b60606000821415611f6a576040518060400160405280600181526020017f3000000000000000000000000000000000000000000000000000000000000000815250905061207e565b600082905060005b60008214611f9c578080611f859061305a565b915050600a82611f9591906137a5565b9150611f72565b60008167ffffffffffffffff811115611fb857611fb7612679565b5b6040519080825280601f01601f191660200182016040528015611fea5781602001600182028036833780820191505090505b5090505b600085146120775760018261200391906133a1565b9150600a8561201291906137d6565b603061201e91906133d5565b60f81b81838151811061203457612033612efc565b5b60200101907effffffffffffffffffffffffffffffffffffffffffffffffffffffffffffff1916908160001a905350600a8561207091906137a5565b9450611fee565b8093505050505b919050565b6000808273ffffffffffffffffffffffffffffffffffffffff163b119050919050565b6040518060a0016040528060608152602001600073ffffffffffffffffffffffffffffffffffffffff1681526020016000815260200160008152602001600073ffffffffffffffffffffffffffffffffffffffff1681525090565b82805461210d906128f0565b90600052602060002090601f01602090048101928261212f5760008555612176565b82601f1061214857805160ff1916838001178555612176565b82800160010185558215612176579182015b8281111561217557825182559160200191906001019061215a565b5b5090506121839190612187565b5090565b5b808211156121a0576000816000905550600101612188565b5090565b6000604051905090565b600080fd5b600080fd5b60007fffffffff0000000000000000000000000000000000000000000000000000000082169050919050565b6121ed816121b8565b81146121f857600080fd5b50565b60008135905061220a816121e4565b92915050565b600060208284031215612226576122256121ae565b5b6000612234848285016121fb565b91505092915050565b60008115159050919050565b6122528161223d565b82525050565b600060208201905061226d6000830184612249565b92915050565b600081519050919050565b600082825260208201905092915050565b60005b838110156122ad578082015181840152602081019050612292565b838111156122bc576000848401525b50505050565b6000601f19601f8301169050919050565b60006122de82612273565b6122e8818561227e565b93506122f881856020860161228f565b612301816122c2565b840191505092915050565b6000602082019050818103600083015261232681846122d3565b905092915050565b6000819050919050565b6123418161232e565b811461234c57600080fd5b50565b60008135905061235e81612338565b92915050565b60006020828403121561237a576123796121ae565b5b60006123888482850161234f565b91505092915050565b600073ffffffffffffffffffffffffffffffffffffffff82169050919050565b60006123bc82612391565b9050919050565b6123cc816123b1565b82525050565b60006020820190506123e760008301846123c3565b92915050565b6123f6816123b1565b811461240157600080fd5b50565b600081359050612413816123ed565b92915050565b600080604083850312156124305761242f6121ae565b5b600061243e85828601612404565b925050602061244f8582860161234f565b9150509250929050565b600080600060608486031215612472576124716121ae565b5b600061248086828701612404565b935050602061249186828701612404565b92505060406124a28682870161234f565b9150509250925092565b6000602082840312156124c2576124c16121ae565b5b60006124d084828501612404565b91505092915050565b6124e28161232e565b82525050565b60006020820190506124fd60008301846124d9565b92915050565b61250c8161223d565b811461251757600080fd5b50565b60008135905061252981612503565b92915050565b60008060408385031215612546576125456121ae565b5b600061255485828601612404565b92505060206125658582860161251a565b9150509250929050565b600082825260208201905092915050565b600061258b82612273565b612595818561256f565b93506125a581856020860161228f565b6125ae816122c2565b840191505092915050565b6125c2816123b1565b82525050565b6125d18161232e565b82525050565b600060a08301600083015184820360008601526125f48282612580565b915050602083015161260960208601826125b9565b50604083015161261c60408601826125c8565b50606083015161262f60608601826125c8565b50608083015161264260808601826125b9565b508091505092915050565b6000602082019050818103600083015261266781846125d7565b905092915050565b600080fd5b600080fd5b7f4e487b7100000000000000000000000000000000000000000000000000000000600052604160045260246000fd5b6126b1826122c2565b810181811067ffffffffffffffff821117156126d0576126cf612679565b5b80604052505050565b60006126e36121a4565b90506126ef82826126a8565b919050565b600067ffffffffffffffff82111561270f5761270e612679565b5b612718826122c2565b9050602081019050919050565b82818337600083830152505050565b6000612747612742846126f4565b6126d9565b90508281526020810184848401111561276357612762612674565b5b61276e848285612725565b509392505050565b600082601f83011261278b5761278a61266f565b5b813561279b848260208601612734565b91505092915050565b600080600080608085870312156127be576127bd6121ae565b5b60006127cc87828801612404565b94505060206127dd87828801612404565b93505060406127ee8782880161234f565b925050606085013567ffffffffffffffff81111561280f5761280e6121b3565b5b61281b87828801612776565b91505092959194509250565b600060a082019050818103600083015261284181886122d3565b905061285060208301876123c3565b61285d60408301866124d9565b61286a60608301856124d9565b61287760808301846123c3565b9695505050505050565b60008060408385031215612898576128976121ae565b5b60006128a685828601612404565b92505060206128b785828601612404565b9150509250929050565b7f4e487b7100000000000000000000000000000000000000000000000000000000600052602260045260246000fd5b6000600282049050600182168061290857607f821691505b6020821081141561291c5761291b6128c1565b5b50919050565b7f4552433732313a20617070726f76656420717565727920666f72206e6f6e657860008201527f697374656e7420746f6b656e0000000000000000000000000000000000000000602082015250565b600061297e602c8361227e565b915061298982612922565b604082019050919050565b600060208201905081810360008301526129ad81612971565b9050919050565b7f4552433732313a20617070726f76616c20746f2063757272656e74206f776e6560008201527f7200000000000000000000000000000000000000000000000000000000000000602082015250565b6000612a1060218361227e565b9150612a1b826129b4565b604082019050919050565b60006020820190508181036000830152612a3f81612a03565b9050919050565b7f4552433732313a20617070726f76652063616c6c6572206973206e6f74206f7760008201527f6e6572206e6f7220617070726f76656420666f7220616c6c0000000000000000602082015250565b6000612aa260388361227e565b9150612aad82612a46565b604082019050919050565b60006020820190508181036000830152612ad181612a95565b9050919050565b7f4552433732313a207472616e736665722063616c6c6572206973206e6f74206f60008201527f776e6572206e6f7220617070726f766564000000000000000000000000000000602082015250565b6000612b3460318361227e565b9150612b3f82612ad8565b604082019050919050565b60006020820190508181036000830152612b6381612b27565b9050919050565b7f4552433732313a206f776e657220717565727920666f72206e6f6e657869737460008201527f656e7420746f6b656e0000000000000000000000000000000000000000000000602082015250565b6000612bc660298361227e565b9150612bd182612b6a565b604082019050919050565b60006020820190508181036000830152612bf581612bb9565b9050919050565b600081519050612c0b81612503565b92915050565b600060208284031215612c2757612c266121ae565b5b6000612c3584828501612bfc565b91505092915050565b7f486f74656c206e6f7420696e2072656769737472790000000000000000000000600082015250565b6000612c7460158361227e565b9150612c7f82612c3e565b602082019050919050565b60006020820190508181036000830152612ca381612c67565b9050919050565b600067ffffffffffffffff821115612cc557612cc4612679565b5b602082029050602081019050919050565b600080fd5b600081519050612cea816123ed565b92915050565b6000612d03612cfe84612caa565b6126d9565b90508083825260208201905060208402830185811115612d2657612d25612cd6565b5b835b81811015612d4f5780612d3b8882612cdb565b845260208401935050602081019050612d28565b5050509392505050565b600082601f830112612d6e57612d6d61266f565b5b8151612d7e848260208601612cf0565b91505092915050565b600060208284031215612d9d57612d9c6121ae565b5b600082015167ffffffffffffffff811115612dbb57612dba6121b3565b5b612dc784828501612d59565b91505092915050565b600081519050612ddf81612338565b92915050565b600060208284031215612dfb57612dfa6121ae565b5b6000612e0984828501612dd0565b91505092915050565b600067ffffffffffffffff821115612e2d57612e2c612679565b5b612e36826122c2565b9050602081019050919050565b6000612e56612e5184612e12565b6126d9565b905082815260208101848484011115612e7257612e71612674565b5b612e7d84828561228f565b509392505050565b600082601f830112612e9a57612e9961266f565b5b8151612eaa848260208601612e43565b91505092915050565b600060208284031215612ec957612ec86121ae565b5b600082015167ffffffffffffffff811115612ee757612ee66121b3565b5b612ef384828501612e85565b91505092915050565b7f4e487b7100000000000000000000000000000000000000000000000000000000600052603260045260246000fd5b600081905092915050565b6000612f4182612273565b612f4b8185612f2b565b9350612f5b81856020860161228f565b80840191505092915050565b60008160601b9050919050565b6000612f7f82612f67565b9050919050565b6000612f9182612f74565b9050919050565b612fa9612fa4826123b1565b612f86565b82525050565b6000819050919050565b612fca612fc58261232e565b612faf565b82525050565b6000612fdc8288612f36565b9150612fe88287612f98565b601482019150612ff88286612fb9565b6020820191506130088285612fb9565b6020820191506130188284612f98565b6014820191508190509695505050505050565b7f4e487b7100000000000000000000000000000000000000000000000000000000600052601160045260246000fd5b60006130658261232e565b91507fffffffffffffffffffffffffffffffffffffffffffffffffffffffffffffffff8214156130985761309761302b565b5b600182019050919050565b7f4552433732313a2062616c616e636520717565727920666f7220746865207a6560008201527f726f206164647265737300000000000000000000000000000000000000000000602082015250565b60006130ff602a8361227e565b915061310a826130a3565b604082019050919050565b6000602082019050818103600083015261312e816130f2565b9050919050565b7f45524337323155524953746f726167653a2055524920717565727920666f722060008201527f6e6f6e6578697374656e7420746f6b656e000000000000000000000000000000602082015250565b600061319160318361227e565b915061319c82613135565b604082019050919050565b600060208201905081810360008301526131c081613184565b9050919050565b60006131d38285612f36565b91506131df8284612f36565b91508190509392505050565b7f4552433732313a206f70657261746f7220717565727920666f72206e6f6e657860008201527f697374656e7420746f6b656e0000000000000000000000000000000000000000602082015250565b6000613247602c8361227e565b9150613252826131eb565b604082019050919050565b600060208201905081810360008301526132768161323a565b9050919050565b7f4552433732313a207472616e736665722066726f6d20696e636f72726563742060008201527f6f776e6572000000000000000000000000000000000000000000000000000000602082015250565b60006132d960258361227e565b91506132e48261327d565b604082019050919050565b60006020820190508181036000830152613308816132cc565b9050919050565b7f4552433732313a207472616e7366657220746f20746865207a65726f2061646460008201527f7265737300000000000000000000000000000000000000000000000000000000602082015250565b600061336b60248361227e565b91506133768261330f565b604082019050919050565b6000602082019050818103600083015261339a8161335e565b9050919050565b60006133ac8261232e565b91506133b78361232e565b9250828210156133ca576133c961302b565b5b828203905092915050565b60006133e08261232e565b91506133eb8361232e565b9250827fffffffffffffffffffffffffffffffffffffffffffffffffffffffffffffffff038211156134205761341f61302b565b5b828201905092915050565b7f4552433732313a206d696e7420746f20746865207a65726f2061646472657373600082015250565b600061346160208361227e565b915061346c8261342b565b602082019050919050565b6000602082019050818103600083015261349081613454565b9050919050565b7f4552433732313a20746f6b656e20616c7265616479206d696e74656400000000600082015250565b60006134cd601c8361227e565b91506134d882613497565b602082019050919050565b600060208201905081810360008301526134fc816134c0565b9050919050565b7f4552433732313a20617070726f766520746f2063616c6c657200000000000000600082015250565b600061353960198361227e565b915061354482613503565b602082019050919050565b600060208201905081810360008301526135688161352c565b9050919050565b7f4552433732313a207472616e7366657220746f206e6f6e20455243373231526560008201527f63656976657220696d706c656d656e7465720000000000000000000000000000602082015250565b60006135cb60328361227e565b91506135d68261356f565b604082019050919050565b600060208201905081810360008301526135fa816135be565b9050919050565b7f4552433732314d657461646174613a2055524920717565727920666f72206e6f60008201527f6e6578697374656e7420746f6b656e0000000000000000000000000000000000602082015250565b600061365d602f8361227e565b915061366882613601565b604082019050919050565b6000602082019050818103600083015261368c81613650565b9050919050565b600081519050919050565b600082825260208201905092915050565b60006136ba82613693565b6136c4818561369e565b93506136d481856020860161228f565b6136dd816122c2565b840191505092915050565b60006080820190506136fd60008301876123c3565b61370a60208301866123c3565b61371760408301856124d9565b818103606083015261372981846136af565b905095945050505050565b600081519050613743816121e4565b92915050565b60006020828403121561375f5761375e6121ae565b5b600061376d84828501613734565b91505092915050565b7f4e487b7100000000000000000000000000000000000000000000000000000000600052601260045260246000fd5b60006137b08261232e565b91506137bb8361232e565b9250826137cb576137ca613776565b5b828204905092915050565b60006137e18261232e565b91506137ec8361232e565b9250826137fc576137fb613776565b5b82820690509291505056fea2646970667358221220a48f9aa5bae765e117cb2449620e51a3d25024843580e3c3d938063a9425c5d564736f6c63430008090033",
  "linkReferences": {},
  "deployedLinkReferences": {}
}